:020000040000FA
:06000000020A3C0201C5EA
:03002B0002088741
:030033000206A31F
:0300430002073C75
:030053000200F6B2
:03006B0002068901
:1000830002015A0101FF01010503010F10FEFFCC1C
:1000930012CC12CC12CC1288118211CC122F250053
:1000A3000000009125000000000C0000000C00017E
:1000B300FFFF414C442042726F61646361737400BB
:1000C3000102005A05000000CD0564000202000889
:1000D3000000050207051E02051E020A0A03B80BEB
:1000E30002803E0102F1FF141F00E0079651180041
:1000F300020206C0E074F21203DEA2AFE433FED2C2
:10010300AFE5A7FFE5A1F5085F54106006121A8852
:1001130075A1EFE5085F54086008121A8E75A1F700
:10012300802BEFA2E0C0D0E508A2E092F0120963B1
:10013300158182F05017906198E0F8900AABE0C304
:1001430098A2D265D0335002E8F075A1FEEEA2E08A
:1001530092AF7F0102043DC0E074F21203DEA2AF4E
:10016300E433FED2AF9061A4E0F8759B00E59158AB
:10017300540860087591F7121AD6802AE5915854ED
:100183001060087591EF121ADC801BE8A2E0C0D062
:10019300E591A2E092F0120963158182F05007E025
:1001A300C2E0F0121C209061A3E0F8E5E958540482
:1001B300600E121BF675E9FB906193E0A2E640F234
:1001C300808BC0E074F21203DEA2AFE433FED2AF41
:1001D3009061A5E0F8E5BF585404600675BFFB12B3
:1001E3001C38020150C3E498F8E499F912022980FB
:1001F30026C3E49AFAE49BFBE920E7E9120229E427
:1002030098F8E499F922C3E498F8E499F9120229D9
:10021300E498F8E499F9C3E49AFAE49BFB22EB200F
:10022300E7CFE920E7E0B90010BB0008E88AF084D3
:10023300F8AAF022E4FBC8FA22EB70227B10C83341
:10024300C8C933C9335007C39AC3DBF280069A5037
:10025300012ADBEAC833F4C8C933F4C9FA2275F0BA
:1002630008E4C833C8C933C933C99AC99B5004C900
:100273002AC93BD5F0ECFBC833F4C8E4C9FA220819
:100283000808EAC0E0EBC0E086F0E7A4FA180986A4
:10029300F0E7A42AFA180986F0E7A42AFA180986CF
:1002A300F0E7A42AFA1986F0E7A4FBE5F02AFA1985
:1002B3000886F0E7A42BFBE5F03AFA190886F0E785
:1002C300A42BFBE5F03AFA18180986F0E7A4C5F069
:1002D3002BFBE43AFA1908E7C5F0C6A426F6E5F0C5
:1002E3003BFBE43AFA1886F0E7A4F6E5F00826F6B5
:1002F300E43B08F6E43A08F6D0E0FBD0E0FA22E467
:10030300CFC0E0E4CEC0E0E4CDC0E0E4CCC0E07513
:10031300F020C3E633F608E633F608E633F608E6DC
:1003230033F6181818EC33FCED33FDEE33FEEF33E0
:10033300FFC3EC9709ED9709EE9709EF9719191980
:10034300400FFFEC97FC09ED97FD09EE97FE191995
:1003530006D5F0BEECF709EDF709EEF709EFF7194B
:100363001919D0E0FCD0E0FDD0E0FED0E0FF22255B
:1003730018C582C0E0E51934FFC583C0E0E518C3A2
:10038300958224F810AF0885831985821880088523
:100393008319858218D2AFCEF0A3E520F0A37808A5
:1003A300E608F0A3DEFAEFF0A3E58124FAF8E60805
:1003B300F0A3E608F0A3E608F0A30808E608F0A314
:1003C300E608F0A315811581D0E0FED0E0F8158191
:1003D30015811581E8C0E0EEC0E022C0D02518C524
:1003E30082C0E0E51934FFC583C0E0E518C39582F8
:1003F30024F310AF08858319858218800885831933
:10040300858218D2AFC8F0A3E9F0A3EAF0A3EBF01A
:10041300A37908E709F0A3D8FAECF0A3EDF0A3EE73
:10042300F0A3EFF0A3D0E0F0A3D0E0F0A3D0E0F08E
:10043300A3E520F0A3E5F0F0A322851983851882B4
:10044300E0C0E0A3E0F9A3E0FAA3E0FBA37808E0AF
:10045300F608A3DFFAE0FCA3E0FDA3E0FEA3E0FFC0
:10046300A3E0C0E0A3E0C0E0A3E0F5D0A3E0F52063
:10047300A3E0A3F5F010AF088583198582188008DF
:10048300858319858218D2AFD082D083D0E0F8D08B
:10049300E032120A9EB900030204D7E49003017804
:1004A30072790E8002F0A3D8FCD9FA901072AA8256
:1004B300AB83900086787179018015E493A3AC82B5
:1004C300AD838A828B83F0A3AA82AB838C828D83D4
:1004D300D8E9D9E77582DA7583DA74031207FF75F1
:1004E30082CC75831E74001207FF15000975F01086
:1004F3008E1A8F1B85821F85831E8518828519831B
:10050300E0CEA3E0CF851F82851E83EBC9EAC8ED49
:10051300CBECCAC3E833C8E933C9EA33CAEB33CBFC
:10052300C3EA9EF51DEB9FF51CB35004AB1CAA1D3B
:10053300EC33CCED33CDD5F0DAAE1AAF1B22D0833A
:10054300D082ECC0E0EDC0E0E493A3FCE493A3FD10
:10055300ED4C600D120619EC24FFFCED34FFFD8019
:10056300EFE493A3FCE493A3FDED4C600D1206E7C7
:10057300EC24FFFCED34FFFD80EFD0E0FDD0E0FC88
:10058300E493A3C0E0E493C0E02285198385188235
:10059300E0A3FEE0A3F5207808E0A3F608DFFAE085
:1005A300A3FFE0A3C0E0E0A3C0E0E0A3C0E0E0A3BA
:1005B300C0E0E0A3C0E010AF0885821885831980EE
:1005C30008858218858319D2AFD083D082020805AB
:1005D300D083D082E9C0E0E493A3C386F0C5F0954D
:1005E300F0F908E493A386F0C5F095F0700BE4935B
:1005F300A3C3994005E9048002A3E475F002A4258E
:1006030082F582E5F03583F583D0E0F9E493A3C066
:10061300E0E493C0E022C0E0C3E49396087401933E
:100623009618400FE4936670080874019366187077
:10063300007019A3A3C3E49396087401939618A3B7
:10064300A3400DD0E0D0E0D0E002057DA3A3A3A397
:10065300A3A3D0E0227404800474028000CCC0E021
:10066300EDC0E0E518C39CCCAD1950011D10AF06D9
:100673008C188D1980068C188D19D2AF120781D072
:10068300E0FDD0E0FC22C0E074F21203DEE589A2B3
:10069300E15003121938758900C2C57F0102043D78
:1006A300C0E074F21203DEE58BA2E05003121938A6
:1006B300758B00C2E880E474028000CCC0E0EDC01A
:1006C300E0E518C39CCCAD1950011D10AF068C1882
:1006D3008D1980068C188D19D2AF12075FD0E0FDFB
:1006E300D0E0FC22C0E0C0F088F0E4936670080814
:1006F30074019366187000A8F0A3A3700BD0F0D018
:10070300E0D0E0D0E002057DA3A3D0F0D0E022D07A
:1007130083D082CCC0E0E493A360061207C11470B7
:10072300FAE493A360061208D11470FAD0E0FCE453
:1007330093A3C0E0E493C0E022C0E074F21203DEAE
:10074300A2AFE433FED2AFC2C0E5D1A2E45003129C
:1007530019FEEEA2E092AF7F0102043DCAC0E0E4BD
:1007630093A3C582CCC582C583CDC583F0A3C582BF
:10077300CCC582C583CDC583DAE5D0E0CA22CAC021
:10078300E0E0A3C582CCC582C583CDC583F0A3C5F4
:1007930082CCC582C583CDC583DAE6D0E0CA227098
:1007A30009080808226016181818C6C333C608C6F5
:1007B30033C608C633C608C633C6D5E0EA22C0E04E
:1007C300E493A3D39C5010E493A3C39C400AD0E0CA
:1007D300D0E0D0E002072FA3A3A3D0E022C008C338
:1007E300E096F50808A3E096420808A3E0964208BD
:1007F30008A3E09645087001D3D00822C09FF59F57
:10080300E473D09F22D083D082C09FE493C0E0746E
:100813000193C0E0740293F59F222518F58210AF6F
:1008230008F518400215198008F51840021519D269
:10083300AF851983227404800A74038006740280CE
:10084300027401C0E0F40412081DD0E0120A7922F8
:10085300C0D0251810AF08F518500205198008F507
:100863001850020519D2AFD0D022BB0102E722C033
:1008730082C08389828A83BB0003E08002E493D031
:1008830083D08222C0E0C0D0E8C0E0E5A8D2AFC2E6
:10089300C7A2E792AFD0E0F8D0D0D0E0326016081C
:1008A3000808C6C313C618C613C618C613C618C687
:1008B30013C6D5E0EA22C3E0C696F608A3E0C696BF
:1008C300F608A3E0C696F608A3E0C696F622C0E0B3
:1008D300E493A36C7009D0E0D0E0D0E002072FA32B
:1008E300A3D0E022251810AF08F51840021519808F
:1008F30008F51840021519D2AF22E76670100809EF
:10090300E766700A0809E76670040809E76622E0EB
:1009130066701008A3E066700A08A3E06670040816
:10092300A3E06622C3E09608A3E09608A3E0960836
:10093300A3E096A2D265D03322C3E096F008A3E0E9
:1009430096F008A3E096F008A3E096F022E026F0E4
:1009530008A3E036F008A3E036F008A3E036F0225F
:10096300C0E0E8C0E0E58124FCF8E6A2E7D0E0F8C7
:10097300D0E022E647F60809E647F60809E647F617
:100983000809E647F622E026F608A3E036F608A3B0
:10099300E036F608A3E036F622E627F60809E6373E
:1009A300F60809E637F60809E637F622E657F608A9
:1009B30009E657F60809E657F60809E657F622E06E
:1009C30056F608A3E056F608A3E056F608A3E05649
:1009D300F622E056F008A3E056F008A3E056F0082C
:1009E300A3E056F022700422600D18C6C333C60874
:1009F300C633C6D5E0F41822E4C396F608E496F6A7
:100A030008E496F608E496F622C6F4C608C6F4C6C9
:100A130008C6F4C608C6F4C622C3E7960809E796D3
:100A23000809E7960809E79622C3E09608A3E0962B
:100A330008A3E09608A3E0962275D000758140755F
:100A4300180175190300020495E0F608A3E0F608FF
:100A5300A3E0F608A3E0F622600C08C6C313C61889
:100A6300C613C6D5E0F422E6F008A3E6F008A3E631
:100A7300F008A3E6F022CAC0E0E6F0A308DAFAD051
:100A8300E0FA22E0FAA3E0FBA3E0FCA3E0FD22EA04
:100A9300F0A3EBF0A3ECF0A3EDF022E5C754F84488
:100AA30001F5C77901222518F582E43519F583226A
:100AB300C2AF75D69F02000022120808D7DF0212C8
:100AC3000808B9E0021208080EE3021208085BE402
:100AD30002120808FEE40212080845E6021208089A
:100AE30063E60212080830280012080842280012A0
:100AF3000808942800120808F528001208087F291E
:100B030000120808232A00120808772A001208088E
:100B1300902A00120808B62A00120808F12A0012C7
:100B23000808352B001208085C2B00120808AD2BAF
:100B3300001208085D2C00120808152D0012080881
:100B4300DD2D001208089D2E00120808E12E001268
:100B53000808062F00120808492F00120808962FCC
:100B630000120808EE300012080874310012080859
:100B7300923100120808BC3100120808D631001265
:100B83000808E53100120808F03100120808B032F5
:100B930000120808093300120808CB3300120808B2
:100BA300D3330012080897340012080803350012E3
:100BB30008082E3600120808533600120808C936F2
:100BC300001208085B37001208081B3800120808D7
:100BD3003A38001208084939001208085B39001234
:100BE3000808CB3900120808F53900120808833ABF
:100BF30000120808BC3A00120808083B0012080853
:100C0300243C001208086D3E00120808783E0012CA
:100C13000808833E001208088E3E00120808983E1A
:100C230000120808A33E00120808BD3E001208087F
:100C3300C73E00120808D13E00120808DC3E00122D
:100C43000808043F001208085F3F00120808693FC4
:100C5300001208088D3F00120808B13F001208086F
:100C63000F40001208085340001208086F4000129A
:100C73000808E640001208081E41001208086A41ED
:100C830000120808C7410012080881420012080830
:100C9300654400120808BE4400120808EE4500121D
:100CA30008081446001208089D4700120808194B4B
:100CB30000120808EB4C00120808B44E0012080892
:100CC300614F00120808CC50001208086B51001243
:100CD3000808B051001208081A52001208082952D5
:100CE30000120808B05400120808625600120808DF
:100CF300CF5600120808AE5700120808C758001252
:100D03000808445A00120808635A00120808B85A1F
:100D130000120808BD5B00120808E55B0012080812
:100D23003D5C001208081C5D00120808605D00129B
:100D33000808AB5D00120808165E00120808575F2A
:100D430000120808BB5F00120808096100120808B6
:100D53006963001208089A630012080852650012BA
:100D63000808A76500120808AB6600120808486760
:100D730000120808A1670012080854680012080846
:100D8300F668001208089669001208083B6A001208
:100D930008083F86011208087E8601120808C588E4
:100DA300011208080F89011208082A8A011208088B
:100DB300928A01120808C78A011208083B8C0112A3
:100DC3000808BE8E01120808E78F011208087D90FB
:100DD300011208088599011208081A9A01120808D5
:100DE300019D01120808F49D01120808629E011278
:100DF3000808A89F011208088AA0011208086FA218
:100E03000112080880A401120808EAA401120808C4
:100E1300BCA501120808EAA501120808A7A6011239
:100E230008087EA70112080845A801120808E9A8C6
:100E33000112080812A90112080834A901120808AE
:100E43008AAB0112080862AC01120808A6AC0112B1
:100E530008080EAD01120808C6AD01120808F8AD66
:100E6300011208083CAE0112080872AE011208080C
:100E7300BEAE0112080813AF0112080818AF011221
:100E830008086BAF0112080890AF011208089FB061
:100E93000112080803B10112080873B1011208080E
:100EA300FFB101120808CCB401120808B0B5011251
:100EB300080833B70112080869B90112080817BAFC
:100EC30001120808C7BA0112080808BD0112080870
:100ED300ABBD01120808F2BD011208089EBF011242
:100EE3000808B2BF01120808BCBF01120808E4BF1A
:100EF30001120808F0BF011208080FC00112080808
:100F03002FC2011208087EC301120808C2C30112CE
:100F130008086AC4011208084DC501120808F8C57B
:100F23000112080844C70112080842C80112080840
:100F3300E8C80112080878C9011208088FC901120C
:100F43000808C6C901120808D0C901120808DBC97C
:100F530001120808F9C9011208083DCA011208085C
:100F63009ACA01120808BFCA01120808D9CA011295
:100F7300080865CB0112080882CC01120808EFCCDF
:100F830001120808D6CD01120808FDCD0112080888
:100F930071CE01120808ECCE01120808F0CF01123D
:100FA3000808E6D00112080895D101120808A8D252
:100FB3000112080844D301120808D1D3011208080A
:100FC300AFD401120808E7D4011208083FD5011273
:100FD300080808D60112080829D601120808B0D655
:100FE30001120808D4D601120808F6D6011208081F
:100FF3003FD70112080855D9011208083CDA01123B
:101003000808EDDA0112080823DD0112080873DD70
:1010130001120808B3DD01120808F5DD0112080802
:1010230051DE011208087FDE01120808A3DE011257
:101033000808F6DE0112080824DF011208085DDF44
:1010430001120808B2DF0112080818E001120808AB
:101053006CE1011208088FE301120808FCE3011296
:10106300080825E401120808B0E40112080817E58E
:101073000112080862E50112080886E50112080852
:10108300AAE50112080805E60112080820E6011284
:101093000808D9E6011208080182041208084082F0
:1010A30004120808788002120808BE800212080899
:1010B3009E8102120808A08202120808A38302126A
:1010C30008082F85021208088D85021208084A862F
:1010D30002120808688702120808D9870212080852
:1010E3001588021208086388021208086D88021224
:1010F3000808B188021208080D8902120808A88995
:1011030002120808258A02120808F48A0212080843
:101113008D8B02120808AD8B02120808E38B0212B2
:101123000808148C02120808D58C02120808E58CF2
:1011330002120808398D02120808548D0212080899
:10114300668D021208086F8D02120808C98D0212FB
:101153000808258E02120808718E021208088C8E68
:1011630002120808BD8E02120808DA8E021208085D
:10117300E68E021208085A900212080873900212AF
:101183000808DA9002120808ED9002120808FB9092
:1011930002120808AF91021208089392021208087B
:1011A3009993021208082394021208082D9402123C
:1011B30008089A9402120808B19402120808E394EA
:1011C300021208081C950212080846950212080824
:1011D300A79502120808C79502120808E59502129E
:1011E30008082B96021208085197021208089E97C6
:1011F30002120808CD970212080843980212080841
:101203006B9802120808A49802120808B2980212F6
:1012130008080A99021208085999021208089899AD
:1012230002120808C89902120808F4990212080861
:10123300FF99021208081D9A02120808DF9A021287
:101243000808E99A021208082A9B021208087F9BE1
:1012530002120808939B02120808A19C02120808B4
:10126300B49C02120808C99C021208086B9D021262
:101273000808EE9D02120808AC9E02120808B79EE9
:1012830002120808E39F02120808FF9F02120808CF
:1012930051A00212080890A002120808A5A0021289
:1012A300080807A10212080896A102120808E1A182
:1012B3000212080832A402120808B0A40212080895
:1012C30025A50212080847A7021208085FA7021201
:1012D300080862A7021208086EA70212080882A76C
:1012E300021208088AA702120808BDA702120808FA
:1012F3006DA802120808E3A80212080856A90212F0
:1013030008080AAA02120808BFAA02120808DEAADD
:101313000212080884AB02120808AFAB02120808D5
:10132300B2AB021208081CAC0212080844AD021248
:1013330008081CAE02120808A7AE02120808C0AFC4
:10134300021208087DB002120808B6B0021208089B
:10135300E7B002120808A5B102120808D5B10212BB
:101363000808B0B20212080849B302120808D4B33D
:101373000212080885B40212080808B50212080808
:101383003AB5021208087BB5021208088EF501125D
:101393000808F3F50112080830F6011208087FF671
:1013A3000112080895F80112080878FA01120808D2
:1013B300E2FD011208081DFE011208083FFE01129A
:1013C3000808A2FE01120808D6FE01120808F9FE59
:1013D3000112080826FF0112080882FF01120808FB
:1013E300B1F3021208082FF40212080865F402127E
:1013F3000808D1F40212080844F60212080860F63D
:1014030002120808A5F60212080833F702120808A8
:101413008CF70212080886D602120808CBF90212CA
:10142300080828FA0212080894FA02120808F5FAC2
:101433000212080836FB02120808E3FB021208082E
:10144300F5FC0212080820FD021208086BFD0212C7
:101453000808B2FD0212080844FE02120808FFFE43
:10146300021208084BE803120808C6E8031208082A
:10147300BBDF02120808F2E803120808FA99031204
:101483000808049A03120808509A03120808BE9A1F
:1014930003120808DF9A031208088F9B0312080837
:1014A300239E031208082C9E031208087F9E031232
:1014B3000808A89E031208080F9F03120808A09F9C
:1014C30003120808E29F031208082CA0031208085D
:1014D3008BA003120808B7A00312080848A103123F
:1014E300080887A103120808C6A103120808FBA174
:1014F300031208080DA2031208081FA2031208080A
:101503003EA20312080847A203120808FDA2031211
:1015130008083DA3031208080080041208086AF2B1
:1015230003120808A0F203120808E9F203120808DC
:1015330039F403120808876A00120808C66B001200
:101543000808026C00120808C16D00120808EA6D51
:10155300001208087D7000120808C1700012080804
:101563004A7200120808E272001208084A73001255
:101573000808EB73001208082D74001208086D7434
:1015830000120808F87500120808687700120808A6
:101593008D7900120808BB7900120808E27900125D
:1015A3000808EB7900120808727A00120808907D87
:1015B300001208081483041208082A830412080876
:1015C300B68104120808DAE103120808EDE10312F8
:1015D30008088AE203120808C5E203120808E0E2D9
:1015E3000312080805E3031208084AE30312080874
:1015F3007BE303120808ACE30312080832E5031285
:1016030008088FF903120808C5F903120808E1F95D
:101613000312080823FA0312080833FA031208080E
:10162300C8FA03120808D2FA031208083FE50312A6
:101633000808F4E503120808A4E603120808E9E61B
:101643000312080869E703120808D5E7031208081C
:101653008AE602120808DFE602120808C8E7021247
:10166300080861E802120808ABE80212080808E952
:10167300021208081CE9021208084EE902120808BF
:101683004CEA0212080890EA02120808ABEA0212B6
:101693000808FAEA0212080810EB021208081DEB08
:1016A3000212080851EB021208086AEB021208083A
:1016B30034EC021208088EEC02120808DCEC021269
:1016C3000808FEEC0212080875EF02120808AAEFD8
:1016D300021208083AF002120808AFF002120808D2
:1016E300B4F002120808F0F00212080846F10212E0
:1016F30008080AF2021208082FF20212080839F247
:10170300021208083CF202120808C5F20212080885
:10171300E0F202120808F3F2021208082EF3021292
:10172300080831F3021208083CF30212080878F3A0
:10173300021208086981041208088181041208084A
:1017430054B503120808A3B50312080845B70312DA
:10175300080803B9031208084BB9031208086DBA45
:10176300031208089EBB03120808C0BB0312080833
:101773001CBC031208089EBC031208080080031255
:101783000808218003120808AB800312080830817F
:1017930003120808AC810312080815820312080813
:1017A300618203120808E08203120808728303129D
:1017B3000808FE8303120808408403120808AC8853
:1017C300031208082C8A03120808028B0312080864
:1017D300318B031208081C8D031208089C8F031217
:1017E3000808559003120808729103120808C99457
:1017F30003120808D994031208083A96031208083A
:10180300C69603120808EF9703120808E09803121C
:10181300080862990312080813E701120808CDE7C4
:10182300011208083FE801120808DBE80112080862
:101833004BE90112080804EC01120808DBEC011261
:10184300080848ED01120808C5EE011208088FEFD9
:1018530001120808FFEF01120808C8F10112080875
:10186300DBF20112080874F3011208083AF40112BA
:101873000808B6D3031208080AD40312080862D46E
:1018830003120808ADD4031208080FD50312080881
:101893007BD5031208082ED6031208086FD603124D
:1018A300080885D603120808E1D6031208081FD7D3
:1018B300031208089CF403120808CDF40312080865
:1018C30087F503120808EDF50312080865DB031218
:1018D3000808F1DC03120808CFFF03120808E0FF31
:1018E3000312080876F60312080884F603120808A0
:1018F300528304120808D38004120808E3800412F8
:101903000808FE80041208085F81041208082DFEEF
:1019130003120808B2FE0312080816FF0312080890
:101923001BFD031208083DFD03120808A7FD03125F
:101933000808B2FD03120808F6FD03120808A2AC5A
:1019430003120808B0AC03120808F1AC031208082C
:1019530012AD031208088FAD031208088FAE0312ED
:101963000808B1AE031208081DAF0312080838AF08
:101973000312080853AF031208085DAF03120808E7
:1019830067AF031208087AAF0312080893AF031274
:1019930008082FB003120808EBB00312080862B15D
:1019A30003120808DCB10312080828B2031208085E
:1019B300CEB203120808AAB30312080850D70312C1
:1019C30008085ED703120808D8D703120808BCD842
:1019D3000312080875DA03120808F28204120808D1
:1019E300D2BC031208083EBD03120808FDBD031252
:1019F300080807BF0312080860C003120808BBC029
:101A03000312080810C10312080819C103120808B9
:101A13002BC10312080895C103120808A9C10312B8
:101A23000808B3C10312080884C603120808D9C6FC
:101A330003120808D5C80312080807C903120808C7
:101A430029C90312080842C9031208085BC9031213
:101A5300080865CA0312080800CB031208082EF809
:101A63000312080852F8031208086BF80312080857
:101A73009EF803120808CFF803120808FDF80312B2
:101A830008085FF9031208086EF90312080878F9C9
:101A93000312080885F90312080817EB0312080854
:101AA3003DEB031208087AEB0312080889EB0312D3
:101AB3000808A8EB0312080810EC0312080819EC35
:101AC3000312080878EC031208089CEC03120808B8
:101AD3005BED0312080868ED0312080879ED0312A1
:101AE30008088E8204120808AB820412080877CB18
:101AF30003120808D5CC03120808E2CC0312080825
:101B0300F5CC0312080814CD031208082ACD0312DA
:101B130008083ECD03120808B3CD0312080818CEF7
:101B230003120808C8CE031208089DCF0312080841
:101B3300ADCF03120808BCCF0312080836FF031207
:101B430008085AFF0312080882FF03120808AAFFB5
:101B530003120808A7ED03120808CEED03120808C4
:101B6300EFED0312080854EE031208080DF00312F8
:101B7300080826F00312080832F00312080846F09A
:101B83000312080864F0031208086EF00312080831
:101B930078F0031208088BF003120808DEF0031232
:101BA300080817F10312080846F10312080894F114
:101BB30003120808E3F103120808FEF103120808F0
:101BC30008F20312080819F2031208085FF203125D
:101BD300080876FF0212080866A30312080890A3F8
:101BE30003120808ACA303120808BFA303120808D2
:101BF300D5A30312080832A40312080865A403122C
:101C03000808A1A803120808C7A903120808FAA91B
:101C13000312080846AA0312080872AB0312080845
:101C23009AAB03120808AFAB03120808BFAB031249
:101C3300080803AC0312080864AC0312080874AC68
:101C430003120808D5FA03120808F0FA0312080869
:101C530019FB0312080833FB0312080858FB03128D
:101C6300080877FB031208088FFB03120808BDFB63
:101C730003120808D7FB031208084A820412080853
:101C83005ADE0312080861DE031208086DDF03122F
:101C930008089DDF03120808C3DF03120808E6DF04
:101CA3000312080808E00312080842E003120808B8
:101CB300A8E003120808E1E0031208082DE103126B
:101CC30008085AE1031208087AE103120808117E92
:101CD30000120808297E00120808177F001208085E
:101CE300F67F0012080808FC031208087AFC0312A6
:101CF3000808B8FC03120808F9FC03120808F5CF1A
:101D03000312080814D00312080863D0031208084A
:101D13007FD003120808B0D003120808BDD0031205
:101D23000808CAD003120808B6D103120808F4D170
:101D33000312080804D3031208080FD30312080878
:101D430021D3031208082AD30312080834D3031239
:101D53000808C7C1031208080CC6031208081AC6EC
:101D630003120808CEFF01120808C7FF0212080871
:101D7300CA8204120808348304120808DAD502124E
:101D8300080820D402120808D0D10212080857D13B
:101D930002120808FED0021208088ED002120808A8
:101DA30065D00212080845CE0212080811CE0212AD
:101DB3000808DECD02120808C2CD02120808DBCCE7
:101DC3000212080893CC02120808DECA021208089D
:101DD3005ECA021208085BCA0212080858C9021236
:101DE300080826C90212080863C8021208088EC62A
:101DF300021208081FC602120808F1C502120808D9
:101E03003FDF02120808F6DE02120808AEDE0212F5
:101E13000808FCDD021208086EDD02120808EEC590
:101E230002120808DBC50212080886C50212080858
:101E330061DD0212080875C50212080867C40212A0
:101E4300080831C402120808DFC3021208085BDA6B
:101E530002120808D1E80312080880C30212080816
:101E63004FC30212080817C002120808D7BF021294
:101E73000808CBBF021208082BBF021208086BBE6A
:101E830002120808EDBB021208087EB90212080804
:101E93003CB90212080810B802120808C5B70212AA
:101EA300080804B702120808D7B6021208081AB6BF
:101EB30002120808B0B502120808EAB502120808AF
:101EC300BDD702120808B9F80200000080FBE473D2
:101ED30000000000000000000000000000000000FF
:101EE30010101010101000003030000000142850A3
:101EF300000000000000000000000000002828FC93
:101F0300284850FC5050000000001038545430183A
:101F130014545438100000000044A8A8B0541A2ADE
:101F23002A44000000000020505060ACA898927C26
:101F3300000000606020C0000000000000000000FE
:101F43000004080810101010101008080400000006
:101F5300402010080408102040000000000000107A
:101F630010D63838D61010000000000000101010F2
:101F7300FE10101000000000000000000000000030
:101F83000000606020C0000000000000FC000000B2
:101F9300000000000000000000000000000060607E
:101FA3000000000204040408081010202020400050
:101FB300000000304884848484844830000000009A
:101FC3000010701010101010107C0000000000387A
:101FD300444404081020447C0000000000384444BA
:101FE300180404444438000000000808182848482E
:101FF300887C081C00000000007C404078440444B6
:10200300443800000000003C4480B8C484848478D1
:1020130000000000007C444808101010101000005D
:102023000000007884844878848484780000000069
:1020330000788484848C740488F00000000000001D
:1020430000303000000030300000000000000000CD
:102053001000000000101020000004081020402091
:102063001008040000000000000000FC0000FC0059
:102073000000000000004020100804081020400069
:1020830000000000788484840810100030300000C1
:1020930000000038449AAAAAAAB4423C00000000F7
:1020A300001010282828384444EE0000000000F8EF
:1020B30044447844444444F800000000003C448411
:1020C3008080808044380000000000F0484444448D
:1020D300444448F00000000000FC44404878484075
:1020E30044FC0000000000FC42404878484040E0C7
:1020F30000000000003C448480808E84443800004B
:10210300000000EE4444447C444444EE00000000DC
:10211300007C101010101010107C00000000007CD8
:10212300101010101010101090E0000000EE444842
:102133005070484844EE0000000000E0404040403A
:10214300404044FC0000000000EE6C6C6C5454549E
:1021530054D60000000000EE64645454544C4CE424
:1021630000000000003048848484848448300000E8
:10217300000000F844444478404040E00000000080
:1021830000304884848484B448380C00000000F88C
:1021930044447850484844E600000000003C444072
:1021A3002018040444780000000000FE9210101070
:1021B300101010380000000000EE4444444444442E
:1021C30044380000000000EE44442828282810105A
:1021D3000000000000D6545454546C2828280000F2
:1021E300000000EE44282810282844EE00000000D8
:1021F30000EE442828101010103800000000007C66
:1022030088081020204044FC0000001C101010100F
:102213001010101010101C0000701010101010106F
:10222300101010107000007010101010101010100B
:1022330010107000001028000000000000000000D3
:10224300000000000000000000000000000000FE8D
:1022530000606020C00000000000000000000000DB
:102263000000000038441C24443E0000000000C06D
:1022730040407844444444780000000000000000DB
:102283003C444040443800000000000C04043C443B
:102293004444443E000000000000000038447C40F9
:1022A300443800000000001C2420F820202020785F
:1022B30000000000000000003C48483040784438EB
:1022C300000000C040405864444444EE0000000055
:1022D3000010000070101010107C000000000008B7
:1022E30000003808080808080870000000C04040D3
:1022F3005C48507048EC0000000000701010101093
:102303001010107C0000000000000000F85454542A
:1023130054D60000000000000000D864444444EE9A
:10232300000000000000000038444444443800002A
:10233300000000000000F8444444447840E00000FA
:10234300000000003C444444443C040E00000000F0
:102353000000EC30202020F8000000000000000006
:102363003C443008447800000000000010107C104A
:102373001010100C0000000000000000CC44444486
:10238300443E0000000000000000EE44282828100E
:102393000000000000000000D65454542828000018
:1023A300000000000000DC48303048EC0000000072
:1023B30000000000EE442828101020E00000000078
:1023C30000007C481010247C000010101010101026
:1023D300101010101010101000013636010100010A
:1023E30002010001030100010401060605020000C9
:1023F300070100340801000F090401010D0100FF6A
:102403000E08000017020000190100FF1A01000165
:102413001B0100FE1C0100081D0200001F0100013A
:1024230020010001210200002301000F240200000B
:102433002601000127010008280200FF2A010007E6
:102443002B0102402C0100002D0100012E0100018F
:102453002F0100FF30010B1C310800003A01000876
:102463003B01000F2F010000010171010101010176
:10247300110101013101010101018001100161011B
:102483003B00140063017301720162014301000107
:10249300130106013D013500040112010001000191
:1024A3000001000104010401330133013C01440133
:1024B3003201360000010001650100013500810190
:1024C3000001050182018301000103027102300151
:1024D3006002110270020102020202028002100273
:1024E30061023A0041006302730272026202430214
:1024F300000213023800000200020402120200026A
:1025030000020002000204020402370037003C020A
:102513004402000239000002000265020002350293
:10252300810200020502820283020002030071009D
:10253300300160001100700031022003500480005C
:102543001000610000001400630073007200620059
:102553004300000013000600000000000400120006
:1025630000000000000000000400040037003700F2
:102573003C02440000000000000000006500000071
:102583003500810000000500000083000000010306
:102593007103010301030103010301032203020386
:1025A30001031003000300030003000300030003FF
:1025B3000003420300032403060300030003040390
:1025C3001203250323032503230304030403000346
:1025D3000003000344030003000323030003650314
:1025E30021003503810300030503000300030003F7
:1025F300030471040204600411047004020402045D
:102603000104020410046104000414046304730449
:102613007204620443040004130406040004000467
:1026230004041204000400040004000451046400C0
:102633000004000400044404000400040004000433
:102643006504000435048104640005040004830464
:102653000004C9EEDBDACAD0B0B2C1AAB5C2BFC6A4
:10266300BCBCD3C3BBA7B5C7C2BCD5CABAC5C3DC40
:10267300C2EBC8B7B6A8C8A1CFFBD7A8D2B5D7A815
:10268300D7A2CEDECFDFCDA8D1B6B3CFD0C5C1A2FE
:10269300D7E3B4B4D0C2D6C2D4B6C7BFB4F3D4ADB3
:1026A300A3BA0036000100060000000F000000007E
:1026B30000000000000000000003FFFF000004030F
:1026C300FFFF0000FFFF0FF4010005C40403200017
:1026D3000100030B000000000000000003010F00D5
:1026E3000030181300D0170100301802009A1703A6
:1026F30000A0170400A6170500AC170600B817FFC3
:10270300FF000001DA0D060A0E08040E0B160E1068
:10271300560D02E00D05F80D07E60D0CBC0D0DCEB0
:102723000DFF000003EAF5E5D5D5C5B5A59595855B
:102733008575756565555545453535252515150546
:10274300E2111212E811EE110C120012FA11181212
:102753001E1224123012F411DC11D61100160F00D0
:10276300000B150B020002220F32000006CC12DE12
:1027730012E412AC11EA12A611B211261344134A41
:10278300132C1338133213E610E0101C1122111608
:1027930011CE100C0E020B040B0A0708000F0038B1
:1027A3003C3E363B3B352B432C00011916181616BD
:1027B3001523030000034948424D1817250502302D
:1027C3003017181921301B1D1F30303016181920EF
:1027D300231A1C1E301A13F012F6120213FC1206EF
:1027E300122A123E1336123C1202040201010101A5
:1027F3000902F210F810EC1028110000000000008C
:10280300FE10101100BE040A0E0004007F00E8034E
:102813000C002800000000000308100C0A0308093C
:1028230000040001FF1E1E0C050408100FC082C027
:10283300838A828B83E0D2E7F01216FE0239A7C0A7
:1028430082C0837900122CFC125A13C082C0839079
:102853000334124799D083D082C3E09CA3E09D50F8
:102863000C1260E7FAA3E01228736001090239A78A
:10287300FBEA75F00BA4FAA8F075F00BEBA428FBA8
:10288300900336E02AF8A3E03B8882F583E0540FF7
:102893002274F71203728908122CFC122DA2ACF0D9
:1028A30075F00BE9A42CF9900336E028FEA3E03978
:1028B300FF7401650860067402650870208A828BC4
:1028C30083122D8E123A7574026508701B122C4DFB
:1028D300122DD570138E828F83E4F0800BEA2403CC
:1028E300FCEB122D70122D7CEEFAEFFB120AE602BE
:1028F30039DF74F4120372126A0E79008E828F83A9
:10290300E06076890A890B8065E50A75F00BA4FA05
:10291300A8F075F00BE50B1228807046E50A75F0F8
:102923000BA4F8AAF075F00BE50B122DB48E828F71
:1029330083E0850882850983122E9685088285099E
:1029430083A3123A75EE2403FCEF122D791239AEEC
:1029530012548DAA08AB09120AE6790190033412C6
:102963004EA2E50A2401F50AE50B3400F50B122CFF
:1029730055E50A9AE50B9B4090023C1F74F5120340
:1029830072EAFEEBFF740B120AA91239B3750A013E
:10299300EC4D602BEC126A2AED125A13123A6D7940
:1029A30001120AF2E5084509606F850882850983EB
:1029B300A3126A187902AA08AB09120AF2805AE52F
:1029C300084509602B125A171240E11239AF122D34
:1029D300BF700CEEFAEFFB120AF8E9F50A80CBEEB2
:1029E3002403FA122CF770317903EEFAEFFB80CA55
:1029F3008E828F83A3E064FE7003A3E0F4700BEE7A
:102A030024030A0A0A122CF7700CEEFAEFFB120ADF
:102A1300F8E9F50A8003750A00A90A7F0302058D08
:102A230074F71203729003341239EFEA4B602FEA02
:102A330075F00BA4FAA8F075F00BEBA428FBEAFEE3
:102A4300EBFF12152A9003361239EF900336124C1E
:102A5300E76012EEFCEFFD790012148E80079003FD
:102A630036E4F0A3F00239DF900334124451C3EE8D
:102A730098EF9922C082C083EC4D6005121CF88048
:102A8300097C087D00790012148E0239A774F612AE
:102A930003727900EA4B601878008808125D5AEBDC
:102AA3001260E360047901780808E8C3940840EAF7
:102AB300023A7E74F712037274F31208E7ECFEED28
:102AC300FF851882851983E4F004120AA9EAF0A3AA
:102AD300EB1252137403120AA9AC82AD83EEFAEF20
:102AE300FB120B0AEEFAEFFB120B100239DA74F742
:102AF30012037274F31208E7ECFEEDFF851882856A
:102B03001983E4F0EAFCEBFD7403120AA9122E8F79
:102B13007401120AA9123A698E828F83123A75746C
:102B2300FE68700374FF6960047901800279000212
:102B330039DA74F7120372EAFEEBFF122B93701467
:102B4300122B9E8E828F83E0F4F88A828B83E05867
:102B5300F0120AE6A9080239DF74F7120372EAFEDB
:102B6300EBFF7508008E828F83E06022122B937037
:102B73001D122B9E8A828B83E08F838E82F8E0580E
:102B8300700CE0F88A828B83E048F0120AE680C476
:102B9300120AECE9F5087401650822126A23122D62
:102BA300A6122CE8FAA3E039FB2274F41203728A0A
:102BB300088B097C007D00122C4D122D7C122D0DEB
:102BC300126A157900850882850983A3E064FE7083
:102BD30003A3E0F460717E007F008062EEFAEF12DF
:102BE30028736057EEFAEFFBEA75F00BA4FAA8F02E
:102BF30075F00BEBA428FB900336E02AF50AA3E05B
:102C03003BF50B850882850983A3125161850A82EE
:102C1300850B83A3E06A7003A3E06B701EE50A24AF
:102C230003FAE50B122CF8700AE50A2403FCE50B02
:102C3300122D79122D017901125A291235EC122C19
:102C430055EE9AEF9B4095023C1FEA24030A0A0AB9
:102C5300EB22900334125600C32274F31203728AD8
:102C6300088B098A828B83A3126A18122CFC126ABE
:102C730015750C00122C4D122CF870547E007F0039
:102C83008049122CDAFAA3E0398A82F583E0540FE3
:102C93006036122CDAF50AA3E039F50BE50A2403B2
:102CA300FCE50B122D833400FB121CF2E964017066
:102CB30017850A82850B83A31256C1A3123A751294
:102CC3002D01750C01125A291235EC122A6B40B2F0
:102CD300A90C7F0502058DEEF8EFF9E875F00BA45A
:102CE300F8122CE822AAF075F00BE9A42AF9900354
:102CF30036E02822EF122DCF22126A29EB22122D61
:102D03000D125A24EEF0A3EFF022E508126A2AE529
:102D1300092274F5120372EAFEEBFF8E828F83A3FE
:102D2300126A187C007D00EE24030A0A0AEF122DB2
:102D33007CEEFAEFFB120AECE9F50A7401650A70FE
:102D430029126A23122DA2AAF075F00BE9122DB4F1
:102D5300850882F583122D8E122DBF700DE5082490
:102D630003FCE509122D70122D7C022A1C3400FD90
:102D7300EE2403FAEF22122D833400FB120B0A22F6
:102D83003400FDE5082403FAE50922A3122D93225A
:102D9300122D9722E0F8A3E0F98E828F83A32212EB
:102DA3002DA6223400F583124455E875F00BA4F8E0
:102DB30022122CEEF508A3E039F50922E8F0A3E985
:102DC300F0E5082403FAE509122DCF22122DD5646C
:102DD30001223400FB120B10E92274F31203727404
:102DE300E61208E7126A0E750C01750800750900F2
:102DF300750A00750B00851882851983E4F0EE24AB
:102E030003FCEF3400FD7403120AA9122E8FE96448
:102E1300017023740B120AA9123A6D7401120AA9E4
:102E23001251657003A3E069605185188285198387
:102E3300858208858309740D120AA9E4122E9674FB
:102E43000E120AA9123A75740D120AA9AA82AB834B
:102E5300120B2EE96401700B740D120AA985820A04
:102E630085830B780A120840AC08AD09EEFAEFFB34
:102E7300120AFE7402120853E9F50CEEFAEFFB1284
:102E83000B28A90C741A120853022CD512316212A2
:102E93000B34221239EA12445122C082C0837800D3
:102EA30079008003122F8D122C55E89AE99B502943
:102EB300E8FAE9FBEA75F00BA4FAACF075F00BEB5A
:102EC300A42CFB900336E02AFCA3E03B8C82F58321
:102ED300E0540F70CF7900800279010239A7C082D4
:102EE300C0839004ED1244A7EC75F012A4FCA8F083
:102EF30075F012EDA428FD79FF7A1A7B0B12148E5C
:102F03000239A774F7120372E9FEEAFF7A007B0025
:102F1300780079008028E8FCE9FDEC75F012A4FC48
:102F230085F00875F012EDA425081233A2C39E4064
:102F33000AE0FCEFC39C40031234C1122F8D1233FD
:102F43009640D30239DFC082C083780079008003C2
:102F5300122F8D122F81501F1233A6F470F2E875D1
:102F6300F012A4F8AAF075F012E9A42AF9741A2849
:102F7300FA740B39FB80047A007B000239A79004B2
:102F8300ED123457C3E89AE99B22E8240108E93497
:102F930000F92274F012037274F31208E78A0A8BA1
:102FA3000B8C0C8D0D8908EC450D6016AA0CAB0D2E
:102FB300120B828A0E8B0FAE0EAF0FEE4F60030221
:102FC3003054120B588A0E8B0FA80EA90FE8FEE996
:102FD300FFE849607C9028191230B66022740365BB
:102FE3000860067404650870167A047903120B529C
:102FF3009028191230CD40077A007B000230B3903D
:1030030028171230B6601B740165086006740265E8
:1030130008700F7A027901120B529028171230CDE3
:1030230050D68518828519837401F0120AA91254A7
:103033008DAC0CAD0D7403120AA912315B740B1223
:103043000AA91239BB123E55E41254751210268098
:1030530004EE4F604A780074FF2508C394045002BD
:1030630078048E828F8312548D8E828F83A3A3A3C1
:10307300A3E508F0E88E828F83A3A3A3A3A312542E
:103083009512022112346E8E828F83A3A3A3A3A36E
:10309300A3A3F0123465120A86125A0D120A921271
:1030A30030BB4005901076E4F0120F00EEFAEFFB10
:1030B30002445B1255AF49227A047900120B5290F5
:1030C30004ED1260C9EA98EB99221230E675830485
:1030D3007582EDE493C398F8A3E49399F9C3EA984E
:1030E300EB9922E493F8740193F92274F2120372B8
:1030F30074F31208E78A088B09ECFEEDFF750A00EA
:10310300EEFAEFFB120B828A0C8B0DA80CA90DE8CB
:1031130049603E88828983E065087004A3E06509FD
:10312300602F88828983A3A3A3A3E0C394055021BE
:103133001258BB8518828519837401F0120AA912EB
:1031430058BFEEFCEFFD7403120AA912315B750A36
:1031530001A90A740D024F59123162120B4022AABF
:1031630082AB83120B0A851882851983AA82AB83EB
:103173002274F61203721231B0600FA3A3A3A3E06B
:1031830014C394045004790180027900023A7E74D6
:10319300F61203721231B0600FA3A3A3A3E014C30A
:1031A30094025004790180027900023A7E120B7C6A
:1031B3008A828B83E58245832274F612037212316D
:1031C300B0600BA3A3A3A3E070047901800279008C
:1031D300023A7EC082C083EAFCEBFD7A007B0002E8
:1031E30039A4C082C0837C007D000239A474F41228
:1031F300037274F31208E7EAFEEBFF8C0A8D0BC32C
:10320300EC94F8ED94FF4007EE4F70030232A9757A
:103213000800750900802E8518828519837401F0D2
:10322300123614120AA912362260137403120AA961
:10323300AC82AD83EEFAEFFB121CF2E97049E508AC
:1032430024011234429004EDE41255B7E50898E5E1
:1032530009995052E50875F012A4F8AAF075F01216
:10326300E509A42AF91260FC60D4EE4F70A974FF3B
:10327300650A700474FF650B60C4123604650A7036
:1032830004A3E0650B70B7E50875F012A4F508A870
:10329300F075F012E509A428F509741A2508FA74E3
:1032A3000B3509FB80047A007B00023C1A74F4128C
:1032B300037274F31208E7750800120B828A0A8BF3
:1032C3000BAE0AAF0BEE4F602A8518828519837403
:1032D300011239E4F8A3E0F9740B120AA9123AF8BF
:1032E300120B227C127D0079FFEEFAEFFB12148E93
:1032F3007508011230BB50099010767401F0120F5B
:1033030000A908023C1A74F7120372E9FE74FE6AFC
:10331300700374FF6B7800790070058052122F8D53
:10332300123396504AE8FCE9FDEC75F012A4FCAFA9
:10333300F075F012EDA42F1233A2F460E0E8FCE97B
:10334300FDEC75F012A4FC75F012EDA42FFD741AB8
:103353002CF582740B3DF583E06A7003A3E06B7078
:10336300BC80091233A614C394044017122F8D1284
:103373002F815018EE70EC1233A664016005E064EF
:103383000370E91235F5FAA3E0FB80047AFE7BFFB4
:103393000239DF9004ED1244ABC3E89CE99D22128D
:1033A30034F622E8FAE9FBEA75F012A4FAACF075F8
:1033B300F012EBA42CFB741E2AF582740B3BF583ED
:1033C300E022120B940239A7C082C083790180F2F4
:1033D30074F01203728A0A8B0B7A047901120B526E
:1033E3008A0C8B0DEA450D603EEAC333FAEB33FBDF
:1033F30012152A8A088B09AE08AF09EE4F60237AAB
:10340300FE7BFF120B9A74FE6A700374FF6B601BE2
:103413008508828509831239EFE5082402123442B4
:1034230080E1750C0080047E007F00850A82850B95
:1034330083E50CF0EEFAEFFB024460E5082407F5A0
:1034430008E5093400F509229004ED1244ABC3EA00
:103453009CEB9D22E493FA740193FB221214827471
:103463000322125A1EE4F090861922E88E828F837B
:10347300A3A3A3A3A3A3A3A3123490740112349010
:10348300A3F0EE2410125A21E4F0A3F022123E61BD
:10349300A3A3A322C082C0837A007B0080041912F5
:1034A30034C112344B50101234E0C3940550F0E988
:1034B30070EC1234CA80047A007B000239A7EA2434
:1034C300010AEB3400FB22EA75F012A4FA75F0123C
:1034D300EBA428FB741A2AFA740B3BFB22EAFCEBDD
:1034E300FDEC75F012A4FCA8F075F012EDA42812FF
:1034F30034F622FD741E2CF582740B3DF583E02215
:1035030074F712037274F31208E77E007F0002352A
:10351300A8E50875F017A4F8A9F012635DFAA3E013
:10352300FBEEF8EFF9E875F012A4F8ACF075F012C1
:10353300E9A42C1236036A7003A3E06B603FE5082D
:1035430075F017A4F8AAF0EA12635CF8A3E0F97423
:1035530001120AA9E0687003A3E0696020E5087519
:10356300F017A4F8EAF9749628FC740C39FD740377
:10357300120AA9AA82AB83121CF2E96014E508754A
:10358300F017A4F8A9F0749428FA740C39FB1210FC
:1035930032050890281DE493F8E508C39850030208
:1035A30035141235EC9004ED1266A35039EEF8EFA2
:1035B300F91235F5F47003A3E0F460E6851882850B
:1035C30019837401F0EEF8EFF9E875F012A4F875B9
:1035D300F012E9A42AF9123614120AA9123622604B
:1035E300C175080080AD0239DAEE24010EEF340014
:1035F300FF22E875F012A4F8AAF075F012E9A42AE4
:10360300F912360822741A28F582740B39F583E00F
:1036130022741C28F582740B3912444F740B22E870
:10362300F0A3E9123B00120B3AE922C082C0839057
:10363300033D74F2F0A3740DF090033F74ECF0A318
:10364300740DF0900343740CF0A3740CF00239A7CB
:1036530074F7120372EAFEEBFF900377E0640860ED
:103663001BE0640460168E828F83E0540364017050
:10367300481239AE123F56E06406703D8E828F8346
:10368300A3A3E064FE7003A3E0F4602D8E828F8316
:10369300A3A3123A69900368E0687003A3E069701A
:1036A3000BEE2415F582EF1260E36008120EA0E919
:1036B300F5088008120EA680F67508C2EEFAEFFB35
:1036C300121530022B5774F41203728A088B098A7D
:1036D300828B83E0F8A3E0FAE82AFAE43400FB12D1
:1036E300152A8A0A8B0BAE0AAF0BEE4F606385086F
:1036F30082850983E0FC7D00790012148E8E828F0F
:1037030083A3A3126A18120EE28E828F83A3A3A34C
:10371300A31239EF850882850983E0F8EE28F8EFD4
:103723003400123A71850882850983A3E0C0E0EE74
:10373300240D125A10D0E0F0120EF4EE240E125A99
:1037430010E91250C2E0C0E0EE2411125A10D0E08A
:10375300F0EEFAEFFB023C1F74F612037274EB12E5
:1037630008E7EAFEEBFF124CE460030237FF7A0737
:103773007B0012152A9003391239EF124CE460785A
:103783008E828F83120A8690033A123F59120A924D
:103793001268DCC0E012380BD0E0F0EE2405FAEF3B
:1037A3003400FB8A088B098A82F583E0C0E0123873
:1037B30006D0E0123C16E0C0E0123806A3D0E012B7
:1037C3003A5B120A86851882851983120A928882C7
:1037D3008983E0C0E07405120AA9D0E0F08508826D
:1037E300850983E0C0E07404120AA9D0E0F07407ED
:1037F300120AA912394180067910800279017415E1
:10380300023A7B12380BA322900339E0FAA3E0F5C6
:10381300838A82A3A3A3A322C082C083124CE46041
:103823000D9003391255EE900339E4F0A3F0120E14
:1038330010120FD20239A774F012037274EB12083C
:10384300E7ECFEEDFF89087425120AA9780C120A29
:103853004C7429120AA9E0F9742A120AA9E0FC742B
:103863002B120AA9E0FD740F697005740F6C6012C6
:103873009010C9E06402700579C102393CE9C39C28
:1038830040F6900378780C120A6AE50890037EF0FC
:10389300E990037CF0ECA3F0ED90037FF074FF6AF2
:1038A300700374FF6B701D9010D4E0F47003A3E0F9
:1038B300F470051214A0800C9010D41239C4E8F0EF
:1038C300A3E98007900375EAF0A3EBF0EE4F6017CE
:1038D300EEFAEFFB121092E96401700BEEFCEFFDC0
:1038E3007A897B03121CF8900368E4F0A3F0900339
:1038F3006BF0A3F0900388F09010C9E064027008A5
:1039030090037C740FF0A3F09003777405F0141206
:103913000AA9E4F0900378120A8685188285198330
:10392300120A9290037EE0C0E07405120AA9D0E067
:10393300F07407120AA9123941741502445DE412A6
:103943003B00121D2222C082C083900338E0700323
:103953001217CA120BDC804CC082C083900338E07C
:103963009010757004E4F0802D7401F0900338E03A
:10397300F460237C41E0C394415002E0FCECF8E0A6
:10398300C398F0EC75F0E8A4CCA8F075F003A42874
:10399300FD7A801244B37A757B107941121D108031
:1039A30003120B88D083D082020805EE125A1F221D
:1039B300E0F508A3E0F509221239BF22122D97A3DF
:1039C300221244519003752274F7120372EB900391
:1039D3007FF0120DFE8005740D1208537F0102055E
:1039E3008D1239EAA3E022123A5BA322EAF0A3EB99
:1039F300F02274F712037274F81208E7EAFEEBFF81
:103A03007900900377E064087044851882851983F0
:103A130074FDF0A374FFF0120EDC7402120AA912F3
:103A230039EF7405120AA9E41239EAE0C0E074041C
:103A3300120AA9D0E0123A56C0E07406120AA9D0BD
:103A4300E0F07407120AA9E4123AFC120F1E74087C
:103A53000239DC123A5BE022F08E828F8322F085FA
:103A630018828519832212445122E0F8A3E0F91247
:103A73005A1EE8F0A3E9F0221208537F0202058DD3
:103A8300C082C083900349749CF0A3740CF090032C
:103A9300EF7478F0A3740FF090034D74D2F0A37415
:103AA3000CF090034F749CF0A3740CF090035174CA
:103AB300D8F0A3740CF00239A774F412037274F9EA
:103AC3001208E78A088B098C0A8D0B8518828519E1
:103AD300837808120A6A7404120AA9E9F0740512B9
:103AE3000AA9E4F07406120AA9E4123AFC120BC400
:103AF3007407023C1CE8F0A3E9123B0022123A616E
:103B0300AA82AB832274F41203728A088B098A8215
:103B13008B83125A2CEE4F7003023C149003121243
:103B23004CE760158A828B83A3A3E0F9EEFAEFFBDF
:103B3300900313123F59121ED18E828F83A3A3A326
:103B4300A3A3A3A3A3A3E0640270748E828F83A3B1
:103B5300A3A3A3A3A3E054027003023BE685088258
:103B6300850983A3A3E064E960798E828F83A3A38D
:103B7300A3A3A3A3A3A3A3A3E070149010CCE00476
:103B83008E828F83A3A3A3A3A3A3A3A3A3A3F08E34
:103B9300828F83A3A3A3A3A3A3A3A3A3A3E014122A
:103BA3003C16A3A3A37404F09010CD125467E8F05D
:103BB300A3E91265408B0BEA450B7003125F1E8E5F
:103BC300828F83A3A3A3A3A3A3A3A3A3E0640260FD
:103BD300128E828F83A3A3A3A3A3A3A3A3A3E064AF
:103BE30006702E8E828F83A3A3A3A3A3A3E0A2E0D8
:103BF300501F850882850983A3A3E0F9EEFAEFFB42
:103C0300121DB28E828F83A3A3A3A3A3A3E054FEAA
:103C1300F08009123E5D22740D1208537F040205E1
:103C23008D74EC12037274DD1208E7EAFEEBFF8C6D
:103C3300088D097437120AA9780C120A4C750A0008
:103C43007405120AA9AC82AD83120AC27412120A55
:103C5300A9E070087415120AA9E060207405120A1D
:103C6300A9E0A2E6501E8E828F83A3A3A3A3A3A3DE
:103C7300A3A3A3125161120F54E960087903121C24
:103C8300E0023E437405120AA9E0540C6404700573
:103C9300750B018003750B00E0A2E55035750A0131
:103CA300E50BA2E0402C120EE28A108B11A810A99A
:103CB300111239AEE0687003A3E069601574051250
:103CC3000AA9126A1F12515D121DBEE9600479042C
:103CD30080AC7405120AA9E0A2E650227406120A07
:103CE300A9E0540370187405120AA9E0540C640C7B
:103CF300600CE0540C6408600575100180037510B6
:103D0300007405120AA9E05403F8740268700C12D7
:103D13006A1F12515D120AD4023E43740168703A5D
:103D2300E510A2E05003123E4B7405120AA9A882C3
:103D3300A9837403120AA9E8F0A3E912444585187C
:103D430082851983123E55E0C0E07402120AA9D09D
:103D5300E0123AFC121EA2023E43E86003023E4315
:103D630090035FE0640170108E828F83A3A3A3A3EB
:103D7300A3A3E07003023CD17422120AA9740212B5
:103D83004445741A120AA9123A75E510A2E05008C4
:103D93007405120AA9123E4BE50BA2E0506AEE2409
:103DA3000FF582EF1260E3C0E07417120AA9D0E0A6
:103DB300F0900314124CE77003023E43120EE28AA2
:103DC300128B13A812A913741A120AA9E0687003BC
:103DD300A3E069706B780C120838780A12084478EB
:103DE30008120840A910740C120AA9AC82AD83749E
:103DF30021120AA9AA82AB83900314123F56121E02
:103E0300D174071208538038780C120838780A12D4
:103E13000844780812084090037512065CEE2412D9
:103E2300F582EF125E117423120AA9AC82AD83747A
:103E33000E120AA9AA82AB83121DA6740912085393
:103E4300742312085302650B126A1F1255FC120ADF
:103E5300C822E8F0A3E9123E5D22123E6122F08EF1
:103E6300828F83A3A3A3A3A3A32274F712037212C3
:103E730016B60239DF74F71203721216BC0239DF69
:103E830074F71203721216C80239DFC082C083129C
:103E930016C20239A774F71203721216CE0239DF63
:103EA30074F71203727409120AA9E0F5087808126C
:103EB30008441216DA74010239DCC082C083121678
:103EC300E60239A7C082C0831216EC0239A774F741
:103ED3001203721216F20239DF74F7120372EAFE4A
:103EE300EBFF89087401650870147900120D1490B2
:103EF3002828E493FC7900EEFAEFFB120C8A0239CE
:103F0300DF74F412037274F91208E7E9FE8A088B6E
:103F1300098C0A8D0B7413120AA912516190058D35
:103F2300124CE76027EE851882851983F07401121D
:103F33000AA97808120A6AEAF8EBF97405120AA9C1
:103F4300123AF890058D123F56121ED1023AF3FB36
:103F530090034BE0F8A3E0F583888222C082C083FC
:103F63001217220239A774F7120372901078E0F93E
:103F73007E00800B1260CF540D64017001190E1284
:103F830041635003E970ED0239DF74F71203729055
:103F93001079E0F97E00800B1260CF548D6481703C
:103FA30001190E1241635003E970ED0239DF74F217
:103FB300120372890BE975F006A4240CF508E5F0E9
:103FC3001234468A0CE508250CFAE5093400FB1285
:103FD300152A8A0C8B0DAE0CAF0DEE4F6027AC0883
:103FE300AD09790012148E1239AEE50BF0EE2508F7
:103FF300F8EF3509F98E828F83A3A3A3A3A3A3A309
:10400300A3A3123A75EEFAEFFB024F5C74F61203A8
:1040130072EAFEEBFF120C66901077E0F8E9C398A2
:104023004009900345125161120C6CEE2402F8EF23
:1040330012577190034712562B900347E004F0EE9A
:10404300FAEFFB120C72850882850983E0025C2774
:10405300C082C08379009003458001091251618AAF
:10406300828B83E582458370F20239A774F71203CA
:1040730072EAFEEBFFEE4F6056900345124CE76089
:104083004E888289837A007B00EE65827003EF6538
:1040930083600FAA82AB831240D5E5824583602FEC
:1040A30080E79003451240E1687002EF698E828FCA
:1040B300837008123A69900345800312651D123A12
:1040C30075EEFAEFFB121E72EEFAEFFB12153002D9
:1040D30039DF1240D922124455888289832212443F
:1040E30051EE22C082C08390034580048882898375
:1040F300124CE7600B88828983124799EC4D70EC70
:104103008A828B83E4F0A3F0E8496006888289837E
:1041130080039003451239EF0239A774F712037233
:1041230090034580048A828B8312415E4B60257E17
:104133000080010E12416350ECEE75F006A4FCAD55
:10414300F0EA2CFCEB3DFDEC2410F582ED1241B3BB
:1041530070E180047A007B000239DF125600EA2204
:104163001241BCEEC3982274F71203727D008001E2
:104173000D1241B8EDC3985034ED75F006A4FEA8B6
:10418300F0E8FFEA2EFEEB3FFFEE2410F582EF127C
:1041930041B370DCED75F006A4FEE8FFEA2EFAEBFE
:1041A3003FFBEA2411F582EB1260E34CF00239DFA6
:1041B3001260EF69221241BC22126A29EB3400F526
:1041C30083E0F82274F6120372120D8C7A007B00DE
:1041D3008025EAF8EBF9E875F006A4F8ACF075F081
:1041E30006E9A42C1255D51268EAA3E41256CBF0C3
:1041F300A31268F0126A679028131230C540D37A6D
:10420300007B00801C8A088B09740378081209E874
:10421300125089A374FEF0A3041254ABA3E4126AF0
:104223006790281C12426640DC7A007B00801D8A5E
:10423300088B09740378081209E874BC125D5B7477
:104243000F1265A274FEF0A304126A67902822126B
:10425300426640DB902826E493900353F0124270A9
:10426300023A7EE493F8C3EA98EB9400227CE87D5B
:10427300037A107B009003C2E0F91215E42274F074
:1042830012037274F51208E78A088B09890A8C0BEA
:10429300E9A2E050147508FC7509FFA2E15005D2AC
:1042A300E4024343D2E3024343124F487003A3E0C3
:1042B3006970057900024410AC0A7902AA08AB09B7
:1042C300120D68E960EDE50AF50C780C12084479E3
:1042D300027CFE7DFFAA08AB09124CC3120853E906
:1042E300600302440EE50AC2E5F50A9003B5E070E7
:1042F30051E50AA2E6404B7403120AA9AC82AD83CE
:10430300AA08AB09120B16E970321245E48A0C8B2A
:104313000DA80CA90DE8FEE9FFE8496025EE24028B
:104323000A0AEF122DD5601AEE2402FCEF3400FDC9
:104333007403120AA9AA82AB83121CF8E50AD2E518
:10434300F50A900348E0F50C900368E0F50EA3E04E
:10435300F50F780E1208407D017C00900348E0F9C8
:10436300AA0EAB0F120D207402120853E9F8900342
:1043730048E004F0E8600302440EE50AA2E55004B5
:10438300740E80027406C0E07401120AA9D0E01210
:104393005A3D8A0E8B0FAE0EAF0FEE4F606912447B
:1043A3002E124445888289837401F07478550AA3D8
:1043B300126A2FE50C126A2FA3E508F0E5091244EF
:1043C3001DE4F0E50AA2E5500F7403120AA9AC82BA
:1043D300AD83E824061244148E828F83A3A374FD55
:1043E300F0A374FFF0E50B6015902829E493F8E53A
:1043F3000BC3985009EE2413125A10E50BF0EEFA92
:10440300EFFB120BB880067910800279C7740B801A
:1044130049FAE93400FB121CF82288828983A3A39A
:10442300A3A3124429221257A4A322EE2417125A3B
:10443300217401F0120EDCEE241A125A21EAF0A3C1
:10444300EB22F0126A23340012444F22F583124404
:104453005522E0F8A3E0F922740D1208537F0802F5
:10446300058D74F61203727A007B10125F2B6008BD
:104473009003D47401F0802990062EE0640190101B
:10448300CA7006E0FC79018004E0FC79037A007BC2
:1044930000120C8A9028111244A77A007B10124450
:1044A300B5023A7E1244AB22E493FC740193FD22DD
:1044B3007B009003C2E0F91215DE2274EC12037242
:1044C3008A088B098C0C8D0D890E7414120AA9129B
:1044D3004EA27416120AA9E0F510A3E0F511120F0B
:1044E30054E960077AFF7BFF0245E19010C9E0645D
:1044F3000260030245D47900AA08AB09120D6EA924
:104503000E120D628A128B13AE12AF13EE4F7003AD
:104513000245BC8E828F83A3A3A3A3A3E064018E71
:10452300828F83A3A370691251618E828F83A3A3A9
:10453300A3A3A3A3E054186043902827E4938E8297
:104543008F83A3A3A3A3F0EA650C7003EB650D604F
:1045530014EA650A7003EB650B600AEA65107003E1
:10456300EB6511701F7810120840AC0AAD0BAA0C52
:10457300AB0D121050740212085380089003671297
:104583005F15A3F074FE6A700374FF6B601D804EA9
:10459300A3A3A3E0640360298E828F83A3A3A3A3B1
:1045A300A3E0640470057AFE0244E98E828F83A33C
:1045B300A3A3A3A3E0640270089003B4E0640270B1
:1045C300101245E48B0BEA450B6006AA08AB098081
:1045D3000DAA08AB09900349123F56121ED102657A
:1045E3000B900375124CC91210142274F712037244
:1045F300EAFEEBFF120B6AE9700AEEFAEFFB120B0D
:1046030076E96006EEFAEFFB80047AFE7BFF02395F
:10461300DF74F01203728A0A8B0B8C0E8D0F8909DB
:10462300750800120F54E97900600302478BAA0A48
:10463300AB0B120D6EA909120D628A0C8B0DAE0C19
:10464300AF0DEE4F60198E828F83A3A3A3A3A3E0C4
:10465300640270559003B4E064027003024789AAB0
:104663000AAB0B90034F123F56121ED1120B7C8ADA
:104673000C8B0DA80CA90DE84970030247898882A9
:104683008983A3A3A3A3A3E0A2E040030247897500
:104693000C01A2E150687901AC0AAD0BAA0EAB0F75
:1046A300120CBAE970640247898E828F83A3A3A395
:1046B300A3A3E064037005750C0280528E828F837E
:1046C300A3A3A3A3A3E06401600302478990037536
:1046D3001247998E828F83124AEE8A0C8B0DA80C97
:1046E300A90DE84960D1902820E493FA8882898350
:1046F300E0C39A50C2A3E0600302478980B988826D
:104703008983A3A3A3A3A3D2E1F0EE4F603A8E82E1
:104713008F83A3A3A3A3A3A3E05418602B7508015D
:104723008E828F83A3A312065C750CFE750DFF7832
:104733000C1208407900AC0AAD0BAA0EAB0F120D98
:10474300807404120853803E900368E0650E700481
:10475300A3E0650F7014902828E493FCA909AA0A22
:10476300AB0B120C8A750801801CA90CAC0AAD0BAB
:10477300AA0EAB0F120CBAE9700C750801A909AAAD
:104783000AAB0B120D14A908024460E50C2415F5BD
:1047930082E50D125A241254812274EA12037274B0
:1047A300F01208E78A0C8B0D8C088D097426120A07
:1047B300A9E0F514A3E0F5157512069003F5124C64
:1047C300E76023900375124799AA08AB0912103EBC
:1047D3008A108B11EA4511600D8A828B83A3E070E6
:1047E300057900024AD6E50C241DF50EE50D3400CB
:1047F300F50F850E82124CD3F51388828983A3A308
:10480300A3E0FA88828983A3A3A3A3E0F9EA24009F
:10481300FEE439FFAA08AB09120D1A850E82850F33
:1048230083124B11E029F50BE50AA2E5500375123B
:104833000E7487550A70177418550A6418600FE5CB
:104843000C2417F582E50D1260E365126007790108
:10485300121CE0808C530A78C3EE94F8EF94FF5057
:104863001D7900EEFAEFFB124AE060128882898319
:10487300A3A3A3A3A3A3E0541860030247E4780807
:104883001208407D00124B04120853E9F8740368C0
:1048930070030247E4E8600302494F7418550A7035
:1048A30003024A04E50AD2E0F50AA2E45004D2E185
:1048B300F50AA90A12515A124AE060538882898381
:1048C300A3A3A3A3A3A3E05418604488828983A36A
:1048D300A3A3A3A3E064017036E5104511603090F3
:1048E300037512479988828983124AEE8A0E8B0FC9
:1048F300A80EA90FE849601788828983A3E0600F97
:10490300851082851183A3125C3250030247E4E5CC
:104913000AF50E780E120844124AF7120853E9708A
:104923002B7C007D0085148285158374FFF0A3F032
:10493300850C82850D83A3A3A3A3A3A3A3A3E060F4
:104943000312478EA90B12515A1216E08514828561
:104953001583E0F47003A3E0F460399003B4E064DA
:104963000270030247E4124E93E0FAA3E0123F52AF
:10497300121ED1EA65087003EB650960030247E480
:10498300EEFAEF123F52121ED1851482851583EA87
:10499300F0A3EBF078081208407D01124B041208D3
:1049A30053A90AEEFAEFFB120D6E8A088B09A808C9
:1049B300A909900368E0687003A3E0696003024AF1
:1049C300C7EEFAEFFB120B7C8A088B09A808A9092A
:1049D300E849606E88828983A3A3A3A3E06401608E
:1049E3000D88828983A3A3A3A3E06402705485186E
:1049F30082851983AC82AD83EEFAEFFB120B16802E
:104A030055900361E0600FE50AF50E780E12084435
:104A1300124AF7120853E50AF50E780E1208447984
:104A2300027CFE7DFFEEFAEFFB124CC3120853E942
:104A3300600302494F85148285158374FFF0A30236
:104A43004996120EDCEAFCEBFD851882851983AAD0
:104A530082AB83121CF8850C82850D83A3A3A3A3C9
:104A6300A3A3A3A3E06401700F12478E7408120A74
:104A7300A9AA82AB83121CF8124C9D1258A9443088
:104A8300F50878081208447401120AA9858208857A
:104A930083097808120840740B120AA985820885D5
:104AA30083097808120840E513F5087808120844CA
:104AB3007900EEFCEFFD12515A120CB47406120881
:104AC300530247E4124C9D125A13124B11E50BF09B
:104AD300120EF474101208537F0E02058D120D622C
:104AE3008A0E8B0FA80EA90FE84922A3A312560022
:104AF30012103E227901AC08AD091255F5124CC3D0
:104B030022AC0BA9131255F5120D20740222125870
:104B1300B1A3A3A3A32274F012037274F01208E7E3
:104B23008A0C8B0DECFAEDFB750F089003F5124C14
:104B3300E76014125C2B8A828B83E58245836007CE
:104B4300A3E07003024C98124C9D3400124CD3F531
:104B53000B88828983124CA6E0FBEC2400FEE43B25
:104B6300FF88828983A3A3124CA6A3A3E0FBECF5E1
:104B730008E43BF50988828983A3A3A3A3A3A3A382
:104B8300E0F50EE50AA2E45003750F10A2E5500606
:104B93007408250FF50F748F550A700FE50C241751
:104BA300F582E50D1260E3650F60087901121CE0E0
:104BB300024C98530A707800E50AA2E45022124C82
:104BC3009D1260E32408FCA3E03400FD7408120A7C
:104BD300A9AA82AB83121CF87808E50AC2E4F50A95
:104BE300E50AA2E55028124C9D1260E328F8A3E0E1
:104BF3003400F9E82408FCE93400FD85188285199E
:104C030083AA82AB83121CF8E50AC2E5F50AAC0E4F
:104C1300A90BEEFAEFFB120D26E9F8740368607531
:104C2300900368E06E7003A3E06F605EE87054E584
:104C33000AF50F780F120844124CB4120853E970A6
:104C430054780A1208447401120AA985820C8583D8
:104C53000D780C120840740B120AA985820C858307
:104C63000D780C120840E50BF50A780A120844A9DE
:104C73000EAC08AD09EEFAEFFB120CB47406120881
:104C8300538012740468700D80B7780A12084412B6
:104C93004CB4120853741002445DE50C241DF582D4
:104CA300E50D22A3A3A3E0FC88828983A3A3A3A386
:104CB300227901124E9A125A24124CC9124CC32261
:104CC300120CDE740122E0FCA3E0FDAA08AB09226A
:104CD300F5831240D9A3E0F50A88828983A3A3E070
:104CE3002290033912565C2274E812037274F5128F
:104CF30008E7EAFEEBFF8C088D0989147423120A76
:104D0300A9E0F50F7424120AA9E0F512A3E0F51344
:104D13007426120AA9E0F516A3E0F5177428120AFF
:104D2300A9E0F50EA90F120D2C8A108B1174011234
:104D33000AA97408F0E50EA2E450037410F0E50E1E
:104D4300A2E55004E02408F0851882851983AA821D
:104D5300AB83120F3C8A0C8B0DEA450D7003024E98
:104D63007AEA2417F582EB124E8C120EDCE50C2442
:104D73001AF582E50D125A131239EF7403120AA9B8
:104D8300AC82AD83AA10AB11120B16E9601D124E53
:104D9300847403120AA9A882A983E50C2418F58256
:104DA300E50D125A13E8F0A3E98024E50EA2E450BE
:104DB3001FE5106E7003E5116F7015124E84E50C3C
:104DC3002418F582E50D125A13E512F0A3E513F04A
:104DD300124E93124EA2850A82F5837402F0A3E564
:104DE3000E124EAAE50FF0EE850A82850B83A3A36C
:104DF300A3F0EF850A82850B83A3A3A3A3124EAA74
:104E0300A3A3A3E508F0E509850A82850B83A3A381
:104E1300A3A3A3A3F0AA10AB11120D1AE9251485BD
:104E23000A82850B83A3A3A3A3A3A3A3F0750800FE
:104E3300E50EA2E45011AC12AD13E50A2408FAE51D
:104E43000B124416750808E50EA2E55014AC16AD16
:104E530017E50A2508F8E50B3400F9E8240812449D
:104E630014850C82850D83A3A3E510F0A3E511F04F
:104E7300AA0CAB0D120BB8740B1208537F1002056A
:104E83008DE50C2416F582E50D125A247401F022E7
:104E9300124E9A125A2422E50C126A2AE50D22E0D8
:104EA300F50AA3E0F50B22F0850A82850B83A3A301
:104EB3002274F21203728A088B09ECFEEDFF890A51
:104EC3007900124F487003A3E0697004790180737D
:104ED300750B01900368E065087004A3E065096041
:104EE3001F750B00780B120844A90AEEFCEFFDAA0C
:104EF30008AB09120F907401120853E9F50B8041B6
:104F03007900EEFAEFFB120D62EA4B602B8A828B7B
:104F130083A3A3A3A3A3A3E05418601C7508FE7581
:104F230009FF78081208408A828B83A3A312065CC8
:104F330012683F12085380097901EEFAEFFB120C55
:104F43003CA90B8014120D6E8A0C8B0DA80CA90DB5
:104F5300900368E068221208537F0602058D74F4FB
:104F630012037275080475090E7A101265478B0BCC
:104F7300EA450B7003124270900353E014F0700C77
:104F8300902826E493900353F0120D7A7E007F005D
:104F9300806C850882850983A3A3A3A3E06059F4E9
:104FA3006056E5082404F582E509125F0F70498510
:104FB3000882850983A3A3A3A3A3E06403701979DB
:104FC30002850882850983124799850882850983AA
:104FD300A3A3125161120CBA850882850983A3A386
:104FE300A3A3A3E06401601085088285098374FE8E
:104FF300F0A3041250BBE4F01235EC12343E9028B7
:10500300151266A3408C7E007F008039120E828EBB
:10501300088F09740378081209E8747C2508FC7466
:105023000F3509FD7AC67B0C120E70EA4B70DD8ECC
:10503300088F09740378081209E81250891268EA84
:10504300E4F01235EC90281CE493F8C3EE98EF9447
:1050530000501B8E088F09740378081209E8125058
:1050630091E82407F582E9125F0F70D680A17E00D4
:105073007F00800A12509C600214F01235EC126615
:10508300A040F1023C1F1250918882898322747CD4
:105093002508F8740F3509F922EEF8EFF9E875F0F1
:1050A30006A4F8AAF075F006E9A42AF9741C28F5F9
:1050B30082740F39F583E0221250C2A3A3A322F016
:1050C300850882850983A3A32274F712037274E10E
:1050D3001208E7ECFEEDFF750800EE4F60728A825E
:1050E3008B83E0241C125F40124CE760638A828B3F
:1050F30083125161851882851983AC82AD83EA24BA
:105103001BF582EB125E11EA241CF582EB12515D52
:10511300120EC4740B120AA91251657003A3E0693D
:10512300702E7402120AA9E064017024741D120A1D
:10513300A9123F56E064017017741D120AA9123FA9
:1051430058A3A3E0F88E828F83E06870037508018B
:10515300A908741F0239DC124E9A3400F5831256E3
:105163000022122D93E0682274F4120372E9702472
:10517300790090034D123F56121ED18A0A8B0BAE53
:105183000AAF0B74FE6E700374FF6F701A902823BE
:10519300E4936013790190034D123F56121ED18A96
:1051A3000A8B0BAE0AAF0B120F0002375474F612C0
:1051B300037274F31208E71214A08A088B09AE086D
:1051C300AF09900368E06E7003A3E06F60E9120E0D
:1051D300E8EA6E7002EB6F60DEEEFAEFFB120F543B
:1051E300E970D4EE4F60D0851882851983E4F0040A
:1051F300120AA9EEF0A3EF125213E970BA74FE6E0D
:10520300700374FF6F60B0EEFAEFFB740D023A7B2C
:10521300123B00120B2E22C082C083120F000239F0
:10522300A77F0A02058D74F2120372EAFEEBFF8C6C
:105233000A8D0B8908740E120AA9E0F50974FC6E35
:10524300700374FF6F70057900024F5C7900120DD3
:105253006E8A0C8B0DAE0CAF0D900368E06E70037D
:10526300A3E06F7006E509A2E650DCA90912672DD9
:10527300706179007AFE7BFF12672D7056741855A2
:10528300097003025360780079008003122F8D9018
:105293002815122F844003025360E8FAE9FBEA75EC
:1052A300F007A4FAACF075F007EBA42CFB740A2A00
:1052B300F582740E3BF583E0541870D0E875F0075F
:1052C300A4F8AAF075F007E9A42AF9740428F8747D
:1052D3000E39F988828983A3A3A3A3A3A3E0541857
:1052E300600974185509700302524A88828983EE53
:1052F300F0A3EFF074FE650A700474FF650B60039E
:1053030012548788828983A3A3A3A3A3A3E509F0E7
:10531300A2E0500D88828983A3A3A3A3A3A3D2E20F
:10532300F07401650888828983A3A3A3A3A37038BB
:1053330074011254ABE054186028902827E4938832
:10534300828983A3A3A3A312547512103E8B0DEA83
:10535300450D600302524A780079008039790202D0
:10536300524C900367E080D7E06401700302524A15
:1053730088828983A3A3A3A3A3A3E05418600790FF
:105383002827E4938004900366E012441DE508F0A7
:1053930002524A122F8D90281DE493FAC3E89AE92A
:1053A3009400400302524A7A007B00804BEAFCEBF4
:1053B300FDEC75F007A4FCAEF075F007EDA42EFD2F
:1053C30074062CF582740E3DF583125A2CE8FCE921
:1053D300FDEC75F017A4FC85F00975F017EDA42515
:1053E30009FD74942CF582740C3DF583E06E700313
:1053F300A3E06F609E1234C190281512344E40AD65
:105403001244A7EC6A7002ED6B7088E875F017A47C
:10541300F8AAF075F017E9A42AF9749428FE740C1D
:1054230039FF7C177D007900EEFAEFFB12148E8EA4
:10543300828F8312548D900375125467A3A3A3A381
:10544300A3A3E8F0A3E912546D7401F0EE240E1245
:105453005A107401125495120221EE240D125A109F
:10546300E80253921239BFA3A322F0EE240F125A7B
:105473002122F012547EAA0AAB0B22900375E0FCA2
:10548300A3E0FD2288828983A3A3E50AF0A3E50BA9
:10549300F022F012549A22902820E4932401F8E495
:1054A3003400F97A027B0022124429A32274ED12FC
:1054B30003728A088B09890E1255DE4005790502AD
:1054C30055AC121728AA08AB091256B0902813122C
:1054D30055AF650A7003E9650B70077AFE7BFF120F
:1054E30056B0902813E41255B7E50A98E50B994096
:1054F300030255AA1255BB6012E50A75F006A4F81B
:1055030075F006E50B125606121530E50E6018E528
:105513000A75F006A4F8AAF075F006E50B125632E8
:10552300701A79010255ACE50A75F006A4F8AAF0E1
:1055330075F006E50B125613E4F0A3F0E50A75F0D7
:1055430006A4F8AAF075F006E50B1255D3A312587A
:10555300BF88828983A3AA82AB831256218A828B56
:1055630083E0603F1255BB603A8E108F11751200B5
:10557300781012083CE50EC333FCE433FDE50A75ED
:10558300F006A4F50AA8F075F006E50BA428F50BC0
:105593007420250AF582740F350B12515F12345FA4
:1055A3001208537900800279070267431230E6E854
:1055B300229004ED1260CA22E50A75F006A4F8AA47
:1055C300F075F006E50B12560EF8A3E0F9E8492250
:1055D300A42A12576788828983A322ECFEEDFF90E9
:1055E300281EE493F8E9C39822F583125600121596
:1055F3003022E50C126A2AE50D3400F583E0FAA3A4
:10560300E0FB2212560EFAA3E0FB22125613E0220D
:10561300A42AF9742028F582740F39F58322E50E44
:10562300F09010CB12562B22E088828983F022124D
:10563300578BF50CE93400F50DE50EC333FAE4336B
:10564300FB12152A850C82850D83EAF0A3EBF08506
:105653000C82850D8312565C22124455E84922744C
:10566300F4120372ECFEEDFF740C120AA9123A69EC
:10567300880889091256B0AC0AAD0BECF8EDF99025
:1056830028131256B85021E875F006A4F8AAF0754D
:10569300F006E91255D3E08E828F831256CB125651
:1056A300C1123A75790080027904023C1F120CF092
:1056B3008A0A8B0B22123457C3EC9AED9B221244B5
:1056C30051850882850983221257A02274F612039A
:1056D300727E007F008028EEF8EFF9E875F006A4EB
:1056E300F8ACF075F006E9A42CF9741E28F5827461
:1056F3000F12634E6A7003A3E06B60571235EC120E
:1057030066A040D312669B7002E96F704674FE6A0E
:10571300700374FF6B703C7E007F0080031235ECD6
:105723001266A0502E12509C70F3EEF8EFF9E87554
:10573300F006A4F812575D1257926017125779F8C2
:10574300E912577188821255EC850882850983E432
:10575300F0A3F0EEFAEFFB023A7E75F006E912577A
:105763006522A42AF9741C28F8740F39F92234002D
:10577300F98808890922EEF8EFF9E875F006A4F82C
:1057830075F006E912578B22125765E8240422A309
:10579300A374FE12579D12565C22F0A3041257A461
:1057A30022F088828983A3A3A3A32274F61203722F
:1057B300EA241DF582EB1258A9F9604BEA241DF582
:1057C30082EB1260E32402FCA3E03400FD1255E2F5
:1057D300400302589C780080298C828D83E0F50871
:1057E300A3E0FFE5082400E43FF509E833FEE433D2
:1057F300FF74642EF582740F3FF5831258BF12585D
:105803009F08E8C39940D28A828B83A3A3A3A3A34F
:10581300A3A3A3A3124799900368E06C7003A3E0CA
:105823006D700F7C647D0F122CFC12515D120CE421
:105833008067EA2411F582EB1260E3605CFC74FF7D
:105843002CF0750801780812084475086475090F6F
:105853007808120840E9F5087808120844EA241287
:10586300F582EB1260E3F5087808120844EA241580
:10587300F582EB125A1312065CECF9122CFC124758
:10588300968A828B83A3A3A3A3A3A3A3A3A3125147
:1058930061120CFC7407120853023A7EEC24020CCA
:1058A3000CED3400FD22125A241258B1E022E0F824
:1058B300A3E0F5838882A32288828983E508F0A385
:1058C300E509F02274EA12037274FD1208E78A14E0
:1058D3008B158C0E8D0F890D7419120AA9125A2C6F
:1058E300741B120AA9E0F511741C120AA9E0F50C45
:1058F300741D120AA9124EA2741F120AA9E0F51010
:105903006008E50CC333240480027402C0E0740110
:10591300120AA9D0E0125A3D8A088B09EA45097098
:1059230003025A088A828B83A3A3E514F0A3E51527
:10593300126536E50EF0A3E50FF0EA2413F582EBCA
:10594300125A13E50DF0EA2414F582EB125A13E50B
:1059530011F0EA2417F582EB1260E3640170401240
:105963000EE28A0E8B0FA80EA90F85088285098384
:10597300A3A3A3A3E0687003A3E0696022EE4F60D2
:1059830011E508241AF582E509125A13EEF0A3EF84
:10599300800CE5082417F582E509125A13E4F01286
:1059A3005A17125A2C8E828F837405F0A3E5107058
:1059B30004E50C80487401250C125A367A008028BD
:1059C300850A82850B83E0125A32850A82850B830E
:1059D300A3E08E828F83F0E50A2402F50AE50B34F7
:1059E30000F50BA30EAF830AEAC3950C40D2120E47
:1059F300E2EA125A32120EE2EB8E828F83F0AA0889
:105A0300AB09120BB87403024AD8EE240CF582EFEB
:105A1300125A2422122D0D125A2422EE240BF5823F
:105A2300EF3400F58322900334E0FEA3E0FF228EDF
:105A3300828F83F0A3AE82AF8322123B00120F3C0E
:105A430022C082C083E9C333FCE433FDEA2CFAEBC2
:105A53003DFBEA24FEF582EB34FF12515F0239A7C6
:105A630074F212037289098A0A1255DE400479001E
:105A7300804075080080020508E508C39509502A8F
:105A8300E508C333F8E433F9EE28F582EF39F583FB
:105A9300C082C083120EE28A0C8B0DD083D082E0C9
:105AA300650C7004A3E0650D70CDE50A650870BE52
:105AB3007901024F5C74F012037274F31208E78ADF
:105AC300088B098C0A8D0B890C750D00120F54E994
:105AD30079006003025BBAAA08AB09120D6EA90C28
:105AE300120D628A0E8B0FAE0EAF0FEE4F700302D4
:105AF3005BB88E828F83A3A3A3A3A3A3E0A2E240F8
:105B030003025BB8120EE2EA650A7003EB650B70E1
:105B130011780D120844E4F50EF50F780E120840C3
:105B23008044AA0AAB0B120B70E9640170688518F4
