:020000040000FA
:06000000020A3C0201C6E9
:03002B0002088741
:030033000206A31F
:0300430002073C75
:030053000200F7B1
:03006B0002068901
:1000830002015B0101FF01010503010F10FEFFCC1B
:1000930012CC12CC12CC1288118211CC122F250053
:1000A3000000009125000000000C0000000C00017E
:1000B300FFFF414C442042726F61646361737400BB
:1000C300020102006605000000D905640002020077
:1000D300080000050207051E02051E020A0A03B8EE
:1000E3000B02803E0102F1FF141F00E00796511836
:1000F30000020206C0E074F21203DFA2AFE433FE93
:10010300D2AFE5A7FFE5A1F5085F54106006121A08
:100113008875A1EFE5085F54086008121A8E75A16F
:10012300F7802BEFA2E0C0D0E508A2E092F012091D
:1001330063158182F05017906198E0F8900AB7E058
:10014300C398A2D265D0335002E8F075A1FEEEA2A7
:10015300E092AF7F0102043EC0E074F21203DFA21B
:10016300AFE433FED2AF9061A4E0F8759B00E59154
:1001730058540860087591F7121AD6802AE59158E9
:10018300541060087591EF121ADC801BE8A2E0C0DE
:10019300D0E591A2E092F0120963158182F0500735
:1001A300E0C2E0F0121C209061A3E0F8E5E95854A6
:1001B30004600E121BF675E9FB906193E0A2E64022
:1001C300F2808BC0E074F21203DFA2AFE433FED2FD
:1001D300AF9061A5E0F8E5BF585404600675BFFB16
:1001E300121C38020151C3E498F8E499F912022A67
:1001F3008026C3E49AFAE49BFBE920E7E912022A8A
:10020300E498F8E499F922C3E498F8E499F912021E
:100213002AE498F8E499F9C3E49AFAE49BFB22EB05
:1002230020E7CFE920E7E0B90010BB0008E88AF037
:1002330084F8AAF022E4FBC8FA22EB70227B10C8F0
:1002430033C8C933C9335007C39AC3DBF280069A54
:1002530050012ADBEAC833F4C8C933F4C9FA22755A
:10026300F008E4C833C8C933C933C99AC99B5004D9
:10027300C92AC93BD5F0ECFBC833F4C8E4C9FA2258
:10028300080808EAC0E0EBC0E086F0E7A4FA180922
:1002930086F0E7A42AFA180986F0E7A42AFA1809CF
:1002A30086F0E7A42AFA1986F0E7A4FBE5F02AFA18
:1002B300190886F0E7A42BFBE5F03AFA190886F053
:1002C300E7A42BFBE5F03AFA18180986F0E7A4C572
:1002D300F02BFBE43AFA1908E7C5F0C6A426F6E5C5
:1002E300F03BFBE43AFA1886F0E7A4F6E5F00826BB
:1002F300F6E43B08F6E43A08F6D0E0FBD0E0FA2255
:10030300E4CFC0E0E4CEC0E0E4CDC0E0E4CCC0E0A4
:1003130075F020C3E633F608E633F608E633F6084D
:10032300E633F6181818EC33FCED33FDEE33FEEF2D
:1003330033FFC3EC9709ED9709EE9709EF97191966
:1003430019400FFFEC97FC09ED97FD09EE97FE1995
:100353001906D5F0BEECF709EDF709EEF709EFF74B
:10036300191919D0E0FCD0E0FDD0E0FED0E0FF2267
:100373002518C582C0E0E51934FFC583C0E0E51840
:10038300C3958224F810AF088583198582188008E5
:10039300858319858218D2AFCEF0A3E520F0A37828
:1003A30008E608F0A3DEFAEFF0A3E58124FAF8E605
:1003B30008F0A3E608F0A3E608F0A30808E608F0AF
:1003C300A3E608F0A315811581D0E0FED0E0F8156F
:1003D3008115811581E8C0E0EEC0E022C0D0251868
:1003E300C582C0E0E51934FFC583C0E0E518C395B5
:1003F3008224F310AF0885831985821880088583CA
:1004030019858218D2AFC8F0A3E9F0A3EAF0A3EBF1
:10041300F0A37908E709F0A3D8FAECF0A3EDF0A371
:10042300EEF0A3EFF0A3D0E0F0A3D0E0F0A3D0E090
:10043300F0A3E520F0A3E5F0F0A322851983851846
:1004430082E0C0E0A3E0F9A3E0FAA3E0FBA378080D
:10045300E0F608A3DFFAE0FCA3E0FDA3E0FEA3E0DF
:10046300FFA3E0C0E0A3E0C0E0A3E0F5D0A3E0F584
:1004730020A3E0A3F5F010AF0885831985821880C7
:1004830008858319858218D2AFD082D083D0E0F853
:10049300D0E032120A9EB900030204D8E4900301AB
:1004A300787E790E8002F0A3D8FCD9FA90107EAA48
:1004B30082AB83900086787279018015E493A3ACB4
:1004C30082AD838A828B83F0A3AA82AB838C828DD5
:1004D30083D8E9D9E77582DA7583DA74031207FFE3
:1004E3007582CC75831E74001207FF150075F0101A
:1004F3008E1A8F1B85821F85831E8518828519831B
:10050300E0CEA3E0CF851F82851E83EBC9EAC8ED49
:10051300CBECCAC3E833C8E933C9EA33CAEB33CBFC
:10052300C3EA9EF51DEB9FF51CB35004AB1CAA1D3B
:10053300EC33CCED33CDD5F0DAAE1AAF1B22D0833A
:10054300D082ECC0E0EDC0E0E493A3FCE493A3FD10
:10055300ED4C600D120619EC24FFFCED34FFFD8019
:10056300EFE493A3FCE493A3FDED4C600D1206E7C7
:10057300EC24FFFCED34FFFD80EFD0E0FDD0E0FC88
:10058300E493A3C0E0E493C0E02285198385188235
:10059300E0A3FEE0A3F5207808E0A3F608DFFAE085
:1005A300A3FFE0A3C0E0E0A3C0E0E0A3C0E0E0A3BA
:1005B300C0E0E0A3C0E010AF0885821885831980EE
:1005C30008858218858319D2AFD083D082020805AB
:1005D300D083D082E9C0E0E493A3C386F0C5F0954D
:1005E300F0F908E493A386F0C5F095F0700BE4935B
:1005F300A3C3994005E9048002A3E475F002A4258E
:1006030082F582E5F03583F583D0E0F9E493A3C066
:10061300E0E493C0E022C0E0C3E49396087401933E
:100623009618400FE4936670080874019366187077
:10063300007019A3A3C3E49396087401939618A3B7
:10064300A3400DD0E0D0E0D0E002057DA3A3A3A397
:10065300A3A3D0E0227404800474028000CCC0E021
:10066300EDC0E0E518C39CCCAD1950011D10AF06D9
:100673008C188D1980068C188D19D2AF120781D072
:10068300E0FDD0E0FC22C0E074F21203DFE589A2B2
:10069300E15003121938758900C2C57F0102043E77
:1006A300C0E074F21203DFE58BA2E05003121938A5
:1006B300758B00C2E880E474028000CCC0E0EDC01A
:1006C300E0E518C39CCCAD1950011D10AF068C1882
:1006D3008D1980068C188D19D2AF12075FD0E0FDFB
:1006E300D0E0FC22C0E0C0F088F0E4936670080814
:1006F30074019366187000A8F0A3A3700BD0F0D018
:10070300E0D0E0D0E002057DA3A3D0F0D0E022D07A
:1007130083D082CCC0E0E493A360061207C11470B7
:10072300FAE493A360061208D11470FAD0E0FCE453
:1007330093A3C0E0E493C0E022C0E074F21203DFAD
:10074300A2AFE433FED2AFC2C0E5D1A2E45003129C
:1007530019FEEEA2E092AF7F0102043ECAC0E0E4BC
:1007630093A3C582CCC582C583CDC583F0A3C582BF
:10077300CCC582C583CDC583DAE5D0E0CA22CAC021
:10078300E0E0A3C582CCC582C583CDC583F0A3C5F4
:1007930082CCC582C583CDC583DAE6D0E0CA227098
:1007A30009080808226016181818C6C333C608C6F5
:1007B30033C608C633C608C633C6D5E0EA22C0E04E
:1007C300E493A3D39C5010E493A3C39C400AD0E0CA
:1007D300D0E0D0E002072FA3A3A3D0E022C008C338
:1007E300E096F50808A3E096420808A3E0964208BD
:1007F30008A3E09645087001D3D00822C09FF59F57
:10080300E473D09F22D083D082C09FE493C0E0746E
:100813000193C0E0740293F59F222518F58210AF6F
:1008230008F518400215198008F51840021519D269
:10083300AF851983227404800A74038006740280CE
:10084300027401C0E0F40412081DD0E0120A7922F8
:10085300C0D0251810AF08F518500205198008F507
:100863001850020519D2AFD0D022BB0102E722C033
:1008730082C08389828A83BB0003E08002E493D031
:1008830083D08222C0E0C0D0E8C0E0E5A8D2AFC2E6
:10089300C7A2E792AFD0E0F8D0D0D0E0326016081C
:1008A3000808C6C313C618C613C618C613C618C687
:1008B30013C6D5E0EA22C3E0C696F608A3E0C696BF
:1008C300F608A3E0C696F608A3E0C696F622C0E0B3
:1008D300E493A36C7009D0E0D0E0D0E002072FA32B
:1008E300A3D0E022251810AF08F51840021519808F
:1008F30008F51840021519D2AF22E76670100809EF
:10090300E766700A0809E76670040809E76622E0EB
:1009130066701008A3E066700A08A3E06670040816
:10092300A3E06622C3E09608A3E09608A3E0960836
:10093300A3E096A2D265D03322C3E096F008A3E0E9
:1009430096F008A3E096F008A3E096F022E026F0E4
:1009530008A3E036F008A3E036F008A3E036F0225F
:10096300C0E0E8C0E0E58124FCF8E6A2E7D0E0F8C7
:10097300D0E022E647F60809E647F60809E647F617
:100983000809E647F622E026F608A3E036F608A3B0
:10099300E036F608A3E036F622E627F60809E6373E
:1009A300F60809E637F60809E637F622E657F608A9
:1009B30009E657F60809E657F60809E657F622E06E
:1009C30056F608A3E056F608A3E056F608A3E05649
:1009D300F622E056F008A3E056F008A3E056F0082C
:1009E300A3E056F022700422600D18C6C333C60874
:1009F300C633C6D5E0F41822E4C396F608E496F6A7
:100A030008E496F608E496F622C6F4C608C6F4C6C9
:100A130008C6F4C608C6F4C622C3E7960809E796D3
:100A23000809E7960809E79622C3E09608A3E0962B
:100A330008A3E09608A3E0962275D000758140755F
:100A4300180175190300020496E0F608A3E0F608FE
:100A5300A3E0F608A3E0F622600C08C6C313C61889
:100A6300C613C6D5E0F422E6F008A3E6F008A3E631
:100A7300F008A3E6F022CAC0E0E6F0A308DAFAD051
:100A8300E0FA22E0FAA3E0FBA3E0FCA3E0FD22EA04
:100A9300F0A3EBF0A3ECF0A3EDF022E5C754F84488
:100AA30001F5C77901222518F582E43519F583226A
:100AB300C2AF75D69F02000022120808D7DF0212C8
:100AC3000808B9E0021208080EE3021208085BE402
:100AD30002120808FEE40212080845E6021208089A
:100AE30063E602120808312800120808432800129E
:100AF3000808952800120808F6280012080880291B
:100B030000120808242A00120808782A001208088C
:100B1300912A00120808B72A00120808F22A0012C4
:100B23000808362B001208085D2B00120808AE2BAC
:100B3300001208085E2C00120808162D001208087F
:100B4300DE2D001208089E2E00120808E22E001265
:100B53000808072F001208084A2F00120808972FC9
:100B630000120808EF300012080875310012080857
:100B7300933100120808BD3100120808D731001262
:100B83000808E63100120808F13100120808B132F2
:100B9300001208080A3300120808CC3300120808B0
:100BA300D4330012080898340012080804350012E0
:100BB30008082F3600120808543600120808CA36EF
:100BC300001208085C37001208081C3800120808D5
:100BD3003B38001208084A39001208085C39001231
:100BE3000808CC3900120808F63900120808843ABC
:100BF30000120808BD3A00120808093B0012080851
:100C0300253C001208086E3E00120808793E0012C7
:100C13000808843E001208088F3E00120808993E17
:100C230000120808A43E00120808BE3E001208087D
:100C3300C83E00120808D23E00120808DD3E00122A
:100C43000808053F00120808603F001208086A3FC1
:100C5300001208088E3F00120808B23F001208086D
:100C63001040001208085440001208087040001297
:100C73000808E740001208081F41001208086B41EA
:100C830000120808C841001208088242001208082E
:100C9300664400120808BF4400120808EF4500121A
:100CA30008081546001208089E47001208081A4B48
:100CB30000120808EC4C00120808B54E0012080890
:100CC300624F00120808CD50001208086C51001240
:100CD3000808B151001208081B52001208082A52D2
:100CE30000120808B15400120808635600120808DD
:100CF300D05600120808AF5700120808C85800124F
:100D03000808455A00120808645A00120808B95A1C
:100D130000120808BE5B00120808E65B0012080810
:100D23003E5C001208081D5D00120808615D001298
:100D33000808AC5D00120808175E00120808585F27
:100D430000120808BC5F001208080A6100120808B4
:100D53006A63001208089B630012080853650012B7
:100D63000808A86500120808AC660012080849675D
:100D730000120808A2670012080855680012080844
:100D8300F768001208089769001208083C6A001205
:100D93000808388601120808778601120808BE88F9
:100DA30001120808088901120808238A0112080899
:100DB3008B8A01120808C08A01120808348C0112B8
:100DC3000808B78E01120808E08F01120808769010
:100DD300011208087E9901120808139A01120808E3
:100DE300FA9C01120808ED9D011208085B9E01128E
:100DF3000808A19F0112080883A00112080868A22D
:100E03000112080879A401120808E3A401120808D2
:100E1300B5A501120808E3A501120808A0A601124E
:100E2300080877A7011208083EA801120808E2A8DB
:100E3300011208080BA9011208082DA901120808BC
:100E430083AB011208085BAC011208089FAC0112C6
:100E5300080807AD01120808BFAD01120808F1AD7B
:100E63000112080835AE011208086BAE011208081A
:100E7300B7AE011208080CAF0112080811AF011236
:100E8300080864AF0112080889AF0112080898B076
:100E930001120808FCB0011208086CB1011208081D
:100EA300F8B101120808C5B401120808A9B5011266
:100EB30008082CB70112080862B90112080810BA11
:100EC30001120808C0BA0112080801BD011208087E
:100ED300A4BD01120808EBBD0112080897BF011257
:100EE3000808ABBF01120808B5BF01120808DDBF2F
:100EF30001120808E9BF0112080808C00112080816
:100F030028C20112080877C301120808BBC30112E3
:100F1300080863C40112080846C501120808F1C590
:100F2300011208083DC7011208083BC8011208084E
:100F3300E1C80112080871C90112080888C9011221
:100F43000808BFC901120808C9C901120808D4C991
:100F530001120808F2C90112080836CA011208086A
:100F630093CA01120808B8CA01120808D2CA0112AA
:100F730008085ECB011208087BCC01120808E8CCF4
:100F830001120808CFCD01120808F6CD0112080896
:100F93006ACE01120808E5CE01120808E9CF011252
:100FA3000808DFD0011208088ED101120808A1D267
:100FB300011208083DD301120808CAD30112080818
:100FC300A8D401120808E0D40112080838D5011288
:100FD300080801D60112080822D601120808A9D66A
:100FE30001120808CDD601120808EFD6011208082D
:100FF30038D7011208084ED90112080835DA011250
:101003000808E6DA011208081CDD011208086CDD85
:1010130001120808ACDD01120808EEDD0112080810
:101023004ADE0112080878DE011208089CDE01126C
:101033000808EFDE011208081DDF0112080856DF59
:1010430001120808ABDF0112080811E001120808B9
:1010530065E10112080888E301120808F5E30112AB
:1010630008081EE401120808A9E40112080810E5A3
:10107300011208085BE5011208087FE50112080860
:10108300A3E501120808FEE50112080819E601129A
:101093000808D2E601120808548204120808938251
:1010A30004120808788002120808BE800212080899
:1010B3009E8102120808A08202120808A38302126A
:1010C30008082F85021208088D85021208084A862F
:1010D30002120808688702120808D9870212080852
:1010E3001588021208086388021208086D88021224
:1010F3000808B188021208080D8902120808A88995
:1011030002120808258A02120808F48A0212080843
:101113008D8B02120808AD8B02120808E38B0212B2
:101123000808148C02120808D58C02120808E58CF2
:1011330002120808398D02120808548D0212080899
:10114300668D021208086F8D02120808C98D0212FB
:101153000808258E02120808718E021208088C8E68
:1011630002120808BD8E02120808DA8E021208085D
:10117300E68E021208085A900212080873900212AF
:101183000808DA9002120808ED9002120808FB9092
:1011930002120808AF91021208089392021208087B
:1011A3009993021208082394021208082D9402123C
:1011B30008089A9402120808B19402120808E394EA
:1011C300021208081C950212080846950212080824
:1011D300A79502120808C79502120808E59502129E
:1011E30008082B96021208085197021208089E97C6
:1011F30002120808CD970212080843980212080841
:101203006B9802120808A49802120808B2980212F6
:1012130008080A99021208085999021208089899AD
:1012230002120808C89902120808F4990212080861
:10123300FF99021208081D9A02120808DF9A021287
:101243000808E99A021208082A9B021208087F9BE1
:1012530002120808939B02120808A19C02120808B4
:10126300B49C02120808C99C021208086B9D021262
:101273000808EE9D02120808AC9E02120808B79EE9
:1012830002120808E39F02120808FF9F02120808CF
:1012930051A00212080890A002120808A5A0021289
:1012A300080807A10212080896A102120808E1A182
:1012B3000212080832A402120808B0A40212080895
:1012C30025A50212080847A7021208085FA7021201
:1012D300080862A7021208086EA70212080882A76C
:1012E300021208088AA702120808BDA702120808FA
:1012F3006DA802120808E3A80212080856A90212F0
:1013030008080AAA02120808BFAA02120808DEAADD
:101313000212080884AB02120808AFAB02120808D5
:10132300B2AB021208081CAC0212080844AD021248
:1013330008081CAE02120808A7AE02120808C0AFC4
:10134300021208087DB002120808B6B0021208089B
:10135300E7B002120808A5B102120808D5B10212BB
:101363000808B0B20212080849B302120808D4B33D
:101373000212080885B40212080808B50212080808
:101383003AB5021208087BB50212080887F5011264
:101393000808ECF50112080829F60112080878F686
:1013A300011208088EF80112080871FA01120808E0
:1013B300DBFD0112080816FE0112080838FE0112AF
:1013C30008089BFE01120808CFFE01120808F2FE6E
:1013D300011208081FFF011208087BFF0112080809
:1013E300B1F3021208082FF40212080865F402127E
:1013F3000808D1F40212080844F60212080860F63D
:1014030002120808A5F60212080833F702120808A8
:101413008CF70212080886D602120808CBF90212CA
:10142300080828FA0212080894FA02120808F5FAC2
:101433000212080836FB02120808E3FB021208082E
:10144300F5FC0212080820FD021208086BFD0212C7
:101453000808B2FD0212080844FE02120808FFFE43
:101463000212080889E80312080804E903120808AD
:10147300BBDF0212080830E903120808FA990312C5
:101483000808049A03120808509A03120808BE9A1F
:1014930003120808DF9A031208088F9B0312080837
:1014A300239E031208082C9E031208087F9E031232
:1014B3000808A89E031208080F9F03120808A09F9C
:1014C30003120808E29F031208082CA0031208085D
:1014D3008BA003120808B7A00312080848A103123F
:1014E300080887A103120808C6A103120808FBA174
:1014F300031208080DA2031208081FA2031208080A
:101503003EA20312080847A203120808FDA2031211
:1015130008083DA303120808008004120808A8F273
:1015230003120808DEF20312080827F3031208085F
:1015330077F403120808886A00120808C76B0012C0
:101543000808036C00120808C26D00120808EB6D4E
:10155300001208087E7000120808C2700012080802
:101563004B7200120808E372001208084B73001252
:101573000808EC73001208082E74001208086E7431
:1015830000120808F97500120808697700120808A4
:101593008E7900120808BC7900120808E37900125A
:1015A3000808EC7900120808737A00120808917D84
:1015B300001208084E830412080864830412080802
:1015C300098204120808DAE103120808EDE10312A4
:1015D30008088AE203120808C5E203120808E0E2D9
:1015E3000312080805E3031208084AE30312080874
:1015F3007BE303120808ACE30312080832E5031285
:101603000808CDF90312080803FA031208081FFAA1
:101613000312080861FA0312080871FA0312080892
:1016230006FB0312080810FB031208083FE5031228
:10163300080805E603120808B5E603120808F3E6EE
:1016430003120808D4E70312080813E80312080872
:101653008AE602120808DFE602120808C8E7021247
:10166300080861E802120808ABE80212080808E952
:10167300021208081CE9021208084EE902120808BF
:101683004CEA0212080890EA02120808ABEA0212B6
:101693000808FAEA0212080810EB021208081DEB08
:1016A3000212080851EB021208086AEB021208083A
:1016B30034EC021208088EEC02120808DCEC021269
:1016C3000808FEEC0212080875EF02120808AAEFD8
:1016D300021208083AF002120808AFF002120808D2
:1016E300B4F002120808F0F00212080846F10212E0
:1016F30008080AF2021208082FF20212080839F247
:10170300021208083CF202120808C5F20212080885
:10171300E0F202120808F3F2021208082EF3021292
:10172300080831F3021208083CF30212080878F3A0
:10173300021208086DFF0312080885FF0312080848
:1017430054B503120808A3B50312080845B70312DA
:10175300080803B9031208084BB9031208086DBA45
:10176300031208089EBB03120808C0BB0312080833
:101773001CBC031208089EBC031208080080031255
:101783000808218003120808AB800312080830817F
:1017930003120808AC810312080815820312080813
:1017A300618203120808E08203120808728303129D
:1017B3000808FE8303120808408403120808AC8853
:1017C300031208082C8A03120808028B0312080864
:1017D300318B031208081C8D031208089C8F031217
:1017E3000808559003120808729103120808C99457
:1017F30003120808D994031208083A96031208083A
:10180300C69603120808EF9703120808E09803121C
:1018130008086299031208080CE701120808C6E7D2
:101823000112080838E801120808D4E80112080870
:1018330044E901120808FDEB01120808D4EC011277
:10184300080841ED01120808BEEE0112080888EFEE
:1018530001120808F8EF01120808C1F10112080883
:10186300D4F2011208086DF30112080833F40112CF
:101873000808B6D3031208080AD40312080862D46E
:1018830003120808ADD4031208080FD50312080881
:101893007BD5031208082ED6031208086FD603124D
:1018A300080885D603120808E1D6031208081FD7D3
:1018B30003120808DAF4031208080BF503120808E8
:1018C300C5F5031208082BF60312080865DB03129B
:1018D3000808F1DC03120808D98204120808EA8216
:1018E30004120808B4F603120808C2F60312080823
:1018F3008C8304120808738104120808838104127C
:1019030008089E8104120808FF81041208086BFE70
:1019130003120808F0FE0312080854FF0312080814
:1019230059FD031208087BFD03120808E5FD0312A5
:101933000808F0FD0312080834FE03120808A2ACDD
:1019430003120808B0AC03120808F1AC031208082C
:1019530012AD031208088FAD031208088FAE0312ED
:101963000808B1AE031208081DAF0312080838AF08
:101973000312080853AF031208085DAF03120808E7
:1019830067AF031208087AAF0312080893AF031274
:1019930008082FB003120808EBB00312080862B15D
:1019A30003120808DCB10312080828B2031208085E
:1019B300CEB203120808AAB30312080850D70312C1
:1019C30008085ED703120808D8D703120808BCD842
:1019D3000312080875DA031208082C830412080896
:1019E300D2BC031208083EBD03120808FDBD031252
:1019F300080807BF0312080860C003120808BBC029
:101A03000312080810C10312080819C103120808B9
:101A13002BC10312080895C103120808A9C10312B8
:101A23000808B3C10312080884C603120808D9C6FC
:101A330003120808D5C80312080807C903120808C7
:101A430029C90312080842C9031208085BC9031213
:101A5300080865CA0312080800CB031208086CF8CB
:101A63000312080890F803120808A9F803120808DB
:101A7300DCF8031208080DF9031208083BF90312F6
:101A830008089DF903120808ACF903120808B6F90F
:101A930003120808C3F90312080855EB03120808D8
:101AA3007BEB03120808B8EB03120808C7EB031219
:101AB3000808E6EB031208084EEC0312080857EC7B
:101AC30003120808B6EC03120808DAEC031208083C
:101AD30099ED03120808A6ED03120808B7ED0312E7
:101AE30008089D8204120808BA820412080877CBFA
:101AF30003120808D5CC03120808E2CC0312080825
:101B0300F5CC0312080814CD031208082ACD0312DA
:101B130008083ECD03120808B3CD0312080818CEF7
:101B230003120808C8CE031208089DCF0312080841
:101B3300ADCF03120808BCCF03120808DA800412E1
:101B43000808FE80041208082681041208084E8142
:101B530004120808E5ED031208080CEE0312080846
:101B63002DEE0312080892EE031208084BF003123D
:101B7300080864F00312080870F00312080884F0E0
:101B830003120808A2F003120808ACF003120808B5
:101B9300B6F003120808C9F0031208081CF1031277
:101BA300080855F10312080884F103120808D2F15A
:101BB3000312080821F2031208083CF20312080872
:101BC30046F20312080857F2031208089DF20312A3
:101BD300080876FF0212080866A30312080890A3F8
:101BE30003120808ACA303120808BFA303120808D2
:101BF300D5A30312080832A40312080865A403122C
:101C03000808A1A803120808C7A903120808FAA91B
:101C13000312080846AA0312080872AB0312080845
:101C23009AAB03120808AFAB03120808BFAB031249
:101C3300080803AC0312080864AC0312080874AC68
:101C43000312080813FB031208082EFB03120808EB
:101C530057FB0312080871FB0312080896FB0312D3
:101C63000808B5FB03120808CDFB03120808FBFBA9
:101C73000312080815FC03120808BAFF0312080828
:101C83005ADE0312080861DE031208086DDF03122F
:101C930008089DDF03120808C3DF03120808E6DF04
:101CA3000312080808E00312080842E003120808B8
:101CB300A8E003120808E1E0031208082DE103126B
:101CC30008085AE1031208087AE103120808127E91
:101CD300001208082A7E00120808187F001208085C
:101CE300F77F0012080846FC03120808B8FC031229
:101CF3000808F6FC0312080837FD03120808F5CF9D
:101D03000312080814D00312080863D0031208084A
:101D13007FD003120808B0D003120808BDD0031205
:101D23000808CAD003120808B6D103120808F4D170
:101D33000312080804D3031208080FD30312080878
:101D430021D3031208082AD30312080834D3031239
:101D53000808C7C1031208080CC6031208081AC6EC
:101D630003120808C7FF02120808C7FF0112080878
:101D73000483041208086E8304120808DAD50212D9
:101D8300080820D402120808D0D10212080857D13B
:101D930002120808FED0021208088ED002120808A8
:101DA30065D00212080845CE0212080811CE0212AD
:101DB3000808DECD02120808C2CD02120808DBCCE7
:101DC3000212080893CC02120808DECA021208089D
:101DD3005ECA021208085BCA0212080858C9021236
:101DE300080826C90212080863C8021208088EC62A
:101DF300021208081FC602120808F1C502120808D9
:101E03003FDF02120808F6DE02120808AEDE0212F5
:101E13000808FCDD021208086EDD02120808EEC590
:101E230002120808DBC50212080886C50212080858
:101E330061DD0212080875C50212080867C40212A0
:101E4300080831C402120808DFC3021208085BDA6B
:101E5300021208080FE90312080880C302120808D7
:101E63004FC30212080817C002120808D7BF021294
:101E73000808CBBF021208082BBF021208086BBE6A
:101E830002120808EDBB021208087EB90212080804
:101E93003CB90212080810B802120808C5B70212AA
:101EA300080804B702120808D7B6021208081AB6BF
:101EB30002120808B0B502120808EAB502120808AF
:101EC300BDD702120808B9F80200000080FBE473D2
:101ED30000000000000000000000000000000000FF
:101EE30010101010101000003030000000142850A3
:101EF300000000000000000000000000002828FC93
:101F0300284850FC5050000000001038545430183A
:101F130014545438100000000044A8A8B0541A2ADE
:101F23002A44000000000020505060ACA898927C26
:101F3300000000606020C0000000000000000000FE
:101F43000004080810101010101008080400000006
:101F5300402010080408102040000000000000107A
:101F630010D63838D61010000000000000101010F2
:101F7300FE10101000000000000000000000000030
:101F83000000606020C0000000000000FC000000B2
:101F9300000000000000000000000000000060607E
:101FA3000000000204040408081010202020400050
:101FB300000000304884848484844830000000009A
:101FC3000010701010101010107C0000000000387A
:101FD300444404081020447C0000000000384444BA
:101FE300180404444438000000000808182848482E
:101FF300887C081C00000000007C404078440444B6
:10200300443800000000003C4480B8C484848478D1
:1020130000000000007C444808101010101000005D
:102023000000007884844878848484780000000069
:1020330000788484848C740488F00000000000001D
:1020430000303000000030300000000000000000CD
:102053001000000000101020000004081020402091
:102063001008040000000000000000FC0000FC0059
:102073000000000000004020100804081020400069
:1020830000000000788484840810100030300000C1
:1020930000000038449AAAAAAAB4423C00000000F7
:1020A300001010282828384444EE0000000000F8EF
:1020B30044447844444444F800000000003C448411
:1020C3008080808044380000000000F0484444448D
:1020D300444448F00000000000FC44404878484075
:1020E30044FC0000000000FC42404878484040E0C7
:1020F30000000000003C448480808E84443800004B
:10210300000000EE4444447C444444EE00000000DC
:10211300007C101010101010107C00000000007CD8
:10212300101010101010101090E0000000EE444842
:102133005070484844EE0000000000E0404040403A
:10214300404044FC0000000000EE6C6C6C5454549E
:1021530054D60000000000EE64645454544C4CE424
:1021630000000000003048848484848448300000E8
:10217300000000F844444478404040E00000000080
:1021830000304884848484B448380C00000000F88C
:1021930044447850484844E600000000003C444072
:1021A3002018040444780000000000FE9210101070
:1021B300101010380000000000EE4444444444442E
:1021C30044380000000000EE44442828282810105A
:1021D3000000000000D6545454546C2828280000F2
:1021E300000000EE44282810282844EE00000000D8
:1021F30000EE442828101010103800000000007C66
:1022030088081020204044FC0000001C101010100F
:102213001010101010101C0000701010101010106F
:10222300101010107000007010101010101010100B
:1022330010107000001028000000000000000000D3
:10224300000000000000000000000000000000FE8D
:1022530000606020C00000000000000000000000DB
:102263000000000038441C24443E0000000000C06D
:1022730040407844444444780000000000000000DB
:102283003C444040443800000000000C04043C443B
:102293004444443E000000000000000038447C40F9
:1022A300443800000000001C2420F820202020785F
:1022B30000000000000000003C48483040784438EB
:1022C300000000C040405864444444EE0000000055
:1022D3000010000070101010107C000000000008B7
:1022E30000003808080808080870000000C04040D3
:1022F3005C48507048EC0000000000701010101093
:102303001010107C0000000000000000F85454542A
:1023130054D60000000000000000D864444444EE9A
:10232300000000000000000038444444443800002A
:10233300000000000000F8444444447840E00000FA
:10234300000000003C444444443C040E00000000F0
:102353000000EC30202020F8000000000000000006
:102363003C443008447800000000000010107C104A
:102373001010100C0000000000000000CC44444486
:10238300443E0000000000000000EE44282828100E
:102393000000000000000000D65454542828000018
:1023A300000000000000DC48303048EC0000000072
:1023B30000000000EE442828101020E00000000078
:1023C30000007C481010247C000010101010101026
:1023D300101010101010101000013636010100010A
:1023E30002010001030100010401060605020000C9
:1023F300070100340801000F090401010D0100FF6A
:102403000E08000017020000190100FF1A01000165
:102413001B0100FE1C0100081D0200001F0100013A
:1024230020010001210200002301000F240200000B
:102433002601000127010008280200FF2A010007E6
:102443002B0102402C0100002D0100012E0100018F
:102453002F0100FF30010B1C310800003A01000876
:102463003B01000F2F010000010171010101010176
:10247300110101013101010101018001100161011B
:102483003B00140063017301720162014301000107
:10249300130106013D013500040112010001000191
:1024A3000001000104010401330133013C01440133
:1024B3003201360000010001650100013500810190
:1024C3000001050182018301000103027102300151
:1024D3006002110270020102020202028002100273
:1024E30061023A0041006302730272026202430214
:1024F300000213023800000200020402120200026A
:1025030000020002000204020402370037003C020A
:102513004402000239000002000265020002350293
:10252300810200020502820283020002030071009D
:10253300300160001100700031022003500480005C
:102543001000610000001400630073007200620059
:102553004300000013000600000000000400120006
:1025630000000000000000000400040037003700F2
:102573003C02440000000000000000006500000071
:102583003500810000000500000083000000010306
:102593007103010301030103010301032203020386
:1025A30001031003000300030003000300030003FF
:1025B3000003420300032403060300030003040390
:1025C3001203250323032503230304030403000346
:1025D3000003000344030003000323030003650314
:1025E30021003503810300030503000300030003F7
:1025F300030471040204600411047004020402045D
:102603000104020410046104000414046304730449
:102613007204620443040004130406040004000467
:1026230004041204000400040004000451046400C0
:102633000004000400044404000400040004000433
:102643006504000435048104640005040004830464
:102653000004C9EEDBDACAD0B0B2C1AAB5C2BFC6A4
:10266300BCBCD3C3BBA7B5C7C2BCD5CABAC5C3DC40
:10267300C2EBC8B7B6A8C8A1CFFBD7A8D2B5D7A815
:10268300D7A2CEDECFDFCDA8D1B6B3CFD0C5C1A2FE
:10269300D7E3B4B4D0C2D6C2D4B6C7BFB4F3D4ADB3
:1026A300A3BA0036000100060000000F000000007E
:1026B30000000000000000000003FFFF000004030F
:1026C300FFFF0000FFFF0FF4010005C40403200017
:1026D3000100030B000000000000000003010F00D5
:1026E3000030181300D0170100301802009A1703A6
:1026F30000A0170400A6170500AC170600B817FFC3
:10270300FF000001DA0D060A0E08040E0B160E1068
:10271300560D02E00D05F80D07E60D0CBC0D0DCEB0
:102723000DFF000003EAF5E5D5D5C5B5A59595855B
:102733008575756565555545453535252515150546
:10274300E2111212E811EE110C120012FA11181212
:102753001E1224123012F411DC11D61100160F00D0
:10276300000B150B020002220F32000006CC12DE12
:1027730012E412AC11EA12A611B211261344134A41
:10278300132C1338133213E610E0101C1122111608
:1027930011CE100C0E020B040B0A0708000F0038B1
:1027A3003C3E363B3B352B432C00011916181616BD
:1027B3001523030000034948424D1817250502302D
:1027C3003017181921301B1D1F30303016181920EF
:1027D300231A1C1E301A13F012F6120213FC1206EF
:1027E300122A123E1336123C1202040201010101A5
:1027F3000902F210F810EC1028110000000000008C
:10280300FE10101100BE040A0E0004007F00E8034E
:102813000C00280000000000090308100C0A03083C
:102823000900040001FF1E1E0C050408100FC082DE
:10283300C0838A828B83E0D2E7F01216FE0239A8A6
:10284300C082C0837900122CFD125A14C082C08347
:1028530090033412479AD083D082C3E09CA3E09DB7
:10286300500C1260E8FAA3E01228746001090239DF
:10287300A8FBEA75F00BA4FAA8F075F00BEBA428FB
:10288300FB900336E02AF8A3E03B8882F583E0540B
:102893000F2274F71203738908122CFD122DA3ACB7
:1028A300F075F00BE9A42CF9900336E028FEA3E0C1
:1028B30039FF7401650860067402650870208A8216
:1028C3008B83122D8F123A7674026508701B122CBB
:1028D3004E122DD670138E828F83E4F0800BEA2480
:1028E30003FCEB122D71122D7DEEFAEFFB120AE6BB
:1028F3000239E074F4120373126A0F79008E828F27
:1029030083E06076890A890B8065E50A75F00BA47C
:10291300FAA8F075F00BE50B1228817046E50A75ED
:10292300F00BA4F8AAF075F00BE50B122DB58E820F
:102933008F83E0850882850983122E978508828517
:102943000983A3123A76EE2403FCEF122D7A12398F
:10295300AF12548EAA08AB09120AE6790190033428
:10296300124EA3E50A2401F50AE50B3400F50B1218
:102973002C56E50A9AE50B9B4090023C2074F51215
:102983000373EAFEEBFF740B120AA91239B4750A3A
:1029930001EC4D602BEC126A2BED125A14123A6EB5
:1029A3007901120AF2E5084509606F8508828509F5
:1029B30083A3126A197902AA08AB09120AF2805A90
:1029C300E5084509602B125A181240E21239B01279
:1029D3002DC0700CEEFAEFFB120AF8E9F50A80CB72
:1029E300EE2403FA122CF870317903EEFAEFFB8030
:1029F300CA8E828F83A3E064FE7003A3E0F4700B9E
:102A0300EE24030A0A0A122CF8700CEEFAEFFB12FA
:102A13000AF8E9F50A8003750A00A90A7F0302058B
:102A23008D74F71203739003341239F0EA4B602F5D
:102A3300EA75F00BA4FAA8F075F00BEBA428FBEAF7
:102A4300FEEBFF12152A9003361239F0900336126B
:102A53004CE86012EEFCEFFD790012148E800790B3
:102A63000336E4F0A3F00239E0900334124452C376
:102A7300EE98EF9922C082C083EC4D6005121CF8DA
:102A830080097C087D00790012148E0239A874F63F
:102A93001203737900EA4B601878008808125D5BB3
:102AA300EB1260E460047901780808E8C3940840F5
:102AB300EA023A7F74F712037374F31208E7ECFE29
:102AC300EDFF851882851983E4F004120AA9EAF060
:102AD300A3EB1252147403120AA9AC82AD83EEFA6B
:102AE300EFFB120B0AEEFAEFFB120B100239DB7449
:102AF300F712037374F31208E7ECFEEDFF851882F7
:102B0300851983E4F0EAFCEBFD7403120AA9122E83
:102B1300907401120AA9123A6A8E828F83123A764E
:102B230074FE68700374FF696004790180027900A0
:102B33000239DB74F7120373EAFEEBFF122B947076
:102B430014122B9F8E828F83E0F4F88A828B83E0AA
:102B530058F0120AE6A9080239E074F7120373EA7F
:102B6300FEEBFF7508008E828F83E06022122B94A8
:102B7300701D122B9F8A828B83E08F838E82F8E0F5
:102B830058700CE0F88A828B83E048F0120AE680E2
:102B9300C4120AECE9F5087401650822126A2412CA
:102BA3002DA7122CE9FAA3E039FB2274F412037364
:102BB3008A088B097C007D00122C4E122D7D122D6C
:102BC3000E126A167900850882850983A3E064FEE4
:102BD3007003A3E0F460717E007F008062EEFAEF81
:102BE3001228746057EEFAEFFBEA75F00BA4FAA80B
:102BF300F075F00BEBA428FB900336E02AF50AA34B
:102C0300E03BF50B850882850983A3125162850A8F
:102C130082850B83A3E06A7003A3E06B701EE50A51
:102C23002403FAE50B122CF9700AE50A2403FCE5E8
:102C33000B122D7A122D027901125A2A1235ED1236
:102C43002C56EE9AEF9B4095023C20EA24030A0A95
:102C53000AEB22900334125601C32274F312037356
:102C63008A088B098A828B83A3126A19122CFD129C
:102C73006A16750C00122C4E122CF970547E007FCC
:102C8300008049122CDBFAA3E0398A82F583E054F1
:102C93000F6036122CDBF50AA3E039F50BE50A24A5
:102CA30003FCE50B122D843400FB121CF2E96401D2
:102CB3007017850A82850B83A31256C2A3123A7634
:102CC300122D02750C01125A2A1235ED122A6C408C
:102CD300B2A90C7F0502058DEEF8EFF9E875F00B4C
:102CE300A4F8122CE922AAF075F00BE9A42AF990B2
:102CF3000336E02822EF122DD022126A2AEB221289
:102D03002D0E125A25EEF0A3EFF022E508126A2BDE
:102D1300E5092274F5120373EAFEEBFF8E828F83BB
:102D2300A3126A197C007D00EE24030A0A0AEF123B
:102D33002D7DEEFAEFFB120AECE9F50A7401650A40
:102D43007029126A24122DA3AAF075F00BE9122D33
:102D5300B5850882F583122D8F122DC0700DE508FD
:102D63002403FCE509122D71122D7D022A1D340066
:102D7300FDEE2403FAEF22122D843400FB120B0A1A
:102D8300223400FDE5082403FAE50922A3122D9459
:102D930022122D9822E0F8A3E0F98E828F83A322DA
:102DA300122DA7223400F583124456E875F00BA4C4
:102DB300F822122CEFF508A3E039F50922E8F0A375
:102DC300E9F0E5082403FAE509122DD022122DD6E5
:102DD3006401223400FB120B10E92274F312037313
:102DE30074E61208E7126A0F750C0175080075097D
:102DF30000750A00750B00851882851983E4F0EECF
:102E03002403FCEF3400FD7403120AA9122E90E987
:102E130064017023740B120AA9123A6E7401120A28
:102E2300A91251667003A3E0696051851882851960
:102E330083858208858309740D120AA9E4122E97EB
:102E4300740E120AA9123A76740D120AA9AA82AB59
:102E530083120B2EE96401700B740D120AA985828B
:102E63000A85830B780A120840AC08AD09EEFAEF25
:102E7300FB120AFE7402120853E9F50CEEFAEFFB9B
:102E8300120B28A90C741A120853022CD6123163A0
:102E9300120B34221239EB12445222C082C08378BF
:102EA3000079008003122F8E122C56E89AE99B506A
:102EB30029E8FAE9FBEA75F00BA4FAACF075F00B1C
:102EC300EBA42CFB900336E02AFCA3E03B8C82F5B9
:102ED30083E0540F70CF7900800279010239A8C0D2
:102EE30082C0839004EE1244A8EC75F012A4FCA8EF
:102EF300F075F012EDA428FD79FF7A267B0B1214EE
:102F03008E0239A874F7120373E9FEEAFF7A007B95
:102F130000780079008028E8FCE9FDEC75F012A444
:102F2300FC85F00875F012EDA425081233A3C39EA7
:102F3300400AE0FCEFC39C40031234C2122F8E12EE
:102F4300339740D30239E0C082C083780079008090
:102F530003122F8E122F82501F1233A7F470F2E840
:102F630075F012A4F8AAF075F012E9A42AF97426F0
:102F730028FA740B39FB80047A007B000239A8908D
:102F830004EE123458C3E89AE99B22E8240108E9C5
:102F93003400F92274F012037374F31208E78A0AF7
:102FA3008B0B8C0C8D0D8908EC450D6016AA0CABB0
:102FB3000D120B828A0E8B0FAE0EAF0FEE4F600316
:102FC300023055120B588A0E8B0FA80EA90FE8FE7C
:102FD300E9FFE849607C9028191230B76022740336
:102FE300650860067404650870167A047903120B89
:102FF300529028191230CE40077A007B000230B479
:103003009028171230B7601B7401650860067402BC
:103013006508700F7A027901120B5290281712304B
:10302300CE50D68518828519837401F0120AA9122D
:10303300548EAC0CAD0D7403120AA912315C740BDF
:10304300120AA91239BC123E56E412547612102603
:103053008004EE4F604A780074FF2508C39404503F
:103063000278048E828F8312548E8E828F83A3A361
:10307300A3A3E508F0E88E828F83A3A3A3A3A312DF
:10308300549612022212346F8E828F83A3A3A3A3BA
:10309300A3A3A3F0123466120A86125A0E120A92DE
:1030A3001230BC4005901082E4F0120F00EEFAEFEC
:1030B300FB02445C1255B049227A047900120B5288
:1030C3009004EE1260CAEA98EB99221230E77583F6
:1030D300047582EEE493C398F8A3E49399F9C3EAE1
:1030E30098EB9922E493F8740193F92274F2120392
:1030F3007374F31208E78A088B09ECFEEDFF750A77
:1031030000EEFAEFFB120B828A0C8B0DA80CA90DB3
:10311300E849603E88828983E065087004A3E0651E
:1031230009602F88828983A3A3A3A3E0C3940550D6
:10313300211258BC8518828519837401F0120AA9DB
:103143001258C0EEFCEFFD7403120AA912315C752C
:103153000A01A90A740D024F5A123163120B40225D
:10316300AA82AB83120B0A851882851983AA82ABC4
:10317300832274F61203731231B1600FA3A3A3A3C6
:10318300E014C394045004790180027900023A7F69
:1031930074F61203731231B1600FA3A3A3A3E01457
:1031A300C394025004790180027900023A7F120B22
:1031B3007C8A828B83E58245832274F61203731221
:1031C30031B1600BA3A3A3A3E0700479018002795A
:1031D30000023A7FC082C083EAFCEBFD7A007B00E9
:1031E3000239A5C082C0837C007D000239A574F436
:1031F30012037374F31208E7EAFEEBFF8C0A8D0BDC
:10320300C3EC94F8ED94FF4007EE4F70030232AA2B
:10321300750800750900802E85188285198374014D
:10322300F0123615120AA912362360137403120A18
:10323300A9AC82AD83EEFAEFFB121CF2E97049E50B
:103243000824011234439004EEE41255B8E50898BB
:10325300E509995052E50875F012A4F8AAF075F043
:1032630012E509A42AF91260FD60D4EE4F70A97427
:10327300FF650A700474FF650B60C4123605650AA6
:103283007004A3E0650B70B7E50875F012A4F508A8
:10329300A8F075F012E509A428F50974262508FAA3
:1032A300740B3509FB80047A007B00023C1B74F429
:1032B30012037374F31208E7750800120B828A0A6B
:1032C3008B0BAE0AAF0BEE4F602A851882851983EC
:1032D30074011239E5F8A3E0F9740B120AA9123A42
:1032E300F9120B227C127D0079FFEEFAEFFB121428
:1032F3008E7508011230BC50099010827401F012CF
:103303000F00A908023C1B74F7120373E9FE74FE55
:103313006A700374FF6B7800790070058052122F76
:103323008E123397504AE8FCE9FDEC75F012A4FCC9
:10333300AFF075F012EDA42F1233A3F460E0E8FCB4
:10334300E9FDEC75F012A4FC75F012EDA42FFD74E9
:10335300262CF582740B3DF583E06A7003A3E06BC2
:1033630070BC80091233A714C394044017122F8E24
:10337300122F825018EE70EC1233A764016005E03F
:10338300640370E91235F6FAA3E0FB80047AFE7B4E
:10339300FF0239E09004EE1244ACC3E89CE99D229D
:1033A3001234F722E8FAE9FBEA75F012A4FAACF05A
:1033B30075F012EBA42CFB742A2AF582740B3BF5EF
:1033C30083E022120B940239A8C082C08379018062
:1033D300F274F01203738A0A8B0B7A047901120BCD
:1033E300528A0C8B0DEA450D603EEAC333FAEB3388
:1033F300FB12152A8A088B09AE08AF09EE4F60232A
:103403007AFE7BFF120B9A74FE6A700374FF6B6083
:103413001B8508828509831239F0E50824021234DA
:103423004380E1750C0080047E007F00850A82855D
:103433000B83E50CF0EEFAEFFB024461E508240789
:10344300F508E5093400F509229004EE1244ACC3F3
:10345300EA9CEB9D22E493FA740193FB22121482FB
:10346300740322125A1FE4F090861322E88E828F8F
:1034730083A3A3A3A3A3A3A3A3123491740112341C
:1034830091A3F0EE2410125A22E4F0A3F022123E8C
:1034930062A3A3A322C082C0837A007B00800419A5
:1034A3001234C212344C50101234E1C3940550F05C
:1034B300E970EC1234CB80047A007B000239A8EA6D
:1034C30024010AEB3400FB22EA75F012A4FA75F02A
:1034D30012EBA428FB74262AFA740B3BFB22EAFCAA
:1034E300EBFDEC75F012A4FCA8F075F012EDA42826
:1034F3001234F722FD742A2CF582740B3DF583E018
:103503002274F712037374F31208E77E007F00023C
:1035130035A9E50875F017A4F8A9F012635EFAA3BC
:10352300E0FBEEF8EFF9E875F012A4F8ACF075F0F3
:1035330012E9A42C1236046A7003A3E06B603FE522
:103543000875F017A4F8AAF0EA12635DF8A3E0F98E
:103553007401120AA9E0687003A3E0696020E5081A
:1035630075F017A4F8EAF974A228FC740C39FD74F9
:1035730003120AA9AA82AB83121CF2E96014E508BC
:1035830075F017A4F8A9F074A028FA740C39FB128B
:103593001032050890281EE493F8E508C3985003F9
:1035A3000235151235ED9004EE1266A45039EEF88B
:1035B300EFF91235F6F47003A3E0F460E6851882A0
:1035C3008519837401F0EEF8EFF9E875F012A4F8A9
:1035D30075F012E9A42AF9123615120AA912362334
:1035E30060C175080080AD0239DBEE24010EEF34B3
:1035F30000FF22E875F012A4F8AAF075F012E9A40E
:103603002AF912360922742628F582740B39F583B8
:10361300E022742828F582740B39124450740B226B
:10362300E8F0A3E9123B01120B3AE922C082C083FE
:1036330090033D74F2F0A3740DF090033F74ECF02B
:10364300A3740DF0900343740CF0A3740CF00239CF
:10365300A874F7120373EAFEEBFF900377E06408A4
:10366300601BE0640460168E828F83E05403640160
:1036730070481239AF123F57E06406703D8E828F57
:1036830083A3A3E064FE7003A3E0F4602D8E828F16
:1036930083A3A3123A6A900368E0687003A3E06906
:1036A300700BEE2415F582EF1260E46008120EA091
:1036B300E9F5088008120EA680F67508C2EEFAEF47
:1036C300FB121530022B5874F41203738A088B090A
:1036D3008A828B83E0F8A3E0FAE82AFAE43400FB59
:1036E30012152A8A0A8B0BAE0AAF0BEE4F60638565
:1036F3000882850983E0FC7D00790012148E8E8296
:103703008F83A3A3126A19120EE28E828F83A3A35F
:10371300A3A31239F0850882850983E0F8EE28F81F
:10372300EF3400123A72850882850983A3E0C0E072
:10373300EE240D125A11D0E0F0120EF4EE240E1204
:103743005A11E91250C3E0C0E0EE2411125A11D00D
:10375300E0F0EEFAEFFB023C2074F612037374EB15
:103763001208E7EAFEEBFF124CE560030238007A29
:10377300077B0012152A9003391239F0124CE560C9
:10378300788E828F83120A8690033A123F5A120A66
:10379300921268DDC0E012380CD0E0F0EE2405FA96
:1037A300EF3400FB8A088B098A82F583E0C0E012BC
:1037B3003807D0E0123C17E0C0E0123807A3D0E08E
:1037C300123A5C120A86851882851983120A928836
:1037D300828983E0C0E07405120AA9D0E0F085086D
:1037E30082850983E0C0E07404120AA9D0E0F07472
:1037F30007120AA9123942800679108002790174EE
:1038030015023A7C12380CA322900339E0FAA3E0A4
:10381300F5838A82A3A3A3A322C082C083124CE5AB
:10382300600D9003391255EF900339E4F0A3F012C1
:103833000E10120FD20239A874F012037374EB1234
:1038430008E7ECFEEDFF89087425120AA9780C122B
:103853000A4C7429120AA9E0F9742A120AA9E0FC95
:10386300742B120AA9E0FD740F697005740F6C6064
:10387300129010D6E06402700579C102393DE9C3A4
:103883009C40F6900378780C120A6AE50890037E50
:10389300F0E990037CF0ECA3F0ED90037FF074FF6C
:1038A3006A700374FF6B701D9010E1E0F47003A362
:1038B300E0F470051214A0800C9010E11239C5E8F1
:1038C300F0A3E98007900375EAF0A3EBF0EE4F60F5
:1038D30017EEFAEFFB121092E96401700BEEFCEFA6
:1038E300FD7A897B03121CF8900368E4F0A3F0903F
:1038F300036BF0A3F0900388F09010D6E06402709D
:103903000890037C740FF0A3F09003777405F01410
:10391300120AA9E4F0900378120A868518828519A1
:1039230083120A9290037EE0C0E07405120AA9D0C4
:10393300E0F07407120AA9123942741502445EE4D6
:10394300123B01121D2222C082C083900338E07013
:10395300031217CA120BDC804CC082C08390033859
:10396300E09010817004E4F0802D7401F09003382E
:10397300E0F460237C41E0C394415002E0FCECF8A6
:10398300E0C398F0EC75F0E8A4CCA8F075F003A4BC
:1039930028FD7A801244B47A817B107941121D107C
:1039A3008003120B88D083D082020805EE125A20BE
:1039B30022E0F508A3E0F509221239C022122D985E
:1039C300A3221244529003752274F7120373EB90EF
:1039D300037FF0120DFE8005740D1208537F010260
:1039E300058D1239EBA3E022123A5CA322EAF0A37D
:1039F300EBF02274F712037374F81208E7EAFEEB94
:103A0300FF7900900377E064087044851882851974
:103A13008374FDF0A374FFF0120EDC7402120AA982
:103A23001239F07405120AA9E41239EBE0C0E0740C
:103A330004120AA9D0E0123A57C0E07406120AA988
:103A4300D0E0F07407120AA9E4123AFD120F1E74B3
:103A5300080239DD123A5CE022F08E828F8322F075
:103A63008518828519832212445222E0F8A3E0F9D3
:103A7300125A1FE8F0A3E9F0221208537F0202054D
:103A83008DC082C083900349749CF0A3740CF090A2
:103A930003EF7478F0A3740FF090034D74D2F0A386
:103AA300740CF090034F749CF0A3740CF0900351CA
:103AB30074D8F0A3740CF00239A874F4120373746D
:103AC300F91208E78A088B098C0A8D0B8518828501
:103AD30019837808120A6A7404120AA9E9F07405B2
:103AE300120AA9E4F07406120AA9E4123AFD120BB1
:103AF300C47407023C1DE8F0A3E9123B0122123A09
:103B030062AA82AB832274F41203738A088B098A34
:103B1300828B83125A2DEE4F7003023C15900312D1
:103B2300124CE860158A828B83A3A3E0F9EEFAEFC7
:103B3300FB900313123F5A121ED18E828F83A3A3CD
:103B4300A3A3A3A3A3A3A3E0640270748E828F83B1
:103B5300A3A3A3A3A3A3E054027003023BE7850836
:103B630082850983A3A3E064E960798E828F83A3AE
:103B7300A3A3A3A3A3A3A3A3A3E070149010D9E0CA
:103B8300048E828F83A3A3A3A3A3A3A3A3A3A3F0BE
:103B93008E828F83A3A3A3A3A3A3A3A3A3A3E014AE
:103BA300123C17A3A3A37404F09010DA125468E82C
:103BB300F0A3E91265418B0BEA450B7003125F1FFB
:103BC3008E828F83A3A3A3A3A3A3A3A3A3E06402CF
:103BD30060128E828F83A3A3A3A3A3A3A3A3A3E0B3
:103BE3006406702E8E828F83A3A3A3A3A3A3E0A254
:103BF300E0501F850882850983A3A3E0F9EEFAEF5D
:103C0300FB121DB28E828F83A3A3A3A3A3A3E054AD
:103C1300FEF08009123E5E22740D1208537F0402E7
:103C2300058D74EC12037374DD1208E7EAFEEBFFF3
:103C33008C088D097437120AA9780C120A4C750A7C
:103C4300007405120AA9AC82AD83120AC27412125F
:103C53000AA9E070087415120AA9E060207405121D
:103C63000AA9E0A2E6501E8E828F83A3A3A3A3A377
:103C7300A3A3A3A3125162120F54E960087903129C
:103C83001CE0023E447405120AA9E0540C6404705B
:103C930005750B018003750B00E0A2E55035750A2D
:103CA30001E50BA2E0402C120EE28A108B11A81042
:103CB300A9111239AFE0687003A3E06960157405B8
:103CC300120AA9126A2012515E121DBEE96004791C
:103CD3000480AC7405120AA9E0A2E650227406120D
:103CE3000AA9E0540370187405120AA9E0540C647D
:103CF3000C600CE0540C64086005751001800375BA
:103D030010007405120AA9E05403F8740268700CD9
:103D1300126A2012515E120AD4023E447401687082
:103D23003AE510A2E05003123E4C7405120AA9A80A
:103D330082A9837403120AA9E8F0A3E91244468511
:103D43001882851983123E56E0C0E07402120AA954
:103D5300D0E0123AFD121EA2023E44E86003023E86
:103D63004490035FE0640170108E828F83A3A3A34A
:103D7300A3A3A3E07003023CD27422120AA9740223
:103D8300124446741A120AA9123A76E510A2E050B8
:103D9300087405120AA9123E4CE50BA2E0506AEE24
:103DA300240FF582EF1260E4C0E07417120AA9D061
:103DB300E0F0900314124CE87003023E44120EE24A
:103DC3008A128B13A812A913741A120AA9E0687035
:103DD30003A3E069706B780C120838780A12084460
:103DE3007808120840A910740C120AA9AC82AD839A
:103DF3007421120AA9AA82AB83900314123F5712AB
:103E03001ED174071208538038780C120838780AC8
:103E1300120844780812084090037512065CEE24D9
:103E230012F582EF125E127423120AA9AC82AD83DB
:103E3300740E120AA9AA82AB83121DA67409120872
:103E430053742312085302650C126A201255FD1293
:103E53000AC822E8F0A3E9123E5E22123E6222F073
:103E63008E828F83A3A3A3A3A3A32274F712037346
:103E73001216B60239E074F71203731216BC023934
:103E8300E074F71203731216C80239E0C082C083CC
:103E93001216C20239A874F71203731216CE02392E
:103EA300E074F71203737409120AA9E0F50878089D
:103EB3001208441216DA74010239DDC082C083127B
:103EC30016E60239A8C082C0831216EC0239A87420
:103ED300F71203731216F20239E074F7120373EA4E
:103EE300FEEBFF89087401650870147900120D1444
:103EF300902829E493FC7900EEFAEFFB120C8A0276
:103F030039E074F412037374F91208E7E9FE8A08BE
:103F13008B098C0A8D0B7413120AA9125162900536
:103F230099124CE86027EE851882851983F0740195
:103F3300120AA97808120A6AEAF8EBF97405120A58
:103F4300A9123AF9900599123F57121ED1023AF479
:103F5300FB90034BE0F8A3E0F583888222C082C084
:103F6300831217220239A874F7120373901084E0A6
:103F7300F97E00800B1260D0540D64017001190E9C
:103F83001241645003E970ED0239E074F7120373D0
:103F9300901085E0F97E00800B1260D0548D64810F
:103FA3007001190E1241645003E970ED0239E07497
:103FB300F2120373890BE975F006A4240CF508E5E6
:103FC300F01234478A0CE508250CFAE5093400FBA6
:103FD30012152A8A0C8B0DAE0CAF0DEE4F6027AC79
:103FE30008AD09790012148E1239AFE50BF0EE25F6
:103FF30008F8EF3509F98E828F83A3A3A3A3A3A3A4
:10400300A3A3A3123A76EEFAEFFB024F5D74F61206
:104013000373EAFEEBFF120C66901083E0F8E9C32A
:10402300984009900345125162120C6CEE2402F879
:10403300EF12577290034712562C900347E004F097
:10404300EEFAEFFB120C72850882850983E0025CAD
:1040530028C082C083790090034580010912516210
:104063008A828B83E582458370F20239A874F71242
:104073000373EAFEEBFFEE4F6056900345124CE8E4
:10408300604E888289837A007B00EE65827003EF3D
:104093006583600FAA82AB831240D6E582458360B5
:1040A3002F80E79003451240E2687002EF698E8229
:1040B3008F837008123A6A900345800312651E12BB
:1040C3003A76EEFAEFFB121E72EEFAEFFB121530A0
:1040D3000239E01240DA221244568882898322127E
:1040E3004452EE22C082C0839003458004888289B3
:1040F30083124CE8600B8882898312479AEC4D70D7
:10410300EC8A828B83E4F0A3F0E849600688828915
:104113008380039003451239F00239A874F7120320
:104123007390034580048A828B8312415F4B602521
:104133007E0080010E12416450ECEE75F006A4FC83
:10414300ADF0EA2CFCEB3DFDEC2410F582ED1241C1
:10415300B470E180047A007B000239E0125601EA70
:10416300221241BDEEC3982274F71203737D0080BF
:10417300010D1241B9EDC3985034ED75F006A4FE5C
:10418300A8F0E8FFEA2EFEEB3FFFEE2410F582EFE6
:104193001241B470DCED75F006A4FEE8FFEA2EFAD6
:1041A300EB3FFBEA2411F582EB1260E44CF0023999
:1041B300E01260F069221241BD22126A2AEB340038
:1041C300F583E0F82274F6120373120D8C7A007BE8
:1041D300008025EAF8EBF9E875F006A4F8ACF07571
:1041E300F006E9A42C1255D61268EBA3E41256CCC0
:1041F300F0A31268F1126A689028131230C640D3F4
:104203007A007B00801C8A088B09740378081209E2
:10421300E812508AA374FEF0A3041254ACA3E41270
:104223006A6890281D12426740DC7A007B00801D7B
:104233008A088B09740378081209E874C8125D5C54
:10424300740F1265A374FEF0A304126A6890282306
:1042530012426740DB902827E493900353F0124205
:1042630071023A7FE493F8C3EA98EB9400227CE866
:104273007D037A107B009003C2E0F91215E42274E7
:10428300F012037374F51208E78A088B09890A8C04
:104293000BE9A2E050147508FC7509FFA2E1500573
:1042A300D2E4024344D2E3024344124F497003A3CE
:1042B300E06970057900024411AC0A7902AA08ABDF
:1042C30009120D68E960EDE50AF50C780C12084453
:1042D30079027CFE7DFFAA08AB09124CC412085375
:1042E300E9600302440FE50AC2E5F50A9003B5E06D
:1042F3007051E50AA2E6404B7403120AA9AC82ADE1
:1043030083AA08AB09120B16E970321245E58A0C31
:104313008B0DA80CA90DE8FEE9FFE8496025EE2402
:10432300020A0AEF122DD6601AEE2402FCEF3400C3
:10433300FD7403120AA9AA82AB83121CF8E50AD200
:10434300E5F50A900348E0F50C900368E0F50EA349
:10435300E0F50F780E1208407D017C00900348E0E1
:10436300F9AA0EAB0F120D207402120853E9F8904C
:104373000348E004F0E8600302440FE50AA2E550B5
:1043830004740E80027406C0E07401120AA9D0E01E
:10439300125A3E8A0E8B0FAE0EAF0FEE4F606912AC
:1043A300442F124446888289837401F07478550A35
:1043B300A3126A30E50C126A30A3E508F0E509128E
:1043C300441EE4F0E50AA2E5500F7403120AA9ACF7
:1043D30082AD83E824061244158E828F83A3A374CF
:1043E300FDF0A374FFF0E50B601590282AE493F821
:1043F300E50BC3985009EE2413125A11E50BF0EEA6
:10440300FAEFFB120BB880067910800279C7740BA0
:104413008049FAE93400FB121CF82288828983A3BD
:10442300A3A3A312442A221257A5A322EE241712F0
:104433005A227401F0120EDCEE241A125A22EAF008
:10444300A3EB22F0126A24340012445022F58312A3
:10445300445622E0F8A3E0F922740D1208537F08B2
:1044630002058D74F61203737A007B10125F2C60C1
:10447300089003D47401F0802990063AE064019017
:1044830010D77006E0FC79018004E0FC79037A0020
:104493007B00120C8A9028111244A87A007B101218
:1044A30044B6023A7F1244AC22E493FC740193FDB8
:1044B300227B009003C2E0F91215DE2274EC120392
:1044C300738A088B098C0C8D0D890E7414120AA93A
:1044D300124EA37416120AA9E0F510A3E0F5111207
:1044E3000F54E960077AFF7BFF0245E29010D6E0A4
:1044F300640260030245D57900AA08AB09120D6E68
:10450300A90E120D628A128B13AE12AF13EE4F7007
:10451300030245BD8E828F83A3A3A3A3A3E06401FB
:104523008E828F83A3A370691251628E828F83A3BD
:10453300A3A3A3A3A3E054186043902828E4938E75
:10454300828F83A3A3A3A3F0EA650C7003EB650D2D
:104553006014EA650A7003EB650B600AEA65107084
:1045630003EB6511701F7810120840AC0AAD0BAA5B
:104573000CAB0D121050740212085380089003679D
:10458300125F16A3F074FE6A700374FF6B601D80E4
:104593004EA3A3A3E0640360298E828F83A3A3A306
:1045A300A3A3E0640470057AFE0244EA8E828F833B
:1045B300A3A3A3A3A3E0640270089003B4E064027E
:1045C30070101245E58B0BEA450B6006AA08AB0990
:1045D300800DAA08AB09900349123F57121ED1025E
:1045E300650C900375124CCA1210142274F712034F
:1045F30073EAFEEBFF120B6AE9700AEEFAEFFB12A5
:104603000B76E96006EEFAEFFB80047AFE7BFF028D
:1046130039E074F01203738A0A8B0B8C0E8D0F89A9
:1046230009750800120F54E97900600302478CAA48
:104633000AAB0B120D6EA909120D628A0C8B0DAE1B
:104643000CAF0DEE4F60198E828F83A3A3A3A3A398
:10465300E0640270559003B4E06402700302478A79
:10466300AA0AAB0B90034F123F57121ED1120B7CB9
:104673008A0C8B0DA80CA90DE849700302478A88A0
:10468300828983A3A3A3A3A3E0A2E0400302478AF2
:10469300750C01A2E150687901AC0AAD0BAA0EAB0F
:1046A3000F120CBAE9706402478A8E828F83A3A328
:1046B300A3A3A3E064037005750C0280528E828F5E
:1046C30083A3A3A3A3A3E06401600302478A900327
:1046D3007512479A8E828F83124AEF8A0C8B0DA82C
:1046E3000CA90DE84960D1902821E493FA888289C6
:1046F30083E0C39A50C2A3E0600302478A80B9886B
:10470300828983A3A3A3A3A3D2E1F0EE4F603A8EE1
:10471300828F83A3A3A3A3A3A3E05418602B7508DC
:10472300018E828F83A3A312065C750CFE750DFFA9
:10473300780C1208407900AC0AAD0BAA0EAB0F122D
:104743000D807404120853803E900368E0650E7078
:1047530004A3E0650F7014902829E493FCA909AA27
:104763000AAB0B120C8A750801801CA90CAC0AADAC
:104773000BAA0EAB0F120CBAE9700C750801A9094C
:10478300AA0AAB0B120D14A908024461E50C241507
:10479300F582E50D125A251254822274EA1203732C
:1047A30074F01208E78A0C8B0D8C088D097426129D
:1047B3000AA9E0F514A3E0F5157512069003F512A6
:1047C3004CE8602390037512479AAA08AB091210AC
:1047D3003E8A108B11EA4511600D8A828B83A3E018
:1047E30070057900024AD7E50C241DF50EE50D345A
:1047F30000F50F850E82124CD4F51388828983A3AA
:10480300A3A3E0FA88828983A3A3A3A3E0F9EA24FC
:1048130000FEE439FFAA08AB09120D1A850E828542
:104823000F83124B12E029F50BE50AA2E55003753D
:10483300120E7487550A70177418550A6418600F9E
:10484300E50C2417F582E50D1260E4651260077923
:1048530001121CE0808C530A78C3EE94F8EF94FFA6
:10486300501D7900EEFAEFFB124AE160128882894B
:1048730083A3A3A3A3A3A3E0541860030247E5788B
:10488300081208407D00124B05120853E9F874031F
:104893006870030247E5E860030249507418550A3B
:1048A3007003024A05E50AD2E0F50AA2E45004D2F5
:1048B300E1F50AA90A12515B124AE1605388828921
:1048C30083A3A3A3A3A3A3E054186044888289838A
:1048D300A3A3A3A3A3E064017036E51045116030E0
:1048E30090037512479A88828983124AEF8A0E8B46
:1048F3000FA80EA90FE849601788828983A3E06097
:104903000F851082851183A3125C3350030247E5A0
:10491300E50AF50E780E120844124AF8120853E914
:10492300702B7C007D0085148285158374FFF0A3B2
:10493300F0850C82850D83A3A3A3A3A3A3A3A3E064
:10494300600312478FA90B12515B1216E085148284
:10495300851583E0F47003A3E0F460399003B4E0B9
:10496300640270030247E5124E94E0FAA3E0123F9B
:1049730053121ED1EA65087003EB65096003024711
:10498300E5EEFAEF123F53121ED18514828515838B
:10499300EAF0A3EBF078081208407D01124B0512F0
:1049A3000853A90AEEFAEFFB120D6E8A088B09A8C9
:1049B30008A909900368E0687003A3E06960030233
:1049C3004AC8EEFAEFFB120B7C8A088B09A808A9E8
:1049D30009E849606E88828983A3A3A3A3E06401E5
:1049E300600D88828983A3A3A3A3E0640270548526
:1049F3001882851983AC82AD83EEFAEFFB120B1696
:104A03008055900361E0600FE50AF50E780E1208F9
:104A130044124AF8120853E50AF50E780E120844B8
:104A230079027CFE7DFFEEFAEFFB124CC4120853B1
:104A3300E9600302495085148285158374FFF0A34E
:104A4300024997120EDCEAFCEBFD85188285198377
:104A5300AA82AB83121CF8850C82850D83A3A3A3C2
:104A6300A3A3A3A3A3E06401700F12478F740812DA
:104A73000AA9AA82AB83121CF8124C9E1258AA44AC
:104A830030F50878081208447401120AA9858208CF
:104A93008583097808120840740B120AA9858208D5
:104AA3008583097808120840E513F5087808120889
:104AB300447900EEFCEFFD12515B120CB474061244
:104AC30008530247E5124C9E125A14124B12E50B7F
:104AD300F0120EF474101208537F0E02058D120D9E
:104AE300628A0E8B0FA80EA90FE84922A3A31256C0
:104AF3000112103E227901AC08AD091255F6124C91
:104B0300C422AC0BA9131255F6120D207402221203
:104B130058B2A3A3A3A32274F012037374F0120870
:104B2300E78A0C8B0DECFAEDFB750F089003F51279
:104B33004CE86014125C2C8A828B83E58245836087
:104B430007A3E07003024C99124C9E3400124CD41C
:104B5300F50B88828983124CA7E0FBEC2400FEE46A
:104B63003BFF88828983A3A3124CA7A3A3E0FBEC9A
:104B7300F508E43BF50988828983A3A3A3A3A3A330
:104B8300A3E0F50EE50AA2E45003750F10A2E55069
:104B9300067408250FF50F748F550A700FE50C2462
:104BA30017F582E50D1260E4650F60087901121CA8
:104BB300E0024C99530A707800E50AA2E4502212ED
:104BC3004C9E1260E42408FCA3E03400FD74081238
:104BD3000AA9AA82AB83121CF87808E50AC2E4F595
:104BE3000AE50AA2E55028124C9E1260E428F8A3B5
:104BF300E03400F9E82408FCE93400FD85188285D7
:104C03001983AA82AB83121CF8E50AC2E5F50AAC44
:104C13000EA90BEEFAEFFB120D26E9F87403686098
:104C230075900368E06E7003A3E06F605EE87054F4
:104C3300E50AF50F780F120844124CB5120853E930
:104C43007054780A1208447401120AA985820C85EB
:104C5300830D780C120840740B120AA985820C8507
:104C6300830D780C120840E50BF50A780A12084404
:104C7300A90EAC08AD09EEFAEFFB120CB4740612E0
:104C830008538012740468700D80B7780A120844C0
:104C9300124CB5120853741002445EE50C241DF542
:104CA30082E50D22A3A3A3E0FC88828983A3A3A3A7
:104CB300A3227901124E9B125A25124CCA124CC4DC
:104CC30022120CDE740122E0FCA3E0FDAA08AB096A
:104CD30022F5831240DAA3E0F50A88828983A3A32D
:104CE300E02290033912565D2274E812037374F5BF
:104CF3001208E7EAFEEBFF8C088D0989147423126E
:104D03000AA9E0F50F7424120AA9E0F512A3E0F54D
:104D1300137426120AA9E0F516A3E0F517742812F6
:104D23000AA9E0F50EA90F120D2C8A108B1174013C
:104D3300120AA97408F0E50EA2E450037410F0E51A
:104D43000EA2E55004E02408F0851882851983AA91
:104D530082AB83120F3C8A0C8B0DEA450D70030264
:104D63004E7BEA2417F582EB124E8D120EDCE50C16
:104D7300241AF582E50D125A141239F07403120A3B
:104D8300A9AC82AD83AA10AB11120B16E9601D12F8
:104D93004E857403120AA9A882A983E50C2418F589
:104DA30082E50D125A14E8F0A3E98024E50EA2E48B
:104DB300501FE5106E7003E5116F7015124E85E5F7
:104DC3000C2418F582E50D125A14E512F0A3E5132D
:104DD300F0124E94124EA3850A82F5837402F0A357
:104DE300E50E124EABE50FF0EE850A82850B83A329
:104DF300A3A3F0EF850A82850B83A3A3A3A3124E7B
:104E0300ABA3A3A3E508F0E509850A82850B83A379
:104E1300A3A3A3A3A3F0AA10AB11120D1AE925149F
:104E2300850A82850B83A3A3A3A3A3A3A3F0750879
:104E330000E50EA2E45011AC12AD13E50A2408FA02
:104E4300E50B124417750808E50EA2E55014AC16DD
:104E5300AD17E50A2508F8E50B3400F9E824081234
:104E63004415850C82850D83A3A3E510F0A3E511FA
:104E7300F0AA0CAB0D120BB8740B1208537F10027F
:104E8300058DE50C2416F582E50D125A257401F003
:104E930022124E9B125A2522E50C126A2BE50D2293
:104EA300E0F50AA3E0F50B22F0850A82850B83A3C4
:104EB300A32274F21203738A088B09ECFEEDFF89B7
:104EC3000A7900124F497003A3E0697004790180E5
:104ED30073750B01900368E065087004A3E065092E
:104EE300601F750B00780B120844A90AEEFCEFFD56
:104EF300AA08AB09120F907401120853E9F50B804D
:104F0300417900EEFAEFFB120D62EA4B602B8A82C5
:104F13008B83A3A3A3A3A3A3E05418601C7508FE6B
:104F23007509FF78081208408A828B83A3A31206AF
:104F33005C12684012085380097901EEFAEFFB1204
:104F43000C3CA90B8014120D6E8A0C8B0DA80CA9B6
:104F53000D900368E068221208537F0602058D74E2
:104F6300F412037375081075090E7A101265488BD5
:104F73000BEA450B7003124271900353E014F07077
:104F83000C902827E493900353F0120D7A7E007F50
:104F930000806C850882850983A3A3A3A3E06059DD
:104FA300F46056E5082404F582E509125F107049A0
:104FB300850882850983A3A3A3A3A3E064037019CF
:104FC300790285088285098312479A8508828509B3
:104FD30083A3A3125162120CBA850882850983A3A5
:104FE300A3A3A3A3E06401601085088285098374E9
:104FF300FEF0A3041250BCE4F01235ED12343F90DE
:1050030028151266A4408C7E007F008039120E8220
:105013008E088F09740378081209E874882508FC40
:10502300740F3509FD7AC67B0C120E70EA4B70DDE6
:105033008E088F09740378081209E812508A1268DF
:10504300EBE4F01235ED90281DE493F8C3EE98EFEE
:105053009400501B8E088F09740378081209E81214
:105063005092E82407F582E9125F1070D680A17E82
:10507300007F00800A12509D600214F01235ED1279
:1050830066A140F1023C20125092888289832274E7
:10509300882508F8740F3509F922EEF8EFF9E87559
:1050A300F006A4F8AAF075F006E9A42AF9742828F2
:1050B300F582740F39F583E0221250C3A3A3A32210
:1050C300F0850882850983A3A32274F712037374FE
:1050D300E11208E7ECFEEDFF750800EE4F60728AFF
:1050E300828B83E0241C125F41124CE860638A8246
:1050F3008B83125162851882851983AC82AD83EA52
:10510300241BF582EB125E12EA241CF582EB12518A
:105113005E120EC4740B120AA91251667003A3E047
:1051230069702E7402120AA9E064017024741D12BE
:105133000AA9123F57E064017017741D120AA912DD
:105143003F59A3A3E0F88E828F83E068700375084C
:1051530001A908741F0239DD124E9B3400F5831236
:10516300560122122D94E0682274F4120373E9703D
:1051730024790090034D123F57121ED18A0A8B0BDC
:10518300AE0AAF0B74FE6E700374FF6F701A902833
:1051930024E4936013790190034D123F57121ED1FB
:1051A3008A0A8B0BAE0AAF0B120F0002375574F647
:1051B30012037374F31208E71214A08A088B09AE62
:1051C30008AF09900368E06E7003A3E06F60E91213
:1051D3000EE8EA6E7002EB6F60DEEEFAEFFB120F81
:1051E30054E970D4EE4F60D0851882851983E4F0BA
:1051F30004120AA9EEF0A3EF125214E970BA74FE76
:105203006E700374FF6F60B0EEFAEFFB740D023A39
:105213007C123B01120B2E22C082C083120F0002AC
:1052230039A87F0A02058D74F2120373EAFEEBFFBD
:105233008C0A8D0B8908740E120AA9E0F50974FC17
:105243006E700374FF6F70057900024F5D79001271
:105253000D6E8A0C8B0DAE0CAF0D900368E06E7073
:1052630003A3E06F7006E509A2E650DCA909126703
:105273002E706179007AFE7BFF12672E70567418C8
:1052830055097003025361780079008003122F8E51
:10529300902815122F854003025361E8FAE9FBEACF
:1052A30075F007A4FAACF075F007EBA42CFB7416A9
:1052B3002AF582740E3BF583E0541870D0E875F03C
:1052C30007A4F8AAF075F007E9A42AF9741028F8DE
:1052D300740E39F988828983A3A3A3A3A3A3E054FB
:1052E30018600974185509700302524B8882898328
:1052F300EEF0A3EFF074FE650A700474FF650B60B3
:105303000312548888828983A3A3A3A3A3A3E509D3
:10531300F0A2E0500D88828983A3A3A3A3A3A3D201
:10532300E2F07401650888828983A3A3A3A3A37011
:105333003874011254ACE054186028902828E49380
:1053430088828983A3A3A3A312547612103E8B0DE4
:10535300EA450D600302524B7800790080397902E7
:1053630002524D900367E080D7E06401700302525C
:105373004B88828983A3A3A3A3A3A3E05418600744
:10538300902828E4938004900366E012441EE50805
:10539300F002524B122F8E90281EE493FAC3E89A20
:1053A300E99400400302524B7A007B00804BEAFCF5
:1053B300EBFDEC75F007A4FCAEF075F007EDA42E41
:1053C300FD74122CF582740E3DF583125A2DE8FC00
:1053D300E9FDEC75F017A4FC85F00975F017EDA451
:1053E3002509FD74A02CF582740C3DF583E06E70E5
:1053F30003A3E06F609E1234C290281512344F400D
:10540300AD1244A8EC6A7002ED6B7088E875F01772
:10541300A4F8AAF075F017E9A42AF974A028FE7479
:105423000C39FF7C177D007900EEFAEFFB12148E26
:105433008E828F8312548E900375125468A3A3A394
:10544300A3A3A3E8F0A3E912546E7401F0EE240EB3
:10545300125A117401125496120222EE240D125A9A
:1054630011E80253931239C0A3A322F0EE240F12C2
:105473005A2222F012547FAA0AAB0B22900375E042
:10548300FCA3E0FD2288828983A3A3E50AF0A3E5B8
:105493000BF022F012549B22902821E4932401F86C
:1054A300E43400F97A027B002212442AA32274ED29
:1054B3001203738A088B09890E1255DF400579059B
:1054C3000255AD121728AA08AB091256B19028133A
:1054D3001255B0650A7003E9650B70077AFE7BFF0E
:1054E3001256B1902813E41255B8E50A98E50B99C2
:1054F30040030255AB1255BC6012E50A75F006A4D1
:10550300F875F006E50B125607121530E50E601814
:10551300E50A75F006A4F8AAF075F006E50B125635
:1055230033701A79010255ADE50A75F006A4F8AA9D
:10553300F075F006E50B125614E4F0A3F0E50A75D6
:10554300F006A4F8AAF075F006E50B1255D4A312E1
:1055530058C088828983A3AA82AB831256228A8287
:105563008B83E0603F1255BC603A8E108F11751229
:1055730000781012083CE50EC333FCE433FDE50A62
:1055830075F006A4F50AA8F075F006E50BA428F556
:105593000B742C250AF582740F350B1251601234EB
:1055A300601208537900800279070267441230E7DA
:1055B300E8229004EE1260CB22E50A75F006A4F807
:1055C300AAF075F006E50B12560FF8A3E0F9E849C7
:1055D30022A42A12576888828983A322ECFEEDFF56
:1055E30090281FE493F8E9C39822F5831256011219
:1055F300153022E50C126A2BE50D3400F583E0FA31
:10560300A3E0FB2212560FFAA3E0FB22125614E08A
:1056130022A42AF9742C28F582740F39F58322E524
:105623000EF09010D812562C22E088828983F02243
:1056330012578CF50CE93400F50DE50EC333FAE48B
:1056430033FB12152A850C82850D83EAF0A3EBF058
:10565300850C82850D8312565D22124456E8492239
:1056630074F4120373ECFEEDFF740C120AA9123AE0
:105673006A880889091256B1AC0AAD0BECF8EDF94A
:105683009028131256B95021E875F006A4F8AAF031
:1056930075F006E91255D4E08E828F831256CC1230
:1056A30056C2123A76790080027904023C20120C29
:1056B300F08A0A8B0B22123458C3EC9AED9B221208
:1056C3004452850882850983221257A12274F61257
:1056D30003737E007F008028EEF8EFF9E875F0068B
:1056E300A4F8ACF075F006E9A42CF9742A28F58225
:1056F300740F12634F6A7003A3E06B60571235EDAA
:105703001266A140D312669C7002E96F704674FE64
:105713006A700374FF6B703C7E007F008003123558
:10572300ED1266A1502E12509D70F3EEF8EFF9E8DA
:1057330075F006A4F812575E125793601712577A42
:10574300F8E912577288821255ED8508828509831C
:10575300E4F0A3F0EEFAEFFB023A7F75F006E912EC
:10576300576622A42AF9742828F8740F39F92234C9
:1057730000F98808890922EEF8EFF9E875F006A424
:10578300F875F006E912578C22125766E8240422B2
:10579300A3A374FE12579E12565D22F0A304125760
:1057A300A522F088828983A3A3A3A32274F61203FC
:1057B30073EA241DF582EB1258AAF9604BEA241D03
:1057C300F582EB1260E42402FCA3E03400FD1255E1
:1057D300E3400302589D780080298C828D83E0F595
:1057E30008A3E0FFE5082400E43FF509E833FEE4FD
:1057F30033FF74702EF582740F3FF5831258C01275
:1058030058A008E8C39940D28A828B83A3A3A3A399
:10581300A3A3A3A3A312479A900368E06C7003A306
:10582300E06D700F7C707D0F122CFD12515E120C17
:10583300E48067EA2411F582EB1260E4605CFC7497
:10584300FF2CF07508017808120844750870750973
:105853000F7808120840E9F5087808120844EA248A
:1058630012F582EB1260E4F5087808120844EA2482
:1058730015F582EB125A1412065CECF9122CFD1288
:1058830047978A828B83A3A3A3A3A3A3A3A3A31250
:105893005162120CFC7407120853023A7FEC240283
:1058A3000C0CED3400FD22125A251258B2E022E00E
:1058B300F8A3E0F5838882A32288828983E508F030
:1058C300A3E509F02274EA12037374FD1208E78A50
:1058D300148B158C0E8D0F890D7419120AA9125A87
:1058E3002D741B120AA9E0F511741C120AA9E0F524
:1058F3000C741D120AA9124EA3741F120AA9E0F513
:10590300106008E50CC333240480027402C0E07401
:1059130001120AA9D0E0125A3E8A088B09EA450906
:105923007003025A098A828B83A3A3E514F0A3E5CB
:1059330015126537E50EF0A3E50FF0EA2413F5829F
:10594300EB125A14E50DF0EA2414F582EB125A1403
:10595300E511F0EA2417F582EB1260E4640170406C
:10596300120EE28A0E8B0FA80EA90F8508828509F5
:1059730083A3A3A3A3E0687003A3E0696022EE4FAF
:105983006011E508241AF582E509125A14EEF0A312
:10599300EF800CE5082417F582E509125A14E4F0A8
:1059A300125A18125A2D8E828F837405F0A3E510B4
:1059B3007004E50C80487401250C125A377A008074
:1059C30028850A82850B83E0125A33850A82850B68
:1059D30083A3E08E828F83F0E50A2402F50AE50BA8
:1059E3003400F50BA30EAF830AEAC3950C40D21221
:1059F3000EE2EA125A33120EE2EB8E828F83F0AA82
:105A030008AB09120BB87403024AD9EE240CF582D1
:105A1300EF125A2522122D0E125A2522EE240BF5CF
:105A230082EF3400F58322900334E0FEA3E0FF22EB
:105A33008E828F83F0A3AE82AF8322123B01120FBB
:105A43003C22C082C083E9C333FCE433FDEA2CFA71
:105A5300EB3DFBEA24FEF582EB34FF125160023981
:105A6300A874F212037389098A0A1255DF40047974
:105A730000804075080080020508E508C3950950B9
:105A83002AE508C333F8E433F9EE28F582EF39F554
:105A930083C082C083120EE28A0C8B0DD083D08226
:105AA300E0650C7004A3E0650D70CDE50A65087030
:105AB300BE7901024F5D74F012037374F31208E7A9
:105AC3008A088B098C0A8D0B890C750D00120F54F3
:105AD300E979006003025BBBAA08AB09120D6EA94A
:105AE3000C120D628A0E8B0FAE0EAF0FEE4F7003CA
:105AF300025BB98E828F83A3A3A3A3A3A3E0A2E235
:105B03004003025BB9120EE2EA650A7003EB650B10
:105B13007011780D120844E4F50EF50F780E120893
:105B2300408044AA0AAB0B120B70E96401706885CC
