:020000040000FA
:06000000020A5E0201C6C7
:03002B000208C206
:0300330002067250
:0300430002073C75
:030053000200F7B1
:03006B0002065832
:1000830002015B0101FF01010503010F10FEFFE8FF
:1000930012E812E812E812A4119E11E8125D25007D
:1000A300000000BF25000000000C0000000C000150
:1000B300FFFF414C442042726F61646361737400BB
:1000C300020102006605000000D905640002020077
:1000D300080000050207051E02051E020A0A03B8EE
:1000E3000B02803E0102F1FF141F00E00796511836
:1000F30000020206C0E074F21203DFA2AFE433FE93
:10010300D2AFE5A7FFE5A1F5085F54106006121A08
:10011300B075A1EFE5085F54086008121AB675A11F
:10012300F7802BEFA2E0C0D0E508A2E092F012091D
:10013300E4158182F05017906198E0F8900AB7E0D7
:10014300C398A2D265D0335002E8F075A1FEEEA2A7
:10015300E092AF7F01020496C0E074F21203DFA2C3
:10016300AFE433FED2AF9061A4E0F8759B00E59154
:1001730058540860087591F7121AFE802AE59158C1
:10018300541060087591EF121B04801BE8A2E0C0B5
:10019300D0E591A2E092F01209E4158182F05007B4
:1001A300E0C2E0F0121C489061A3E0F8E5E958547E
:1001B30004600E121C1E75E9FB906193E0A2E640F9
:1001C300F2808BC0E074F21203DFA2AFE433FED2FD
:1001D300AF9061A5E0F8E5BF585404600675BFFB16
:1001E300121C60020151C3E498F8E499F912022A3F
:1001F3008026C3E49AFAE49BFBE920E7E912022A8A
:10020300E498F8E499F922C3E498F8E499F912021E
:100213002AE498F8E499F9C3E49AFAE49BFB22EB05
:1002230020E7CFE920E7E0B90010BB0008E88AF037
:1002330084F8AAF022E4FBC8FA22EB70227B10C8F0
:1002430033C8C933C9335007C39AC3DBF280069A54
:1002530050012ADBEAC833F4C8C933F4C9FA22755A
:10026300F008E4C833C8C933C933C99AC99B5004D9
:10027300C92AC93BD5F0ECFBC833F4C8E4C9FA2258
:10028300080808EAC0E0EBC0E086F0E7A4FA180922
:1002930086F0E7A42AFA180986F0E7A42AFA1809CF
:1002A30086F0E7A42AFA1986F0E7A4FBE5F02AFA18
:1002B300190886F0E7A42BFBE5F03AFA190886F053
:1002C300E7A42BFBE5F03AFA18180986F0E7A4C572
:1002D300F02BFBE43AFA1908E7C5F0C6A426F6E5C5
:1002E300F03BFBE43AFA1886F0E7A4F6E5F00826BB
:1002F300F6E43B08F6E43A08F6D0E0FBD0E0FA2255
:10030300E4CFC0E0E4CEC0E0E4CDC0E0E4CCC0E0A4
:1003130075F020C3E633F608E633F608E633F6084D
:10032300E633F6181818EC33FCED33FDEE33FEEF2D
:1003330033FFC3EC9709ED9709EE9709EF97191966
:1003430019400FFFEC97FC09ED97FD09EE97FE1995
:100353001906D5F0BEECF709EDF709EEF709EFF74B
:10036300191919D0E0FCD0E0FDD0E0FED0E0FF2267
:100373002518C582C0E0E51934FFC583C0E0E51840
:10038300C3958224F810AF088583198582188008E5
:10039300858319858218D2AFCEF0A3E520F0A37828
:1003A30008E608F0A3DEFAEFF0A3E58124FAF8E605
:1003B30008F0A3E608F0A3E608F0A30808E608F0AF
:1003C300A3E608F0A315811581D0E0FED0E0F8156F
:1003D3008115811581E8C0E0EEC0E022C0D0251868
:1003E300C582C0E0E51934FFC583C0E0E518C395B5
:1003F3008224F310AF0885831985821880088583CA
:1004030019858218D2AFC8F0A3E9F0A3EAF0A3EBF1
:10041300F0A37908E709F0A3D8FAECF0A3EDF0A371
:10042300EEF0A3EFF0A3D0E0F0A3D0E0F0A3D0E090
:10043300F0A3E520F0A3E5F0F0A322120AC0B9006F
:1004430003020480E4900301787E790E8002F0A316
:10045300D8FCD9FA90107EAA82AB8390008678727A
:1004630079018015E493A3AC82AD838A828B83F0F8
:10047300A3AA82AB838C828D83D8E9D9E775826185
:100483007583DF74031208217582FA75831E740065
:10049300120821851983851882E0C0E0A3E0F9A33F
:1004A300E0FAA3E0FBA37808E0F608A3DFFAE0FC98
:1004B300A3E0FDA3E0FEA3E0FFA3E0C0E0A3E0C050
:1004C300E0A3E0F5D0A3E0F520A3E0A3F5F010AF9F
:1004D300088583198582188008858319858218D237
:1004E300AFD082D083D0E0F8D0E032150075F010A1
:1004F3008E1A8F1B85821F85831E8518828519831B
:10050300E0CEA3E0CF851F82851E83EBC9EAC8ED49
:10051300CBECCAC3E833C8E933C9EA33CAEB33CBFC
:10052300C3EA9EF51DEB9FF51CB35004AB1CAA1D3B
:10053300EC33CCED33CDD5F0DAAE1AAF1B22D0833A
:10054300D082ECC0E0EDC0E0E493A3FCE493A3FD10
:10055300ED4C600D120619EC24FFFCED34FFFD8019
:10056300EFE493A3FCE493A3FDED4C600D1206E7C7
:10057300EC24FFFCED34FFFD80EFD0E0FDD0E0FC88
:10058300E493A3C0E0E493C0E02285198385188235
:10059300E0A3FEE0A3F5207808E0A3F608DFFAE085
:1005A300A3FFE0A3C0E0E0A3C0E0E0A3C0E0E0A3BA
:1005B300C0E0E0A3C0E010AF0885821885831980EE
:1005C30008858218858319D2AFD083D08202082789
:1005D300D083D082E9C0E0E493A3C386F0C5F0954D
:1005E300F0F908E493A386F0C5F095F0700BE4935B
:1005F300A3C3994005E9048002A3E475F002A4258E
:1006030082F582E5F03583F583D0E0F9E493A3C066
:10061300E0E493C0E022C0E0C3E49396087401933E
:100623009618400FE4936670080874019366187077
:10063300007019A3A3C3E49396087401939618A3B7
:10064300A3400DD0E0D0E0D0E002057DA3A3A3A397
:10065300A3A3D0E022C0E074F21203DFE589A2E194
:100663005003121960758900C2C57F01020496C048
:10067300E074F21203DFE58BA2E0500312196075F8
:100683008B00C2E880E47404800474028000CCC050
:10069300E0EDC0E0E518C39CCCAD1950011D10AFCF
:1006A300068C188D1980068C188D19D2AF1207A3EA
:1006B300D0E0FDD0E0FC2274028000CCC0E0EDC0AD
:1006C300E0E518C39CCCAD1950011D10AF068C1882
:1006D3008D1980068C188D19D2AF12075FD0E0FDFB
:1006E300D0E0FC22C0E0C0F088F0E4936670080814
:1006F30074019366187000A8F0A3A3700BD0F0D018
:10070300E0D0E0D0E002057DA3A3D0F0D0E022D07A
:1007130083D082CCC0E0E493A360061207C41470B4
:10072300FAE493A360061209091470FAD0E0FCE41A
:1007330093A3C0E0E493C0E022C0E074F21203DFAD
:10074300A2AFE433FED2AFC2C0E5D1A2E45003129C
:100753001A26EEA2E092AF7F01020496CAC0E0E43B
:1007630093A3C582CCC582C583CDC583F0A3C582BF
:10077300CCC582C583CDC583DAE5D0E0CA22A2E722
:1007830092D65002F40430F70663F0FF05F0B3404D
:100793000384800384F40430D60563F0FF05F0225C
:1007A300CAC0E0E0A3C582CCC582C583CDC583F0B2
:1007B300A3C582CCC582C583CDC583DAE6D0E0CAA2
:1007C30022C0E0E493A3D39C5010E493A3C39C40C2
:1007D3000AD0E0D0E0D0E002072FA3A3A3D0E02209
:1007E3007009080808226016181818C6C333C6080B
:1007F300C633C608C633C608C633C6D5E0EA22C028
:1008030008C3E096F50808A3E096420808A3E0961B
:10081300420808A3E09645087001D3D00822C09F80
:10082300F59FE473D09F22D083D082C09FE493C00E
:10083300E0740193C0E0740293F59F227404800A6C
:1008430074038006740280027401C0E0F404120889
:100853005AD0E0120A9B222518F58210AF08F5182A
:10086300400215198008F51840021519D2AF8519F1
:100873008322BB0102E722C082C08389828A83BBB1
:100883000003E08002E493D083D08222C0D02518F5
:1008930010AF08F518500205198008F51850020525
:1008A30019D2AFD0D0226016080808C6C313C618E1
:1008B300C613C618C613C618C613C6D5E0EA22C0A7
:1008C300E0C0D0E8C0E0E5A8D2AFC2C7A2E792AFCC
:1008D300D0E0F8D0D0D0E032C3E0C696F608A3E06B
:1008E300C696F608A3E0C696F608A3E0C696F622D7
:1008F300251810AF08F518400215198008F518409F
:10090300021519D2AF22C0E0E493A36C7009D0E0C2
:10091300D0E0D0E002072FA3A3D0E022E766701057
:100923000809E766700A0809E76670040809E766BC
:1009330022E066701008A3E066700A08A3E0667000
:100943000408A3E06622C3E09608A3E09608A3E0A8
:100953009608A3E096A2D265D03322C3E096F008AE
:10096300A3E096F008A3E096F008A3E096F022E651
:1009730057F60809E657F60809E657F60809E65751
:10098300F622E026F608A3E036F608A3E036F608DA
:10099300A3E036F622E627F60809E637F60809E665
:1009A30037F60809E637F622E056F608A3E056F6CE
:1009B30008A3E056F608A3E056F622E056F008A393
:1009C300E056F008A3E056F008A3E056F022E6470D
:1009D300F60809E647F60809E647F60809E647F682
:1009E30022C0E0E8C0E0E58124FCF8E6A2E7D0E01D
:1009F300F8D0E022700422600D18C6C333C608C6BF
:100A030033C6D5E0F41822E026F008A3E036F00858
:100A1300A3E036F008A3E036F022E4C396F608E438
:100A230096F608E496F608E496F622C3E09608A341
:100A3300E09608A3E09608A3E09622C6F4C608C68B
:100A4300F4C608C6F4C608C6F4C622C3E796080966
:100A5300E7960809E7960809E7962275D00075819D
:100A6300407518017519030002043EE0F608A3E07F
:100A7300F608A3E0F608A3E0F622600C08C6C31349
:100A8300C618C613C6D5E0F422E6F008A3E6F008BC
:100A9300A3E6F008A3E6F022CAC0E0E6F0A308DA72
:100AA300FAD0E0FA22E0FAA3E0FBA3E0FCA3E0FD26
:100AB30022EAF0A3EBF0A3ECF0A3EDF022E5C75498
:100AC300F84401F5C77901222518F582E43519F5B3
:100AD3008322C2AF75D69F0200002212082AB9E012
:100AE3000212082A0EE30212082A5BE40212082A01
:100AF300FEE40212082A45E60212082A63E60212FD
:100B0300082A5F280012082A71280012082AC3281D
:100B13000012082A24290012082AAE290012082AE2
:100B2300522A0012082AA62A0012082ABF2A0012F3
:100B3300082AE52A0012082A202B0012082A642B0F
:100B43000012082A8B2B0012082ADC2B0012082A19
:100B53008C2C0012082A442D0012082A0C2E001295
:100B6300082ACC2E0012082A102F0012082A352F2B
:100B73000012082A782F0012082AC52F0012082A0B
:100B83001D310012082AA3310012082AC1310012B4
:100B9300082AEB310012082A05320012082A1432FF
:100BA3000012082A1F320012082ADF320012082A14
:100BB30038330012082AFA330012082A02340012CA
:100BC300082AC6340012082A32350012082A5D3674
:100BD3000012082A82360012082AF8360012082A60
:100BE3008A370012082A4A380012082A6938001284
:100BF300082A78390012082A8A390012082AFA3991
:100C03000012082A243A0012082AB23A0012082ACB
:100C1300EB3A0012082A373B0012082A533C001211
:100C2300082A9C3E0012082AA73E0012082AB23E58
:100C33000012082ABD3E0012082AC73E0012082AE5
:100C4300D23E0012082AEC3E0012082AF63E001299
:100C5300082A003F0012082A0B3F0012082A333FDC
:100C63000012082A8E3F0012082A983F0012082A11
:100C7300BC3F0012082AE03F0012082A3E4000123F
:100C8300082A82400012082A9E400012082A1541B1
:100C93000012082A4D410012082A99410012082A1D
:100CA300F6410012082AB0420012082A94440012A6
:100CB300082AED440012082A1D460012082A43465A
:100CC3000012082ACC470012082A484B0012082AAF
:100CD3001A4D0012082AE34E0012082A904F001200
:100CE300082AFB500012082A9A510012082ADF51E1
:100CF3000012082A49520012082A58520012082AE0
:100D0300DF540012082A91560012082AFE560012D8
:100D1300082ADD570012082AF6580012082A735AC7
:100D23000012082A925A0012082AE75A0012082AC7
:100D3300EC5B0012082A145C0012082A6C5C001297
:100D4300082A4B5D0012082A8F5D0012082ADA5D1B
:100D53000012082A455E0012082A865F0012082A3C
:100D6300EA5F0012082A38610012082A9863001209
:100D7300082AC9630012082A81650012082AD66569
:100D83000012082ADA660012082A77670012082A76
:100D9300D0670012082A83680012082A2569001206
:100DA300082AC5690012082A6A6A0012082A4C86B2
:100DB3000112082A8B860112082AD2880112082AF6
:100DC3001C890112082A378A0112082A9F8A0112F4
:100DD300082AD48A0112082A488C0112082ACB8EC9
:100DE3000112082AF48F0112082A8A900112082A94
:100DF30092990112082A279A0112082A0E9D0112BC
:100E0300082A019E0112082A6F9E0112082AB59F23
:100E13000112082A97A00112082A7CA20112082AAB
:100E23008DA40112082AF7A40112082AC9A50112E8
:100E3300082AF7A50112082AB4A60112082A8BA7CB
:100E43000112082A52A80112082AF6A80112082A38
:100E53001FA90112082A41A90112082A97AB0112FE
:100E6300082A6FAC0112082AB3AC0112082A1BAD81
:100E73000112082AD3AD0112082A05AE0112082A6D
:100E830049AE0112082A7FAE0112082ACBAE011225
:100E9300082A20AF0112082A25AF0112082A78AFC9
:100EA3000112082A9DAF0112082AACB00112082AC8
:100EB30010B10112082A80B10112082A0CB20112E2
:100EC300082AD9B40112082ABDB50112082A40B76D
:100ED3000112082A76B90112082A24BA0112082A33
:100EE300D4BA0112082A15BD0112082AB8BD01128D
:100EF300082AFFBD0112082AABBF0112082ABFBF8F
:100F03000112082AC9BF0112082AF1BF0112082AD7
:100F1300FDBF0112082A1CC00112082A3CC201129B
:100F2300082A8BC30112082ACFC30112082A77C4E7
:100F33000112082A5AC50112082A05C60112082AF5
:100F430051C70112082A4FC80112082AF5C8011215
:100F5300082A85C90112082A9CC90112082AD3C983
:100F63000112082ADDC90112082AE8C90112082A58
:100F730006CA0112082A4ACA0112082AA7CA01127C
:100F8300082ACCCA0112082AE6CA0112082A72CB1F
:100F93000112082A8FCC0112082AFCCC0112082A5C
:100FA300E3CD0112082A0ACE0112082A7ECE0112CD
:100FB300082AF9CE0112082AFDCF0112082AF3D01C
:100FC3000112082AA2D10112082AB5D20112082A55
:100FD30051D30112082ADED30112082ABCD401120C
:100FE300082AF4D40112082A4CD50112082A15D66E
:100FF3000112082A36D60112082ABDD60112082A80
:10100300E1D60112082A03D70112082A4CD701128C
:10101300082A62D90112082A49DA0112082AFADADF
:101023000112082A30DD0112082A80DD0112082A84
:10103300C0DD0112082A02DE0112082A5EDE011257
:10104300082A8CDE0112082AB0DE0112082A03DF07
:101053000112082A31DF0112082A6ADF0112082A65
:10106300BFDF0112082A25E00112082A79E10112E3
:10107300082A9CE30112082A09E40112082A32E42F
:101083000112082ABDE40112082A24E50112082AE4
:101093006FE50112082A93E50112082AB7E5011248
:1010A300082A12E60112082A2DE60112082AE6E6AA
:1010B3000112082AA3830412082AE2830412082ACD
:1010C30078800212082ABE800212082A9E81021228
:1010D300082AA0820212082AA3830212082A2F8553
:1010E3000212082A8D850212082A4A860212082A49
:1010F30068870212082AD9870212082A1588021261
:10110300082A63880212082A6D880212082AB18805
:101113000212082A0D890212082AA8890212082A33
:10112300258A0212082AF48A0212082A8D8B0212D7
:10113300082AAD8B0212082AE38B0212082A148CA8
:101143000212082AD58C0212082AE58C0212082AF8
:10115300398D0212082A548D0212082A668D021252
:10116300082A6F8D0212082AC98D0212082A258EB9
:101173000212082A718E0212082A8C8E0212082A81
:10118300BD8E0212082ADA8E0212082AE68E021295
:10119300082A5A900212082A73900212082ADA9037
:1011A3000212082AED900212082AFB900212082A62
:1011B300AF910212082A93920212082A99930212FB
:1011C300082A23940212082A2D940212082A9A94B8
:1011D3000212082AB1940212082AE3940212082A7E
:1011E3001C950212082A46950212082AA795021294
:1011F300082AC7950212082AE5950212082A2B9697
:101203000212082A51970212082A9E970212082AEC
:10121300CD970212082A43980212082A6B980212E9
:10122300082AA4980212082AB2980212082A0A99D4
:101233000212082A59990212082A98990212082AB6
:10124300C8990212082AF4990212082AFF99021275
:10125300082A1D9A0212082ADF9A0212082AE99A1A
:101263000212082A2A9B0212082A7F9B0212082ACA
:10127300939B0212082AA19C0212082AB49C021210
:10128300082AC99C0212082A6B9D0212082AEE9DA5
:101293000212082AAC9E0212082AB79E0212082ADA
:1012A300E39F0212082AFF9F0212082A51A002128A
:1012B300082A90A00212082AA5A00212082A07A150
:1012C3000212082A96A10212082AE1A10212082A90
:1012D30032A40212082AB0A40212082A25A5021277
:1012E300082A47A70212082A5FA70212082A62A740
:1012F3000212082A6EA70212082A82A70212082ADB
:101303008AA70212082ABDA70212082A6DA8021290
:10131300082AE3A80212082A56A90212082A0AAACE
:101323000212082ABFAA0212082ADEAA0212082AF7
:1013330084AB0212082AAFAB0212082AB2AB021224
:10134300082A1CAC0212082A44AD0212082A1CAE59
:101353000212082AA7AE0212082AC0AF0212082AF4
:101363007DB00212082AB6B00212082AE7B00212B0
:10137300082AA5B10212082AD5B10212082AB0B26E
:101383000212082A49B30212082AD4B30212082A05
:1013930085B40212082A08B50212082A3AB50212C5
:1013A300082A7BB50212082A9BF50112082A00F6C7
:1013B3000112082A3DF60112082A8CF60112082AA6
:1013C300A2F80112082A85FA0112082AEFFD011278
:1013D300082A2AFE0112082A4CFE0112082AAFFE2F
:1013E3000112082AE3FE0112082A06FF0112082A45
:1013F30033FF0112082A8FFF0112082AB1F30212E8
:10140300082A2FF40212082A65F40212082AD1F4DA
:101413000212082A44F60212082A60F60212082A67
:10142300A5F60212082A33F70212082A8CF70212D1
:10143300082AB9F80212082ABDD70212082A28FA84
:101443000212082A94FA0212082AF5FA0212082A4A
:1014530036FB0212082AE3FB0212082AF5FC0212E9
:10146300082A20FD0212082A6BFD0212082AB2FD87
:101473000212082A44FE0212082AFFFE0212082A58
:10148300C6E90312082A41EA0312082A4CEA0312A6
:10149300082A6DEA0312082AD7DF0212082A049ADF
:1014A3000312082A509A0312082ABE9A0312082A22
:1014B300DF9A0312082A8F9B0312082A239E031222
:1014C300082A2C9E0312082A7F9E0312082AA89E2C
:1014D3000312082A0F9F0312082AA09F0312082A47
:1014E300E29F0312082A2CA00312082A8BA00312DE
:1014F300082AB7A00312082A48A10312082A87A1C1
:101503000312082AC6A10312082AFBA10312082A00
:101513000DA20312082A1FA20312082A3EA20312D5
:10152300082A47A20312082AFDA20312082A3DA390
:101533000312082A02810412082AE5F30312082A77
:101543001BF40312082A64F40312082AB4F50312E5
:10155300082AB66A0012082AF56B0012082A316CB1
:101563000012082AF06D0012082A196E0012082AC8
:10157300AC700012082AF0700012082A7972001267
:10158300082A11730012082A79730012082A1A74A0
:101593000012082A5C740012082A9C740012082A9C
:1015A30027760012082A97770012082ABC790012BE
:1015B300082AEA790012082A117A0012082A1A7AEC
:1015C3000012082AA17A0012082ABF7D0012082AF5
:1015D300C4840412082ADA840412082A58830412E1
:1015E300082A61E60312082A74E60312082A11E79F
:1015F3000312082A4CE70312082A67E70312082A92
:101603008CE70312082AD1E70312082A02E803121F
:10161300082A33E80312082AB9E90312082A3AFB15
:101623000312082A70FB0312082A8CFB0312082AF0
:10163300CEFB0312082ADEFB0312082A73FC0312F3
:10164300082A7DFC0312082AF5CF0312082ABBD00F
:101653000312082A6BD10312082AA9D10312082AFC
:10166300D9D10312082A82D30312082AC1D3031241
:10167300082A02D40312082A8AE60212082ADFE69D
:101683000212082AC8E70212082A61E80212082A8D
:10169300ABE80212082A08E90212082A1CE902121E
:1016A300082A4EE90212082A4CEA0212082A90EA92
:1016B3000212082AABEA0212082AFAEA0212082ADC
:1016C30010EB0212082A1DEB0212082A51EB021238
:1016D300082A6AEB0212082A34EC0212082A8EEC5A
:1016E3000212082ADCEC0212082AFEEC0212082A73
:1016F30075EF0212082AAAEF0212082A3AF0021220
:10170300082AAFF00212082AB4F00212082AF0F0F5
:101713000212082A46F10212082A0AF20212082AC1
:101723002FF20212082A39F20212082A3CF202129C
:10173300082AC5F20212082AE0F20212082AF3F27A
:101743000212082A2EF30212082A31F30212082A7F
:101753003CF30212082A78F30212082A0B830412BC
:10176300082A23830412082A54B50312082AA3B5AE
:101773000312082A45B70312082A03B90312082AD9
:101783004BB90312082A6DBA0312082A9EBB03122F
:10179300082AC0BB0312082A1CBC0312082A9EBCD9
:1017A3000312082A00800312082A21800312082A40
:1017B300AB800312082A30810312082AAC8103127A
:1017C300082A15820312082A61820312082AE0827A
:1017D3000312082A72830312082AFE830312082ABB
:1017E30040840312082AAC880312082A2C8A0312A5
:1017F300082A028B0312082A318B0312082A1C8D34
:101803000312082A9C8F0312082A55900312082AF0
:1018130072910312082AC9940312082AD994031255
:10182300082A3A960312082AC6960312082AEF9743
:101833000312082AE0980312082A62990312082A5D
:1018430020E70112082ADAE70112082A4CE80112FC
:10185300082AE8E80112082A58E90112082A11ECBB
:101863000112082AE8EC0112082A55ED0112082A90
:10187300D2EE0112082A9CEF0112082A0CF0011281
:10188300082AD5F10112082AE8F20112082A81F385
:101893000112082A47F40112082A3DD80312082A24
:1018A30091D80312082AE9D80312082A34D903125B
:1018B300082A96D90312082A02DA0312082AB5DA8B
:1018C3000312082AF6DA0312082A0CDB0312082A89
:1018D30068DB0312082AA6DB0312082AFFF70312A8
:1018E300082A30F80312082AEAF80312082A50F9E2
:1018F3000312082AECDF0312082A78E10312082AEC
:1019030099840412082AAA840412082A407E001229
:10191300082A4E7E0012082A02850412082A7582BC
:101923000412082A85820412082AA0820412082AB3
:1019330001830412082A00800412082A85800412F5
:10194300082AE9800412082AC6FE0312082AE8FEC0
:101953000312082A52FF0312082A5DFF0312082A02
:10196300A1FF0312082AA2AC0312082AB0AC031287
:10197300082AF1AC0312082A12AD0312082A8FAD0C
:101983000312082A8FAE0312082AB1AE0312082AE3
:101993001DAF0312082A38AF0312082A53AF0312EC
:1019A300082A5DAF0312082A67AF0312082A7AAF29
:1019B3000312082A93AF0312082A2FB00312082A2E
:1019C300EBB00312082A62B10312082ADCB1031236
:1019D300082A28B20312082ACEB20312082AAAB38D
:1019E3000312082AD7DB0312082AE5DB0312082AAD
:1019F3005FDC0312082A43DD0312082AFCDE03120C
:101A0300082ADBFF0112082AD2BC0312082A3EBDB2
:101A13000312082AFDBD0312082A07BF0312082A6E
:101A230060C00312082ABBC00312082A10C10312A4
:101A3300082A19C10312082A2BC10312082A95C1C7
:101A43000312082AA9C10312082AB3C10312082AE0
:101A530084C60312082AD9C60312082AD5C803125A
:101A6300082A07C90312082A29C90312082A42C9E6
:101A73000312082A5BC90312082A65CA0312082A3B
:101A830000CB0312082AD9F90312082AFDF903121D
:101A9300082A16FA0312082A49FA0312082A7AFABC
:101AA3000312082AA8FA0312082A0AFB0312082AB7
:101AB30019FB0312082A23FB0312082A30FB031223
:101AC300082A92EC0312082AB8EC0312082AF5EC50
:101AD3000312082A04ED0312082A23ED0312082A2D
:101AE3008BED0312082A94ED0312082AF3ED031277
:101AF300082A17EE0312082AD6EE0312082AE3EE89
:101B03000312082AF4EE0312082A30840412082A66
:101B13004D840412082A77CB0312082AD5CC03126A
:101B2300082AE2CC0312082AF5CC0312082A14CDA2
:101B33000312082A2ACD0312082A3ECD0312082ACB
:101B4300B3CD0312082A18CE0312082AC8CE0312F3
:101B5300082A9DCF0312082AADCF0312082ABCCF4F
:101B63000312082ADC810412082A00820412082ABC
:101B730028820412082A50820412082A22EF031230
:101B8300082A49EF0312082A6AEF0312082ACFEF43
:101B93000312082A88F10312082AA1F10312082A62
:101BA300ADF10312082AC1F10312082ADFF103126F
:101BB300082AE9F10312082AF3F10312082A06F2AC
:101BC3000312082A59F20312082A92F20312082A6E
:101BD300C1F20312082A0FF30312082A5EF3031259
:101BE300082A79F30312082A83F30312082A94F3C9
:101BF3000312082ADAF30312082A76FF0212082ACC
:101C030066A30312082A90A30312082AACA30312A3
:101C1300082ABFA30312082AD5A30312082A32A451
:101C23000312082A65A40312082AA1A80312082A8A
:101C3300C7A90312082AFAA90312082A46AA0312FB
:101C4300082A72AB0312082A9AAB0312082AAFAB15
:101C53000312082ABFAB0312082A03AC0312082A93
:101C630064AC0312082A74AC0312082A80FC031222
:101C7300082A9BFC0312082AC4FC0312082ADEFC70
:101C83000312082A03FD0312082A22FD0312082A5D
:101C93003AFD0312082A68FD0312082A82FD031283
:101CA300082AEC830412082AE1E20312082AE8E274
:101CB3000312082AF4E30312082A24E40312082A6D
:101CC3004AE40312082A6DE40312082A8FE403127C
:101CD300082AC9E40312082A2FE50312082A68E533
:101CE3000312082AB4E50312082AE1E50312082ABD
:101CF30001E60312082A17F60312082A2FF6031225
:101D0300082A1DF70312082AFCF70312082AB3FD59
:101D13000312082A25FE0312082A63FE0312082A67
:101D2300A4FE0312082A7CD40312082A9BD40312AC
:101D3300082AEAD40312082A06D50312082A37D53B
:101D43000312082A44D50312082A51D50312082A7C
:101D53003DD60312082A7BD60312082A8BD7031217
:101D6300082A96D70312082AA8D70312082AB1D73C
:101D73000312082ABBD70312082AC7C10312082A71
:101D83000CC60312082A1AC60312082A6C8404120A
:101D9300082AC7FF0212082AD8FF0312082AE4847C
:101DA3000412082A86D60212082ADAD50212082A51
:101DB30020D40212082AD0D10212082A57D10212C3
:101DC300082AFED00212082A8ED00212082A65D0F1
:101DD3000212082A45CE0212082A11CE0212082A3C
:101DE300DECD0212082AC2CD0212082ADBCC02126F
:101DF300082A93CC0212082ADECA0212082A5ECAF3
:101E03000212082A5BCA0212082A58C90212082AB7
:101E130026C90212082A63C80212082A8EC60212B1
:101E2300082A1FC60212082AF1C50212082ABBDFBC
:101E33000212082A3FDF0212082AF6DE0212082ADB
:101E4300AEDE0212082AFCDD0212082AEEC50212D7
:101E5300082ADBC50212082A86C50212082A6EDD8B
:101E63000212082A75C50212082A67C40212082A38
:101E730031C40212082ADFC30212082A61DD0212EA
:101E8300082AFA990312082A80C30212082A4FC3A8
:101E93000212082A17C00212082AD7BF0212082A00
:101EA300CBBF0212082A2BBF0212082A6BBE0212F2
:101EB300082AEDBB0212082A7EB90212082A3CB98D
:101EC3000212082A10B80212082AC5B70212082AF9
:101ED30004B70212082AD7B60212082A1AB6021247
:101EE300082AB0B50212082AEAB50212082A5BDAF8
:101EF3000212082ACBF90200000080FBE473000001
:101F030000000000000000000000000000001010AE
:101F13001010101000003030000000142850000092
:101F230000000000000000000000002828FC2848F2
:101F330050FC505000000000103854543018145412
:101F43005438100000000044A8A8B0541A2A2A44A8
:101F5300000000000020505060ACA898927C000064
:101F630000606020C00000000000000000000004CA
:101F7300080810101010101008080400000040207A
:101F8300100804081020400000000000001010D6C4
:101F93003838D61010000000000000101010FE109A
:101FA300101000000000000000000000000000000E
:101FB300606020C0000000000000FC000000000082
:101FC300000000000000000000000000606000004E
:101FD3000002040404080810102020204000000020
:101FE300003048848484848448300000000000105A
:101FF300701010101010107C0000000000384444D2
:1020030004081020447C00000000003844441804F5
:102013000444443800000000080818284848887C15
:10202300081C00000000007C40407844044444380D
:1020330000000000003C4480B8C48484847800001D
:102043000000007C4448081010101010000000002D
:1020530000788484487884848478000000000078C1
:102063008484848C740488F0000000000000003035
:1020730030000000303000000000000000001000BD
:102083000000001010200000040810204020100859
:10209300040000000000000000FC0000FC00000041
:1020A3000000000040201008040810204000000039
:1020B3000000788484840810100030300000000091
:1020C3000038449AAAAAAAB4423C000000000010B7
:1020D30010282828384444EE0000000000F8444447
:1020E3007844444444F800000000003C4484808069
:1020F300808044380000000000F0484444444444D5
:1021030048F00000000000FC44404878484044FC8C
:102113000000000000FC42404878484040E00000D6
:102123000000003C448480808E844438000000001A
:1021330000EE4444447C444444EE00000000007C30
:10214300101010101010107C00000000007C101004
:1021530010101010101090E0000000EE4448507072
:10216300484844EE0000000000E04040404040404A
:1021730044FC0000000000EE6C6C6C54545454D6C4
:102183000000000000EE64645454544C4CE400001E
:1021930000000030488484848484483000000000B8
:1021A30000F844444478404040E000000000003020
:1021B3004884848484B448380C00000000F8444404
:1021C3007850484844E600000000003C4440201892
:1021D300040444780000000000FE92101010101058
:1021E30010380000000000EE4444444444444438A2
:1021F3000000000000EE44442828282810100000A6
:10220300000000D6545454546C28282800000000C1
:1022130000EE44282810282844EE0000000000EEB9
:10222300442828101010103800000000007C880893
:102233001020204044FC0000001C1010101010104F
:10224300101010101C00007010101010101010103F
:1022530010107000007010101010101010101010DB
:1022630070000010280000000000000000000000C3
:1022730000000000000000000000000000FE0060FD
:102283006020C0000000000000000000000000000B
:10229300000038441C24443E0000000000C04040BD
:1022A30078444444447800000000000000003C44AB
:1022B3004040443800000000000C04043C44444403
:1022C300443E000000000000000038447C404438D5
:1022D30000000000001C2420F820202020780000AB
:1022E3000000000000003C484830407844380000BB
:1022F30000C040405864444444EE00000000001015
:10230300000070101010107C000000000008000096
:102313003808080808080870000000C040405C48FE
:10232300507048EC000000000070101010101010E6
:10233300107C0000000000000000F854545454D6F0
:102343000000000000000000D864444444EE000094
:1023530000000000000038444444443800000000FA
:1023630000000000F8444444447840E000000000CA
:1023730000003C444444443C040E000000000000C0
:10238300EC30202020F800000000000000003C4456
:102393003008447800000000000010107C1010107A
:1023A300100C0000000000000000CC444444443EF4
:1023B3000000000000000000EE4428282810000060
:1023C300000000000000D6545454282800000000E8
:1023D30000000000DC48303048EC00000000000042
:1023E3000000EE442828101020E000000000000048
:1023F3007C481010247C00001010101010101010D6
:1024030010101010101000013636010100010201F6
:102413000001030100010401060605020000070193
:1024230000340801000F090401010D0100FF0E082B
:10243300000017020000190100FF1A0100011B012F
:1024430000FE1C0100081D0200001F010001200105
:102453000001210200002301000F240200002601D5
:10246300000127010008280200FF2A0100072B01B1
:1024730002402C0100002D0100012E0100012F015B
:1024830000FF30010B1C310800003A0100083B013A
:10249300000F2F0100000101710101010101110170
:1024A30001013101010101018001100161013B00C2
:1024B30014006301730172016201430100011301FE
:1024C30006013D0135000401120100010001000174
:1024D300000104010401330133013C0144013201D1
:1024E3003600000100016501000135008101000192
:1024F30005018201830100010302710230016002C0
:102503001102700201020202020280021002610241
:102513003A00410063027302720262024302000244
:102523001302380000020002040212020002000239
:102533000002000204020402370037003C02440296
:102543000002390000020002650200023502810226
:1025530000020502820283020002030071003001BF
:10256300600011007000310220035004800010004D
:1025730061000000140063007300720062004300F6
:102583000000130006000000000004001200000019
:1025930000000000000004000400370037003C0284
:1025A300440000000000000000006500000035004A
:1025B3008100000005000000830000000103710397
:1025C30001030103010301030103220302030103C6
:1025D30010030003000300030003000300030003D0
:1025E300420300032403060300030003040312034E
:1025F3002503230325032303040304030003000328
:1026030000034403000300032303000365032100C5
:1026130035038103000305030003000300030304E0
:10262300710402046004110470040204020401042E
:1026330002041004610400041404630473047204A8
:1026430062044304000413040604000400040404A5
:102653001204000400040004000451046400000494
:10266300000400044404000400040004000465049E
:102673000004350481046400050400048304000499
:10268300C9EEDBDACAD0B0B2C1AAB5C2BFC6BCBC00
:10269300D3C3BBA7B5C7C2BCD5CABAC5C3DCC2EBDB
:1026A300C8B7B6A8C8A1CFFBD7A8D2B5D7A8D7A219
:1026B300CEDECFDFCDA8D1B6B3CFD0C5C1A2D7E38D
:1026C300B4B4D0C2D6C2D4B6C7BFB4F3D4ADA3BAE0
:1026D3000036000100060000000F000000000000AB
:1026E3000000000000000003FFFF00000403FFFFE1
:1026F3000000FFFF0FF4010005C4040320000100E4
:10270300030B000000000000000003010F0000584D
:10271300181300F817010058180200C2170300C865
:10272300170400CE170500D4170600E017FFFF00BB
:102733000001F60D06260E08200E0B320E10720D48
:1027430002FC0D05140E07020E0CD80D0DEA0DFF49
:10275300000003EAF5E5D5D5C5B5A595958585753D
:102763007565655555454535352525151505FE1101
:102773002E1204120A1228121C12161234123A12C2
:1027830040124C121012F811F21100160F00000B38
:10279300150B020002220F32000006E812FA1200A3
:1027A30013C8110613C211CE1142136013661348E6
:1027B3001354134E130211FC1038113E113211EA57
:1027C300100C0E020B040B0A0708000F00383C3EE6
:1027D300363B3B352B432C000119161816161523CF
:1027E300030000034948424D1817250502303017EE
:1027F300181921301B1D1F30303016181920231AC9
:102803001C1E3036130C1312131E131813221246F8
:10281300125A135212581202040201010101090251
:102823000E111411081144110000000000001A11C8
:102833002C1100BE040A0E0004007F00E8030C0004
:10284300280000000000090308100C0A030809000F
:10285300040001FF1E1E0C050408100FC082C08374
:102863008A828B83E0D2E7F01217260239D6C08220
:10287300C0837900122D2B125A42C082C083900369
:10288300341247C8D083D082C3E09CA3E09D500C90
:10289300126116FAA3E01228A26001090239D6FBDD
:1028A300EA75F00BA4FAA8F075F00BEBA428FB90E3
:1028B3000336E02AF8A3E03B8882F583E0540F2235
:1028C30074F71203738908122D2B122DD1ACF075F6
:1028D300F00BE9A42CF9900336E028FEA3E039FFBE
:1028E3007401650860067402650870208A828B8310
:1028F300122DBD123AA474026508701B122C7C12AF
:102903002E0470138E828F83E4F0800BEA2403FC81
:10291300EB122D9F122DABEEFAEFFB120B02023AD4
:102923000E74F4120373126A3D79008E828F83E072
:102933006076890A890B8065E50A75F00BA4FAA80D
:10294300F075F00BE50B1228AF7046E50A75F00B36
:10295300A4F8AAF075F00BE50B122DE38E828F839A
:10296300E0850882850983122EC58508828509833F
:10297300A3123AA4EE2403FCEF122DA81239DD12A0
:1029830054BCAA08AB09120B027901900334124E0E
:10299300D1E50A2401F50AE50B3400F50B122C846A
:1029A300E50A9AE50B9B4090023C4E74F5120373C3
:1029B300EAFEEBFF740B120ACB1239E2750A01EC43
:1029C3004D602BEC126A59ED125A42123A9C79016E
:1029D300120B0EE5084509606F850882850983A3FC
:1029E300126A477902AA08AB09120B0E805AE5084E
:1029F3004509602B125A461241101239DE122DEE90
:102A0300700CEEFAEFFB120B14E9F50A80CBEE24FF
:102A130003FA122D2670317903EEFAEFFB80CA8E8A
:102A2300828F83A3E064FE7003A3E0F4700BEE24B3
:102A3300030A0A0A122D26700CEEFAEFFB120B148E
:102A4300E9F50A8003750A00A90A7F0302058D745C
:102A5300F7120373900334123A1EEA4B602FEA75A0
:102A6300F00BA4FAA8F075F00BEBA428FBEAFEEB3D
:102A7300FF121546900336123A1E900336124D1676
:102A83006012EEFCEFFD79001214AA800790033662
:102A9300E4F0A3F0023A0E900334124480C3EE989C
:102AA300EF9922C082C083EC4D6005121D2080097E
:102AB3007C087D0079001214AA0239D674F6120339
:102AC300737900EA4B601878008808125D89EB126D
:102AD300611260047901780808E8C3940840EA02A7
:102AE3003AAD74F712037374F31208F3ECFEEDFFBF
:102AF300851882851983E4F004120ACBEAF0A3EB6C
:102B03001252427403120ACBAC82AD83EEFAEFFB8E
:102B1300120B26EEFAEFFB120B2C023A0974F71292
:102B2300037374F31208F3ECFEEDFF851882851925
:102B330083E4F0EAFCEBFD7403120ACB122EBE749D
:102B430001120ACB123A988E828F83123AA474FE32
:102B530068700374FF696004790180027900023AA6
:102B63000974F7120373EAFEEBFF122BC2701412FF
:102B73002BCD8E828F83E0F4F88A828B83E058F02A
:102B8300120B02A908023A0E74F7120373EAFEEB62
:102B9300FF7508008E828F83E06022122BC2701DA6
:102BA300122BCD8A828B83E08F838E82F8E058705C
:102BB3000CE0F88A828B83E048F0120B0280C41287
:102BC3000B08E9F5087401650822126A52122DD523
:102BD300122D17FAA3E039FB2274F41203738A0847
:102BE3008B097C007D00122C7C122DAB122D3C1224
:102BF3006A447900850882850983A3E064FE700333
:102C0300A3E0F460717E007F008062EEFAEF122889
:102C1300A26057EEFAEFFBEA75F00BA4FAA8F07581
:102C2300F00BEBA428FB900336E02AF50AA3E03B64
:102C3300F50B850882850983A3125190850A828545
:102C43000B83A3E06A7003A3E06B701EE50A240301
:102C5300FAE50B122D27700AE50A2403FCE50B1293
:102C63002DA8122D307901125A5812361B122C84BA
:102C7300EE9AEF9B4095023C4EEA24030A0A0AEBC4
:102C83002290033412562FC32274F31203738A085B
:102C93008B098A828B83A3126A47122D2B126A44F3
:102CA300750C00122C7C122D2770547E007F00803F
:102CB30049122D09FAA3E0398A82F583E0540F60A3
:102CC30036122D09F50AA3E039F50BE50A2403FCB6
:102CD300E50B122DB23400FB121D1AE964017017C3
:102CE300850A82850B83A31256F0A3123AA4122DF0
:102CF30030750C01125A5812361B122A9A40B2A987
:102D03000C7F0502058DEEF8EFF9E875F00BA4F8DA
:102D1300122D1722AAF075F00BE9A42AF9900336B5
:102D2300E02822EF122DFE22126A58EB22122D3CCC
:102D3300125A53EEF0A3EFF022E508126A59E5099F
:102D43002274F5120373EAFEEBFF8E828F83A312C4
:102D53006A477C007D00EE24030A0A0AEF122DABBA
:102D6300EEFAEFFB120B08E9F50A7401650A702904
:102D7300126A52122DD1AAF075F00BE9122DE385D8
:102D83000882F583122DBD122DEE700DE508240384
:102D9300FCE509122D9F122DAB022A4B3400FDEEE8
:102DA3002403FAEF22122DB23400FB120B26223435
:102DB30000FDE5082403FAE50922A3122DC222121D
:102DC3002DC622E0F8A3E0F98E828F83A322122D71
:102DD300D5223400F583124484E875F00BA4F8225D
:102DE300122D1DF508A3E039F50922E8F0A3E9F057
:102DF300E5082403FAE509122DFE22122E046401CC
:102E0300223400FB120B2CE92274F312037374E6D1
:102E13001208F3126A3D750C0175080075090075F7
:102E23000A00750B00851882851983E4F0EE2403EC
:102E3300FCEF3400FD7403120ACB122EBEE96401C9
:102E43007023740B120ACB123A9C7401120ACB1230
:102E530051947003A3E069605185188285198385B5
:102E63008208858309740D120ACBE4122EC5740EF1
:102E7300120ACB123AA4740D120ACBAA82AB8312A4
:102E83000B4AE96401700B740D120ACB85820A8523
:102E9300830B780A120847AC08AD09EEFAEFFB1270
:102EA3000B1A740212088FE9F50CEEFAEFFB120B02
:102EB30044A90C741A12088F022D04123191120BBB
:102EC3005022123A1912448022C082C083780079BA
:102ED300008003122FBC122C84E89AE99B5029E846
:102EE300FAE9FBEA75F00BA4FAACF075F00BEBA46E
:102EF3002CFB900336E02AFCA3E03B8C82F583E0B5
:102F0300540F70CF7900800279010239D6C082C094
:102F1300839004EE1244D6EC75F012A4FCA8F0756D
:102F2300F012EDA428FD79FF7A267B0B1214AA0276
:102F330039D674F7120373E9FEEAFF7A007B00784F
:102F43000079008028E8FCE9FDEC75F012A4FC850B
:102F5300F00875F012EDA425081233D1C39E400A80
:102F6300E0FCEFC39C40031234F0122FBC1233C5B4
:102F730040D3023A0EC082C08378007900800312E6
:102F83002FBC122FB0501F1233D5F470F2E875F036
:102F930012A4F8AAF075F012E9A42AF9742628FA03
:102FA300740B39FB80047A007B000239D69004EE5F
:102FB300123486C3E89AE99B22E8240108E9340025
:102FC300F92274F012037374F31208F38A0A8B0B59
:102FD3008C0C8D0D8908EC450D6016AA0CAB0D12F7
:102FE3000B9E8A0E8B0FAE0EAF0FEE4F60030230B7
:102FF30083120B748A0E8B0FA80EA90FE8FEE9FF4C
:10300300E849607C9028471230E560227403650824
:1030130060067404650870167A047903120B6E90C7
:1030230028471230FC40077A007B000230E29028E8
:10303300451230E5601B740165086006740265087B
:10304300700F7A027901120B6E9028451230FC50F2
:10305300D68518828519837401F0120ACB1254BCE9
:10306300AC0CAD0D7403120ACB12318A740B120A25
:10307300CB1239EA123E84E41254A41210428004A3
:10308300EE4F604A780074FF2508C3940450027819
:10309300048E828F831254BC8E828F83A3A3A3A337
:1030A300E508F0E88E828F83A3A3A3A3A31254C4DD
:1030B30012022212349D8E828F83A3A3A3A3A3A300
:1030C300A3F0123494120AA8125A3C120AB4123012
:1030D300EA4005901082E4F0120F1CEEFAEFFB02B7
:1030E300448A1255DE49227A047900120B6E900449
:1030F300EE1260F8EA98EB99221231157583047584
:1031030082EEE493C398F8A3E49399F9C3EA98EBA6
:103113009922E493F8740193F92274F212037374FD
:10312300F31208F38A088B09ECFEEDFF750A00EE33
:10313300FAEFFB120B9E8A0C8B0DA80CA90DE84924
:10314300603E88828983E065087004A3E0650960B6
:103153002F88828983A3A3A3A3E0C39405502112DC
:1031630058EA8518828519837401F0120ACB125824
:10317300EEEEFCEFFD7403120ACB12318A750A01DD
:10318300A90A740D024F88123191120B5C22AA8294
:10319300AB83120B26851882851983AA82AB8322FF
:1031A30074F61203731231DF600FA3A3A3A3E01419
:1031B300C394045004790180027900023AAD74F695
:1031C3001203731231DF600FA3A3A3A3E014C3940C
:1031D300025004790180027900023AAD120B988AF9
:1031E300828B83E58245832274F61203731231DFE7
:1031F300600BA3A3A3A3E07004790180027900020A
:103203003AADC082C083EAFCEBFD7A007B00023951
:10321300D3C082C0837C007D000239D374F41203CF
:103223007374F31208F3EAFEEBFF8C0A8D0BC3EC05
:1032330094F8ED94FF4007EE4F70030232D87508FF
:1032430000750900802E8518828519837401F01298
:103253003643120ACB12365160137403120ACBACF5
:1032630082AD83EEFAEFFB121D1AE97049E50824DB
:10327300011234719004EEE41255E6E50898E5096D
:10328300995052E50875F012A4F8AAF075F012E50A
:1032930009A42AF912612B60D4EE4F70A974FF655B
:1032A3000A700474FF650B60C4123633650A700438
:1032B300A3E0650B70B7E50875F012A4F508A8F054
:1032C30075F012E509A428F50974262508FA740B8C
:1032D3003509FB80047A007B00023C4974F4120335
:1032E3007374F31208F3750800120B9E8A0A8B0B92
:1032F300AE0AAF0BEE4F602A8518828519837401DD
:10330300123A13F8A3E0F9740B120ACB123B2712FB
:103313000B3E7C127D0079FFEEFAEFFB1214AA75C7
:1033230008011230EA50099010827401F0120F1C48
:10333300A908023C4974F7120373E9FE74FE6A702C
:103343000374FF6B7800790070058052122FBC1252
:1033530033C5504AE8FCE9FDEC75F012A4FCAFF06C
:1033630075F012EDA42F1233D1F460E0E8FCE9FD0F
:10337300EC75F012A4FC75F012EDA42FFD74262C4D
:10338300F582740B3DF583E06A7003A3E06B70BCB8
:1033930080091233D514C394044017122FBC122F83
:1033A300B05018EE70EC1233D564016005E064038D
:1033B30070E9123624FAA3E0FB80047AFE7BFF0255
:1033C3003A0E9004EE1244DAC3E89CE99D221235CA
:1033D3002522E8FAE9FBEA75F012A4FAACF075F0DD
:1033E30012EBA42CFB742A2AF582740B3BF583E0C1
:1033F30022120BB00239D6C082C083790180F274E5
:10340300F01203738A0A8B0B7A047901120B6E8A0A
:103413000C8B0DEA450D603EEAC333FAEB33FB1226
:1034230015468A088B09AE08AF09EE4F60237AFE72
:103433007BFF120BB674FE6A700374FF6B601B850F
:103443000882850983123A1EE5082402123471802A
:10345300E1750C0080047E007F00850A82850B8362
:10346300E50CF0EEFAEFFB02448FE5082407F508BC
:10347300E5093400F509229004EE1244DAC3EA9C0C
:10348300EB9D22E493FA740193FB2212149E7403BE
:1034930022125A4DE4F090861F22E88E828F83A376
:1034A300A3A3A3A3A3A3A31234BF74011234BFA382
:1034B300F0EE2410125A50E4F0A3F022123E90A32F
:1034C300A3A322C082C0837A007B00800419123434
:1034D300F012347A501012350FC3940550F0E9708E
:1034E300EC1234F980047A007B000239D6EA240115
:1034F3000AEB3400FB22EA75F012A4FA75F012EB22
:10350300A428FB74262AFA740B3BFB22EAFCEBFD8E
:10351300EC75F012A4FCA8F075F012EDA428123596
:103523002522FD742A2CF582740B3DF583E0227469
:10353300F712037374F31208F37E007F000235D78A
:10354300E50875F017A4F8A9F012638CFAA3E0FB61
:10355300EEF8EFF9E875F012A4F8ACF075F012E9A3
:10356300A42C1236326A7003A3E06B603FE5087542
:10357300F017A4F8AAF0EA12638BF8A3E0F9740138
:10358300120ACBE0687003A3E0696020E50875F0D8
:1035930017A4F8EAF974A228FC740C39FD74031219
:1035A3000ACBAA82AB83121D1AE96014E50875F0F1
:1035B30017A4F8A9F074A028FA740C39FB12104E62
:1035C300050890284CE493F8E508C39850030235A6
:1035D3004312361B9004EE1266D25039EEF8EFF91F
:1035E300123624F47003A3E0F460E685188285198B
:1035F300837401F0EEF8EFF9E875F012A4F875F0B2
:1036030012E9A42AF9123643120ACB12365160C1C9
:1036130075080080AD023A09EE24010EEF3400FF75
:1036230022E875F012A4F8AAF075F012E9A42AF9B9
:1036330012363722742628F582740B39F583E0227B
:10364300742828F582740B3912447E740B22E8F037
:10365300A3E9123B2F120B56E922C082C0839003C9
:103663003D740EF0A3740EF090033F7408F0A3743E
:103673000EF09003437428F0A3740CF00239D6744F
:10368300F7120373EAFEEBFF900377E06408601B15
:10369300E0640460168E828F83E0540364017048F3
:1036A3001239DD123F85E06406703D8E828F83A35D
:1036B300A3E064FE7003A3E0F4602D8E828F83A3E6
:1036C300A3123A98900368E0687003A3E069700B53
:1036D300EE2415F582EF1261126008120EBCE9F5B3
:1036E300088008120EC280F67508C2EEFAEFFB12CC
:1036F300154C022B8674F41203738A088B098A8291
:103703008B83E0F8A3E0FAE82AFAE43400FB12150D
:10371300468A0A8B0BAE0AAF0BEE4F6063850882B5
:10372300850983E0FC7D0079001214AA8E828F83C1
:10373300A3A3126A47120EFE8E828F83A3A3A3A3B1
:10374300123A1E850882850983E0F8EE28F8EF34E3
:1037530000123AA0850882850983A3E0C0E0EE2425
:103763000D125A3FD0E0F0120F10EE240E125A3F02
:10377300E91250F1E0C0E0EE2411125A3FD0E0F01C
:10378300EEFAEFFB023C4E74F612037374EB12086D
:10379300F3EAFEEBFF124D13600302382E7A077B28
:1037A30000121546900339123A1E124D1360788E9B
:1037B300828F83120AA890033A123F88120AB41226
:1037C300690BC0E012383AD0E0F0EE2405FAEF348A
:1037D30000FB8A088B098A82F583E0C0E012383542
:1037E300D0E0123C45E0C0E0123835A3D0E0123AF5
:1037F3008A120AA8851882851983120AB4888289D5
:1038030083E0C0E07405120ACBD0E0F0850882851E
:103813000983E0C0E07404120ACBD0E0F07407120D
:103823000ACB12397080067910800279017415026F
:103833003AAA12383AA322900339E0FAA3E0F583B7
:103843008A82A3A3A3A322C082C083124D13600D57
:1038530090033912561D900339E4F0A3F0120E2C95
:10386300120FEE0239D674F012037374EB1208F3DD
:10387300ECFEEDFF89087425120ACB780C120A6E50
:103883007429120ACBE0F9742A120ACBE0FC742BD8
:10389300120ACBE0FD740F697005740F6C6012900F
:1038A30010D6E06402700579C102396BE9C39C400C
:1038B300F6900378780C120A8CE50890037EF0E901
:1038C30090037CF0ECA3F0ED90037FF074FF6A703B
:1038D3000374FF6B701D9010E1E0F47003A3E0F438
:1038E30070051214BC800C9010E11239F3E8F0A3B8
:1038F300E98007900375EAF0A3EBF0EE4F6017EE53
:10390300FAEFFB1210AEE96401700BEEFCEFFD7AE7
:10391300897B03121D20900368E4F0A3F090036BEE
:10392300F0A3F0900388F09010D6E0640270089042
:10393300037C740FF0A3F09003777405F014120A5C
:10394300CBE4F0900378120AA885188285198312B4
:103953000AB490037EE0C0E07405120ACBD0E0F015
:103963007407120ACB123970741502448CE4123BAB
:103973002F121D4A22C082C083900338E0700312C5
:1039830017F2120BF8804CC082C083900338E0908A
:1039930010817004E4F0802D7401F0900338E0F49A
:1039A30060237C41E0C394415002E0FCECF8E0C3A7
:1039B30098F0EC75F0E8A4CCA8F075F003A428FD0A
:1039C3007A801244E27A817B107941121D38800398
:1039D300120BA4D083D082020827EE125A4E22E0A3
:1039E300F508A3E0F509221239EE22122DC6A3220F
:1039F3001244809003752274F7120373EB90037FD4
:103A0300F0120E1A8005740D12088F7F0102058DC6
:103A1300123A19A3E022123A8AA322EAF0A3EBF0A6
:103A23002274F712037374F81208F3EAFEEBFF79BA
:103A330000900377E06408704485188285198374C5
:103A4300FDF0A374FFF0120EF87402120ACB123ABF
:103A53001E7405120ACBE4123A19E0C0E074041292
:103A63000ACBD0E0123A85C0E07406120ACBD0E04C
:103A7300F07407120ACBE4123B2B120F3A740802BC
:103A83003A0B123A8AE022F08E828F8322F0851855
:103A9300828519832212448022E0F8A3E0F9125AA6
:103AA3004DE8F0A3E9F02212088F7F0202058DC0D2
:103AB30082C08390034974B8F0A3740CF09003EFB1
:103AC3007494F0A3740FF090034D74EEF0A3740C90
:103AD300F090034F74B8F0A3740CF090035174F496
:103AE300F0A3740CF00239D674F412037374F91250
:103AF30008F38A088B098C0A8D0B85188285198334
:103B03007808120A8C7404120ACBE9F07405120ABD
:103B1300CBE4F07406120ACBE4123B2B120BE074D5
:103B230007023C4BE8F0A3E9123B2F22123A90AA7A
:103B330082AB832274F41203738A088B098A828B03
:103B430083125A5BEE4F7003023C43900312124DF3
:103B53001660158A828B83A3A3E0F9EEFAEFFB903C
:103B63000313123F88121EFF8E828F83A3A3A3A386
:103B7300A3A3A3A3A3E0640270748E828F83A3A381
:103B8300A3A3A3A3E054027003023C158508828516
:103B93000983A3A3E064E960798E828F83A3A3A33F
:103BA300A3A3A3A3A3A3A3E070149010D9E0048E4E
:103BB300828F83A3A3A3A3A3A3A3A3A3A3F08E8210
:103BC3008F83A3A3A3A3A3A3A3A3A3A3E014123C40
:103BD30045A3A3A37404F09010DA125496E8F0A35B
:103BE300E912656F8B0BEA450B7003125F4D8E82F2
:103BF3008F83A3A3A3A3A3A3A3A3A3E0640260123D
:103C03008E828F83A3A3A3A3A3A3A3A3A3E064068A
:103C1300702E8E828F83A3A3A3A3A3A3E0A2E0505D
:103C23001F850882850983A3A3E0F9EEFAEFFB124F
:103C33001DE08E828F83A3A3A3A3A3A3E054FEF06E
:103C43008009123E8C22740D12088F7F0402058DA9
:103C530074EC12037374DD1208F3EAFEEBFF8C08B5
:103C63008D097437120ACB780C120A6E750A007428
:103C730005120ACBAC82AD83120ADE7412120ACB90
:103C8300E070087415120ACBE060207405120ACBA9
:103C9300E0A2E6501E8E828F83A3A3A3A3A3A3A3B4
:103CA300A3A3125190120F70E960087903121D0843
:103CB300023E727405120ACBE0540C64047005755D
:103CC3000B018003750B00E0A2E55035750A01E591
:103CD3000BA2E0402C120EFE8A108B11A810A91122
:103CE3001239DDE0687003A3E06960157405120AF8
:103CF300CB126A4E12518C121DECE96004790480D8
:103D0300AC7405120ACBE0A2E650227406120ACB69
:103D1300E0540370187405120ACBE0540C640C6071
:103D23000CE0540C640860057510018003751000E5
:103D33007405120ACBE05403F8740268700C126A1B
:103D43004E12518C120AF0023E72740168703AE509
:103D530010A2E05003123E7A7405120ACBA882A97E
:103D6300837403120ACBE8F0A3E912447485188222
:103D7300851983123E84E0C0E07402120ACBD0E0BE
:103D8300123B2B121ED0023E72E86003023E729079
:103D9300035FE0640170108E828F83A3A3A3A3A3A8
:103DA300A3E07003023D007422120ACB7402124492
:103DB30074741A120ACB123AA4E510A2E0500874E4
:103DC30005120ACB123E7AE50BA2E0506AEE240FED
:103DD300F582EF126112C0E07417120ACBD0E0F043
:103DE300900314124D167003023E72120EFE8A12D5
:103DF3008B13A812A913741A120ACBE0687003A3D9
:103E0300E069706B780C12083F780A12084B780847
:103E1300120847A910740C120ACBAC82AD8374212B
:103E2300120ACBAA82AB83900314123F85121EFFA2
:103E3300740712088F8038780C12083F780A12082A
:103E43004B780812084790037512068DEE2412F57D
:103E530082EF125E407423120ACBAC82AD83740EE0
:103E6300120ACBAA82AB83121DD4740912088F7471
:103E73002312088F02653A126A4E12562B120AE475
:103E830022E8F0A3E9123E8C22123E9022F08E82A9
:103E93008F83A3A3A3A3A3A32274F71203731216FE
:103EA300DE023A0E74F71203731216E4023A0E742A
:103EB300F71203731216F0023A0EC082C083121671
:103EC300EA0239D674F71203731216F6023A0E7425
:103ED300F71203737409120ACBE0F5087808120885
:103EE3004B1217027401023A0BC082C08312170EE1
:103EF3000239D6C082C0831217140239D674F7125E
:103F0300037312171A023A0E74F7120373EAFEEBE5
:103F1300FF89087401650870147900120D30902828
:103F230057E493FC7900EEFAEFFB120CA6023A0E6B
:103F330074F412037374F91208F3E9FE8A088B0907
:103F43008C0A8D0B7413120ACB125190900599129F
:103F53004D166027EE851882851983F07401120AC5
:103F6300CB7808120A8CEAF8EBF97405120ACB1223
:103F73003B27900599123F85121EFF023B22FB90BF
:103F8300034BE0F8A3E0F583888222C082C083124A
:103F9300174A0239D674F7120373901084E0F97E3E
:103FA30000800B1260FE540D64017001190E124162
:103FB300925003E970ED023A0E74F71203739010F6
:103FC30085E0F97E00800B1260FE548D64817001E0
:103FD300190E1241925003E970ED023A0E74F21277
:103FE3000373890BE975F006A4240CF508E5F012B8
:103FF30034758A0CE508250CFAE5093400FB121523
:10400300468A0C8B0DAE0CAF0DEE4F6027AC08AD9E
:104013000979001214AA1239DDE50BF0EE2508F830
:10402300EF3509F98E828F83A3A3A3A3A3A3A3A32D
:10403300A3123AA4EEFAEFFB024F8B74F61203734A
:10404300EAFEEBFF120C82901083E0F8E9C398407C
:1040530009900345125190120C88EE2402F8EF12D6
:1040630057A090034712565A900347E004F0EEFA24
:10407300EFFB120C8E850882850983E0025C56C033
:1040830082C08379009003458001091251908A828E
:104093008B83E582458370F20239D674F71203737A
:1040A300EAFEEBFFEE4F6056900345124D16604E4D
:1040B300888289837A007B00EE65827003EF6583D3
:1040C300600FAA82AB83124104E5824583602F808F
:1040D300E7900345124110687002EF698E828F8367
:1040E3007008123A98900345800312654C123AA463
:1040F300EEFAEFFB121EA0EEFAEFFB12154C023A9A
:104103000E12410822124484888289832212448039
:10411300EE22C082C0839003458004888289831283
:104123004D16600B888289831247C8EC4D70EC8A68
:10413300828B83E4F0A3F0E8496006888289838058
:1041430003900345123A1E0239D674F71203739093
:10415300034580048A828B8312418D4B60257E0048
:1041630080010E12419250ECEE75F006A4FCADF006
:10417300EA2CFCEB3DFDEC2410F582ED1241E270DC
:10418300E180047A007B00023A0E12562FEA2212D3
:1041930041EBEEC3982274F71203737D0080010D87
:1041A3001241E7EDC3985034ED75F006A4FEA8F074
:1041B300E8FFEA2EFEEB3FFFEE2410F582EF1241FB
:1041C300E270DCED75F006A4FEE8FFEA2EFAEB3FA1
:1041D300FBEA2411F582EB1261124CF0023A0E1243
:1041E300611E69221241EB22126A58EB3400F583F7
:1041F300E0F82274F6120373120DA87A007B008094
:1042030025EAF8EBF9E875F006A4F8ACF075F006CA
:10421300E9A42C125604126919A3E41256FAF0A366
:1042230012691F126A969028411230F440D37A0023
:104233007B00801C8A088B09740378081209F71223
:1042430050B8A374FEF0A3041254DAA3E4126A96DE
:1042530090284B12429540DC7A007B00801D8A082F
:104263008B09740378081209F774C8125D8A740FF6
:104273001265D174FEF0A304126A9690285112427B
:104283009540DB902855E493900353F012429F022C
:104293003AADE493F8C3EA98EB9400227CE87D03FB
:1042A3007A107B009003C2E0F91216002274F01218
:1042B300037374F51208F38A088B09890A8C0BE9D6
:1042C300A2E050147508FC7509FFA2E15005D2E481
:1042D300024372D2E3024372124F777003A3E06981
:1042E3007005790002443FAC0A7902AA08AB0912AF
:1042F3000D84E960EDE50AF50C780C12084B7902A0
:104303007CFE7DFFAA08AB09124CF212088FE9600C
:104313000302443DE50AC2E5F50A9003B5E0705196
:10432300E50AA2E6404B7403120ACBAC82AD83AA22
:1043330008AB09120B32E970321246138A0C8B0D4B
:10434300A80CA90DE8FEE9FFE8496025EE24020A5E
:104353000AEF122E04601AEE2402FCEF3400FD74FF
:1043630003120ACBAA82AB83121D20E50AD2E5F51C
:104373000A900348E0F50C900368E0F50EA3E0F51E
:104383000F780E1208477D017C00900348E0F9AADC
:104393000EAB0F120D3C740212088FE9F89003481C
:1043A300E004F0E8600302443DE50AA2E55004742A
:1043B3000E80027406C0E07401120ACBD0E0125AD8
:1043C3006C8A0E8B0FAE0EAF0FEE4F606912445D19
:1043D300124474888289837401F07478550AA31295
:1043E3006A5EE50C126A5EA3E508F0E50912444C27
:1043F300E4F0E50AA2E5500F7403120ACBAC82ADD8
:1044030083E824061244438E828F83A3A374FDF0B2
:10441300A374FFF0E50B6015902858E493F8E50BBF
:10442300C3985009EE2413125A3FE50BF0EEFAEF4E
:10443300FB120BD480067910800279C7740B804974
:10444300FAE93400FB121D202288828983A3A3A3E7
:10445300A3124458221257D3A322EE2417125A5000
:104463007401F0120EF8EE241A125A50EAF0A3EB7C
:1044730022F0126A52340012447E22F583124484DD
:1044830022E0F8A3E0F922740D12088F7F080205D9
:104493008D74F61203737A007B10125F5A600890D2
:1044A30003D47401F0802990063AE064019010D798
:1044B3007006E0FC79018004E0FC79037A007B005C
:1044C300120CA690283F1244D67A007B101244E4C3
:1044D300023AAD1244DA22E493FC740193FD227B89
:1044E300009003C2E0F91215FA2274EC1203738AE6
:1044F300088B098C0C8D0D890E7414120ACB124E85
:10450300D17416120ACBE0F510A3E0F511120F7067
:10451300E960077AFF7BFF0246109010D6E0640241
:1045230060030246037900AA08AB09120D8AA90E9B
:10453300120D7E8A128B13AE12AF13EE4F7003026D
:1045430045EB8E828F83A3A3A3A3A3E064018E8292
:104553008F83A3A370691251908E828F83A3A3A329
:10456300A3A3A3E054186043902856E4938E828F4C
:1045730083A3A3A3A3F0EA650C7003EB650D60149A
:10458300EA650A7003EB650B600AEA65107003EBDA
:104593006511701F7810120847AC0AAD0BAA0CAB5B
:1045A3000D12106C740212088F8008900367125F5B
:1045B30044A3F074FE6A700374FF6B601D804EA306
:1045C300A3A3E0640360298E828F83A3A3A3A3A381
:1045D300E0640470057AFE0245188E828F83A3A3DC
:1045E300A3A3A3E0640270089003B4E06402701014
:1045F3001246138B0BEA450B6006AA08AB09800D24
:10460300AA08AB09900349123F85121EFF02653ABF
:10461300900375124CF81210302274F7120373EAE8
:10462300FEEBFF120B86E9700AEEFAEFFB120B9218
:10463300E96006EEFAEFFB80047AFE7BFF023A0E96
:1046430074F01203738A0A8B0B8C0E8D0F89097514
:104653000800120F70E9790060030247BAAA0AAB97
:104663000B120D8AA909120D7E8A0C8B0DAE0CAFAD
:104673000DEE4F60198E828F83A3A3A3A3A3E064DF
:104683000270559003B4E0640270030247B8AA0AAB
:10469300AB0B90034F123F85121EFF120B988A0C2F
:1046A3008B0DA80CA90DE84970030247B8888289CD
:1046B30083A3A3A3A3A3E0A2E040030247B8750C1E
:1046C30001A2E150687901AC0AAD0BAA0EAB0F123F
:1046D3000CD6E970640247B88E828F83A3A3A3A389
:1046E300A3E064037005750C0280528E828F83A34E
:1046F300A3A3A3A3E0640160030247B89003751268
:1047030047C88E828F83124B1D8A0C8B0DA80CA970
:104713000DE84960D190284FE493FA88828983E0B9
:10472300C39A50C2A3E060030247B880B988828964
:1047330083A3A3A3A3A3D2E1F0EE4F603A8E828FAB
:1047430083A3A3A3A3A3A3E05418602B7508018E2E
:10475300828F83A3A312068D750CFE750DFF780C53
:104763001208477900AC0AAD0BAA0EAB0F120D9CD1
:10477300740412088F803E900368E0650E7004A3F2
:10478300E0650F7014902857E493FCA909AA0AABBB
:104793000B120CA6750801801CA90CAC0AAD0BAA60
:1047A3000EAB0F120CD6E9700C750801A909AA0A01
:1047B300AB0B120D30A90802448FE50C2415F582CA
:1047C300E50D125A531254B02274EA12037374F0B3
:1047D3001208F38A0C8B0D8C088D097426120ACBF0
:1047E300E0F514A3E0F5157512069003F5124D16C6
:1047F30060239003751247C8AA08AB0912105A8A9E
:10480300108B11EA4511600D8A828B83A3E070053A
:104813007900024B05E50C241DF50EE50D3400F57A
:104823000F850E82124D02F51388828983A3A3A3F9
:10483300E0FA88828983A3A3A3A3E0F9EA2400FE14
:10484300E439FFAA08AB09120D36850E82850F8362
:10485300124B40E029F50BE50AA2E5500375120E51
:104863007487550A70177418550A6418600FE50C9D
:104873002417F582E50D12611265126007790112A2
:104883001D08808C530A78C3EE94F8EF94FF501DF3
:104893007900EEFAEFFB124B0F601288828983A333
:1048A300A3A3A3A3A3E05418600302481378081238
:1048B30008477D00124B3312088FE9F874036870C0
:1048C30003024813E8600302497E7418550A700313
:1048D300024A33E50AD2E0F50AA2E45004D2E1F534
:1048E3000AA90A125189124B0F605388828983A344
:1048F300A3A3A3A3A3E05418604488828983A3A33A
:10490300A3A3A3E064017036E51045116030900362
:10491300751247C888828983124B1D8A0E8B0FA894
:104923000EA90FE849601788828983A3E0600F8589
:104933001082851183A3125C615003024813E50AB8
:10494300F50E780E12084B124B2612088FE9702BC6
:104953007C007D0085148285158374FFF0A3F085A8
:104963000C82850D83A3A3A3A3A3A3A3A3E0600346
:104973001247BDA90B125189121708851482851598
:1049830083E0F47003A3E0F460399003B4E06402BD
:104993007003024813124EC2E0FAA3E0123F8112E1
:1049A3001EFFEA65087003EB65096003024813EE16
:1049B300FAEF123F81121EFF851482851583EAF0F8
:1049C300A3EBF078081208477D01124B3312088FCE
:1049D300A90AEEFAEFFB120D8A8A088B09A808A927
:1049E30009900368E0687003A3E0696003024AF674
:1049F300EEFAEFFB120B988A088B09A808A909E8BD
:104A030049606E88828983A3A3A3A3E06401600D38
:104A130088828983A3A3A3A3E064027054851882C8
:104A2300851983AC82AD83EEFAEFFB120B3280550E
:104A3300900361E0600FE50AF50E780E12084B1241
:104A43004B2612088FE50AF50E780E12084B7902F1
:104A53007CFE7DFFEEFAEFFB124CF212088FE96049
:104A63000302497E85148285158374FFF0A30249EE
:104A7300C5120EF8EAFCEBFD851882851983AA821C
:104A8300AB83121D20850C82850D83A3A3A3A3A34F
:104A9300A3A3A3E06401700F1247BD7408120ACBED
:104AA300AA82AB83121D20124CCC1258D84430F585
:104AB30008780812084B7401120ACB858208858393
:104AC300097808120847740B120ACB85820885837C
:104AD300097808120847E513F508780812084B7996
:104AE30000EEFCEFFD125189120CD0740612088FF0
:104AF300024813124CCC125A42124B40E50BF012EF
:104B03000F10741012088F7F0E02058D120D7E8A0E
:104B13000E8B0FA80EA90FE84922A3A312562F123A
:104B2300105A227901AC08AD09125624124CF22214
:104B3300AC0BA913125624120D3C7402221258E036
:104B4300A3A3A3A32274F012037374F01208F38ACD
:104B53000C8B0DECFAEDFB750F089003F5124D1657
:104B63006014125C5A8A828B83E58245836007A3B3
:104B7300E07003024CC7124CCC3400124D02F50B0B
:104B830088828983124CD5E0FBEC2400FEE43BFFD2
:104B930088828983A3A3124CD5A3A3E0FBECF50879
:104BA300E43BF50988828983A3A3A3A3A3A3A3E07A
:104BB300F50EE50AA2E45003750F10A2E550067442
:104BC30008250FF50F748F550A700FE50C2417F5A0
:104BD30082E50D126112650F60087901121D08024A
:104BE3004CC7530A707800E50AA2E45022124CCC59
:104BF3001261122408FCA3E03400FD7408120ACBEE
:104C0300AA82AB83121D207808E50AC2E4F50AE5FF
:104C13000AA2E55028124CCC12611228F8A3E03402
:104C230000F9E82408FCE93400FD8518828519831E
:104C3300AA82AB83121D20E50AC2E5F50AAC0EA9D0
:104C43000BEEFAEFFB120D42E9F8740368607590FE
:104C53000368E06E7003A3E06F605EE87054E50ADA
:104C6300F50F780F12084B124CE312088FE97054BA
:104C7300780A12084B7401120ACB85820C85830DC6
:104C8300780C120847740B120ACB85820C85830DAE
:104C9300780C120847E50BF50A780A12084BA90E9F
:104CA300AC08AD09EEFAEFFB120CD0740612088FB4
:104CB3008012740468700D80B7780A12084B124C86
:104CC300E312088F741002448CE50C241DF582E571
:104CD3000D22A3A3A3E0FC88828983A3A3A3A32219
:104CE3007901124EC9125A53124CF8124CF2221285
:104CF3000CFA740122E0FCA3E0FDAA08AB0922F53B
:104D030083124108A3E0F50A88828983A3A3E022E2
:104D130090033912568B2274E812037374F5120848
:104D2300F3EAFEEBFF8C088D0989147423120ACB76
:104D3300E0F50F7424120ACBE0F512A3E0F5137427
:104D430026120ACBE0F516A3E0F5177428120ACB56
:104D5300E0F50EA90F120D488A108B117401120A87
:104D6300CB7408F0E50EA2E450037410F0E50EA234
:104D7300E55004E02408F0851882851983AA82ABE4
:104D830083120F588A0C8B0DEA450D7003024EA94E
:104D9300EA2417F582EB124EBB120EF8E50C241A27
:104DA300F582E50D125A42123A1E7403120ACBAC75
:104DB30082AD83AA10AB11120B32E9601D124EB300
:104DC3007403120ACBA882A983E50C2418F582E5A3
:104DD3000D125A42E8F0A3E98024E50EA2E4501F25
:104DE300E5106E7003E5116F7015124EB3E50C24D8
:104DF30018F582E50D125A42E512F0A3E513F012FD
:104E03004EC2124ED1850A82F5837402F0A3E50ED9
:104E1300124ED9E50FF0EE850A82850B83A3A3A377
:104E2300F0EF850A82850B83A3A3A3A3124ED9A314
:104E3300A3A3E508F0E509850A82850B83A3A3A351
:104E4300A3A3A3F0AA10AB11120D36E92514850A0A
:104E530082850B83A3A3A3A3A3A3A3F0750800E5F3
:104E63000EA2E45011AC12AD13E50A2408FAE50BC7
:104E7300124445750808E50EA2E55014AC16AD17AB
:104E8300E50A2508F8E50B3400F9E8240812444341
:104E9300850C82850D83A3A3E510F0A3E511F0AA89
:104EA3000CAB0D120BD4740B12088F7F1002058DFF
:104EB300E50C2416F582E50D125A537401F0221203
:104EC3004EC9125A5322E50C126A59E50D22E0F538
:104ED3000AA3E0F50B22F0850A82850B83A3A322A4
:104EE30074F21203738A088B09ECFEEDFF890A79C9
:104EF30000124F777003A3E0697004790180737522
:104F03000B01900368E065087004A3E06509601F66
:104F1300750B00780B12084BA90AEEFCEFFDAA08EB
:104F2300AB09120FAC740112088FE9F50B804179BC
:104F330000EEFAEFFB120D7EEA4B602B8A828B8325
:104F4300A3A3A3A3A3A3E05418601C7508FE7509CB
:104F5300FF78081208478A828B83A3A312068D1257
:104F6300686E12088F80097901EEFAEFFB120C5874
:104F7300A90B8014120D8A8A0C8B0DA80CA90D9015
:104F83000368E0682212088F7F0602058D74F4120D
:104F9300037375081075090E7A101265768B0BEA88
:104FA300450B700312429F900353E014F0700C9072
:104FB3002855E493900353F0120D967E007F0080F2
:104FC3006C850882850983A3A3A3A3E06059F460D9
:104FD30056E5082404F582E509125F3E7049850809
:104FE30082850983A3A3A3A3A3E0640370197902B1
:104FF3008508828509831247C8850882850983A3AA
:10500300A3125190120CD6850882850983A3A3A30A
:10501300A3A3E06401601085088285098374FEF010
:10502300A3041250EAE4F012361B12346D902843A5
:105033001266D2408C7E007F008039120E9E8E084D
:105043008F09740378081209F774882508FC740F14
:105053003509FD7AE27B0C120E8CEA4B70DD8E086B
:105063008F09740378081209F71250B8126919E40A
:10507300F012361B90284BE493F8C3EE98EF94009C
:10508300501B8E088F09740378081209F71250C059
:10509300E82407F582E9125F3E70D680A17E007F87
:1050A30000800A1250CB600214F012361B1266CF36
:1050B30040F1023C4E1250C08882898322748825B5
:1050C30008F8740F3509F922EEF8EFF9E875F006E0
:1050D300A4F8AAF075F006E9A42AF9742828F58241
:1050E300740F39F583E0221250F1A3A3A322F085B4
:1050F3000882850983A3A32274F712037374E11250
:1051030008F3ECFEEDFF750800EE4F60728A828BA8
:1051130083E0241C125F6F124D1660638A828B83B7
:10512300125190851882851983AC82AD83EA241BC2
:10513300F582EB125E40EA241CF582EB12518C12CD
:105143000EE0740B120ACB1251947003A3E0697042
:105153002E7402120ACBE064017024741D120ACB70
:10516300123F85E064017017741D120ACB123F874A
:10517300A3A3E0F88E828F83E0687003750801A90A
:1051830008741F023A0B124EC93400F58312562FCE
:1051930022122DC2E0682274F4120373E970247999
:1051A3000090034D123F85121EFF8A0A8B0BAE0A35
:1051B300AF0B74FE6E700374FF6F701A902852E485
:1051C300936013790190034D123F85121EFF8A0AE3
:1051D3008B0BAE0AAF0B120F1C02378374F612034C
:1051E3007374F31208F31214BC8A088B09AE08AF68
:1051F30009900368E06E7003A3E06F60E9120F0487
:10520300EA6E7002EB6F60DEEEFAEFFB120F70E9ED
:1052130070D4EE4F60D0851882851983E4F00412B0
:105223000ACBEEF0A3EF125242E970BA74FE6E702D
:105233000374FF6F60B0EEFAEFFB740D023AAA122B
:105243003B2F120B4A22C082C083120F1C0239D695
:105253007F0A02058D74F2120373EAFEEBFF8C0AD8
:105263008D0B8908740E120ACBE0F50974FC6E707D
:105273000374FF6F70057900024F8B7900120D8A5A
:105283008A0C8B0DAE0CAF0D900368E06E7003A318
:10529300E06F7006E509A2E650DCA90912675C70AD
:1052A3006179007AFE7BFF12675C705674185509AA
:1052B300700302538F780079008003122FBC90286B
:1052C30043122FB3400302538FE8FAE9FBEA75F068
:1052D30007A4FAACF075F007EBA42CFB74162AF5BF
:1052E30082740E3BF583E0541870D0E875F007A480
:1052F300F8AAF075F007E9A42AF9741028F8740ED7
:1053030039F988828983A3A3A3A3A3A3E0541860D4
:105313000974185509700302527988828983EEF063
:10532300A3EFF074FE650A700474FF650B6003124B
:1053330054B688828983A3A3A3A3A3A3E509F0A2F8
:10534300E0500D88828983A3A3A3A3A3A3D2E2F091
:105353007401650888828983A3A3A3A3A370387407
:10536300011254DAE054186028902856E493888296
:105373008983A3A3A3A31254A412105A8B0DEA4545
:105383000D60030252797800790080397902025264
:105393007B900367E080D7E0640170030252798851
:1053A300828983A3A3A3A3A3A3E05418600790282F
:1053B30056E4938004900366E012444CE508F0023F
:1053C3005279122FBC90284CE493FAC3E89AE994DB
:1053D3000040030252797A007B00804BEAFCEBFD2C
:1053E300EC75F007A4FCAEF075F007EDA42EFD7488
:1053F300122CF582740E3DF583125A5BE8FCE9FD2D
:10540300EC75F017A4FC85F00975F017EDA42509D8
:10541300FD74A02CF582740C3DF583E06E7003A33C
:10542300E06F609E1234F090284312347D40AD1239
:1054330044D6EC6A7002ED6B7088E875F017A4F837
:10544300AAF075F017E9A42AF974A028FE740C39A0
:10545300FF7C177D007900EEFAEFFB1214AA8E820F
:105463008F831254BC900375125496A3A3A3A3A3D2
:10547300A3E8F0A3E912549C7401F0EE240E125A2F
:105483003F74011254C4120222EE240D125A3FE853
:105493000253C11239EEA3A322F0EE240F125A5085
:1054A30022F01254ADAA0AAB0B22900375E0FCA3C1
:1054B300E0FD2288828983A3A3E50AF0A3E50BF02C
:1054C30022F01254C92290284FE4932401F8E434C3
:1054D30000F97A027B0022124458A32274ED1203CE
:1054E300738A088B09890E12560D400579050255FA
:1054F300DB121750AA08AB091256DF902841125548
:10550300DE650A7003E9650B70077AFE7BFF1256AE
:10551300DF902841E41255E6E50A98E50B9940032C
:105523000255D91255EA6012E50A75F006A4F8751A
:10553300F006E50B12563512154CE50E6018E50A18
:1055430075F006A4F8AAF075F006E50B1256617023
:105553001A79010255DBE50A75F006A4F8AAF0757D
:10556300F006E50B125642E4F0A3F0E50A75F006E7
:10557300A4F8AAF075F006E50B125602A31258EE32
:1055830088828983A3AA82AB831256508A828B8333
:10559300E0603F1255EA603A8E108F117512007861
:1055A30010120843E50EC333FCE433FDE50A75F03E
:1055B30006A4F50AA8F075F006E50BA428F50B740C
:1055C3002C250AF582740F350B12518E12348E126C
:1055D300088F790080027907026772123115E82279
:1055E3009004EE1260F922E50A75F006A4F8AAF019
:1055F30075F006E50B12563DF8A3E0F9E84922A43D
:105603002A12579688828983A322ECFEEDFF902805
:105613004DE493F8E9C39822F58312562F12154CE3
:1056230022E50C126A59E50D3400F583E0FAA3E094
:10563300FB2212563DFAA3E0FB22125642E022A4BB
:105643002AF9742C28F582740F39F58322E50EF0BC
:105653009010D812565A22E088828983F02212577A
:10566300BAF50CE93400F50DE50EC333FAE433FB68
:10567300121546850C82850D83EAF0A3EBF0850CA9
:1056830082850D8312568B22124484E8492274F4D6
:10569300120373ECFEEDFF740C120ACB123A9888D6
:1056A3000889091256DFAC0AAD0BECF8EDF9902826
:1056B300411256E75021E875F006A4F8AAF075F0F8
:1056C30006E9125602E08E828F831256FA1256F0C2
:1056D300123AA4790080027904023C4E120D0C8A1E
:1056E3000A8B0B22123486C3EC9AED9B2212448060
:1056F300850882850983221257CF2274F612037319
:105703007E007F008028EEF8EFF9E875F006A4F834
:10571300ACF075F006E9A42CF9742A28F582740F0D
:1057230012637D6A7003A3E06B605712361B126627
:10573300CF40D31266CA7002E96F704674FE6A7076
:105743000374FF6B703C7E007F00800312361B12D4
:1057530066CF502E1250CB70F3EEF8EFF9E875F0E8
:1057630006A4F812578C1257C160171257A8F8E90C
:105773001257A0888212561B850882850983E4F09C
:10578300A3F0EEFAEFFB023AAD75F006E912579477
:1057930022A42AF9742828F8740F39F9223400F95D
:1057A3008808890922EEF8EFF9E875F006A4F87580
:1057B300F006E91257BA22125794E8240422A3A34D
:1057C30074FE1257CC12568B22F0A3041257D32225
:1057D300F088828983A3A3A3A32274F6120373EA36
:1057E300241DF582EB1258D8F9604BEA241DF5828B
:1057F300EB1261122402FCA3E03400FD12561140A7
:10580300030258CB780080298C828D83E0F508A3AE
:10581300E0FFE5082400E43FF509E833FEE433FF45
:1058230074702EF582740F3FF5831258EE1258CE22
:1058330008E8C39940D28A828B83A3A3A3A3A3A31B
:10584300A3A3A31247C8900368E06C7003A3E06DA1
:10585300700F7C707D0F122D2B12518C120D008056
:1058630067EA2411F582EB126112605CFC74FF2C71
:10587300F0750801780812084B75087075090F78E0
:1058830008120847E9F508780812084BEA2412F5CC
:1058930082EB126112F508780812084BEA2415F519
:1058A30082EB125A4212068DECF9122D2B1247C5C8
:1058B3008A828B83A3A3A3A3A3A3A3A3A31251901D
:1058C300120D18740712088F023AADEC24020C0C67
:1058D300ED3400FD22125A531258E0E022E0F8A3FF
:1058E300E0F5838882A32288828983E508F0A3E513
:1058F30009F02274EA12037374FD1208F38A148BFD
:10590300158C0E8D0F890D7419120ACB125A5B7404
:105913001B120ACBE0F511741C120ACBE0F50C74D0
:105923001D120ACB124ED1741F120ACBE0F5106080
:1059330008E50CC333240480027402C0E07401122E
:105943000ACBD0E0125A6C8A088B09EA4509700326
:10595300025A378A828B83A3A3E514F0A3E51512B9
:105963006565E50EF0A3E50FF0EA2413F582EB126B
:105973005A42E50DF0EA2414F582EB125A42E5117E
:10598300F0EA2417F582EB12611264017040120EE3
:10599300FE8A0E8B0FA80EA90F850882850983A3A3
:1059A300A3A3A3E0687003A3E0696022EE4F601134
:1059B300E508241AF582E509125A42EEF0A3EF80B6
:1059C3000CE5082417F582E509125A42E4F0125A4D
:1059D30046125A5B8E828F837405F0A3E510700420
:1059E300E50C80487401250C125A657A00802885DD
:1059F3000A82850B83E0125A61850A82850B83A391
:105A0300E08E828F83F0E50A2402F50AE50B340069
:105A1300F50BA30EAF830AEAC3950C40D2120EFE18
:105A2300EA125A61120EFEEB8E828F83F0AA08AB44
:105A330009120BD47403024B07EE240CF582EF1208
:105A43005A5322122D3C125A5322EE240BF582EFA5
:105A53003400F58322900334E0FEA3E0FF228E821C
:105A63008F83F0A3AE82AF8322123B2F120F5822F3
:105A7300C082C083E9C333FCE433FDEA2CFAEB3D77
:105A8300FBEA24FEF582EB34FF12518E0239D67401
:105A9300F212037389098A0A12560D4004790080B1
:105AA3004075080080020508E508C39509502AE5FA
:105AB30008C333F8E433F9EE28F582EF39F583C0F0
:105AC30082C083120EFE8A0C8B0DD083D082E065D8
:105AD3000C7004A3E0650D70CDE50A650870BE790E
:105AE30001024F8B74F012037374F31208F38A08E4
:105AF3008B098C0A8D0B890C750D00120F70E979D7
:105B0300006003025BE9AA08AB09120D8AA90C1213
:105B13000D7E8A0E8B0FAE0EAF0FEE4F7003025B3E
:105B2300E78E828F83A3A3A3A3A3A3E0A2E24003F0
