:020000040000FA
:06000000020A960201D97C
:03002B000208D1F7
:030033000206EDD5
:030043000207862B
:0300530002010A9D
:03006B000206D3B7
:1000830002016E0101FF0503015C105C105C105C52
:1000930010180F120F5C10A123000000003F230073
:1000A3000000000C0000000C000100002A120000F8
:1000B30000000000E4120000000000000000000047
:1000C300FFFF414C442042726F61646361737400AB
:1000D3000101010014050000006505E803640064E4
:1000E30000B801020200080000050207051E020510
:1000F3001E0A03B80B020102F1FF021F00E007967C
:1001030051180002020612C0E074F21203F2A2AF09
:10011300E433FED2AFE5A7FFE5A1F5085F54106015
:100123000612195C75A1EFE5085F540860081219FF
:100133006275A1F7802BEFA2E0C0D0E508A2E092A0
:10014300F01209D3158182F05017906198E0F8906E
:10015300083FE0C398A2D265D0335002E8F075A1FE
:10016300FEEEA2E092AF7F01020451C0E074F212EE
:1001730003F2A2AFE433FED2AF9061A4E0F8759B23
:1001830000E59158540860087591F71219AA802A5E
:10019300E59158541060087591EF1219B0801BE86F
:1001A300A2E0C0D0E591A2E092F01209D3158182BA
:1001B300F05007E0C2E0F0121AF49061A3E0F8E512
:1001C300E9585404600E121ACA75E9FB906193E072
:1001D300A2E640F2808BC0E074F21203F2A2AFE415
:1001E30033FED2AF9061A5E0F8E5BF585404600632
:1001F30075BFFB121B0C020164C3E498F8E499F980
:1002030012023D8026C3E49AFAE49BFBE920E7E966
:1002130012023DE498F8E499F922C3E498F8E499CA
:10022300F912023DE498F8E499F9C3E49AFAE49BDD
:10023300FB22EB20E7CFE920E7E0B90010BB000881
:10024300E88AF084F8AAF022E4FBC8FA22EB7022D1
:100253007B10C833C8C933C9335007C39AC3DBF211
:1002630080069A50012ADBEAC833F4C8C933F4C9BB
:10027300FA2275F008E4C833C8C933C933C99AC927
:100283009B5004C92AC93BD5F0ECFBC833F4C8E43E
:10029300C9FA22080808EAC0E0EBC0E086F0E7A448
:1002A300FA180986F0E7A42AFA180986F0E7A42ABF
:1002B300FA180986F0E7A42AFA1986F0E7A4FBE501
:1002C300F02AFA190886F0E7A42BFBE5F03AFA19AD
:1002D3000886F0E7A42BFBE5F03AFA18180986F034
:1002E300E7A4C5F02BFBE43AFA1908E7C5F0C6A466
:1002F30026F6E5F03BFBE43AFA1886F0E7A4F6E5C8
:10030300F00826F6E43B08F6E43A08F6D0E0FBD022
:10031300E0FA22E4CFC0E0E4CEC0E0E4CDC0E0E404
:10032300CCC0E075F020C3E633F608E633F608E602
:1003330033F608E633F6181818EC33FCED33FDEE0C
:1003430033FEEF33FFC3EC9709ED9709EE9709EFFF
:1003530097191919400FFFEC97FC09ED97FD09EE6A
:1003630097FE191906D5F0BEECF709EDF709EEF77C
:1003730009EFF7191919D0E0FCD0E0FDD0E0FED069
:10038300E0FF222518C582C0E0E51934FFC583C00C
:10039300E0E518C3958224F810AF08858319858298
:1003A300188008858319858218D2AFCEF0A3E52083
:1003B300F0A37808E608F0A3DEFAEFF0A3E58124C2
:1003C300FAF8E608F0A3E608F0A3E608F0A30808A5
:1003D300E608F0A3E608F0A315811581D0E0FED06E
:1003E300E0F8158115811581E8C0E0EEC0E022C078
:1003F300D02518C582C0E0E51934FFC583C0E0E508
:1004030018C3958224F310AF088583198582188059
:1004130008858319858218D2AFC8F0A3E9F0A3EA4F
:10042300F0A3EBF0A37908E709F0A3D8FAECF0A363
:10043300EDF0A3EEF0A3EFF0A3D0E0F0A3D0E0F053
:10044300A3D0E0F0A3E520F0A3E5F0F0A322851903
:1004530083851882E0C0E0A3E0F9A3E0FAA3E0FB00
:10046300A37808E0F608A3DFFAE0FCA3E0FDA3E02D
:10047300FEA3E0FFA3E0C0E0A3E0C0E0A3E0F5D06B
:10048300A3E0F520A3E0A3F5F010AF088583198559
:1004930082188008858319858218D2AFD082D083D1
:1004A300D0E0F8D0E032120AF8B900030204EBE41A
:1004B3009003017896790A8002F0A3D8FCD9FA90C8
:1004C3000C96AA82AB83900086788579018015E427
:1004D30093A3AC82AD838A828B83F0A3AA82AB837E
:1004E3008C828D83D8E9D9E77582BE75838B7403BB
:1004F3001208497582A075831D7400120849E80328
:100503000875F0108E1A8F1B85821F85831E851830
:1005130082851983E0CEA3E0CF851F82851E83EBFE
:10052300C9EAC8EDCBECCAC3E833C8E933C9EA3337
:10053300CAEB33CBC3EA9EF51DEB9FF51CB3500406
:10054300AB1CAA1DEC33CCED33CDD5F0DAAE1AAF2C
:100553001B22D083D082ECC0E0EDC0E0E493A3FC87
:10056300E493A3FDED4C600D12062DEC24FFFCED8E
:1005730034FFFD80EFE493A3FCE493A3FDED4C6013
:100583000D120731EC24FFFCED34FFFD80EFD0E0CA
:10059300FDD0E0FCE493A3C0E0E493C0E02285191E
:1005A30083851882E0A3FEE0A3F5207808E0A3F694
:1005B30008DFFAE0A3FFE0A3C0E0E0A3C0E0E0A30C
:1005C300C0E0E0A3C0E0E0A3C0E010AF088582185C
:1005D3008583198008858218858319D2AFD083D08B
:1005E3008202084FD083D082E9C0E0E493A3C3869C
:1005F300F0C5F095F0F908E493A386F0C5F095F003
:10060300700BE493A3C3994005E9048002A3E47546
:10061300F002A42582F582E5F03583F583D0E0F975
:10062300E493A3C0E0E493C0E022C0E0C3E4939664
:10063300087401939618400FE493667008087401D8
:1006430093661870007019A3A3C3E493960874010A
:10065300939618A3A3400DD0E0D0E0D0E00205911B
:10066300A3A3A3A3A3A3D0E022D083D082C5F0E4A5
:1006730093A3C5F0C395F0F5F0E493A3C395F040BD
:1006830005E5F0048001E475F002A42582F582E516
:10069300F03583F583E493A3C0E0E493C0E02274D0
:1006A30004800474028000CCC0E0EDC0E0E518C310
:1006B3009CCCAD1950011D10AF068C188D19800606
:1006C3008C188D19D2AF1207CBD0E0FDD0E0FC22FD
:1006D300C0E074F21203F2E589A2E1500312180C90
:1006E300758900C2C57F01020451C0E074F2120390
:1006F300F2E58BA2E0500312180C758B00C2E88060
:10070300E474028000CCC0E0EDC0E0E518C39CCCEB
:10071300AD1950011D10AF068C188D1980068C1869
:100723008D19D2AF1207A9D0E0FDD0E0FC22C0E0C2
:10073300C0F088F0E493667008087401936618703B
:1007430000A8F0A3A3700BD0F0D0E0D0E0D0E0027B
:100753000591A3A3D0F0D0E022D083D082CCC0E017
:10076300E493A3600612082A1470FAE493A36006C4
:1007730012091B1470FAD0E0FCE493A3C0E0E493E5
:10078300C0E022C0E074F21203F2A2AFE433FED25F
:10079300AFC2C0E5D1A2E450031218D2EEA2E09298
:1007A300AF7F01020451CAC0E0E493A3C582CCC564
:1007B30082C583CDC583F0A3C582CCC582C583CD55
:1007C300C583DAE5D0E0CA22CAC0E0E0A3C582CC83
:1007D300C582C583CDC583F0A3C582CCC582C5833D
:1007E300CDC583DAE6D0E0CA227009080808226082
:1007F30016181818C6C333C608C633C608C633C688
:1008030008C633C6D5E0EA22C008C3E096F5080857
:10081300A3E096420808A3E096420808A3E09645A1
:10082300087001D3D00822C0E0E493A3D39C5010F6
:10083300E493A3C39C400AD0E0D0E0D0E002077960
:10084300A3A3A3D0E022C09FF59FE473D09F22D03F
:1008530083D082C09FE493C0E0740193C0E074022C
:1008630093F59F227404800A740380067402800245
:100873007401C0E0F404120882D0E0120AD32225E6
:1008830018F58210AF08F518400215198008F518FD
:1008930040021519D2AF85198322BB0102E722C09A
:1008A30082C08389828A83BB0003E08002E493D001
:1008B30083D08222C0D0251810AF08F51850020546
:1008C300198008F51850020519D2AFD0D022C0E024
:1008D300C0D0E8C0E0E5A8D2AFC2C7A2E792AFD0CC
:1008E300E0F8D0D0D0E0326016080808C6C313C6BB
:1008F30018C613C618C613C618C613C6D5E0EA220F
:10090300C3E0C696F608A3E0C696F608A3E0C6962B
:10091300F608A3E0C696F622C0E0E493A36C700940
:10092300D0E0D0E0D0E0020779A3A3D0E0222518DD
:1009330010AF08F518400215198008F51840021584
:1009430019D2AF22E76670100809E766700A080932
:10095300E76670040809E76622E066701008A3E002
:1009630066700A08A3E066700408A3E06622C3E089
:100973009608A3E09608A3E09608A3E096A2D265A2
:10098300D03322C3E096F008A3E096F008A3E096E4
:10099300F008A3E096F022E026F008A3E036F00882
:1009A300A3E036F008A3E036F022E627F60809E6CE
:1009B30037F60809E637F60809E637F622E026F6A1
:1009C30008A3E036F608A3E036F608A3E036F622DD
:1009D300C0E0E8C0E0E58124FCF8E6A2E7D0E0F857
:1009E300D0E022E647F60809E647F60809E647F6A7
:1009F3000809E647F622E657F60809E657F6080916
:100A0300E657F60809E657F622E056F608A3E0563D
:100A1300F608A3E056F608A3E056F622E056F008DF
:100A2300A3E056F008A3E056F008A3E056F02270C6
:100A33000422600D18C6C333C608C633C6D5E0F416
:100A43001822E4C396F608E496F608E496F608E45A
:100A530096F622600D08C6A2E713C618C613C6D5BC
:100A6300E0F322C6F4C608C6F4C608C6F4C608C630
:100A7300F4C622C3E7960809E7960809E79608092A
:100A8300E79622C3E09608A3E09608A3E09608A39E
:100A9300E0962275D0007581407518017519030021
:100AA3000204A9E0F608A3E0F608A3E0F608A3E031
:100AB300F622600C08C6C313C618C613C6D5E0F4E5
:100AC30022E6F008A3E6F008A3E6F008A3E6F02286
:100AD300CAC0E0E6F0A308DAFAD0E0FA22E0FAA30B
:100AE300E0FBA3E0FCA3E0FD22EAF0A3EBF0A3EC20
:100AF300F0A3EDF022E5C754F84401F5C7790122CC
:100B03002518F582E43519F58322C2AF75D69F0205
:100B13000000221208524BB10112085242B20112D4
:100B2300085291B401120852E4B50112085287B673
:100B330001120852D2B701120852F0B7011208523B
:100B4300285E001208523A5E001208528C5E0012B0
:100B53000852ED5E00120852775F001208521B60C4
:100B6300001208526F600012085288600012085287
:100B7300AE6000120852E960001208522D610012A3
:100B83000852546100120852A561001208525562BE
:100B9300001208520D6300120852D5630012085266
:100BA300B2640012085238650012085247650012F9
:100BB30008525265001208525B66001208526C66B6
:100BC30000120852E26600120852746700120852BB
:100BD300CC6700120852926800120852C3680012D0
:100BE3000852086900120852156900120852A96ACE
:100BF300001208520C6C00120852286D00120852A1
:100C0300926F001208529D6F00120852A76F0012D4
:100C13000852B26F00120852BC6F00120852C66F1E
:100C230000120852D16F00120852DC6F00120852F2
:100C33000D700012085231700012085255700012E4
:100C43000852BA7000120852FE70001208521A714C
:100C530000120852917100120852C9710012085211
:100C63001572001208527272001208525474001264
:100C73000852DA7400120852AB7500120852BB789E
:100C8300001208521079001208523C7900120852DF
:100C9300887A00120852D87A001208522D7B00126B
:100CA30008522E7C00120852C67C00120852487D5E
:100CB30000120852E87D00120852732600120852EF
:100CC300AC2600120852862800120852C5280012CA
:100CD30008520F2900120852B42900120852132A8D
:100CE30000120852472A00120852B42A001208526E
:100CF300D12B00120852D92C001208526F2D00126A
:100D03000852B630001208525F31001208523B32CB
:100D1300001208529C3200120852B93300120852D2
:100D2300E335001208529A3600120852A436001214
:100D33000852D736001208529E370012085239382B
:100D4300001208529E3800120852C7380012085287
:100D5300E93800120852183B00120852EF3B001208
:100D63000852333C00120852A03C001208525B3D6B
:100D7300001208528D3D00120852D13D0012085254
:100D8300043E00120852593E00120852AE3E0012B1
:100D93000852423F00120852A43F001208520C406E
:100DA30000120852B541001208529D420012085227
:100DB300DF43001208520D4600120852CD460012BE
:100DC3000852FC48001208529F4900120852DD499C
:100DD30000120852894B001208529D4B0012085210
:100DE300A74B00120852D14B00120852DD4B0012E0
:100DF3000852FC4B00120852B34C00120852F24C3A
:100E030000120852FC4C00120852B04D0012085256
:100E1300AF4E00120852A84F00120852455000125C
:100E23000852E75000120852FE5000120852355182
:100E330000120852535100120852975100120852DF
:100E4300BC5100120852A252001208520E53001253
:100E53000852885300120852975400120852D6556C
:100E630000120852385600120852F2560012085265
:100E7300155700120852E95700120852345800124D
:100E83000852765800120852CD58001208520459DD
:100E9300001208523259001208526B5900120852BC
:100EA300905900120852185A001208523B5C001263
:100EB30008529A5C001208522E5D001208529A5D85
:100EC30000120852EE5D001208520EBB03120852C4
:100ED3004DBB0312085235B9011208528FB90112E2
:100EE3000852EBB90112085237BA0112085252BA2A
:100EF3000112085283BA01120852A0BA0112085211
:100F0300ACBA0112085220BC0112085239BC0112BA
:100F13000852A0BC01120852B3BC01120852C1BC52
:100F23000112085275BD0112085259BE011208522E
:100F33005FBF01120852E5BF01120852EFBF011251
:100F430008525CC00112085273C001120852A5C0B6
:100F530001120852DEC00112085208C101120852E0
:100F630069C10112085289C101120852A7C10112B5
:100F73000852EDC10112085213C30112085260C393
:100F8300011208528FC30112085205C401120852FC
:100F93002DC40112085266C40112085274C401120E
:100FA3000852CCC4011208521BC5011208525AC57B
:100FB300011208528AC501120852B6C5011208521D
:100FC300C1C501120852DFC501120852A1C60112A0
:100FD3000852ABC601120852E6C601120852FCC6FB
:100FE3000112085205C7011208525AC701120852CA
:100FF3006EC7011208527CC8011208528FC8011231
:101003000852A4C80112085246C901120852C9C99C
:101013000112085287CA0112085292CA01120852D9
:10102300B8CB01120852D4CB0112085226CC0112BC
:10103300085265CC011208527ACC01120852BCCC7A
:101043000112085209CF0112085287CF0112085228
:10105300FACF011208521CD20112085234D20112E3
:10106300085237D20112085243D20112085257D202
:10107300011208525FD20112085292D20112085291
:1010830042D301120852B8D3011208522BD40112D1
:101093000852DFD40112085294D501120852B3D575
:1010A3000112085253D6011208525FD60112085298
:1010B3008AD6011208528DD601120852F7D60112B0
:1010C30008521FD801120852F7D80112085282D9C8
:1010D300011208529BDA0112085258DB011208521E
:1010E30091DB01120852C2DB0112085262DC0112C9
:1010F300085292DC011208526DDD0112085206DE1D
:101103000112085291DE0112085242DF0112085205
:10111300C4DF01120852F6DF0112085237E0011250
:10112300085220C80212085285C802120852C2C8C7
:101133000212085211C90212085227CB0212085296
:101143000ACD0212085274D002120852AFD0021212
:101153000852D1D00212085234D10212085268D177
:10116300021208528BD102120852B8D1021208524D
:1011730014D2021208525BBC02120852D9BC0212EA
:1011830008520FBD021208527BBD02120852EEBE76
:10119300021208520ABF021208524FBF021208522B
:1011A300DDBF0212085236C00212085263C1021296
:1011B300085275C202120852D2C2021208523EC32A
:1011C300021208529FC302120852E0C302120852CD
:1011D3008DC4021208529FC502120852CAC50212D8
:1011E300085215C6021208525CC602120852EEC615
:1011F30002120852A9C702120852E9B00312085298
:10120300FAB0031208524BB10312085290B1031201
:1012130008523AB2031208520BFF01120852B5AD3D
:10122300031208520DAF03120852BAF40112085206
:101233005FF5011208527FF5011208529FF5011262
:101243000852B3F5011208520BF6011208523BF68D
:1012530001120852BCF70112085262F80112085237
:1012630044F90112085295F901120852D8F90112F2
:1012730008521BFA0112085281FA01120852A2FA0B
:10128300011208522EFB011208525FFB0112085291
:10129300D3FB0112085281FD011208525BFE0112B9
:1012A30008529DFE01120852F7FE011208522CAAA1
:1012B300031208524DAA0312085283AB03120852B9
:1012C300ADAB03120852E198031208525C99031262
:1012D30008526799031208528899031208521EB0E4
:1012E3000212085221B002120852DBB00212085255
:1012F30006B1021208524DB10212085272B1021223
:10130300085293B102120852C7B10212085200B236
:101313000212085229B30212085260B30212085291
:1013230080B3021208521BB402120852E0B4021234
:10133300085217B5021208528CB6021208522FB780
:101343000212085228B80212085251B80212085267
:10135300A5B8021208526BB90212085299B90212C7
:1013630008522EBB02120852AFBB02120852E2BB54
:101373000212085260D2021208526AD202120852B2
:10138300B6D20212085224D30212085245D30212D3
:1013930008525CD3021208520CD402120852A0D68F
:1013A3000212085206A801120852FCD60212085271
:1013B30025D7021208528CD7021208521DD80212E6
:1013C30008525FD802120852A9D80212085208D94B
:1013D3000212085299D902120852D8D9021208529D
:1013E30017DA021208524CDA021208525EDA0212BB
:1013F300085270DA021208528FDA0212085298DA8F
:10140300021208522FB1011208528EDB0212085247
:1014130058FB021208522BFC0212085245FC02121E
:10142300085256FC021208526BFE021208528AFE40
:1014330002120852FAA70312085230A803120852E4
:1014430079A803120852C9A9031208526CE00112C9
:101453000852ABE101120852E7E101120852A6E378
:1014630001120852CFE30112085262E60112085238
:10147300A6E6011208522FE801120852C7E801122A
:1014830008522FE901120852D0E90112085212EA58
:101493000112085252EA01120852DDEB01120852FE
:1014A3004DED0112085272EF01120852A0EF011222
:1014B3000852C7EF01120852D0EF011208522BF065
:1014C30001120852BEF001120852DCF30112085255
:1014D3005DF401120852E3FF02120852C3BA031269
:1014E30008523E8F03120852518F03120852EE8F97
:1014F300031208522990031208524490031208520F
:10150300699003120852AE9003120852DF9003123F
:10151300085210910312085296920312085251B2C4
:101523000312085287B203120852A3B203120852DD
:10153300E5B203120852F5B2031208528AB303123A
:101543000852A392031208525893031208520894A4
:10155300031208524D9403120852EC9403120852DA
:101563005895031208528FA002120852E7A00212E4
:10157300085291A10212085239A20212085296A2ED
:1015830002120852EFA20212085203A302120852D7
:10159300CDA40212085248A50212085272A50212E3
:1015A30008522FA7021208524AA70212085299A7FB
:1015B30002120852AFA702120852BCA70212085225
:1015C300F0A70212085206A8021208528CA80212AF
:1015D30008529BA802120852F4A8021208524EA9FC
:1015E300021208529CA902120852A6AA0212085219
:1015F30028AD02120852C2AD0212085204AE021202
:10160300085299AE02120852B6AE02120852B9AE8F
:1016130002120852BCAE021208522FAF0212085235
:101623004AAF0212085276AF02120852B1AF021249
:101633000852B4AF02120852C7AF02120852EEAFFB
:1016430002120852EFB903120852FBB903120852EF
:1016530035BA03120852BE9002120852E9900212E0
:101663000852B591021208523A9202120852A392FA
:1016730002120852EF92021208526E93021208529B
:101683000094021208528C9402120852CE94021251
:1016930008523A9902120852BA9A02120852F99A57
:1016A30002120852C29B02120852769C021208527E
:1016B300269E02120852B29E0212085200800212A3
:1016C3000852BA80021208522C81021208523B813E
:1016D30002120852B58102120852248202120852E1
:1016E3002E8302120852578302120852F783021202
:1016F3000852458402120852B58402120852E98541
:1017030002120852C5860212085236870212085284
:10171300B38802120852758902120852108A021203
:1017230008526B8A02120852D68A02120852DA8BC6
:10173300021208529B8D021208523A8E021208526C
:10174300AC8E02120852698F02120852B09B031228
:101753000852049C031208525C9C03120852A79C73
:1017630003120852099D03120852A29D0312085244
:101773000A9E03120852169E03120852A4A50312CE
:101783000852D5A5031208528FA603120852F5A6D4
:101793000312085266A703120852498C0312085217
:1017A300D58D03120852EEB703120852FFB7031286
:1017B30008529FB803120852FDAB031208520BAC38
:1017C30003120852A2BC0312085259B90312085259
:1017D30069B90312085284B903120852E5B9031216
:1017E3000852ECB60312085271B703120852D5B768
:1017F30003120852DAB503120852FCB50312085259
:1018030066B60312085271B603120852B5B6031234
:101813000852F3E40212085201E50212085242E5AB
:101823000212085263E502120852EDE50212085251
:101833000FE6021208527BE60212085296E60212E3
:101843000852B1E602120852BBE602120852C5E67C
:1018530002120852D8E602120852F1E602120852A6
:101863008DE70212085249E802120852C0E8021238
:1018730008523AE90212085286E9021208522CEA87
:101883000212085208EB02120852B48403120852DF
:10189300C284031208523C850312085220860312A5
:1018A3000852D9870312085262BC03120852B2ECE1
:1018B300021208521FED02120852E0ED0212085202
:1018C30050EE0212085259EF02120852D1F00212DE
:1018D300085235F1021208528AF10212085293F1AA
:1018E30002120852A2F102120852B5F10212085272
:1018F300CBF102120852D4F102120852E7F102129C
:1019030008523CF20212085238F4021208526AF4E6
:10191300021208528CF402120852A5F40212085261
:10192300BEF402120852C8F50212085263F60212FC
:1019330008529B7E00120852BF7E00120852D87EC6
:10194300001208520B7F001208523C7F001208520B
:101953006A7F00120852CC7F00120852DB7F00120C
:101963000852E57F00120852F27F00120852519E7E
:1019730003120852779E03120852B49E03120852B0
:10198300C39E03120852E29E031208524A9F031297
:101993000852539F03120852B29F03120852D69F54
:1019A3000312085295A003120852A2A00312085270
:1019B300B3A0031208529BBB03120852B8BB031215
:1019C3000852DAF60212085238F80212085245F8A1
:1019D3000212085258F80212085277F802120852FB
:1019E3008DF802120852A1F80212085216F90212D7
:1019F30008527BF9021208522BFA0212085200FB1A
:101A03000212085210FB021208521FFB0212085264
:101A1300C0B803120852E4B8031208520CB90312F7
:101A2300085234B903120852E1A00312085208A164
:101A33000312085229A1031208528EA1031208525D
:101A430047A30312085260A3031208526CA30312A4
:101A5300085280A3031208529EA303120852A8A39C
:101A630003120852B2A303120852C5A30312085269
:101A730018A40312085251A40312085280A403129B
:101A83000852CEA4031208521DA50312085238A50A
:101A93000312085242A50312085253A50312085217
:101AA30099A50312085272BA03120852B7DB021245
:101AB3000852E1DB02120852FDDB0212085210DC6D
:101AC3000212085226DC0212085283DC0212085268
:101AD300B6DC02120852F2E00212085218E20212B5
:101AE30008524BE20212085297E202120852C3E371
:101AF30002120852EBE30212085200E402120852E7
:101B030010E40212085254E402120852B5E402121D
:101B13000852C5E40212085294B303120852AFB339
:101B230003120852D8B303120852F2B30312085235
:101B330017B40312085236B4031208524EB40312F8
:101B430008527CB40312085296B40312085257BBCE
:101B5300031208523E8803120852458803120852A2
:101B6300518903120852818903120852A78903126B
:101B73000852CA8903120852EC8903120852268AB2
:101B8300031208528C8A03120852C58A03120852A0
:101B9300118B031208523E8B031208525E8B031201
:101BA30008525CAF031208526EAF0312085259B0C9
:101BB30003120852E6B003120852C7B403120852C4
:101BC30039B50312085277B503120852B8B5031298
:101BD3000852CE9503120852EA9503120852399619
:101BE300031208525596031208528696031208529E
:101BF3009696031208528297031208528C97031287
:101C03000852999703120852A99803120852BD98D3
:101C130003120852C6980312085200800312085296
:101C23004584031208524A84031208520DBC03125E
:101C33000852D7BB031208523ABC0312085284BCA1
:101C4300031208525AA701120852ABA501120852F7
:101C530066A301120852EDA20112085294A20112C6
:101C6300085228A201120852FFA101120852F29F42
:101C730001120852BE9F011208528B9F0112085293
:101C83006F9F01120852959E011208524D9E011238
:101C93000852829C01120852029C01120852FF9BB7
:101CA30001120852069B01120852D49A01120852DB
:101CB300119A011208523C9801120852CD97011251
:101CC30008529F9701120852BFB00112085276B012
:101CD300011208522EB0011208526CAF01120852C1
:101CE300DFAE011208529C97011208528997011224
:101CF3000852219701120852109701120852D2AECE
:101D030001120852F19501120852BB9501120852B3
:101D13007E95011208521F9501120852E0AB011281
:101D230008524EDB02120852EE9401120852A99196
:101D3300011208529A900112085229900112085276
:101D4300EE8F01120852B98F01120852AD8F0112A2
:101D530008520D8F01120852548E01120852278C1B
:101D630001120852B38901120852718901120852F3
:101D73003C8801120852F18701120852238701128D
:101D830008527A86011208521686011208525086AA
:101D93000112085232A901120852A9D6020000000A
:101DA30080FBE4730000000000000000000000005E
:101DB3000000000010101010101000003030000060
:101DC3000014285000000000000000000000000084
:101DD300002828FC284850FC505000000000103810
:101DE3005454301814545438100000000044A8A868
:101DF300B0541A2A2A44000000000020505060AC5E
:101E0300A898927C000000606020C00000000000E1
:101E1300000000000004080810101010101008083B
:101E230004000000402010080408102040000000B7
:101E33000000001010D63838D61010000000000043
:101E430000101010FE101010000000000000000031
:101E5300000000000000606020C0000000000000DF
:101E6300FC00000000000000000000000000000073
:101E73000000606000000002040404080810102041
:101E8300202040000000003048848484848448304B
:101E9300000000000010701010101010107C0000E3
:101EA30000000038444404081020447C0000000073
:101EB300003844441804044444380000000008086F
:101EC30018284848887C081C00000000007C40401B
:101ED30078440444443800000000003C4480B8C403
:101EE3008484847800000000007C444808101010AB
:101EF300101000000000007884844878848484787B
:101F03000000000000788484848C740488F000004E
:101F130000000000003030000000303000000000FE
:101F23000000000010000000001010200000040852
:101F3300102040201008040000000000000000FCF6
:101F43000000FC000000000000004020100804080E
:101F530010204000000000007884848408101000E2
:101F63003030000000000038449AAAAAAAB4423CC8
:101F730000000000001010282828384444EE000018
:101F8300000000F844447844444444F8000000004E
:101F9300003C44848080808044380000000000F0CE
:101FA30048444444444448F00000000000FC4440DA
:101FB3004878484044FC0000000000FC4240487858
:101FC300484040E000000000003C448480808E8450
:101FD30044380000000000EE4444447C444444EE92
:101FE30000000000007C101010101010107C000086
:101FF3000000007C101010101010101090E0000072
:1020030000EE44485070484844EE0000000000E0F1
:1020130040404040404044FC0000000000EE6C6C37
:102023006C54545454D60000000000EE64645454BD
:10203300544C4CE4000000000030488484848484C1
:1020430048300000000000F844444478404040E039
:102053000000000000304884848484B448380C00B5
:10206300000000F844447850484844E6000000006B
:10207300003C44402018040444780000000000FEA3
:1020830092101010101010380000000000EE4444AD
:102093004444444444380000000000EE44442828EB
:1020A300282810100000000000D6545454546C2803
:1020B30028280000000000EE44282810282844EEB9
:1020C3000000000000EE4428281010101038000013
:1020D3000000007C88081020204044FC0000001C05
:1020E300101010101010101010101C0000701010A1
:1020F300101010101010101070000070101010103D
:1021030010101010101070000010280000000000C4
:1021130000000000000000000000000000000000BC
:10212300000000FE00606020C0000000000000000E
:10213300000000000000000038441C24443E00005E
:10214300000000C04040784444444478000000004C
:10215300000000003C444040443800000000000CF4
:1021630004043C444444443E0000000000000000DA
:1021730038447C40443800000000001C2420F82030
:102183002020207800000000000000003C48483078
:1021930040784438000000C040405864444444EE52
:1021A300000000000010000070101010107C0000F0
:1021B300000000080000380808080808087000003C
:1021C30000C040405C48507048EC000000000070C4
:1021D300101010101010107C000000000000000010
:1021E300F854545454D60000000000000000D86492
:1021F300444444EE0000000000000000384444441E
:1022030044380000000000000000F84444444478CF
:1022130040E00000000000003C444444443C040E01
:10222300000000000000EC30202020F80000000037
:10223300000000003C443008447800000000000027
:1022430010107C101010100C0000000000000000A3
:10225300CC444444443E0000000000000000EE442F
:10226300282828100000000000000000D654545411
:1022730028280000000000000000DC48303048EC53
:102283000000000000000000EE442828101020E0A9
:102293000000000000007C481010247C0000101097
:1022A30010101010101010101010101000013636FE
:1022B30001010001020100010301000104010606FE
:1022C30005020000070100340801000F09040101A1
:1022D3000D0100FF0E08000017020000190100FFA6
:1022E3001A0100011B0100FE1C0100081D02000071
:1022F3001F01000120010001210200002301000F42
:10230300240200002601000127010008280200FF23
:102313002A0100072B0102402C0100002D010001BE
:102323002E0100012F0100FF30010B1C31080000BA
:102333003A0100083B01000F2F0100000103710364
:102343000103010301030103010322030203010348
:102353001003000300030003000300030003000352
:1023630042030003240306030003000304031203D0
:1023730025032303250323030403040300030003AA
:102383000003440300030003230300036503210048
:102393003503810300030503000300030003030067
:1023A30071003001600011007000310220035004FD
:1023B30080001000610000001400630073007200CD
:1023C3006200430000001300060000000000040048
:1023D30012000000000000000000040004003700A9
:1023E30037003C02440000000000000000006500CC
:1023F300000035008100000005000000830000009C
:102403000101710101010101110101013101010109
:1024130001018001100161013B001400630173019C
:102423007201620143010001130106013D01350000
:102433000401120100010001000100010401040173
:10244300330133013C014401320136000001000134
:10245300650100013500810100010501820183014D
:1024630000010302710230016002110270020102D5
:10247300020202028002100261023A00410063027A
:102483007302720262024302000213023800000266
:10249300000204021202000200020002000204020F
:1024A3000402370037003C024402000239000002F4
:1024B3000002650200023502810200020502820267
:1024C30083020002C9EEDBDACAD0B0B2C1AAB5C238
:1024D300BFC6BCBCD3C3BBA7B5C7C2BCD5CABAC5EC
:1024E300C3DCC2EBC8B7B6A8C8A1CFFBD7A8D2B587
:1024F300D7A8D7A2CEDECFDFCDA8D1B6B3CFD0C574
:10250300C1A2D7E3B4B4D0C2D6C2D4B6C7BFB4F362
:10251300D4ADA3BA0036000100060000000F00008E
:10252300000000000000000000000003FFFF0000A7
:102533000403FFFF0000FFFF0FF4010005C40403C1
:1025430020000100030B0000000000000000030155
:102553000F0100F81602006E160300741604007AC9
:10256300160500801606008C161100A4161400AA86
:102573001615009E16FFFF000003EAF5E5D5D5C545
:10258300B5A5959585857575656555554545353568
:102593002525151505720FA20F780F7E0F9C0F903E
:1025A3000F8A0FA80FAE0FB40FC00F840F6C0F6606
:1025B3000F0A3E0D02080D051A0D070E0D0CEA0C4D
:1025C3000DFC0CFF000000160F00000B150B0200A2
:1025D30002220F320000065C106E1074103C0F7A5A
:1025E30010360F420FBC10DA10E010C210CE10C824
:1025F3001000011916181616152303000C0E020BF2
:10260300040B0A0708000F00034948424D18172519
:10261300050200383C3E363B3B352B432C3030160D
:10262300181920231A1C1E30303017181921301B9B
:102633001D1F30960FBA0FD410C60FCC0FB01080E9
:1026430010861092108C100204020101010109028C
:1026530000000000000000BE040A0E001500040084
:102663002800050C0A030908FF1E1E0F0404100CA2
:1026730074F7120386E99003B0F0900365E4F01257
:102683001BA29003B5E4F0A3F09003B1F0A3F01202
:102693000E76121BA8900334E4F0A3F090266E93F9
:1026A300FA7902121C0802530974F2120386EAFE35
:1026B300EBFF548060699003B0E0F91213B68A0807
:1026C3008B09EA4509604F7C0080010CEC75F0032F
:1026D300A4F8A9F074B428F582742539F583E4933A
:1026E300F4602CE493F88508828B83E06870DCAA9D
:1026F30008EC75F003A4F874B528F582742539F550
:1027030083E493C0E0740193F583D082121DA5AADC
:1027130008AB091213AAEEFAEF6480FB022879EFE3
:102723005420601D120D988A088B09EA4509600A36
:10273300120CFCAA08AB091213AAEEFAEF6420806C
:10274300DAEEA2E0501A90036AE0640F700B79008E
:10275300120CC6E9600312287CEE6401FAEF80BB19
:1027630054207003022847750C00123D4E8B09EA72
:10277300450970107C027D007A207B009003B0E055
:10278300F91215007C0079047A007B00120D748A1B
:10279300088B098018850882850983A3A3A3A3A3B3
:1027A300A3A3A3A37401F0850A08850B09E50845D3
:1027B30009606D7C007904AA08AB09120D748A0ABA
:1027C3008B0B750C01E5082404F8E509123AF22491
:1027D300FFF0A3E034FF125DE570CC850882850924
:1027E30083A3A3A3A3A3A3A3A3A3A3E0640170A5AB
:1027F300850882850983A3A3A3A3A3A3E05404703C
:1028030094850882850983A3A3A3A3A3A3A3A3A356
:102813007406F07AB78508828509831229A8808710
:10282300120D447C0079017A007B00120D748B0930
:10283300EA45097009E50C70057A20124CA8EE648C
:102843002002275FEF5402600B120E70EEFAEF6462
:102853000202271EEF54046019124E3F124D5F7996
:10286300019003631250C3120C0CEEFAEF640402DE
:10287300271E7A007B00022AAF900CEE123146121B
:102883000CDE22C082C08374EA1209318518828566
:102893001983AA82AB83794B121BDE7408120B03D4
:1028A3007402F07409120B03AA82AB837950121BD2
:1028B300DE7413120B03E4125292121BFC74160201
:1028C300426C74F712038674E1120931EAFEEBFFDE
:1028D300EE4F6033851882851983AC82AD83120D68
:1028E300BC7406120B03E0601E7417120B03E0FDA9
:1028F3007401120B03E0FCEEFAEFFB7900120B34C8
:10290300E9600479A48002790002530474F6120387
:1029130086EAFEEBFF8E828F83A3A3A3A3A3A3E088
:102923005440601B125781122A7660067AFF7BFFA0
:10293300801A8E828F83123EF8FAA3E0FB80031283
:102943000DE074FE6A700374FF6B604112578112CD
:102953004CEC120E34E98E828F8360061229A1E4B7
:1029630080051229A17401F07CCC7D0C8E828F83AB
:102973001250C3121C02E9F5087015EE4F60097975
:1029830001EEFAEFFB120D50A908024D1D7508CD9B
:10299300AA088E828F831229A8E960DF80EAE024E7
:1029A3000D1243C722E0240C1243C7E0F9120CD8DE
:1029B3002274F6120386E9FEEAFF7A0F7B00121DEA
:1029C3009AEA4B60198A828B83740CF0EEA3A3F00E
:1029D300EF8A828B83A3F0124D487900802FEEF9A2
:1029E300120D7A8A088B09A808A909E849601C888E
:1029F300828983A3A3A3A3A3A3A3A3A37406125AA5
:102A03000CE0F9120C90EEF9120D567910024D1DDF
:102A1300C082C08390036AE0640F7014EA4B6010B5
:102A2300900365E064086005E064047003122A36CD
:102A3300024296EAFCEBFD7A017B009003B0E0F9D9
:102A43001214FA22C082C0837900EA241DF582EBB6
:102A5300123EF524FD600B14600824FD600424FD80
:102A63007001090242968E828F83A3A3A3A3A3A31B
:102A7300A3A3A3122A7A22123F3DFB120E34E922AA
:102A83008E828F83A3A3A3A3A3A3A3A3A3122A7AB0
:102A93006402228E828F83A3A3A3A3A3A3A3A3A3CE
:102AA30012428D900356E068221208B77F06020592
:102AB300A174F412038674FD1209318A088B098A02
:102AC300828B83A3A3E0F9120D7A8A0A8B0BAE0AD9
:102AD300AF0BEE4F7003022BBB850882850983A3DE
:102AE300E064F16030850882850983A3E064CD60EA
:102AF30024850882850983A3E0641A601885088207
:102B0300850983A3E064E9600C850882850983A3B2
:102B1300E064E170087900120D50E9706C85088259
:102B2300850983A3E0C0E07402120B03D0E01242D4
:102B330071EEF0A3EF12359C851882851983AA8262
:102B4300AB837005120BF48003120E1C7402120B7C
:102B530003E064E970338E828F83122BC7750A01F9
:102B6300780A120873750AE9780A120873E50824CB
:102B73000CF582E50912308E123579FCA3E0FD8A4B
:102B8300828B831235931208B78E828F83A3A3A3FC
:102B9300A3A3A3A3A3A3E0640270108E828F83A3D5
:102BA300A3A3A3A3A3A3A3A37406F0850882850903
:102BB30083A3A3E0F9120D56120D44900CF21228D0
:102BC3007F02314BE0F8A3E0F9E8FAE9FB2274F461
:102BD300120386EAFEEBFF7508008E828F83A3A3A0
:102BE300A3A3A3E060427508088E828F83A3A3A3E7
:102BF300A3A3A3A3A31241A08B0BEA450B601075FB
:102C0300082C8E828F83A3A3A3A3A3E0D2E0F08E2C
:102C1300828F83A3A3A3A3A3E054036401600302ED
:102C23002CBA430811022CBAEE241812315860331F
:102C3300EE241A123158700F122A967003A3E0691A
:102C430070757508228070EE241BF582EF122CBF7D
:102C5300241AF582EF1235A4EE24191257B5120C7B
:102C63007E8054122A837003750801122A9670031A
:102C7300A3E0697006E508D2E1F508E50860158E62
:102C8300828F83A3A3E07006E508D2E58004E508FC
:102C9300D2E6F508122A6964017006E508D2E0F568
:102CA300088E828F83A3A3E0600D122CCD64016094
:102CB30006E508C2E0F508A908023150123EE31206
:102CC3002CC622E0FCA3E0FDEE22123EDD123F15EE
:102CD300F9120E22E922C082C08379018A828B8392
:102CE300A3A3E0C394024001198A828B83A3A3A305
:102CF300A3E0C39402400279008A828B83A3A3A337
:102D0300A3A3A3A3A3A3E064F87003A3E0F4604523
:102D13008A828B83A3A3A3A3A3A3A3A3A3E064F99E
:102D23007003A3E0F4602E8A828B83A3A3A3A3A3DF
:102D3300A3A3A3A3E064FA7003A3E0F460178A8259
:102D43008B83A3A3A3A3A3A3A3A3A3E064FB700305
:102D5300A3E0F4700279008A828B83A3A3A3E0F833
:102D6300900353E0686002790002429674F0120304
:102D73008674DE120931EAFEEBFF8E828F83A3A3F2
:102D8300A3A3E0600E900CF0124D146006900CF0BB
:102D930012287F7403120B03AC82AD838E828F8360
:102DA300A3A3A3124D961255CFE9600F7403120B20
:102DB30003AA82AB83120CF6E970087901121BB4E3
:102DC300023083EE241B123EE87410120B03124DE3
:102DD3005F7409120B03E06021741A120B03E0FD08
:102DE3007404120B03E0FC8E828F831250C17901AD
:102DF300120B34E96004790280C37403120B03AA33
:102E030082AB83120CF0E9F50A7409120B03E0702C
:102E13002A90034DE060247422550A6422601C74D6
:102E230042550A644270CF7420120B031230A16022
:102E33000A7420120B0312309A70BBE9A2E65041C8
:102E43007403120B03AA82AB83120CE4E97003022E
:102E53002DBE7420120B03123EF86403700F74200E
:102E6300120B03A3124D06A3E0640D601474031246
:102E73000B03AA82AB83120E46E96401700302308E
:102E830083EE242C12308B1233AF7003A3E06970EE
:102E93001C75080078081208737808120873EE246A
:102EA3002E1257B51230A71235931208B7740912B0
:102EB3000B03E07003022F601230A71250C3120EEF
:102EC3009A8A088B09EA45097003022FFD740412DC
:102ED3000B03E0F88E828F83A3A3E028F8A3E034EA
:102EE30000F9E8240D1230928A828B83A3A3A3E016
:102EF30068601CE88A828B83A3A3A3F09085CD121C
:102F03000AE0850882850983A3A3A3A3120AEC79A7
:102F130004E9120B031255AC2AF8A3E034008882AB
:102F2300F583A3AA82AB831213928A0C8B0D8C0EAA
:102F33008D0F850882850983A3A3A3A3780C1208A8
:102F43000B4003023083908609780C1209C0850870
:102F530082850983A3A3A3A3780C120AC4900365F3
:102F6300E064046008E064096003023083E50AA2B8
:102F7300E5400302303BEE242E123158851882853A
:102F83001983F0EE242F123158C0E07401120B03A1
:102F9300D0E0F0EE2430123158C0E07402120B037B
:102FA300D0E0F07414120B03E064017027740E1266
:102FB3000B03123EEEEE2412123158687003A3E0A5
:102FC300697011740C120B03122A90700774141297
:102FD3000B03E4F0EE242412308B1206A2740412C5
:102FE3000B03AC82AD837407120B03AA82AB83126B
:102FF3000BFA74041208B70230839003AAE0640149
:103003006003022F607420120B031230A17009E5D4
:103013000AA2E65003022F607410120B03E0F4704F
:1030230003A3E0F4605AEEFCEFFD7403120B03AA52
:1030330082AB83120D028048A2E650447420120B27
:10304300031250D2701A741A120B03E06402703028
:103053007403120B03AA82AB837900120E10802033
:103063007420120B0312309A7016741A120B03E0B9
:103073006404700C7403120B03AA82AB83120E0A4E
:10308300742202547EEE240BF582EF123EE322F506
:1030930082E9124D78F822125793E0640722123F17
:1030A30015640622EE242A123EE0122CC6241212C4
:1030B3003EE02274F4120386EAFEEBFF8C088D09CE
:1030C3009005C2E0600F122A967003A3E0697005B1
:1030D300120C6C804F79001250B6120C9C8A828BB2
:1030E30083E58245836035A3A3A3A3A3A3E0541878
:1030F300602AE508241BF582E50912308E1206A624
:1031030012378C12308E1206A6EE24181257B512FF
:103113003129120CAE74041208B7800879001231F9
:1031230029120C7280278E828F83A3A3A3A3A3A348
:10313300A3A3A3122CC6240BF582EF12314222342F
:1031430000F583123F3DFB2274031208B77F04028C
:1031530005A1EE2417F582EF124D782274F71203BE
:103163008674F7120931EAFEEBFF900365E064030E
:10317300600DE064016008E0640960030232298E97
:10318300828F83A3E0707E7C007D007A027B001235
:103193001BAEEE2402FAEF123AF9123EEE900356FA
:1031A300124D5F7953121BE4790012322EE0640949
:1031B30060031235C18518828519837401124D3558
:1031C3009003657404F07401120B03AA82AB837934
:1031D3004A121BDE7401120B03AC82AD837A5B7B54
:1031E30003121BCC9003561255C57A031235CB90AC
:1031F3000350E0A2E35004D2F08002C2F0124D2249
:1032030012287C801E8E828F83A3AE82AF83FC7DC7
:10321300007A037B10121BAE8E828F83E0F9123289
:103223002EE4F0120D2C740902530690036312313D
:1032330046120C0C90036522C082C08390033412A3
:103243004D14701F900365E014600924FC600A1498
:10325300600C800F90033C8032900338802D9003E4
:103263003A8028E8496008900335123573700C8A58
:10327300828B83A3E0F9120C00801B900335123874
:10328300287005120E64800E9003D2124D1460064E
:10329300124D06121DA502429674F412038674FBA6
:1032A3001209318A088B097A0F7B00121D9A8A0A48
:1032B3008B0BAE0AAF0BEE4F70030233A38E828FDC
:1032C300831252907950121BDE850882850983A3ED
:1032D300E0600302338B900363E0F47003A3E0F434
:1032E3006034900363E064FE7003A3E0F460278519
:1032F30018828519831233AF7003A3E069601785C1
:103303000882850983A374EA1235A97A637B03795A
:1033130050121BE480728518828519831257741228
:103323004D5F7A567B037953121BDE900356124D81
:1033330090124D5F7A597B03794B121BDE7A587BCF
:103343000379E1121BDE90036AE0C3940F502190CE
:103353000358E0C0E07402120B03D0E0F0740412CF
:103363000B037401F004120B03AA82AB83121BF646
:10337300750A00780A120873780A120873900D18F8
:10338300E0F912358A1208B785088285098312335A
:10339300A8A3F09003657403F0EEFAEFFB124D4817
:1033A300740502314DA3E08E828F8322125778E099
:1033B30068221243CE2274F512038674D81209319F
:1033C3008A088B098A828B83A3A3A3123F1A7415DD
:1033D300120B03AC82AD838A828B83A3A3A3A3A323
:1033E300A3A3A3123579FAA3E0FB120D32741512CD
:1033F3000B03E0706B850882850983A3A3A3A3A3B2
:10340300A3A3A3E0C3940B40578E828F83A3A3A3EC
:10341300A3A3A3A3A3E064027046EE240B123158C6
:10342300F4703D900365E06402603AE06406603541
:10343300900334124D146005123573604F90036589
:10344300E064086005E0640470167417120B03E06F
:10345300F9741C120B03AC82AD831250B6120D38F3
:103463007428025C92900334124D14701F75080087
:1034730078081208737808120873EE241012308B40
:103483001257CD123BE11235931208B78E828F8308
:10349300125032123B0B123EEE7402120B03124D0A
:1034A3005FEE240D123158C0E07404120B03D0E018
:1034B30012359CF508A3E0F509740F7808120AB5D4
:1034C3007405120B03E508F07419120B03E0C0E056
:1034D3007406120B03D0E0F0741B120B03E0C0E080
:1034E3007407120B03D0E0F07416120B03E0C0E074
:1034F3007409120B03D0E0F07417120B03E0C0E061
:103503007408120B03D0E0F0EE2410123158C0E01F
:10351300740A120B03D0E0F0741A120B03E0C0E03C
:10352300740B120B03D0E0F07427120B03E0C0E01E
:10353300740C120B03D0E0F0741C120B03A982AAC3
:103543008389088A09750A00780812086B7C087D4C
:10355300007410120B03AA82AB831248C31208B77C
:10356300851882851983AA82AB83120C0602346301
:1035730012382E640122E0F98A828B83A3A3A3A3CA
:10358300A3A3A3A3A3E0229003631255C9900359F5
:10359300123146120DF2740222F0EE240B124D7515
:1035A30022124D78FA22F07A567B0379531235B4FE
:1035B30022121BE47A597B03794B121BE4229003FA
:1035C30063123146120E94227B00121BAE900359F4
:1035D3001255C97A047B00121BAE22F01257D8226F
:1035E30074F212038674F8120931EAFEEBFF8C0AB7
:1035F3008D0B890C851882851983AC82AD83758305
:103603008575829674081207CBF50DEEFCEFFD85E8
:103613001882851983AA82AB83124F937003750DA9
:10362300019003B1803BEEFCEFFDE508240BFAE5C6
:10363300093400124F92601E850882850983A3A373
:10364300E0650C7011850882850983E0650A7004C2
:10365300A3E0650B6038E5082414F582E509123010
:103663008E123B03E50845096024E50DA2E040B650
:10367300850882850983E0650A7004A3E0650B7001
:10368300D5850882850983A3A3E0650C70C8AA08C1
:10369300AB097408022AACC082C0839003B1024212
:1036A3009374F71203869003B1123F3D8012EA240C
:1036B30014F582EB12308E123F1A121446EEFAEF13
:1036C300FBEA4B70E99003B1E4F0A3F00253097FE6
:1036D300070205A174F1120386EAFEEBFF890A8C47
:1036E300088D098E828F83E08C828D831241AAAE6E
:1036F30082AF83E01249831248F4C412498312371C
:1037030095E054038C828D831248F2A2E2E4338C59
:10371300828D831248F1131313541F1249831248E5
:10372300F0A2E7E4338C828D83A3A3A3A31237957E
:103733008E0C8F0D750E00780C12086B7C087D00C3
:10374300E50824071255381208B71255A38E0C8FBB
:103753000D780C12086B7C037D00E508240F1255CD
:10376300381208B7E50AC3940F40148E828F83A3DF
:10377300A3A3E0C0E012378C12308ED0E080061293
:10378300378C125A00F00236D2E5082412F582E58E
:103793000922A3A31241AE0EAF832274F41203864F
:1037A30074F9120931EAFEEBFF8908900334124DD4
:1037B30014600E1238287009EEFAEFFB120E5E80C9
:1037C3005F900363E06E7003A3E06F705374016551
:1037D3000860097A777B03124F9370447A007B0267
:1037E300123D528B0BEA450B7036900366120AE0CA
:1037F300851882851983120AEC90036CE0C0E0748B
:1038030004120B03D0E0F07405120B037401F0747F
:1038130006120B03125290120BD0E9609B120BD6C7
:10382300740702314D12382E640222125794A3A357
:10383300A3A3A3A3E02274F51203868A088B098A43
:10384300828B83A3AE82AF83E0F9120C248E828F26
:1038530083E064EB600C850882850983A3E064E15F
:103863007009850882850983A3E4F012287C750A10
:1038730001780A120873850882850983A3E0F50895
:103883007808120873790012358A1208B7120D44AA
:10389300025C95EAF0A3EBF002429674F6120386FB
:1038A3009003B4E0701B7C0079017A007B00120D59
:1038B30074EA4B600C8A828B83124D146003120CE2
:1038C300D2024D1DC082C083123D3A401079FF12CF
:1038D3000D6EE9F8902672E493C398500479018041
:1038E30002790002429674F01203868A088B0989D2
:1038F3000B750C008A828B83A3A3A3A3A3A3A3A307
:10390300E0F9120D7A8A0E8B0FAE0EAF0F750A0116
:10391300EE4F60030239C7850882850983A3A3A3F9
:10392300A3A3A31255C5850882850983A3A3A3A3D3
:10393300A3A3A31246C31250C3120D628A0C8B0DAC
:10394300AE0CAF0DEE4F7003023AEA8E828F83A363
:10395300A3A3A3E4F0A3F0E508240B123AF6E0C016
:10396300E0123088D0E0F0120E3AEE240CF582EF2C
:10397300124CE8E508240EF582E509123EEBEE242D
:103983000EF582EF124D5C750C01EE2406F8EF1272
:103993003AF2547FF0A3E054FC12582AE054046036
:1039A30003023A4D900CF61246B474077808120AD3
:1039B300328E828F83A3A3A3A3A3A3E04508F0A31E
:1039C300E04509F08E828F83A3A3A3A3123B017466
:1039D300077808120AB5E5085407F508E50B607A7D
:1039E3008E828F83A3A3A3A3A3A3A3A3A37402126F
:1039F30048F5240D1243C3E0A2E2500B9003511289
:103A03004D90A3A3124D5FE5087003023ABFEE2465
:103A130006F8EF3400F9E8FAE9FB8A828B83E05475
:103A23007FFCA3E054FCFDE50824FFF508E434FF24
:103A3300F50974077808120A32EC4508F8ED4509D0
:103A4300F98A828B83124D5F80728E828F83A3A348
:103A5300A3A3A3A3E044800239C6E5087005750A51
:103A63000080598E828F83A3A3A3A3A3A3E0542032
:103A7300601212139EEA547F245F8E828F83A3A366
:103A8300A3A380238E828F83A3A3A3A3A3A3E05422
:103A930010600A12139EEA540F240A80DD8E828F6F
:103AA30083A3A3A3A37401F0A3E4123B0B74041236
:103AB3003D498B09EA45097003124CDBE50CA2E092
:103AC30050288E828F83A3A3A3A31252F6F9EEFA92
:103AD300EFFB120D68E96012124D0A6003123ED328
:103AE300EEFAEFFB121446750A00A90A025481127A
:103AF3004E5322FAE5093400FB8A828B8322A3A367
:103B0300E0F508A3E0F50922123B0F22125554A356
:103B1300A3A3A3A32274F412038674F71209317EBC
:103B230000120D7AEA4B7003023BDA8A828B83A37D
:103B3300A3A3A3A3A3A3A3A3E064066003023BDAA6
:103B43008A828B83A3A3A3A3A3A3A3E0FF8A828B6D
:103B5300831243D6E0C0E07408120B03D0E0123F97
:103B63000E124F99124D5F120D8CEF54086066854B
:103B730018828519831255C57A007B00120D5C8B60
:103B83000BEA450B704F900363123FFE121C0E7C31
:103B9300007D007A007B0080288E828F83123EF89E
:103BA300F47003A3E0F4602D900363123BE1125021
:103BB300C3121902E9641A601C7C007D00EEFAEF5F
:103BC300FB120D5C8A0A8B0BAE0AAF0BEE4F70C96A
:103BD3007900121C147E01EEF9740902314D123B77
:103BE300E522E0FCA3E0FD8E828F8322C082C083A6
:103BF300EA4B70059003B580068A828B83A3A312D8
:103C03003DFE60258A828B83A3A3A3A3A3A3A3E082
:103C1300540860E5EC4D60158A828B83123EF86C84
:103C23007003A3E06D70D280047A007B0002429699
:103C330074F2120386EAFEEBFF890A8C088D097A77
:103C4300107B00121440EA4B603F8A828B83A3A34C
:103C5300A3A3A3A3A3A3A3E4123EFCA3E50A1257C1
:103C63009AA3123C968A828B83A3A3A3A3E4F0A313
:103C7300123F08A3F012562EEA240CF582EB1241F0
:103C83009A123C8FA3A3F0A3F0022AAFA3F08A8277
:103C93008B8322A3A3E508F0A3E509F02274F412B1
:103CA3000386EAFEEBFF89088C0A8D0BEE4F605505
:103CB3007401650870147901120D6EE9F890266A93
:103CC300E493C398500F7911806A74046508702FC8
:103CD300123D3A40F18E828F83A3A3A3A3A3A3A390
:103CE300A3A3E5081241AAA3125D1F8E828F83A3AB
:103CF300A3E4F0A3F09003B5124D146021800D747A
:103D030002650860D079C1802BE0F8A3124D89A326
:103D1300A3123DFE88828983A3A370ED80039003E1
:103D2300B5EEF0A3EF123D498B0BEA450B7003127E
:103D33004CDB79000231507904120D6EE9F89026BC
:103D430065E493C39822F0123D4E227A207B0090C3
:103D530003B0E0F912150C22C082C083E9F87900A0
:103D63009003B5801D8A828B83A3A3A3A3A3A3A3DC
:103D7300A3A3E068600574FF687001098A828B83DE
:103D8300A3A3123DFE70DE02429674F7120386EA85
:103D93004B70059003B580068A828B83A3A3123DE3
:103DA300FE60248A828B83A3A3A3A3A3A3A3A3A3B9
:103DB300E06970E4EC60148A828B83E0240D125571
:103DC300B6A2E240D380047A007B00025309C0828A
:103DD300C0839003B580068A828B83A3A3123DFE22
:103DE30060128A828B83A3A3A3A3A3A3A3A3E069E3
:103DF30070E580047A007B00024296123146EA4B5A
:103E03002274F21203868A0A8B0B8C0C8D0D7508B3
:103E130000750900EA450B602E9003B580068E827B
:103E23008F83A3A3123E51601EAC0CAD0DEEFAEFCF
:103E3300FB850A82850B83121DA5E9640170DFEE01
:103E4300F8EFF988088909AA08AB09022AAFE0FE4E
:103E5300A3E0FFEE4F2274F71203869003B5123EE0
:103E6300EE7C007D00800DE8FCE9FD88828983A358
:103E7300A3123EEEE8496030EA687002EB6970E72E
:103E83009003B51250C3E86A7002E96B8882898394
:103E9300A3A37008123EEE9003B58009123EEE8C88
:103EA300828D83A3A3124D5F02530974F712038615
:103EB300EAFEEBFFEE4F6015120D86123F20124D06
:103EC3000A6003123ED3EEFAEFFB121446025309C3
:103ED300EE240C123EE0123F3522EE241DF582EF54
:103EE3003400F58322F582EF123EE312428D22F570
:103EF30082EF123EE3123F1522123F00221257A215
:103F0300A3A3A3A322123F00A3A322123C90123F18
:103F1300152212578DE022E0FEA3E0FF228E828F4E
:103F230083E0241C1243C7123F358E828F83123FD6
:103F33003522123F3DFB12144622E0FAA3E022C0D1
:103F430082C083EAFCEBFDEC4D700479058044EC00
:103F530024FBF582ED34FF124D127007123F99E0F6
:103F6300F460051213AA80E39003B0E0C0E0123FAF
:103F730099D0E0F0902667E493F97AB77B031213A4
:103F8300D4E96401700B7A007B20124CDF79008046
:103F9300027904024296EC24FFF582ED34FFF583A7
:103FA3002274F4120386A2AFE433F508C2AF900380
:103FB300B7123E516038EE24FBF582EF34FF124D09
:103FC300127A007B209003B06005124CE28005E07A
:103FD300F91213E0E4F50AF50B780A12086FEEFC08
:103FE300EFFD7AB77B031213CE74021208B7E5080C
:103FF300A2E092AFEEFAEFFB0231501255C98518D9
:1040030082851983AA82AB832274F212038674FC1D
:10401300120931EAFEEBFF750AFE750BFF120D4A1A
:10402300E96005791102418FEE241512315860378A
:10403300900D0AE0C43354E0F8E0333354FC48C035
:10404300E0EE241512308BD0E01241AA1241A08B6E
:1040530009EA45096011750AFFEE240F123158442D
:1040630004124D6DD2E0F08E828F83122A746006A3
:10407300EE2412124197EE24131231587010902639
:104083006DE493C0E0EE241312308BD0E0F08E8207
:104093008F83E0A2E750045403801CEE24141231F2
:1040A300587015900342E0C0E0EE241412308BD018
:1040B300E0F0900342E004F0EE2411123158640161
:1040C30070169005B9E0600D90034DE0700A8E8282
:1040D3008F83E070031241948E828F83E0640170BA
:1040E30013EE240B123EF264027009EE240F123118
:1040F300584440F0851882851983AC82AD83EEFA6B
:10410300EFFB120DB08A088B0974FE650A70037405
:10411300FFF470098E828F83A3A3125544EA4509E5
:1041230060668E828F83E0C0E07401120B03D0E0DF
:10413300F07402120B031256327401120B038582C0
:104143000C85830D780C12086FEE240F12308B123E
:1041530006A6EE240E123158F50C780C1208739053
:1041630003561206A67407120B03E0F9AC0AAD0B53
:10417300120DAA74071208B7E9FE74106E700BAA29
:1041830008AB0912144680027E10EEF97404022A69
:10419300ACEE2411F582EF123EE3E4F022A31231D8
:1041A3004679FF121CD4221241AE22F08E828F83F5
:1041B300A322C082C08374DE1209318A828B83A357
:1041C300A3A3A3123EEE740E120B03E8F0A3E912AD
:1041D3004284740C120B0312427D240DF582EB1200
:1041E300315BC0E0741A120B03D0E0F0125491EB70
:1041F300123EEB7420120B0312427D2415F582EB61
:1042030012315BC0E07408120B03D0E0F0EA241C07
:10421300F582EB123EEB7412120B0312427D241152
:10422300F582EB12315BC0E07409120B03D0E0128C
:10423300427174FFF07401120B0374FFF0740212E5
:104243000B0374FFF09085CD1206A27404120B03C6
:10425300AC82AD837407120B03AA82AB83120BFAF1
:1042630074041208B7790074221208B78025124229
:104273007522F085188285198322E8F0A3E9F0EA14
:1042830022123C90A312428C22A3E0F8A3E0F9226D
:104293001250C3D083D08202084F74EC1203867489
:1042A300EE1209318A128B13ECFEEDFF8909742695
:1042B300120B031255447428120B03E0F5107429F2
:1042C300120B031243B8742B120B03E0F50EA3E099
:1042D300F50F7508107A1E7B001214407402120B3E
:1042E30003124CEC7402120B03124D1470030243BD
:1042F300B1851882851983AA82AB837950124BC783
:104303001250C37402120B031243D6A3124CEC7463
:1043130010120B03125D217402120B03E0240B1223
:1043230043C37402F0120B031243D67402F0120B50
:10433300031257851256327402120B031250D8E53A
:1043430009F07402120B03E0240C1243C3E510F0CE
:104353007402120B031243C0E512F0A3E513F074C9
:1043630008120B03E50CF0A3E50DF0740A120B031E
:10437300E510F0850E82850F83C082C083740D1211
:104383000B03AC82AD83D083D08274031207CBF9C5
:104393007402120B03AA82AB83120D50E9640170FD
:1043A3000575080080087402120B03123ED9A90890
:1043B300741202555BE0F50CA3E0F50D22E0241C1A
:1043C3001243C722F8A3E01243CE223400F98882B5
:1043D3008983221250CBA3A3A3A3A32274EE1203B7
:1043E30086EAFEEBFF8C088D098E828F83A3740807
:1043F300124DA8E060088E828F83A37410F01231EF
:104403005560098E828F83A3E02408F0EE241512F1
:10441300315860088E828F83A3E004F08E828F83ED
:10442300A3A3A3A3A3A3E060198E828F83A3A3A353
:10443300A3A3A3A3E0C3332402F88E828F83A3E054
:1044430028F0EE24111231586005750B0E800375A8
:104453000B008E828F83A3C082C083EE240D1231A2
:1044630058D083D082F8E028250B8C828D83F0EE20
:10447300241112315860051248D328F0850882852B
:104483000983E0C394754009750800750900024566
:10449300C1E0FA7B001256E070030245C1EEFAEF69
:1044A300FB120DB6EA850882850983124CEDEE24D2
:1044B30002F8EF1233B51246BB1245FDF0EE2404A9
:1044C3000808EF1233B5124AFDA31245FDA3A3F06A
:1044D300EE24131245E3F0EE24141245E3A3F07522
:1044E3000A08EE24161231586010EE24181255C231
:1044F300E50824081257C3750A101231556016EEE9
:10450300241A1255C2850A0CE508250C1257C374E8
:1045130008250AF50A8E828F83A3A3A3A3A3A3E08E
:104523006059EE2407F510EF3400F511851082F57C
:1045330083E0C0E01245CA12308ED0E01245EDE0B0
:10454300C0E01245CA12308ED0E01245EDA31245E9
:10455300D612086B851082851183E0C333FCE433E4
:10456300FD850A0CE508250C1255381208B785108D
:1045730082851183E0C333250AF50AEE241512312F
:1045830058600BC0E01245CA12308ED0E0F01230F2
:10459300881245D612086BEE240D123158FC7D00AB
:1045A300850B0A8E828F83A3E0F8E50828F8E509D6
:1045B3003400F9E8250AFAE912553B1208B7AA08AC
:1045C300AB097F0A0205A1850A0CE508250CF582D3
:1045D300E50922E0F50CA3E0F50D750E00780C2239
:1045E300123EE0124607A3A3A322F0050A8E828F90
:1045F30083A3A3A3A3A3A3A3A322A3A312582EA37A
:1046030012460722124B01A3A32274F61203868AD1
:10461300828B83E0FC9003531246B4740278081231
:104623000A32EC4508FCAD09EA24121246AE7406C0
:104633007808120A32EC4508FCED4509FDEA241519
:10464300F582EB12315B6004780180027800E4C8E4
:10465300F9ED49FDEA2411F582EB12315BF5088887
:104663000974097808120A32ED4509FDEA24161285
:1046730046AE740B7808120A32ED4509FDEA241799
:104683001246AE740C7808120A32ED4509FD8A828F
:104693008B83A3A3A3A3A3A31246B4740A7808121B
:1046A3000A32ECFAED4509FB024D1DF582EB123E91
:1046B300E3E0F50875090022E08508828509832275
:1046C300A3E0F98508828509832274EE1203868AA2
:1046D3000A8B0BECFEEDFF750F01E9C3940850053F
:1046E30079000248C08E828F83E9F0124B26E9607D
:1046F30003750F00124B0A8E828F83124B54EE12F6
:104703005492EF124B49C0E0EE241112308BD0E0EB
:10471300124B41C0E0EE241212308BD0E01241AABA
:10472300740812554CA3A3A3E06015124AF2EE24B9
:1047330013F582EF124D5C8E828F83A3E02408F081
:104743008E828F83A3A3A3A3A3A3A3A3E060218E3D
:10475300828F83A3858208858309124B35EE241546
:10476300F582EF124D5C850882850983E02408F009
:104773008E828F83A3A3A3A3A3E0601A8E828F8369
:10478300A3858208858309124B198E828F83A3A385
:10479300A3A3A31248E5EE2419124197EE241B129A
:1047A3004197A3124DA0E07003024854EE2419F878
:1047B300EF3400F98E828F83A3858208858309E015
:1047C300FAE50A2AF582E50B12315B8882898312A6
:1047D30048E5FAE50A2AF582E50B12315BC0E0EE03
:1047E300241A12308BD0E01248E588828983E06076
:1047F30059F8902666E493C398500575110C800808
:10480300EE2419123158F5118E828F83A3E0F8E557
:104813000A28F50CE50B1248C912086BE511C333DE
:10482300FCE433FD7A9A7B0B1248C31208B7EE24DB
:104833001B12308B749AF0A3740BF0E511C333F899
:10484300850882850983E0288006EE24181259FD25
:10485300F08E828F83A3E0F88E828F83E0C398501B
:10486300030246E3A3E0FA8A08E50A2508F8E50B04
:104873003400F9EE241DF582EF124E681248F5C399
:104883009AC0E0EE241712308BD0E0124D65602BF6
:10489300EE2417F8EF3400F9880889098882F58334
:1048A300E024F2124E49240EFAA3E03400FB88827E
:1048B3008983124CEC1248D3C398F0A90F0245C563
:1048C30012137A7403223400F50D750E00780C224E
:1048D30090034EE0F9120B3AE9F8850882850983C3
:1048E300E022F0850882850983E004F022A3A3A3D4
:1048F300A3A3F08E828F83E02274F41203868A08C6
:104903008B09EA12498AF0EA1313543F124983A32D
:10491300A3A3F0EAC4131312498AA3A3F0EB124929
:104923007C1249947409780A120AB512497A124919
:1049330093740A780A120AB5E50A5401C0E0EC241C
:1049430018F582ED12308ED0E0124999740B780A73
:10495300120AB512497AA3124993740C780A120AFF
:10496300B512497AA3A3A3A3A3A3A3A3F0740D78B9
:1049730008120AB5022CBAE50A54018C828D8322EF
:10498300540F8C828D832254038C828D83A3A322A4
:10499300A3A3A3A3A3A3F08A0A8B0B22C082C08381
:1049A30079008A828B83A3A3A3A3A3A3E090034DDF
:1049B300600FE070228A828B83A3A3E070190980C1
:1049C30016E060138A828B831250BA900356E06A12
:1049D3007003A3E06B70E702429674F01203868AB9
:1049E3000A8B0B890C8C088D09124B26124B0A85F6
:1049F3000882850983124B54E508125492E5091283
:104A03004B49C0E0E5082411F582E50912308ED048
:104A1300E0124B41C0E012378C12308ED0E0124EC0
:104A2300707408124E896011124AF2E508241312B9
:104A33004E64124E70E02408F0850882850983A332
:104A4300A3A3A3A3A3A3A3E0601785088285098377
:104A5300A3124B31E5082415124E641248F52408BD
:104A6300F0850882850983A3A3A3A3A3E060198526
:104A73000882850983A3AE82AF83124B198508820E
:104A83008509831248F004F0AA08AB09120DC8E99E
:104A9300F50D7056850882850983A3A3A3A3A3A359
:104AA300124AFD7014E0FA8A0EE50A250EF8E50BAA
:104AB300124D51E50CC39A8021124B31E8240EF8B4
:104AC300E9124D5190034EE0F9120B3A8E828F8317
:104AD300E0F8E50CC39824F2C399C0E0E508241775
:104AE300F582E50912308ED0E0F0A90D025481E57C
:104AF3000A2408F8E50B3400F922124B0122E08561
:104B03000882850983A322850A82850B83A3A312C6
:104B13004B6AE0F9EA22E0F8E50A28F582E50B1290
:104B23004D78228A828B83125486120DC222AE8262
:104B3300AF83E0F8E50A28F8E50B3400F922124BBD
:104B43007DA3A3A3E022123EE3E8124B76A3A3E0E6
:104B530022A3A3A3A3A3A3A3A3A3124B76124B6ADB
:104B6300A3A3E0F9EAF822E0FA850A82850B83A37E
:104B7300A3A322F0A3E9124B7D22F0850A82850BC1
:104B830083A3A3A3A322C082C0837AC57B0379E254
:104B9300121BDE7AC57B03024296C082C083900358
:104BA30056024293C082C08374FE12093185188273
:104BB300851983AA82AB83794B124BC71250C374F6
:104BC3000202426C121BDE85188285198322C08281
:104BD300C083794A121BDE02429674F61203869052
:104BE30003CDE0FE04F0EEF9120D7A8B09EA4509D4
:104BF30070EDEE60EAF9024D1D74F0120386EAFED1
:104C0300EBFF8C088D09890A7410120B03E0F50B76
:104C13007411120B03E0F50C120E9AEA4B7013E5B4
:104C23000C7042A90AAC08AD09EEFAEFFB120EB202
:104C3300806EE50A6021EA2402F582EB12315B857E
:104C43000A082508F8E4340013E813F070098A828F
:104C53008B83A3A37401F0E50C6045E50B70068A12
:104C6300828B83E4F07401650C7035E50B9003D4FB
:104C73007004E4F0802AE004F0900CF7E0F890036D
:104C8300D4E0C398401AE4F0900359E06E7003A394
:104C9300E06F700CEEFAEFFB7901120C1E124CA6BA
:104CA3000254817A017B009003B0E0F912150622C9
:104CB300C082C08374016A7001EB70077A01124CE1
:104CC300DD8012900CEE124CECEA4B6005122A3692
:104CD3008003124CA60242967A207B009003B0E038
:104CE300F91213DA223400F583EAF0A3EBF022C0C1
:104CF30082C083900CF0023896C082C083900CF27D
:104D030002389612579422EE240CF582EF3400F504
:104D13008312428DE849221208B77F020205A1A23D
:104D2300F0E433851882851983124D3E7952121BA4
:104D3300E422124D3E7942121BE422F0AA82AB8395
:104D430022AA08AB099003B0E0F91213B022340091
:104D5300F9E508241DF582E509123EE3E8F0A3E92D
:104D6300F022125550A3A3E022A3F0EE2415124D16
:104D73007522F582EF3400F583E022124D8222344E
:104D830000F583E0F8A3E0F98882898322E0F81232
:104D93004D9622A3E0F98E828F83A3A322F0EE2403
:104DA30018123EE022F0EE2416123EE02274F412B2
:104DB3000386EAFEEBFF7A007B04124CAA124E3FF5
:104DC300124D5F9003657409F0120DD48A088B09A4
:104DD300AC08AD09EE241312308B1250C3124F935B
:104DE300640170487A0F124E3260418A828B837459
:104DF30002124E49FAA3E0FB8A828B83A3E0FC8A6A
:104E0300828B83A3A3E0FBEC850882850983A3A39C
:104E1300124CED888289831250C71246BB124D6C27
:104E2300FAA3E0FB794A121BE4124D440231507B92
:104E330000121D9A8A088B09EA450922900336124B
:104E4300428D900CF222F0EE241DF8EF124E532205
:104E53001243CEE022124E5C223400F5837401F03B
:104E630022F582E509123EE3E8F0A3E922124E742B
:104E730022124E7822F0850882850983A322124EDE
:104E830078A3A3A3A322124E81A3A3E02212529AD2
:104E9300120E2822EE2417F582EF124E5C120DD467
:104EA300EE241A123EE0EAF0A3EBF02274F41203AC
:104EB3008674F31209318908EAFEEBFF7C0D7D004D
:104EC3007900851882851983AA82AB83121386EE33
:104ED300241D12308B125785A3E0F8741F58600A03
:104EE3007901121BB47900024F8AE8A2E5500874D5
:104EF3000C120B037401F0E8A2E75008740B120BB9
:104F0300037401F0E8A2E6740A5008120B0374015B
:104F1300F08008120B03E064017005EE2413800394
:104F2300EE24151255C27402120B03AA82AB83122C
:104F33001BCC123088124F98124D5F740A120B0368
:104F4300E064017033122A69703B120DE08A0A8B08
:104F53000BA80AA90BEE240B123158687003A3E0C7
:104F6300697022120DD4EAFCEBFD7402120B03AA42
:104F730082AB83124F93600D851882851983AA82B1
:104F8300AB83120C18A908740D02314DEEFAEFFB36
:104F9300121BC6E922E0124F9D22F8A3E0F98518FF
:104FA300828519832274F612038674F31209318AF7
:104FB300088B09ECFEEDFF7C0D7D007900851882DE
:104FC300851983AA82AB8312592AA3A3A3A3A3A3FC
:104FD300A3A3A312503212503BF8A2E55008740B5E
:104FE300120B037401F0E8A2E75008740A120B03D2
:104FF3007401F0E8A2E6EE50042413800224151293
:1050030055C27402120B03125024A3A3E0C0E07430
:105013000C120B03D0E0125292120C12740D024DBB
:105023001AAA82AB83121BCC85088285098322E0EE
:10503300124F9DE8F0A3E922F0123EDD125789A337
:10504300E02274F712038674E1120931EAFEEBFFE2
:105053008E828F831250C7A3A3A3E0A2E050518E88
:10506300828F83122BC98A828B83A3A3A3A3A3A3B7
:10507300E054FE1250DF8A828B831250D8E0F98A03
:10508300828B83E0241CFAA3E0123AF91250C31274
:105093000DCEE9701B741D120B031250D2701185D3
:1050A3001882851983AC82AD83EEFAEFFB120E16DC
:1050B3000253048E828F83A3A3A3A3A3A3A3A3A3B7
:1050C300123146221250CB2212578DA3A3A32212D0
:1050D3003F15640422E0241B1243C722124275AC1D
:1050E30082AD8322E9F87900740468600A740A685F
:1050F300600574036870010902084F74F612038691
:105103008A828B837420F0A3A37401F0120BC48AE8
:10511300088B09AE08AF09EE4F60108E828F83743F
:1051230001F09003A3E07003124E97EEFAEFFB0237
:105133004D1DC082C0839003B97401F0E9A2E3500E
:10514300037403F0E9A2E15004E0D2E2F0024296D4
:1051530074F612038679007C008A088B097808129A
:1051630005E7F8FF07865184518451845184517DAA
:1051730051815186517A510C80097C0480050C8041
:10518300F67C089003B9E05C6003098003EC6001DE
:1051930009024D1D74F61203868A828B83E0701216
:1051A300A3124D14600C8A828B831250C2121D0409
:1051B30080047A007B00024D1D74F512038674F39C
:1051C3001209318A088B09ECFEEDFF750A12EA45D4
:1051D300097005790002528B900356E0650870044C
:1051E300A3E065097014120DD4EAFCEBFD124F8F96
:1051F3007005750A018003750A0085188285198375
:10520300E4F004120B03E508F0A3E509125292122D
:105213000B88E960277403120B03AA82AB83120B7A
:105223006AE964017016750A017403120B03AC82F8
:10523300AD83124F8F6021750A00801C7412650ABA
:1052430070169003A2E06402700EEEFCEFFDAA0854
:10525300AB09120BA0E970DFEEFCEFFDAA08AB0966
:10526300120EA0E9F8740A687005750A01801774B4
:10527300A0687012EEFCEFFDAA08AB09120EACAAEF
:1052830008AB09120EBEA90A740D025C92740212D5
:1052930052962212529A22124275AA82AB83227428
:1052A300F7120386EAFEEBFF8E828F83A3A3A3A3E9
:1052B300A3A3A3A3E06015EE241512308B1231369D
:1052C300120E40E964017004790180258E828F8378
:1052D300A3A3A3A3A3A3A3E06015EE241312308B0F
:1052E3001252F6FAA3E0FB120E40E9640160D97989
:1052F300008013123BE5A3A3A3A3A3A3A3A3A3E04B
:1053030022741F1208B77F010205A174F0120386ED
:1053130074FD1209318A088B09ECFEEDFF890B74C9
:1053230013120B03E0F50C750A017401120B0374DD
:10533300041257BD6048E50C601DEA2417F582EBA3
:10534300125A001257AB8A828B83E0D2E7F0EA2429
:1053530014F582EB12419A125491EB124D7E7403B1
:10536300125D23EE88828983A3A3F0EF8882898369
:10537300A3A3123C8F123C96120BBEE9F50AA90AAD
:10538300740302547E74EC12038674F51209318A95
:105393000A8B0B890C8C0E8D0F741F120B03E0F517
:1053A3000D7420120B03E0F510A3E0F5117E01EE5E
:1053B300120B03740AF0E97007E50DC333240AF0F6
:1053C30012556370030254651255787409F0A3E50E
:1053D3000CC43354E0450D12558AE50C702D7C0046
:1053E3008023ECC333F8E433F9E51028F8E51139E9
:1053F300F988828983125472888289831233A8F0D0
:10540300A30EAF830CECC3950D40D7E5082417F525
:1054130082E509124E58120DD4E508241AF582E5E7
:1054230009124CE87403120B03AC82AD83AA0AABD6
:105433000B120B70E96019E5082416F582E50912D1
:10544300546C120B03A882A983E5082418124D5843
:10545300850882850983125D1FAA08AB09120BBE5A
:10546300E9FEEEF9740B02555B124E5C740322E005
:105473008E828F83F0A3AE82AF83221208B77F0898
:105483000205A1123F3DF9EA2400E439FB22EA2494
:105493000BF5822274EE1203868A0C8B0D890E8C17
:1054A300088D097412120B03E0F50F7413120B032A
:1054B300125544900528124D146077E50FC333F855
:1054C300E433F9E8240EFAE93400FB121D9A8A103A
:1054D3008B11AE10AF11EE4F60588E828F8374D450
:1054E300F0A3A3E50CF0A3E50D12554CE50EF0ACCB
:1054F30008AD09EE2405FAEF1257C6EE240D12305B
:105503008BE50FF0850A08850B09750A00780812E8
:10551300086BE50FC333FCE433FDEE240EFAEF1200
:10552300553B1208B7EEFAEFFB9005281257851288
:105533001DA50245C5FAE5093400FB12137A74036D
:1055430022E0F50AA3E0F50B22125550221255541E
:10555300221241AEA3A3A3221208B77F0C0205A116
:10556300851882851983AA82AB83120E288A088B39
:1055730009EA450922EA240BF582EB124D78FEA3D2
:10558300E0FF8E828F8322F0A3AE82AF83AC0EAD99
:105593000FEEFAEFFB12559C22121BCC1255A322DD
:1055A300EE2408FEEF3400FF22E0FA8E828F83A3FD
:1055B300A3E022FEA3E03400FF8E828F83E0221259
:1055C3003EE01255C922E0FCA3E0FD22123146124F
:1055D3000DBC2274F6120386EAFEEBFF9003BA8039
:1055E3001388828983E06E7003A3E06F603A888238
:1055F3008983A3A3124D1470E87A047B001214402C
:105603008A088B09A808A909E849601C888289834C
:105613001256329003BA1250C388828983A3A3120D
:105623004CEC9003BA124D5F024D1D8A828B83EEC0
:10563300F0A3EFF02274F41203867E009003BA8085
:10564300070E88828983A3A3124D1470F4EEC3332B
:10565300FAE433FB1256E0607E7F009003BA8024A5
:10566300888289831255C5EFC333FAE433FBE50817
:105673002AF582E5093BF583ECF0A3EDF00F888270
:105683008983A3A3124D1470D79003AB122AA3707E
:1056930003A3E0697808701912086FEEF50A780A17
:1056A3001208737C777D0379009003AB1256EB806D
:1056B3001A12086FEEF50A780A1208737C777D03D5
:1056C30079009003AB1250C3120E5274031208B741
:1056D300AA08AB09121446120BD602315012144019
:1056E3008A088B09EA450922123146120E5822C054
:1056F30082C08380128A828B83A3A3123EEE90031F
:10570300BA124D5F1214469003BA123DFE70E602C0
:10571300429674F6120386900363123F1A9003CEE7
:10572300125774124D5F7ACE7B037950121BE490AB
:1057330003CE122CC2FAEFFB120EB89003CE123F27
:105743001A90052A124D1460257A067B00121D9AC1
:10575300EA4B601A8A828B8374D5F0A3A3E41257B1
:105763009A041257AB90052A125785121DA5024DB4
:105773001D12577822E0F8A3E0F9900363228E828A
:105783008F831257892212578D22E0F812579322E2
:10579300A3E0F58388822212579E221257A222F099
:1057A3008A828B83A3A3A32212579EA3EEF0A3EFB7
:1057B300F022F582EF124D78F922124E90EA4B2235
:1057C300FAE5093400FB121BCC22124D97A3A3A3C5
:1057D300A3A3A3A322902668E4932401F8E434004E
:1057E300F97A027B002274F71203867E008004128A
:1057F3005DD60E1258FA40F77E00EE12581574FE6D
:10580300F0A30412582AE4F00EEEC3940340EB0213
:10581300530975F003A4F8A9F074BC28F87403398C
:10582300F988828983A32212582E22F088828983E1
:105833002274F71203867F0080010F902670E49391
:10584300F8EFC3985026EF1259E66A7003A3E06B92
:1058530070E8125D836C7003A3E06D600A74FF6CE3
:10586300700374FF6D70D31258F180047A007B00CB
:1058730002530974F61203867CFF7DFF7AFE7BFFD9
:10588300120E7CEA4B70407508008036E50875F00F
:1058930017A4F8A9F0743528F582740A1259F86030
:1058A3000C743428F582740A1259F870137426287C
:1058B300FE740A39FF8E828F83125A05EEFAEFFBCC
:1058C300050812596040C5024D1D74F41203868AFF
:1058D300088B09ECFEEDFF800B120E8EEEFCEFFD44
:1058E300AA08AB09120E7CEA4B70EE023150742603
:1058F30028FA740A39FB22902670E493F8EEC398D1
:105903002274F7120386EAFEEBFFEE4F6010125982
:105913002474FEF0A304125D2914F0A304F00253CF
:10592300097C177D0079001213868E828F8322747F
:10593300F7120386EAFEEBFF7508008018E5087589
:10594300F017A4F8A9F0125D8E7003A3E06F600353
:10595300125DDE050812596040E302530990267078
:10596300E493F8E508C3982274F6120386120E7CBA
:105973008A088B09A808A909E849600AE8240DFAEE
:10598300E93400FB80047A007B00024D1D74F4129D
:1059930003868A0A8B0BECFEEDFF75080075090080
:1059A300802EE50975F017A4F8A9F0125DC9601EF1
:1059B300E5091259E6650A7004A3E0650B700375E7
:1059C300080AEEFCEFFD125C8560034308A005099D
:1059D300902670E493F8E509C3985004E50860C283
:1059E300022CBA75F017A4F8A9F01259F122742603
:1059F30028F582740A39F583E022F582EF123EE33B
:105A0300E422123146120CB42212582EA3A3A3A3EC
:105A1300A3A3A3A32274F21203868A088B09ECFEC4
:105A2300EDFF740E120B03125544750C007C007DC0
:105A330001801012139EE50CF5F0EA84ACF0750CAE
:105A4300007D00780079008003125BC2125C1E4067
:105A530003025AE4E8FAE9FBEA75F017A4FA85F0C1
:105A63000D75F017EBA4250D125BFA7003A3E0F498
:105A730060D7125BD865087004A3E0650960CA1299
:105A83005BD86E7003A3E06F60BF125BD8650A70CA
:105A930004A3E0650B60B2E8FAE9FBEA75F017A42A
:105AA300FA75F017EBA4250DFB74342AF582740AFA
:105AB300125BB9509474016D050C608DE50CC39CA9
:105AC3004087E875F017A4F8AAF075F017E9A42A3F
:105AD300F9742628F582740A39F5831250C3025BE0
:105AE300B6780079008003125BC2125C2B4003027C
:105AF3005B9DE8FAE9FBEA75F012A4FA85F00D1252
:105B03005C0A64FE7003A3E0F460DC125C006508C9
:105B13007004A3E0650960CF125C006E7003A3E01C
:105B23006F60C4125C00650A7004A3E0650B60B784
