:020000040000FA
:06000000020A660201CDB8
:03002B000208CAFE
:0300330002067A48
:030043000207446D
:030053000200FEAA
:03006B000206602A
:100083000201620101FF01010503010F10FEFF14CC
:1000930013141314131413CA11C411141359250080
:1000A300000000BB25000000000C0000000C000154
:1000B300FFFF414C442042726F61646361737400BB
:1000C300010101006605000000DB05E8036400642C
:1000D30000B801020200080000050207051E020520
:1000E3001E020A0A03B80B02803E0102F1FF01144B
:1000F3001F00E00796511800020206C0E074F212D6
:1001030003E6A2AFE433FED2AFE5A7FFE5A1F5080E
:100113005F54106006121AA075A1EFE5085F54083A
:100123006008121AA675A1F7802BEFA2E0C0D0E5F4
:1001330008A2E092F01209EC158182F05017906149
:1001430098E0F8900AB6E0C398A2D265D033500283
:10015300E8F075A1FEEEA2E092AF7F0102049DC01C
:10016300E074F21203E6A2AFE433FED2AF9061A4CF
:10017300E0F8759B00E59158540860087591F712F3
:100183001AEE802AE59158541060087591EF121AFF
:10019300F4801BE8A2E0C0D0E591A2E092F012093E
:1001A300EC158182F05007E0C2E0F0121C38906138
:1001B300A3E0F8E5E9585404600E121C0E75E9FB40
:1001C300906193E0A2E640F2808BC0E074F21203E8
:1001D300E6A2AFE433FED2AF9061A5E0F8E5BF58E5
:1001E3005404600675BFFB121C50020158C3E49807
:1001F300F8E499F91202318026C3E49AFAE49BFBEE
:10020300E920E7E9120231E498F8E499F922C3E41A
:1002130098F8E499F9120231E498F8E499F9C3E4FF
:100223009AFAE49BFB22EB20E7CFE920E7E0B90051
:1002330010BB0008E88AF084F8AAF022E4FBC8FAAD
:1002430022EB70227B10C833C8C933C9335007C3AC
:100253009AC3DBF280069A50012ADBEAC833F4C85A
:10026300C933F4C9FA2275F008E4C833C8C933C9DD
:1002730033C99AC99B5004C92AC93BD5F0ECFBC8C2
:1002830033F4C8E4C9FA22080808EAC0E0EBC0E086
:1002930086F0E7A4FA180986F0E7A42AFA18098673
:1002A300F0E7A42AFA180986F0E7A42AFA1986F0D7
:1002B300E7A4FBE5F02AFA190886F0E7A42BFBE58F
:1002C300F03AFA190886F0E7A42BFBE5F03AFA189E
:1002D300180986F0E7A4C5F02BFBE43AFA1908E7FE
:1002E300C5F0C6A426F6E5F03BFBE43AFA1886F01F
:1002F300E7A4F6E5F00826F6E43B08F6E43A08F648
:10030300D0E0FBD0E0FA22E4CFC0E0E4CEC0E0E4EA
:10031300CDC0E0E4CCC0E075F020C3E633F608E6D8
:1003230033F608E633F608E633F6181818EC33FC10
:10033300ED33FDEE33FEEF33FFC3EC9709ED970981
:10034300EE9709EF97191919400FFFEC97FC09ED88
:1003530097FD09EE97FE191906D5F0BEECF709EDE6
:10036300F709EEF709EFF7191919D0E0FCD0E0FD12
:10037300D0E0FED0E0FF222518C582C0E0E51934A5
:10038300FFC583C0E0E518C3958224F810AF088544
:1003930083198582188008858319858218D2AFCE88
:1003A300F0A3E520F0A37808E608F0A3DEFAEFF067
:1003B300A3E58124FAF8E608F0A3E608F0A3E6082B
:1003C300F0A30808E608F0A3E608F0A31581158159
:1003D300D0E0FED0E0F8158115811581E8C0E0EE8C
:1003E300C0E022C0D02518C582C0E0E51934FFC59E
:1003F30083C0E0E518C3958224F310AF0885831901
:100403008582188008858319858218D2AFC8F0A326
:10041300E9F0A3EAF0A3EBF0A37908E709F0A3D886
:10042300FAECF0A3EDF0A3EEF0A3EFF0A3D0E0F02D
:10043300A3D0E0F0A3D0E0F0A3E520F0A3E5F0F033
:10044300A322120AC8B90003020487E490030178C7
:100453007D790E8002F0A3D8FCD9FA90107DAA8290
:10046300AB83900086787979018015E493A3AC82FD
:10047300AD838A828B83F0A3AA82AB838C828D8324
:10048300D8E9D9E77582C87583DB74031208297527
:1004930082F675831E7400120829851983851882D4
:1004A300E0C0E0A3E0F9A3E0FAA3E0FBA37808E04F
:1004B300F608A3DFFAE0FCA3E0FDA3E0FEA3E0FF60
:1004C300A3E0C0E0A3E0C0E0A3E0F5D0A3E0F52003
:1004D300A3E0A3F5F010AF0885831985821880087F
:1004E300858319858218D2AFD082D083D0E0F8D02B
:1004F300E03215000975F0108E1A8F1B85821F8557
:10050300831E851882851983E0CEA3E0CF851F82E1
:10051300851E83EBC9EAC8EDCBECCAC3E833C8E94F
:1005230033C9EA33CAEB33CBC3EA9EF51DEB9FF520
:100533001CB35004AB1CAA1DEC33CCED33CDD5F06A
:10054300DAAE1AAF1B22D083D082ECC0E0EDC0E05C
:10055300E493A3FCE493A3FDED4C600D120621ECA0
:1005630024FFFCED34FFFD80EFE493A3FCE493A3AD
:10057300FDED4C600D1206EFEC24FFFCED34FFFDA6
:1005830080EFD0E0FDD0E0FCE493A3C0E0E493C0AF
:10059300E022851983851882E0A3FEE0A3F5207885
:1005A30008E0A3F608DFFAE0A3FFE0A3C0E0E0A3BE
:1005B300C0E0E0A3C0E0E0A3C0E0E0A3C0E010AF70
:1005C300088582188583198008858218858319D246
:1005D300AFD083D08202082FD083D082E9C0E0E479
:1005E30093A3C386F0C5F095F0F908E493A386F0CE
:1005F300C5F095F0700BE493A3C3994005E904801B
:1006030002A3E475F002A42582F582E5F03583F5B3
:1006130083D0E0F9E493A3C0E0E493C0E022C0E018
:10062300C3E49396087401939618400FE49366709D
:100633000808740193661870007019A3A3C3E493A8
:1006430096087401939618A3A3400DD0E0D0E0D090
:10065300E0020585A3A3A3A3A3A3D0E022C0E07473
:10066300F21203E6E589A2E15003121950758900DD
:10067300C2C57F0102049DC0E074F21203E6E58B5C
:10068300A2E05003121950758B00C2E880E4740491
:10069300800474028000CCC0E0EDC0E0E518C39C88
:1006A300CCAD1950011D10AF068C188D1980068C26
:1006B300188D19D2AF1207ABD0E0FDD0E0FC227445
:1006C300028000CCC0E0EDC0E0E518C39CCCAD19BE
:1006D30050011D10AF068C188D1980068C188D19CA
:1006E300D2AF120767D0E0FDD0E0FC22C0E0C0F03B
:1006F30088F0E4936670080874019366187000A884
:10070300F0A3A3700BD0F0D0E0D0E0D0E0020585D9
:10071300A3A3D0F0D0E022D083D082CCC0E0E49376
:10072300A360061207CC1470FAE493A360061209BF
:10073300111470FAD0E0FCE493A3C0E0E493C0E0AA
:1007430022C0E074F21203E6A2AFE433FED2AFC2DA
:10075300C0E5D1A2E45003121A16EEA2E092AF7FD5
:100763000102049DCAC0E0E493A3C582CCC582C53F
:1007730083CDC583F0A3C582CCC582C583CDC58394
:10078300DAE5D0E0CA22A2E792D65002F40430F7A9
:100793000663F0FF05F0B3400384800384F4043060
:1007A300D60563F0FF05F022CAC0E0E0A3C582CC02
:1007B300C582C583CDC583F0A3C582CCC582C5835D
:1007C300CDC583DAE6D0E0CA22C0E0E493A3D39C8C
:1007D3005010E493A3C39C400AD0E0D0E0D0E002E1
:1007E3000737A3A3A3D0E0227009080808226016E4
:1007F300181818C6C333C608C633C608C633C60896
:10080300C633C6D5E0EA22C008C3E096F50808A3BC
:10081300E096420808A3E096420808A3E09645083C
:100823007001D3D00822C09FF59FE473D09F22D0DC
:1008330083D082C09FE493C0E0740193C0E074024C
:1008430093F59F227404800A740380067402800265
:100853007401C0E0F404120862D0E0120AA3222556
:1008630018F58210AF08F518400215198008F5181D
:1008730040021519D2AF85198322BB0102E722C0BA
:1008830082C08389828A83BB0003E08002E493D021
:1008930083D08222C0D0251810AF08F51850020566
:1008A300198008F51850020519D2AFD0D02260166E
:1008B300080808C6C313C618C613C618C613C61835
:1008C300C613C6D5E0EA22C0E0C0D0E8C0E0E5A880
:1008D300D2AFC2C7A2E792AFD0E0F8D0D0D0E03217
:1008E300C3E0C696F608A3E0C696F608A3E0C6964C
:1008F300F608A3E0C696F622251810AF08F51840AF
:100903000215198008F51840021519D2AF22C0E06C
:10091300E493A36C7009D0E0D0E0D0E0020737A3E2
:10092300A3D0E022E76670100809E766700A080999
:10093300E76670040809E76622E066701008A3E022
:1009430066700A08A3E066700408A3E06622C3E0A9
:100953009608A3E09608A3E09608A3E096A2D265C2
:10096300D03322C3E096F008A3E096F008A3E09604
:10097300F008A3E096F022E657F60809E657F608D2
:1009830009E657F60809E657F622E026F608A3E03B
:1009930036F608A3E036F608A3E036F622E627F695
:1009A3000809E637F60809E637F60809E637F622B6
:1009B300E056F608A3E056F608A3E056F608A3E0CF
:1009C30056F622E056F008A3E056F008A3E056F0EE
:1009D30008A3E056F022E647F60809E647F60809B9
:1009E300E647F60809E647F622C0E0E8C0E0E581FD
:1009F30024FCF8E6A2E7D0E0F8D0E02270042260FD
:100A03000D18C6C333C608C633C6D5E0F41822E0B2
:100A130026F008A3E036F008A3E036F008A3E0369A
:100A2300F022E4C396F608E496F608E496F608E4A2
:100A330096F622C3E09608A3E09608A3E09608A3DF
:100A4300E09622C6F4C608C6F4C608C6F4C608C6AD
:100A5300F4C622C3E7960809E7960809E79608094A
:100A6300E7962275D000758140751801751903004A
:100A7300020445E0F608A3E0F608A3E0F608A3E0C5
:100A8300F622600C08C6C313C618C613C6D5E0F415
:100A930022E6F008A3E6F008A3E6F008A3E6F022B6
:100AA300CAC0E0E6F0A308DAFAD0E0FA22E0FAA33B
:100AB300E0FBA3E0FCA3E0FD22EAF0A3EBF0A3EC50
:100AC300F0A3EDF022E5C754F84401F5C7790122FC
:100AD3002518F582E43519F58322C2AF75D69F0236
:100AE300000022120832F7E20212083244E4021232
:100AF3000832E7E4021208322EE6021208324CE60C
:100B0300021208325A28001208326C2800120832E6
:100B1300BE28001208321F2900120832A929001228
:100B230008324D2A00120832A12A00120832BA2ACA
:100B330000120832E02A001208321B2B001208327E
:100B43005F2B00120832862B00120832D72B0012BB
:100B53000832872C001208323F2D00120832072E6C
:100B630000120832C72E001208320B2F001208326F
:100B7300302F00120832732F00120832C02F0012D8
:100B830008321831001208329E3100120832BC318B
:100B930000120832E6310012083200320012083225
:100BA3000F32001208321A3200120832DA320012FF
:100BB3000832333300120832F53300120832FD33A2
:100BC30000120832C134001208322D3500120832E7
:100BD300583600120832693600120832DF36001226
:100BE3000832713700120832C937001208328938C7
:100BF30000120832B03800120832C238001208322C
:100C03001539001208325239001208325F390012C6
:100C13000832E23A00120832373C00120832693CCB
:100C230000120832FC3C00120832353D0012083233
:100C3300813D001208329D3E00120832E640001248
:100C43000832F14000120832FC400012083206411B
:100C5300001208321141001208322B4100120832EF
:100C63003541001208323F41001208324A41001256
:100C73000832724100120832CD4100120832F141AC
:100C83000012083215420012083273420012083271
:100C9300B74200120832D342001208324A4300120C
:100CA3000832824300120832CE43001208322B442A
:100CB30000120832E54400120832C9460012083215
:100CC30022470012083252480012083278480012B4
:100CD3000832014A001208327D4D001208324F4F8C
:100CE30000120832185100120832C551001208329E
:100CF300305300120832CF5300120832145400123A
:100D030008327E54001208328D54001208321457F0
:100D130000120832C6580012083233590012083242
:100D2300125A001208322B5B00120832A85C001220
:100D33000832C75C001208321C5D00120832215EC3
:100D430000120832495E00120832A15E0012083216
:100D5300805F00120832C45F001208320F60001275
:100D630008327A6000120832BB61001208321F6237
:100D7300001208326D6300120832CD65001208328A
:100D8300FE6500120832B667001208320B680012C3
:100D930008320F6900120832AC6900120832056A82
:100DA30000120832B86A001208325A6B0012083275
:100DB300FA6B001208329F6C001208325B86011234
:100DC30008329A8601120832E188011208322B890F
:100DD30001120832468A01120832B68A0112083219
:100DE300EB8A011208325F8C01120832E28E011283
:100DF30008320B9001120832A19001120832A9990E
:100E0300011208323E9A01120832259D011208325E
:100E1300189E01120832799E01120832959F011221
:100E230008327AA1011208328BA301120832F5A30A
:100E330001120832C7A4011208327EA5011208323A
:100E430088A501120832B6A50112083273A6011251
:100E530008324AA70112083211A801120832C3A8A6
:100E630001120832ECA8011208320EA9011208324D
:100E730064AB011208323CAC0112083280AC01129F
:100E83000832E8AC01120832A0AD01120832D2AD2B
:100E93000112083216AE011208324CAE01120832AA
:100EA30098AE01120832EDAE01120832F2AE011211
:100EB300083245AF011208326AAF0112083279B025
:100EC30001120832DDB0011208324DB101120832AD
:100ED300D9B101120832A6B4011208328AB501123F
:100EE30008320DB70112083243B901120832F1B9C1
:100EF30001120832A1BA01120832E2BC011208320F
:100F030085BD01120832CCBD0112083278BF01122F
:100F130008328CBF0112083296BF01120832BEBFDD
:100F230001120832CABF01120832E9BF01120832A6
:100F3300CEC10112083205C2011208320FC20112DA
:100F4300083245C20112083294C301120832D8C3D1
:100F53000112083280C40112083263C5011208323B
:100F63000EC6011208325AC70112083258C80112BC
:100F73000832FEC8011208328EC901120832A5C90F
:100F830001120832DCC901120832E6C90112083223
:100F9300F1C9011208320FCA0112083253CA0112F1
:100FA3000832B0CA01120832D5CA01120832EFCA98
:100FB300011208327BCB0112083298CC011208329D
:100FC30005CD01120832ECCD0112083213CE011205
:100FD300083287CE0112083202CF0112083206D03E
:100FE30001120832FCD001120832ABD101120832CF
:100FF300BED2011208325AD301120832E7D30112CA
:101003000832C5D401120832FDD40112083255D575
:10101300011208321ED6011208323FD601120832DD
:10102300C6D601120832EAD6011208320CD70112D1
:10103300083255D7011208326BD90112083252DA3D
:101043000112083203DB0112083239DD01120832C2
:1010530089DD01120832C9DD011208320BDE0112EB
:10106300083267DE0112083295DE01120832B9DE5A
:10107300011208320CDF011208323ADF0112083282
:1010830073DF01120832C8DF011208322EE00112A9
:10109300083282E101120832A5E30112083212E498
:1010A300011208323BE401120832C6E4011208328D
:1010B3002DE50112083278E5011208329CE5011290
:1010C3000832C0E5011208321BE60112083236E687
:1010D30001120832EFE601120832C4FD031208328E
:1010E30003FE03120832788002120832BE80021215
:1010F30008329E8102120832A08202120832A383B0
:10110300021208322F85021208328D85021208322C
:101113004A8602120832688702120832D9870212FD
:1011230008321588021208326388021208326D8869
:1011330002120832B188021208320D8902120832F3
:10114300A88902120832258A02120832F48A02128E
:1011530008328D8B02120832AD8B02120832E38BF8
:1011630002120832148C02120832D58C0212083291
:10117300E58C02120832398D02120832548D0212A4
:101183000832668D021208326F8D02120832C98D41
:1011930002120832258E02120832718E02120832B0
:1011A3008C8E02120832BD8E02120832DA8E0212BF
:1011B3000832E68E021208325A90021208327390F5
:1011C30002120832DA9002120832ED90021208324B
:1011D300FB9002120832AF9102120832939202126C
:1011E30008329993021208322394021208322D9482
:1011F300021208329A9402120832B194021208328F
:10120300E394021208321C95021208324695021228
:101213000832A79502120832C79502120832E595E3
:10122300021208322B960212083251970212083228
:101233009E9702120832CD97021208324398021287
:1012430008326B9802120832A49802120832B2983C
:10125300021208320A99021208325999021208320C
:10126300989902120832C89902120832F4990212AC
:101273000832FF99021208321D9A02120832DF9ACD
:1012830002120832E99A02120832249B021208322F
:101293003A9B021208328F9B02120832A39B02125E
:1012A3000832B19C02120832C49C02120832D99C43
:1012B300021208327B9D02120832FE9D021208328E
:1012C300BC9E02120832C79E02120832F39F02121A
:1012D30008320FA00212083261A002120832A0A045
:1012E30002120832B5A00212083217A10212083204
:1012F300A6A102120832F1A10212083242A402127C
:101303000832C0A40212083235A50212083257A7C8
:10131300021208326FA70212083272A702120832B1
:101323007EA70212083292A7021208329AA702126B
:101333000832CDA7021208327DA802120832F3A8A0
:101343000212083266A9021208321AAA02120832DD
:10135300CFAA02120832EEAA021208328EAB021290
:1013630008329AAB02120832C5AB02120832C8AB7C
:101373000212083232AC021208325AAD021208329B
:1013830032AE02120832BDAE02120832D6AF0212DA
:10139300083293B002120832CCB002120832FDB008
:1013A30002120832BBB102120832EBB10212083248
:1013B300C6B2021208325FB302120832EAB3021253
:1013C30008329BB4021208321EB50212083250B51D
:1013D3000212083291B5021208324E9903120832F2
:1013E300B39903120832F099031208323F9A031299
:1013F3000832559C03120832389E03120832A2A108
:1014030003120832DDA103120832FFA103120832CE
:1014130062A20312083296A203120832B9A203127F
:101423000832E6A20312083242A303120832898D5E
:1014330003120832078E0312083244DA021208320A
:10144300A98E031208321C9003120832389003123B
:1014530008327D90031208320B9103120832649113
:1014630003120832919203120832A3930312083233
:101473000094031208326C9403120832CD940312C1
:1014830008320E9503120832BB9503120832CD962B
:1014930003120832F89603120832A2E0021208324D
:1014A3008A97031208321C9803120832D798031242
:1014B3000832ADE20312083228E30312083233E3A1
:1014C3000312083254E3031208328EA303120832C4
:1014D30098A303120832E4A30312083252A403129E
:1014E300083273A40312083223A503120832B7A7E4
:1014F30003120832C0A70312083213A803120832DA
:101503003CA803120832A3A80312083234A9031219
:10151300083276A903120832C0A9031208321FAA9F
:10152300031208324BAA03120832DCAA0312083250
:101533001BAB031208325AAB031208328FAB0312F0
:101543000832A1AB03120832B3AB03120832D2AB99
:1015530003120832DBAB0312083291AC03120832D8
:10156300D1AC0312083222FB0312083270EF0312CC
:101573000832A6EF03120832EFEF031208323FF1ED
:101583000312083229E70112083268E8011208320F
:10159300A4E80112083263EA011208328CEA01124C
:1015A30008321FED0112083263ED01120832ECEE2E
:1015B3000112083284EF01120832ECEF01120832F3
:1015C3008DF001120832CFF0011208320FF101122F
:1015D30008329AF2011208320AF4011208322FF685
:1015E300011208325DF60112083284F60112083244
:1015F3008DF60112083214F70112083232FA011281
:10160300083265FF031208327BFF0312083279FDAB
:101613000312083248DF031208325BDF0312083279
:10162300F8DF0312083233E0031208324EE00312EC
:10163300083273E003120832B8E003120832E9E01B
:10164300031208321AE103120832A0E2031208322D
:1016530095F603120832CBF603120832E7F60312AB
:10166300083229F70312083239F703120832CEF78A
:1016730003120832D8F70312083216CD03120832C8
:10168300DCCD031208328CCE03120832CACE031209
:101693000832FACE0312083207D0031208327CD084
:1016A3000312083273E602120832C8E60212083245
:1016B300B1E7021208324AE80212083294E8021231
:1016C3000832F6E8021208320AE902120832ECEA9A
:1016D3000212083267EB0212083291EB021208324F
:1016E3006AED0212083285ED02120832D4ED0212BD
:1016F3000832EAED02120832F7ED021208322BEE3D
:101703000212083244EE02120832E4EE02120832E8
:101713003EEF021208328CEF021208329FF00212DF
:10172300083210F30212083245F302120832D3F3DF
:101733000212083234F40212083239F40212083267
:1017430075F402120832D7F402120832A7F5021216
:101753000832CCF502120832D6F502120832D9F556
:101763000212083248F60212083263F602120832F5
:1017730076F602120832A2F602120832DDF60212DF
:101783000832E0F6021208321CF7021208322BFD6F
:101793000312083243FD0312083255F702120832CE
:1017A300A4F70212083246F90212083204FB0212AD
:1017B30008324CFB021208326EFC021208329FFD03
:1017C30002120832C1FD021208321DFE0212083253
:1017D3009FFE02120832EB6C00120832166D0012E3
:1017E3000832036E00120832886E00120832F16E5E
:1017F300001208323D6F00120832BC6F001208322B
:101803004E7000120832DA70001208321C71001296
:101813000832887500120832087700120832D87728
:1018230000120832FF7700120832607A0012083281
:10183300EC7A00120832067C00120832E57C0012B2
:101843000832677D00120832008003120832BA8022
:10185300031208322C8103120832C88103120832A2
:10186300388203120832F18403120832C885031246
:101873000832358603120832B287031208327C8895
:1018830003120832C38903120832D68A03120832BC
:101893006F8B03120832358C031208327CE5031276
:1018A3000832D0E50312083228E60312083273E641
:1018B30003120832D5E6031208326EE70312083228
:1018C300D6E703120832E2E703120832A2F1031249
:1018D3000832D3F1031208328DF203120832F3F205
:1018E3000312083253DC03120832DFDD031208321D
:1018F300F0FE0312083201FF031208327CF30312D5
:1019030008328AF303120832E77F0012083295FC8B
:1019130003120832A5FC03120832C0FC031208327A
:1019230021FD0312083220FA03120832A5FA03122A
:10193300083209FB031208320EF90312083230F998
:10194300031208329AF903120832A5F90312083276
:10195300E9F90312083236B60312083244B6031209
:10196300083285B603120832A6B60312083223B72B
:101973000312083223B80312083245B8031208329F
:10198300B1B803120832CCB803120832E7B8031215
:101993000832F1B803120832FBB8031208320EB949
:1019A3000312083227B903120832C3B903120832EB
:1019B3007FBA03120832F6BA0312083270BB03125D
:1019C3000832BCBB0312083262BC031208323EBDAC
:1019D30003120832BED403120832CCD403120832E5
:1019E30046D5031208322AD603120832E3D703126C
:1019F300083243FF03120832B3FA011208321FFB05
:101A030001120832DEFB01120832E8FC011208322F
:101A130041FE011208329CFE01120832F1FE01124E
:101A23000832FAFE011208320CFF0112083276FF67
:101A3300011208328AFF0112083294FF01120832A0
:101A4300A5C303120832FAC303120832F6C5031200
:101A5300083228C6031208324AC60312083263C684
:101A6300031208327CC60312083286C703120832F7
:101A730021C80312083234F50312083258F5031251
:101A8300083271F503120832A4F503120832D5F5B2
:101A93000312083203F60312083265F60312083202
:101AA30074F6031208327EF6031208328BF6031221
:101AB30008321DE80312083243E80312083280E8B3
:101AC300031208328FE803120832AEE80312083219
:101AD30016E9031208321FE9031208327EE90312E2
:101AE3000832A2E90312083261EA031208326EEAED
:101AF300031208327FEA0312083251FE031208323E
:101B03006EFE0312083298C803120832F6C9031294
:101B1300083203CA0312083216CA0312083235CA3E
:101B2300031208324BCA031208325FCA0312083287
:101B3300D4CA0312083239CB03120832E9CB031299
:101B43000832BECC03120832CECC03120832DDCCED
:101B530003120832FCFB0312083220FC0312083282
:101B630048FC0312083270FC03120832ADEA031278
:101B73000832D4EA03120832F5EA031208325AEBA8
:101B83000312083213ED031208322CED031208324C
:101B930038ED031208324CED031208326AED0312DA
:101BA300083274ED031208327EED0312083291ED10
:101BB30003120832E4ED031208321DEE0312083259
:101BC3004CEE031208329AEE03120832E9EE0312C6
:101BD300083204EF031208320EEF031208321FEF2C
:101BE3000312083265EF03120832A8FF011208320C
:101BF300FAAC0312083224AD0312083240AD0312CB
:101C0300083253AD0312083269AD03120832C6AD70
:101C130003120832F9AD0312083235B20312083247
:101C23005BB3031208328EB303120832DAB3031222
:101C3300083206B5031208322EB50312083243B533
:101C43000312083253B50312083297B50312083250
:101C5300F8B50312083208B603120832DBF7031291
:101C63000832F6F7031208321FF80312083239F864
:101C7300031208325EF8031208327DF803120832A9
:101C830095F803120832C3F803120832DDF8031281
:101C930008320DFE0312083248D8031208324FD817
:101CA300031208325BD9031208328BD903120832AC
:101CB300B1D903120832D4D903120832F6D9031268
:101CC300083230DA0312083296DA03120832CFDA16
:101CD300031208321BDB0312083248DB03120832FB
:101CE30068DB03120832FF7D00120832177E0012F0
:101CF3000832057F00120832E47F00120832D3FE57
:101D03000212083245FF0212083283FF0212083220
:101D1300C4FF02120832F0D0031208320FD10312AB
:101D230008325ED1031208327AD103120832ABD1E2
:101D330003120832BBD103120832C8D1031208328E
:101D4300D5D103120832C1D203120832FFD20312D3
:101D5300083209D30312083219D40312083224D4E7
:101D63000312083236D4031208323FD40312083266
:101D730049D403120832E8BE031208322DC30312FA
:101D830008323BC303120832C3FE031208328DFE2E
:101D9300031208321BFF0312083285FF03120832B5
:101DA300A6D7021208326FD602120832C3D5021226
:101DB300083209D402120832B9D10212083240D1D2
:101DC30002120832E7D00212083277D00212083228
:101DD3004ED0021208322ECE02120832FACD02126F
:101DE3000832C7CD02120832ABCD02120832C4CC7E
:101DF300021208327CCC02120832C7CA021208321D
:101E030047CA0212083244CA0212083241C90212F6
:101E130008320FC9021208324CC80212083277C6C0
:101E23000212083208C602120832C0DF0212083258
:101E3300A4DF0212083228DF02120832DFDE0212A8
:101E4300083297DE02120832DAC502120832D7C509
:101E530002120832C4C502120832E5DD021208324A
:101E63006FC5021208325EC50212083250C4021254
:101E730008321AC40212083257DD0212083243979D
:101E830003120832C8C30212083269C302120832AD
:101E930038C30212083200C002120832C0BF021255
:101EA3000832B4BF0212083214BF0212083254BE01
:101EB30002120832D6BB0212083267B90212083284
:101EC30025B902120832F9B702120832AEB702126C
:101ED3000832EDB60212083230B602120832C6B525
:101EE3000212083200B6021208324ADD0212083228
:101EF3003D8E0300000080FBE4730000000000003F
:101F0300000000000000000000001010101010106E
:101F130000003030000000142850000000000000D2
:101F2300000000000000002828FC284850FC505006
:101F33000000000010385454301814545438100062
:101F430000000044A8A8B0541A2A2A440000000044
:101F53000020505060ACA898927C00000060602084
:101F6300C00000000000000000000004080810107A
:101F73001010101008080400000040201008040886
:101F83001020400000000000001010D63838D61092
:101F930010000000000000101010FE1010100000D0
:101FA300000000000000000000000000606020C08E
:101FB300000000000000FC00000000000000000022
:101FC3000000000000000000606000000002040444
:101FD300040808101020202040000000003048842E
:101FE30084848484483000000000001070101010B6
:101FF3001010107C00000000003844440408102036
:10200300447C00000000003844441804044444386D
:1020130000000000080818284848887C081C0000B5
:102023000000007C40407844044444380000000031
:10203300003C4480B8C48484847800000000007CA1
:102043004448081010101010000000000078848429
:102053004878848484780000000000788484848C29
:10206300740488F00000000000000030300000001D
:1020730030300000000000000000100000000010DD
:102083001020000004081020402010080400000065
:102093000000000000FC0000FC0000000000000045
:1020A300402010080408102040000000000078843D
:1020B3008484081010003030000000000038449A77
:1020C300AAAAAAB4423C0000000000101028282845
:1020D300384444EE0000000000F84444784444448B
:1020E30044F800000000003C448480808080443831
:1020F3000000000000F048444444444448F0000019
:10210300000000FC44404878484044FC00000000C4
:1021130000FC42404878484040E000000000003C9A
:10212300448480808E8444380000000000EE4444E0
:10213300447C444444EE00000000007C1010101066
:102143001010107C00000000007C10101010101004
:10215300101090E0000000EE44485070484844EEF0
:102163000000000000E040404040404044FC0000CC
:10217300000000EE6C6C6C54545454D60000000004
:1021830000EE64645454544C4CE4000000000030EE
:1021930048848484848448300000000000F8444468
:1021A3004478404040E000000000003048848484CC
:1021B30084B448380C00000000F844447850484880
:1021C30044E600000000003C444020180404447826
:1021D3000000000000FE92101010101010380000D4
:1021E300000000EE444444444444443800000000EA
:1021F30000EE44442828282810100000000000D6D0
:10220300545454546C2828280000000000EE44283D
:102213002810282844EE0000000000EE442828106F
:102223001010103800000000007C880810202040A7
:1022330044FC0000001C101010101010101010109F
:102243001C000070101010101010101010107000EF
:1022530000701010101010101010101070000010EB
:102263002800000000000000000000000000000043
:10227300000000000000000000FE00606020C000BD
:1022830000000000000000000000000000003844CF
:102293001C24443E0000000000C0404078444444F5
:1022A300447800000000000000003C4440404438F3
:1022B30000000000000C04043C444444443E00007D
:1022C30000000000000038447C4044380000000057
:1022D300001C2420F82020202078000000000000AB
:1022E30000003C48483040784438000000C040407B
:1022F3005864444444EE00000000001000007010D5
:102303001010107C000000000008000038080808C6
:1023130008080870000000C040405C48507048EC5A
:10232300000000000070101010101010107C00004E
:10233300000000000000F854545454D6000000007C
:1023430000000000D864444444EE00000000000094
:1023530000003844444444380000000000000000FA
:10236300F8444444447840E00000000000003C444A
:102373004444443C040E000000000000EC302020E4
:1023830020F800000000000000003C4430084478BE
:1023930000000000000010107C101010100C000052
:1023A300000000000000CC444444443E0000000010
:1023B30000000000EE442828281000000000000060
:1023C3000000D654545428280000000000000000E8
:1023D300DC48303048EC0000000000000000EE4410
:1023E3002828101020E00000000000007C48101096
:1023F300247C00001010101010101010101010107A
:102403001010000136360101000102010001030131
:10241300000104010606050200000701003408015B
:10242300000F090401010D0100FF0E08000017024F
:102433000000190100FF1A0100011B0100FE1C012D
:1024430000081D0200001F010001200100012102FC
:1024530000002301000F24020000260100012701D0
:102463000008280200FF2A0100072B0102402C016B
:1024730000002D0100012E0100012F0100FF30019A
:102483000B1C310800003A0100083B01000F2F012B
:10249300000001017101010101011101010131017B
:1024A300010101018001100161013B00140063017E
:1024B30073017201620143010001130106013D0131
:1024C30035000401120100010001000100010401B3
:1024D3000401330133013C014401320136000001A0
:1024E3000001650100013500810100010501820140
:1024F30083010001030271023001600211027002C4
:102503000102020202028002100261023A0041004B
:102513006302730272026202430200021302380072
:102523000002000204021202000200020002000282
:1025330004020402370037003C024402000239005F
:102543000002000265020002350281020002050258
:102553008202830200020300710030016000110057
:10256300700031022003500480001000610000005D
:102573001400630073007200620043000000130044
:10258300060000000000040012000000000000002C
:10259300000004000400370037003C024400000040
:1025A300000000000000650000003500810000000D
:1025B3000500000083000000010371030103010310
:1025C30001030103010322030203010310030003B8
:1025D300000300030003000300030003420300039E
:1025E3002403060300030003040312032503230348
:1025F300250323030403040300030003000344032C
:102603000003000323030003650321003503810353
:102613000003050300030003000303047104020421
:10262300600411047004020402040104020410048F
:102633006104000414046304730472046204430415
:102643000004130406040004000404041204000438
:1026530000040004000451046400000400040004A6
:102663004404000400040004000465040004350469
:10267300810464000504000483040004C9EEDBDA6A
:10268300CAD0B0B2C1AAB5C2BFC6BCBCD3C3BBA774
:10269300B5C7C2BCD5CABAC5C3DCC2EBC8B7B6A8F6
:1026A300C8A1CFFBD7A8D2B5D7A8D7A2CEDECFDF9C
:1026B300CDA8D1B6B3CFD0C5C1A2D7E3B4B4D0C2ED
:1026C300D6C2D4B6C7BFB4F3D4ADA3BA00360001A3
:1026D30000060000000F00000000000000000000E2
:1026E30000000003FFFF00000403FFFF0000FFFFE3
:1026F3000FF4010005C4040320000100030B0000D4
:1027030000000000000003010F0000601813002404
:1027130018010060180200EE170300F4170400FA12
:10272300170500001806000C18FFFF000001040E37
:10273300062E0E08280E0B460E10800D020A0E05FB
:102743001C0E07100E0CE60D0DF80DFF000003EA3A
:10275300F5E5D5D5C5B5A595958585757565655596
:1027630055454535352525151505241254122A12CC
:1027730030124E1242123C125A1260126612721238
:1027830036121E12181200160F00000B150B020052
:1027930002220F32000006141326132C13EE1132FB
:1027A30013E811F4117413921398137A1386138098
:1027B30013281122115E116411581110110C0E020D
:1027C3000B040B0A0708000F00383C3E363B3B3531
:1027D3002B432C00011916181616152303000003AA
:1027E3004948424D18172505023030171819213072
:1027F3001B1D1F30303016181920231A1C1E306879
:102803001338133E134A13441348126C128C137873
:10281300127E1202040201010101090234113A116C
:102823002E116A110000000000004011521100BE79
:10283300040A0E0004007F00E8030C0028000000D7
:1028430000000308100C0A03080900040001FF1E1E
:102853001E0C050408100FC082C0838A828B83E09C
:10286300D2E7F012175802390EC082C083790012E2
:102873002D26125C77C082C0839003341249FDD0A9
:1028830083D082C3E09CA3E09D500C12634BFAA358
:10289300E012289D60010902390EFBEA75F00BA4D2
:1028A300FAA8F075F00BEBA428FB900336E02AF8A6
:1028B300A3E03B8882F583E0540F2274F712037A76
:1028C3008908122D26122DCCACF075F00BE9A42C3F
:1028D300F9900336E028FEA3E039FF740165086030
:1028E300067402650870208A828B83122DB8123C0D
:1028F300EE74026508701B122C77122DFF70138E75
:10290300828F83E4F0800BEA2403FCEB122D9A12EE
:102913002DA6EEFAEFFB120B04023C4B74F41203E8
:102923007A126C7279008E828F83E06076890A89CD
:102933000B8065E50A75F00BA4FAA8F075F00BE5BA
:102943000B1228AA7046E50A75F00BA4F8AAF075D5
:10295300F00BE50B122DDE8E828F83E085088285D6
:102963000983122EC0850882850983A3123CEEEEEB
:102973002403FCEF122DA3123ACC1256F1AA08AB92
:1029830009120B047901900334125106E50A24015C
:10299300F50AE50B3400F50B122C7FE50A9AE50BDB
:1029A3009B4090023E9874F512037AEAFEEBFF74A3
:1029B3000B120AD3123AD1750A01EC4D602BEC12BB
:1029C3006C8EED125C77123CE67901120B10E50870
:1029D3004509606F850882850983A3126C7C79029F
:1029E300AA08AB09120B10805AE5084509602B129F
:1029F3005C7B124345123ACD122DE9700CEEFAEFCF
:102A0300FB120B16E9F50A80CBEE2403FA122D21F3
:102A130070317903EEFAEFFB80CA8E828F83A3E0D5
:102A230064FE7003A3E0F4700BEE24030A0A0A1297
:102A33002D21700CEEFAEFFB120B16E9F50A800359
:102A4300750A00A90A7F0302059574F712037A90A9
:102A53000334123C5BEA4B602FEA75F00BA4FAA82F
:102A6300F075F00BEBA428FBEAFEEBFF1215789050
:102A73000336123C5B900336124F4B6012EEFCEFB1
:102A8300FD79001214DC8007900336E4F0A3F00212
:102A93003C4B9003341246B5C3EE98EF9922C082A3
:102AA300C083EC4D6005121D1080097C087D007900
:102AB300001214DC02390E74F612037A7900EA4B21
:102AC300601878008808125FBEEB126347600479D0
:102AD30001780808E8C3940840EA023CF774F71247
:102AE300037A74F31208FBECFEEDFF851882851957
:102AF30083E4F004120AD3EAF0A3EB1254777403CD
:102B0300120AD3AC82AD83EEFAEFFB120B28EEFA76
:102B1300EFFB120B2E023C4674F712037A74F31286
:102B230008FBECFEEDFF851882851983E4F0EAFCCF
:102B3300EBFD7403120AD3122EB97401120AD312D5
:102B43003CE28E828F83123CEE74FE68700374FF46
:102B5300696004790180027900023C4674F712032C
:102B63007AEAFEEBFF122BBD7014122BC88E828FF4
:102B730083E0F4F88A828B83E058F0120B04A908EF
:102B8300023C4B74F712037AEAFEEBFF7508008EE2
:102B9300828F83E06022122BBD701D122BC88A82A4
:102BA3008B83E08F838E82F8E058700CE0F88A8282
:102BB3008B83E048F0120B0480C4120B0AE9F5087A
:102BC3007401650822126C87122DD0122D12FAA3FC
:102BD300E039FB2274F412037A8A088B097C007DA6
:102BE30000122C77122DA6122D37126C79790085DD
:102BF3000882850983A3E064FE7003A3E0F4607197
:102C03007E007F008062EEFAEF12289D6057EEFA95
:102C1300EFFBEA75F00BA4FAA8F075F00BEBA42810
:102C2300FB900336E02AF50AA3E03BF50B85088207
:102C3300850983A31253C5850A82850B83A3E06AA2
:102C43007003A3E06B701EE50A2403FAE50B122D53
:102C530022700AE50A2403FCE50B122DA3122D2B87
:102C63007901125C8D123616122C7FEE9AEF9B407F
:102C730095023E98EA24030A0A0AEB2290033412CF
:102C83005864C32274F312037A8A088B098A828BED
:102C930083A3126C7C122D26126C79750C00122CF6
:102CA30077122D2270547E007F008049122D04FA82
:102CB300A3E0398A82F583E0540F6036122D04F5C0
:102CC3000AA3E039F50BE50A2403FCE50B122DAD4D
:102CD3003400FB121D0AE964017017850A82850B13
:102CE30083A3125925A3123CEE122D2B750C01124E
:102CF3005C8D123616122A9540B2A90C7F05020587
:102D030095EEF8EFF9E875F00BA4F8122D1222AA4C
:102D1300F075F00BE9A42AF9900336E02822EF12AC
:102D23002DF922126C8DEB22122D37125C88EEF0F6
:102D3300A3EFF022E508126C8EE5092274F5120365
:102D43007AEAFEEBFF8E828F83A3126C7C7C007D7C
:102D530000EE24030A0A0AEF122DA6EEFAEFFB1285
:102D63000B0AE9F50A7401650A7029126C87122DA2
:102D7300CCAAF075F00BE9122DDE850882F58312DB
:102D83002DB8122DE9700DE5082403FCE509122D79
:102D93009A122DA6022A463400FDEE2403FAEF22EE
:102DA300122DAD3400FB120B28223400FDE508245C
:102DB30003FAE50922A3122DBD22122DC122E0F848
:102DC300A3E0F98E828F83A322122DD0223400F543
:102DD300831246B9E875F00BA4F822122D18F508F2
:102DE300A3E039F50922E8F0A3E9F0E5082403FAA2
:102DF300E509122DF922122DFF6401223400FB1282
:102E03000B2EE92274F312037A74E61208FB126C98
:102E130072750C01750800750900750A00750B00C1
:102E2300851882851983E4F0EE2403FCEF3400FD5A
:102E33007403120AD3122EB9E964017023740B12BE
:102E43000AD3123CE67401120AD31253C97003A3C6
:102E5300E069605185188285198385820885830915
:102E6300740D120AD3E4122EC0740E120AD3123C4C
:102E7300EE740D120AD3AA82AB83120B4CE96401E0
:102E8300700B740D120AD385820A85830B780A129C
:102E9300084FAC08AD09EEFAEFFB120B1C740212DB
:102EA3000897E9F50CEEFAEFFB120B46A90C741A1E
:102EB300120897022CFF12318C120B5222123C562D
:102EC3001246B522C082C083780079008003122F96
:102ED300B7122C7FE89AE99B5029E8FAE9FBEA75D7
:102EE300F00BA4FAACF075F00BEBA42CFB900336BB
:102EF300E02AFCA3E03B8C82F583E0540F70CF798A
:102F0300008002790102390EC082C0839004F51259
:102F1300470BEC75F012A4FCA8F075F012EDA42891
:102F2300FD79FF7A257B0B1214DC02390E74F7123C
:102F3300037AE9FEEAFF7A007B00780079008028B3
:102F4300E8FCE9FDEC75F012A4FC85F00875F012BD
:102F5300EDA425081233CCC39E400AE0FCEFC39CCA
:102F630040031234EB122FB71233C040D3023C4B51
:102F7300C082C083780079008003122FB7122FAB71
:102F8300501F1233D0F470F2E875F012A4F8AAF0CF
:102F930075F012E9A42AF9742528FA740B39FB8019
:102FA300047A007B0002390E9004F5123481C3E8E1
:102FB3009AE99B22E8240108E93400F92274F0120B
:102FC300037A74F31208FB8A0A8B0B8C0C8D0D8920
:102FD30008EC450D6016AA0CAB0D120BA08A0E8BE4
:102FE3000FAE0EAF0FEE4F600302307E120B768AE8
:102FF3000E8B0FA80EA90FE8FEE9FFE849607C904D
:1030030028431230E0602274036508600674046587
:103013000870167A047903120B709028431230F764
:1030230040077A007B000230DD9028411230E060D7
:103033001B74016508600674026508700F7A0279D3
:1030430001120B709028411230F750D685188285F3
:1030530019837401F0120AD31256F1AC0CAD0D743E
:1030630003120AD3123185740B120AD3123AD912FE
:1030730040CEE41256D91210688004EE4F604A78AD
:103083000074FF2508C39404500278048E828F8352
:103093001256F18E828F83A3A3A3A3E508F0E88ED3
:1030A300828F83A3A3A3A3A31256F9120229123476
:1030B300988E828F83A3A3A3A3A3A3A3F012348F19
:1030C300120AB0125C71120ABC1230E5400590106E
:1030D30081E4F0120F42EEFAEFFB0246BF125813DF
:1030E30049227A047900120B709004F512632DEAD9
:1030F30098EB99221231107583047582F5E493C31A
:1031030098F8A3E49399F9C3EA98EB9922E493F826
:10311300740193F92274F212037A74F31208FB8A8E
:10312300088B09ECFEEDFF750A00EEFAEFFB120BBC
:10313300A08A0C8B0DA80CA90DE849603E888289F2
:1031430083E065087004A3E06509602F88828983A2
:10315300A3A3A3A3E0C394055021125B1F85188288
:103163008519837401F0120AD3125B23EEFCEFFD81
:103173007403120AD3123185750A01A90A740D0268
:1031830051BD12318C120B5E22AA82AB83120B2823
:10319300851882851983AA82AB832274F612037A77
:1031A3001231DA600FA3A3A3A3E014C39404500461
:1031B300790180027900023CF774F612037A123126
:1031C300DA600FA3A3A3A3E014C39402500479010C
:1031D30080027900023CF7120B9A8A828B83E58284
:1031E30045832274F612037A1231DA600BA3A3A388
:1031F300A3E07004790180027900023CF7C082C029
:1032030083EAFCEBFD7A007B0002390BC082C083AA
:103213007C007D0002390B74F412037A74F31208F4
:10322300FBEAFEEBFF8C0A8D0BC3EC94F8ED94FFE5
:103233004007EE4F70030232D37508007509008012
:103243002E8518828519837401F012363E120AD333
:1032530012364C60137403120AD3AC82AD83EEFAB8
:10326300EFFB121D0AE97049E508240112346C9042
:1032730004F5E412581BE50898E509995052E5084E
:1032830075F012A4F8AAF075F012E509A42AF91250
:10329300636060D4EE4F70A974FF650A700474FF15
:1032A300650B60C412362E650A7004A3E0650B70CB
:1032B300B7E50875F012A4F508A8F075F012E50952
:1032C300A428F50974252508FA740B3509FB800435
:1032D3007A007B00023E9374F412037A74F31208AB
:1032E300FB750800120BA08A0A8B0BAE0AAF0BEE1C
:1032F3004F602A8518828519837401123C50F8A304
:10330300E0F9740B120AD3123D71120B407C127D4B
:103313000079FFEEFAEFFB1214DC7508011230E5B9
:1033230050099010817401F0120F42A908023E93D4
:1033330074F712037AE9FE74FE6A700374FF6B7804
:1033430000790070058052122FB71233C0504AE83B
:10335300FCE9FDEC75F012A4FCAFF075F012EDA4DE
:103363002F1233CCF460E0E8FCE9FDEC75F012A415
:10337300FC75F012EDA42FFD74252CF582740B3D22
:10338300F583E06A7003A3E06B70BC80091233D04D
:1033930014C394044017122FB7122FAB5018EE70BA
:1033A300EC1233D064016005E0640370E912361F48
:1033B300FAA3E0FB80047AFE7BFF023C4B9004F50A
:1033C30012470FC3E89CE99D2212352022E8FAE94F
:1033D300FBEA75F012A4FAACF075F012EBA42CFB27
:1033E30074292AF582740B3BF583E022120BB20297
:1033F300390EC082C083790180F274F012037A8A95
:103403000A8B0B7A047901120B708A0C8B0DEA4537
:103413000D603EEAC333FAEB33FB1215788A088B4F
:1034230009AE08AF09EE4F60237AFE7BFF120BB89B
:1034330074FE6A700374FF6B601B850882850983C1
:10344300123C5BE508240212346C80E1750C0080A9
:10345300047E007F00850A82850B83E50CF0EEFA7B
:10346300EFFB0246C4E5082407F508E5093400F537
:1034730009229004F512470FC3EA9CEB9D22E493C3
:10348300FA740193FB221214D0740322125C82E4B7
:10349300F090863522E88E828F83A3A3A3A3A3A3F0
:1034A300A3A31234BA74011234BAA3F0EE24101297
:1034B3005C85E4F0A3F0221240DAA3A3A322C08226
:1034C300C0837A007B008004191234EB12347550E8
:1034D3001012350AC3940550F0E970EC1234F480ED
:1034E300047A007B0002390EEA24010AEB3400FB64
:1034F30022EA75F012A4FA75F012EBA428FB7425E6
:103503002AFA740B3BFB22EAFCEBFDEC75F012A4E8
:10351300FCA8F075F012EDA42812352022FD7429C1
:103523002CF582740B3DF583E02274F712037A7451
:10353300F31208FB7E007F000235D2E50875F01711
:10354300A4F8A9F01265C1FAA3E0FBEEF8EFF9E8DD
:1035530075F012A4F8ACF075F012E9A42C12362D14
:103563006A7003A3E06B603FE50875F017A4F8AA3F
:10357300F0EA1265C0F8A3E0F97401120AD3E06817
:103583007003A3E0696020E50875F017A4F8EAF971
:1035930074A128FC740C39FD7403120AD3AA82ABFC
:1035A30083121D0AE96014E50875F017A4F8A9F061
:1035B300749F28FA740C39FB12107405089028477D
:1035C300E493F8E508C398500302353E123616908B
:1035D30004F51269075039EEF8EFF912361FF4704B
:1035E30003A3E0F460E68518828519837401F0EE85
:1035F300F8EFF9E875F012A4F875F012E9A42AF9C6
:1036030012363E120AD312364C60C175080080ADE3
:10361300023C46EE24010EEF3400FF22E875F0125F
:10362300A4F8AAF075F012E9A42AF912363222742A
:103633002528F582740B39F583E022742728F58257
:10364300740B391246B3740B22E8F0A3E9123D79E7
:10365300120B58E922C082C0839003417416F0A371
:10366300740EF002390E74F712037AEAFEEBFF9040
:103673000377E06408601BE0640460168E828F8326
:10368300E0540364017048123ACC1241C4E064066A
:10369300703D8E828F83A3A3E064FE7003A3E0F4E6
:1036A300602D8E828F83A3A3123CE2900368E068AF
:1036B3007003A3E069700BEE2415F582EF126347E4
:1036C3006008120ED0E9F5088008120ED680F67550
:1036D30008C2EEFAEFFB12157E022B8174F412037B
:1036E3007A8A088B098A828B83E0F8A3E0FAE82AB6
:1036F300FAE43400FB1215788A0A8B0BAE0AAF0B7F
:10370300EE4F6063850882850983E0FC7D007900C4
:103713001214DC8E828F83A3A3126C7C120F128E81
:10372300828F83A3A3A3A3123C5B850882850983AD
:10373300E0F8EE28F8EF3400123CEA8508828509A8
:1037430083A3E0C0E0EE240D125C74D0E0F0120F0E
:1037530024EE240E125C74E9125326E0C0E0EE243A
:1037630011125C74D0E0F0EEFAEFFB023E9874F4B1
:1037730012037A74EB1208FB8A088B098C0A8D0BEF
:10378300E9FE900377E064046005E064087004795F
:10379300C2802EA37808120A94EE90037E12394C4D
:1037A300120A947405120AD3E9F07404120AD3744A
:1037B30001F07407120AD3E4F0900377740212380D
:1037C300A97415023E9574F612037A74EB1208FB82
:1037D300EAFEEBFF124F48600302386D7A077B0065
:1037E300121578900339123C5B124F4860788E8231
:1037F3008F83120AB090033A1241C7120ABC126BAC
:1038030040C0E0123879D0E0F0EE2405FAEF34003E
:10381300FB8A088B098A82F583E0C0E0123874D0F2
:10382300E0123E8FE0C0E0123874A3D0E0123CCF28
:10383300120AB0851882851983120ABC888289838B
:10384300E0C0E07405120AD3D0E0F0850882850950
:1038530083E0C0E07404120AD3D0E0F07407120AC4
:10386300D31238A880067910800279017415023CBE
:10387300F4123879A322900339E0FAA3E0F5838A9E
:1038830082A3A3A3A322C082C083124F48600D90DA
:103893000339125852900339E4F0A3F0120E401288
:1038A300101402390EE4123D79121D4022C082C069
:1038B30083900338E0700312181E120BFA804CC079
:1038C30082C083900338E09010807004E4F0802D70
:1038D3007401F0900338E0F460237C41E0C3944129
:1038E3005002E0FCECF8E0C398F0EC75F0E8A4CCEF
:1038F300A8F075F003A428FD7A801247177A807B1D
:10390300107941121D288003120BA6D083D08202A6
:10391300082F74F412037A74EB1208FB8A088B09DC
:103923008C0A8D0B900377740112394C120A94742C
:1039330005120AD3E9F07404120AD37403F074076E
:10394300120AD31238A80237C4123CDA7808227458
:10395300F712037A7C01120C0C023C4B74F2120333
:103963007A74FC1208FBE9851882851983F0EAFE54
:10397300EBFF8C0A9003751249FD120E348A088BF3
:1039830009EA4509700579CA023AC78A828B83A37B
:10399300A3A3A3A3A3A3E064FE7003A3E0F47005B1
:1039A30079C3023AC79003751253C512107A85087A
:1039B30082850983A3A3A3A3A3A3A3A3A3A3E0042F
:1039C300900388123C2A7402120AD37402F0141270
:1039D3000AD3AA82AB83120F7E8A0C8B0DAE0CAF77
:1039E3000DEE4F7003023ABE123ACC1243397406FD
:1039F300F0A3A882A98390036212588F124692F013
:103A0300EE2413125C7474011256D17440F0A3E4D3
:103A130012531FA3A3123AD9123CEEEE2411125CE7
:103A230074E50AF0EEFAEFFB120BD6E9FE6003022F
:103A33003AC09003777409F0123468AA08FB794BF3
:103A4300121D28850882850983123C1C123CEE90C6
:103A5300036AE0F8851882851983E068600CE090BA
:103A6300036A123D7579E1121D289010C9123CE2D8
:103A73009010CBE0687003A3E069601A90033B12D7
:103A83003CEE9010CB1253C5120F3C9010CB124951
:103A9300FD7A011247177A007B049003C2E0F91202
:103AA30016389010CB123AD1740278081209FFAC81
:103AB30008AD09FA7B0412471980027E1090054F66
:103AC300E4F0EEF974040251BDEE125C8322E0F5DA
:103AD30008A3E0F50922123ADD22122DC1A32274B4
:103AE300F512037A74E21208FB851882851983ECB8
:103AF300F0A3EDF0EAFEEBFF89087429120AD3E084
:103B0300F509742C120AD3E0F50A900377E06404F4
:103B13006005E06408700579C2023C14742A120A35
:103B2300D3E064FE7003A3E0F4700579C3023C1490
:103B33009003777403123D757950121D28742A126D
:103B43000AD3AA82AB83794B121D28851882851963
:103B530083123C23123CEEE50890036AF0742A12A8
:103B63000AD3123C1C123CEEE509900362123C2A74
:103B730074CE55094480C0E07412120AD3D0E0F029
:103B83007401250A900388F0740F120AD37402F0AB
:103B9300742A120AD3123CE27407120AD3E8F0A380
:103BA300E9123C617410120AD3123CEE7405120A36
:103BB300D3E508F0741B120AD3E4F090037D740F6D
:103BC300F07A7D7B037954121D2890037C740FF0E7
:103BD3007A7C7B037947121D2890037CE0C3940F02
:103BE30050237405120AD3E0C0E07402120AD3D042
:103BF300E0F07404120AD37401F004120AD3AA8207
:103C0300AB83121D4C7405120AD3AA82AB83121D17
:103C13002E741E120897022A481246B590036B228F
:103C23001246B590037522F0EEFCEFFD7A897B0313
:103C3300121D102274F712037AEB90037FF0120E19
:103C4300228005740D1208977F01020595123C56D8
:103C5300A3E022123CCFA322EAF0A3EBF022123C12
:103C6300D5F8A3E0F92274F712037A74F81208FB6B
:103C7300EAFEEBFF7900900377E06408704485184F
:103C83008285198374FDF0A374FFF0120F0C740284
:103C9300120AD3123C5B7405120AD3E4123C56E0B9
:103CA300C0E07404120AD3D0E0123CCAC0E0740628
:103CB300120AD3D0E0F07407120AD3E4123D75124E
:103CC3000F607408023C48123CCFE022F08E828FD2
:103CD3008322123CDAE022F08518828519832212AE
:103CE30046B522E0F8A3E0F9125C82E8F0A3E9F01C
:103CF300221208977F02020595C082C08390034970
:103D030074C6F0A3740CF09003EF74BAF0A3740FAD
:103D1300F090034D74FCF0A3740CF090034F74C641
:103D2300F0A3740CF09003517402F0A3740DF0022D
:103D3300390E74F412037A74F91208FB8A088B099A
:103D43008C0A8D0B8518828519837808120A94745E
:103D530004120AD3E9F07405120AD3E4F0740612CC
:103D63000AD3E4123D75120BE87407023E95E8F09E
:103D7300A3E9123D7922123CDAAA82AB832274F4BE
:103D830012037A8A088B098A828B83125C90EE4F26
:103D93007003023E8D900312124F4B60158A828B83
:103DA30083A3A3E0F9EEFAEFFB9003131241C712CA
:103DB3001EFB8E828F83A3A3A3A3A3A3A3A3A3E02A
:103DC300640270748E828F83A3A3A3A3A3A3E0547E
:103DD300027003023E5F850882850983A3A3E06422
:103DE300E960798E828F83A3A3A3A3A3A3A3A3A331
:103DF300A3E070149010DEE0048E828F83A3A3A34C
:103E0300A3A3A3A3A3A3A3F08E828F83A3A3A3A39C
:103E1300A3A3A3A3A3A3E014123E8FA3A3A3740499
:103E2300F09010DF1256CBE8F0A3E91267A48B0BD6
:103E3300EA450B70031261828E828F83A3A3A3A32F
:103E4300A3A3A3A3A3E0640260128E828F83A3A320
:103E5300A3A3A3A3A3A3A3E06406702E8E828F83E0
:103E6300A3A3A3A3A3A3E0A2E0501F85088285090F
:103E730083A3A3E0F9EEFAEFFB121DE28E828F8398
:103E8300A3A3A3A3A3A3E054FEF080091240D62268
:103E9300740D1208977F0402059574EC12037A746B
:103EA300DD1208FBEAFEEBFF8C088D097437120A5A
:103EB300D3780C120A76750A007405120AD3AC8201
:103EC300AD8312149A7412120AD3E0700874151297
:103ED3000AD3E060207405120AD3E0A2E6501E8ED6
:103EE300828F83A3A3A3A3A3A3A3A3A31253C51244
:103EF3000F96E960087903121CF80240BC7405129E
:103F03000AD3E0540C64047005750B018003750B30
:103F130000E0A2E55035750A01E50BA2E0402C1242
:103F23000F128A108B11A810A911123ACCE06870F5
:103F330003A3E06960157405120AD3126C8312534C
:103F4300C1121DEEE96004790480AC7405120AD332
:103F5300E0A2E650227406120AD3E05403701874E8
:103F630005120AD3E0540C640C600CE0540C640892
:103F7300600575100180037510007405120AD3E003
:103F83005403F8740268700C126C831253C1120A42
:103F9300F20240BC740168703AE510A2E0500312CB
:103FA30040C47405120AD3A882A9837403120AD3E6
:103FB300E8F0A3E91246A98518828519831240CE39
:103FC300E0C0E07402120AD3D0E0123D75121ED293
:103FD3000240BCE860030240BC90035FE0640170F0
:103FE300108E828F83A3A3A3A3A3A3E07003023F36
:103FF3004A7422120AD374021246A9741A120AD3FB
:10400300123CEEE510A2E050087405120AD31240E8
:10401300C4E50BA2E0506AEE240FF582EF1263476A
:10402300C0E07417120AD3D0E0F0900314124F4B80
:1040330070030240BC120F128A128B13A812A91329
:10404300741A120AD3E0687003A3E069706B780CEA
:10405300120847780A120853780812084FA91074F7
:104063000C120AD3AC82AD837421120AD3AA82AB99
:10407300839003141241C4121EFB74071208978025
:1040830038780C120847780A120853780812084F38
:10409300900375120695EE2412F582EF1260757483
:1040A30023120AD3AC82AD83740E120AD3AA82AB55
:1040B30083121DD674091208977423120897026796
:1040C3006F126C83125860120AE622E8F0A3E91219
:1040D30040D6221240DA22F08E828F83A3A3A3A3B9
:1040E300A3A32274F712037A121710023C4B74F73E
:1040F30012037A121722023C4BC082C08312171C90
:1041030002390E74F712037A121728023C4B74F724
:1041130012037A7409120AD3E0F5087808120853D7
:104123001217347401023C48C082C0831217400244
:10413300390EC082C08312174602390E74F7120378
:104143007A12174C023C4B74F712037AEAFEEBFF28
:1041530089087401650870147900120D3E90285285
:10416300E493FC7900EEFAEFFB120CB4023C4B74BF
:10417300F412037A74F91208FBE9FE8A088B098C9E
:104183000A8D0B7413120AD31253C590059B124F59
:104193004B6027EE851882851983F07401120AD3C8
:1041A3007808120A94EAF8EBF97405120AD3123D5F
:1041B3007190059B1241C4121EFB023D6CFB9003E0
:1041C3004BE0F8A3E0F58388822274F712037A9018
:1041D3001083E0F97E00800B126333540D64017089
:1041E30001190E1243C75003E970ED023C4B74F7FB
:1041F30012037A901084E0F97E00800B126333542B
:104203008D64817001190E1243C75003E970ED02EA
:104213003C4B74F212037A890BE975F006A4240C63
:10422300F508E5F01234708A0CE508250CFAE50967
:104233003400FB1215788A0C8B0DAE0CAF0DEE4FCC
:104243006027AC08AD0979001214DC123ACCE50BF7
:10425300F0EE2508F8EF3509F98E828F83A3A3A327
:10426300A3A3A3A3A3A3123CEEEEFAEFFB0251C058
:1042730074F612037AEAFEEBFF120C90901082E0C0
:10428300F8E9C39840099003451253C5120C96EE02
:104293002402F8EF1259D590034712588F90034721
:1042A300E004F0EEFAEFFB120C9C8508828509838B
:1042B300E0025E8BC082C0837900900345800109D0
:1042C3001253C58A828B83E582458370F202390ECD
:1042D30074F712037AEAFEEBFFEE4F605690034544
:1042E300124F4B604E888289837A007B00EE658291
:1042F3007003EF6583600FAA82AB83124339E582B3
:104303004583602F80E7900345124345687002EFB1
:10431300698E828F837008123CE2900345800312FA
:104323006781123CEEEEFAEFFB121EA2EEFAEFFBF0
:1043330012157E023C4B12433D221246B9888289F4
:1043430083221246B5EE22C082C0839003458004C7
:1043530088828983124F4B600B888289831249FDBF
:10436300EC4D70EC8A828B83E4F0A3F0E84960069D
:10437300888289838003900345123C5B02390E7463
:10438300F712037A90034580048A828B831243C217
:104393004B60257E0080010E1243C750ECEE75F092
:1043A30006A4FCADF0EA2CFCEB3DFDEC2410F582F9
:1043B300ED12441770E180047A007B00023C4B123B
:1043C3005864EA22124420EEC3982274F712037A47
:1043D3007D0080010D12441CEDC3985034ED75F03F
:1043E30006A4FEA8F0E8FFEA2EFEEB3FFFEE241042
:1043F300F582EF12441770DCED75F006A4FEE8FFBA
:10440300EA2EFAEB3FFBEA2411F582EB1263474CE9
:10441300F0023C4B126353692212442022126C8D2A
:10442300EB3400F583E0F82274F612037A120DB62A
:104433007A007B008025EAF8EBF9E875F006A4F82A
:10444300ACF075F006E9A42C125839126B4EA3E4B4
:1044530012592FF0A3126B54126CCB90283D1230DB
:10446300EF40D37A007B00801C8A088B09740378A1
:10447300081209FF1252EDA374FEF0A30412570FA2
:10448300A3E4126CCB9028461244CA40DC7A007B2A
:1044930000801D8A088B09740378081209FF74C70A
:1044A300125FBF740F12680674FEF0A304126CCB84
:1044B30090284C1244CA40DB902850E49390035355
:1044C300F01244D4023CF7E493F8C3EA98EB940067
:1044D300227CE87D037A107B009003C2E0F9121678
:1044E300322274F012037A74F51208FB8A088B09DE
:1044F300890A8C0BE9A2E050147508FC7509FFA228
:10450300E15005D2E40245A7D2E30245A71251AC1C
:104513007003A3E06970057900024674AC0A79025E
:10452300AA08AB09120D92E960EDE50AF50C780CC7
:1045330012085379027CFE7DFFAA08AB09124F27AC
:10454300120897E96003024672E50AC2E5F50A908C
:1045530003B5E07051E50AA2E6404B7403120AD397
:10456300AC82AD83AA08AB09120B34E9703212484E
:10457300488A0C8B0DA80CA90DE8FEE9FFE84960F9
:1045830025EE24020A0AEF122DFF601AEE2402FC24
:10459300EF3400FD7403120AD3AA82AB83121D10F9
:1045A300E50AD2E5F50A900348E0F50C900368E0CC
:1045B300F50EA3E0F50F780E12084F7D017C0090F5
:1045C3000348E0F9AA0EAB0F120D4A7402120897C2
:1045D300E9F8900348E004F0E86003024672E50A54
:1045E300A2E55004740E80027406C0E07401120A3E
:1045F300D3D0E0125CA18A0E8B0FAE0EAF0FEE4F3D
:1046030060691246921246A9888289837401F07404
:1046130078550AA3126C93E50C126C93A3E508F08A
:10462300E509124681E4F0E50AA2E5500F7403128E
:104633000AD3AC82AD83E824061246788E828F8338
:10464300A3A374FDF0A374FFF0E50B60159028534A
:10465300E493F8E50BC3985009EE2413125C74E558
:104663000BF0EEFAEFFB120BD6800679108002797D
:10467300C7740B8049FAE93400FB121D10228882AB
:104683008983A3A3A3A312468D22125A08A322EE61
:104693002417125C857401F0120F0CEE241A125CBD
:1046A30085EAF0A3EB22F0126C8734001246B322A2
:1046B300F5831246B922E0F8A3E0F922740D12083B
:1046C300977F0802059574F612037A7A007B10121D
:1046D300618F60089003D47401F0802990063AE05A
:1046E30064019010DC7006E0FC79018004E0FC7941
:1046F300037A007B00120CB490283B12470B7A001C
:104703007B10124719023CF712470F22E493FC7403
:104713000193FD227B009003C2E0F912162C227450
:10472300EC12037A8A088B098C0C8D0D890E741494
:10473300120AD31251067416120AD3E0F510A3E03D
:10474300F511120F96E960077AFF7BFF0248459047
:1047530010DBE0640260030248387900AA08AB0961
:10476300120D98A90E120D8C8A128B13AE12AF1371
:10477300EE4F70030248208E828F83A3A3A3A3A3CB
:10478300E064018E828F83A3A370691253C58E8266
:104793008F83A3A3A3A3A3A3E0541860439028513A
:1047A300E4938E828F83A3A3A3A3F0EA650C700323
:1047B300EB650D6014EA650A7003EB650B600AEAAA
:1047C30065107003EB6511701F781012084FAC0A67
:1047D300AD0BAA0CAB0D121092740212089780084D
:1047E300900367126179A3F074FE6A700374FF6B20
:1047F300601D804EA3A3A3E0640360298E828F8390
:10480300A3A3A3A3A3E0640470057AFE02474D8E1D
:10481300828F83A3A3A3A3A3E0640270089003B4CD
:10482300E0640270101248488B0BEA450B6006AA3D
:1048330008AB09800DAA08AB099003491241C412C1
:104843001EFB02676F900375124F2D1210562274D0
:10485300F712037AEAFEEBFF120B88E9700AEEFA0D
:10486300EFFB120B94E96006EEFAEFFB80047AFE8D
:104873007BFF023C4B74F012037A8A0A8B0B8C0E7B
:104883008D0F8909750800120F96E97900600302FC
:1048930049EFAA0AAB0B120D98A909120D8C8A0CC9
:1048A3008B0DAE0CAF0DEE4F60198E828F83A3A3D9
:1048B300A3A3A3E0640270559003B4E06402700301
:1048C3000249EDAA0AAB0B90034F1241C4121EFB1F
:1048D300120B9A8A0C8B0DA80CA90DE849700302E0
:1048E30049ED88828983A3A3A3A3A3E0A2E04003A5
:1048F3000249ED750C01A2E150687901AC0AAD0BD8
:10490300AA0EAB0F120CE4E970640249ED8E828F9C
:1049130083A3A3A3A3A3E064037005750C028052D1
:104923008E828F83A3A3A3A3A3E064016003024940
:10493300ED9003751249FD8E828F83124D528A0CBE
:104943008B0DA80CA90DE84960D190284AE493FA8D
:1049530088828983E0C39A50C2A3E060030249EDD1
:1049630080B988828983A3A3A3A3A3D2E1F0EE4FE6
:10497300603A8E828F83A3A3A3A3A3A3E0541860FA
:104983002B7508018E828F83A3A3120695750CFEE7
:10499300750DFF780C12084F7900AC0AAD0BAA0E07
:1049A300AB0F120DAA7404120897803E900368E0BF
:1049B300650E7004A3E0650F7014902852E493FC15
:1049C300A909AA0AAB0B120CB4750801801CA90C27
:1049D300AC0AAD0BAA0EAB0F120CE4E9700C750810
:1049E30001A909AA0AAB0B120D3EA9080246C4E5A8
:1049F3000C2415F582E50D125C881256E52274EA43
:104A030012037A74F01208FB8A0C8B0D8C088D0943
:104A13007426120AD3E0F514A3E0F5157512069077
:104A230003F5124F4B60239003751249FDAA08AB9F
:104A3300091210808A108B11EA4511600D8A828B4E
:104A430083A3E070057900024D3AE50C241DF50EB1
:104A5300E50D3400F50F850E82124F37F51388826A
:104A63008983A3A3A3E0FA88828983A3A3A3A3E0F2
:104A7300F9EA2400FEE439FFAA08AB09120D4485C4
:104A83000E82850F83124D75E029F50BE50AA2E529
:104A9300500375120E7487550A70177418550A64FB
:104AA30018600FE50C2417F582E50D1263476512B4
:104AB30060077901121CF8808C530A78C3EE94F8CE
:104AC300EF94FF501D7900EEFAEFFB124D44601294
:104AD30088828983A3A3A3A3A3A3E054186003023A
:104AE3004A48780812084F7D00124D68120897E96A
:104AF300F87403687003024A48E86003024BB37416
:104B030018550A7003024C68E50AD2E0F50AA2E4DC
:104B13005004D2E1F50AA90A1253BE124D44605360
:104B230088828983A3A3A3A3A3A3E0541860448822
:104B3300828983A3A3A3A3A3E064017036E5104590
:104B43001160309003751249FD88828983124D529A
:104B53008A0E8B0FA80EA90FE849601788828983F4
:104B6300A3E0600F851082851183A3125E96500324
:104B7300024A48E50AF50E780E120853124D5B12ED
:104B83000897E9702B7C007D00851482851583745A
:104B9300FFF0A3F0850C82850D83A3A3A3A3A3A396
:104BA300A3A3E060031249F2A90B1253BE12173AF2
:104BB300851482851583E0F47003A3E0F4603990D3
:104BC30003B4E064027003024A481250F7E0FAA308
:104BD300E01241C0121EFBEA65087003EB65096031
:104BE30003024A48EEFAEF1241C0121EFB851482FB
:104BF300851583EAF0A3EBF0780812084F7D0112C4
:104C03004D68120897A90AEEFAEFFB120D988A086D
:104C13008B09A808A909900368E0687003A3E069F9
:104C23006003024D2BEEFAEFFB120B9A8A088B09F5
:104C3300A808A909E849606E88828983A3A3A3A36E
:104C4300E06401600D88828983A3A3A3A3E06402C7
:104C53007054851882851983AC82AD83EEFAEFFB1D
:104C6300120B348055900361E0600FE50AF50E786E
:104C73000E120853124D5B120897E50AF50E780ED3
:104C830012085379027CFE7DFFEEFAEFFB124F27E9
:104C9300120897E96003024BB38514828515837468
:104CA300FFF0A3024BFA120F0CEAFCEBFD8518820E
:104CB300851983AA82AB83121D10850C82850D830F
:104CC300A3A3A3A3A3A3A3A3E06401700F1249F2B8
:104CD3007408120AD3AA82AB83121D10124F011259
:104CE3005B0D4430F50878081208537401120AD397
:104CF300858208858309780812084F740B120AD33A
:104D0300858208858309780812084FE513F508782A
:104D1300081208537900EEFCEFFD1253BE120CDEAD
:104D23007406120897024A48124F01125C77124D1B
:104D330075E50BF0120F2474101208977F0E02050D
:104D430095120D8C8A0E8B0FA80EA90FE84922A38A
:104D5300A3125864121080227901AC08AD091258CD
:104D630059124F2722AC0BA913125859120D4A742A
:104D73000222125B15A3A3A3A32274F012037A7475
:104D8300F01208FB8A0C8B0DECFAEDFB750F089003
:104D930003F5124F4B6014125E8F8A828B83E58278
:104DA30045836007A3E07003024EFC124F013400F9
:104DB300124F37F50B88828983124F0AE0FBEC24EC
:104DC30000FEE43BFF88828983A3A3124F0AA3A3B7
:104DD300E0FBECF508E43BF50988828983A3A3A3F0
:104DE300A3A3A3A3E0F50EE50AA2E45003750F10F5
:104DF300A2E550067408250FF50F748F550A700F3E
:104E0300E50C2417F582E50D126347650F600879F9
:104E130001121CF8024EFC530A707800E50AA2E462
:104E23005022124F011263472408FCA3E03400FD13
:104E33007408120AD3AA82AB83121D107808E50AFC
:104E4300C2E4F50AE50AA2E55028124F01126347AE
:104E530028F8A3E03400F9E82408FCE93400FD85D0
:104E63001882851983AA82AB83121D10E50AC2E555
:104E7300F50AAC0EA90BEEFAEFFB120D50E9F8742C
:104E830003686075900368E06E7003A3E06F605E73
:104E9300E87054E50AF50F780F120853124F1812F1
:104EA3000897E97054780A1208537401120AD385DB
:104EB300820C85830D780C12084F740B120AD3856C
:104EC300820C85830D780C12084FE50BF50A780ADE
:104ED300120853A90EAC08AD09EEFAEFFB120CDE73
:104EE30074061208978012740468700D80B7780AEC
:104EF300120853124F1812089774100246C1E50C9A
:104F0300241DF582E50D22A3A3A3E0FC88828983F7
:104F1300A3A3A3A32279011250FE125C88124F2D82
:104F2300124F2722120D08740122E0FCA3E0FDAA10
:104F330008AB0922F58312433DA3E0F50A88828971
:104F430083A3A3E0229003391258C02274E812030A
:104F53007A74F51208FBEAFEEBFF8C088D098914BD
:104F63007423120AD3E0F50F7424120AD3E0F51266
:104F7300A3E0F5137426120AD3E0F516A3E0F517A0
:104F83007428120AD3E0F50EA90F120D568A108B5E
:104F9300117401120AD37408F0E50EA2E4500374ED
:104FA30010F0E50EA2E55004E02408F08518828590
:104FB3001983AA82AB83120F7E8A0C8B0DEA450DEF
:104FC30070030250DEEA2417F582EB1250F0120F41
:104FD3000CE50C241AF582E50D125C77123C5B7428
:104FE30003120AD3AC82AD83AA10AB11120B34E9BE
:104FF300601D1250E87403120AD3A882A983E50C3A
:105003002418F582E50D125C77E8F0A3E98024E526
:105013000EA2E4501FE5106E7003E5116F701512B8
:1050230050E8E50C2418F582E50D125C77E512F0E3
:10503300A3E513F01250F7125106850A82F5837423
:1050430002F0A3E50E12510EE50FF0EE850A8285FC
:105053000B83A3A3A3F0EF850A82850B83A3A3A3EA
:10506300A312510EA3A3A3E508F0E509850A8285DF
:105073000B83A3A3A3A3A3A3F0AA10AB11120D4404
:10508300E92514850A82850B83A3A3A3A3A3A3A362
:10509300F0750800E50EA2E45011AC12AD13E50A59
:1050A3002408FAE50B12467A750808E50EA2E550C6
:1050B30014AC16AD17E50A2508F8E50B3400F9E83A
:1050C3002408124678850C82850D83A3A3E510F08E
:1050D300A3E511F0AA0CAB0D120BD6740B120897B3
:1050E3007F10020595E50C2416F582E50D125C8808
:1050F3007401F0221250FE125C8822E50C126C8EB1
:10510300E50D22E0F50AA3E0F50B22F0850A82857E
:105113000B83A3A32274F212037A8A088B09ECFE91
:10512300EDFF890A79001251AC7003A3E0697004A2
:1051330079018073750B01900368E065087004A31F
:10514300E06509601F750B00780B120853A90AEE7E
:10515300FCEFFDAA08AB09120FD27401120897E9FC
:10516300F50B80417900EEFAEFFB120D8CEA4B60F0
:105173002B8A828B83A3A3A3A3A3A3E05418601C4D
:105183007508FE7509FF780812084F8A828B83A37E
:10519300A3120695126AA312089780097901EEFA01
:1051A300EFFB120C6CA90B8014120D988A0C8B0D5B
:1051B300A80CA90D900368E068221208977F0602E5
:1051C300059574F412037A75080F75090E7A101297
:1051D30067AB8B0BEA450B70031244D4900353E087
:1051E30014F0700C902850E493900353F0120DA424
:1051F3007E007F00806C850882850983A3A3A3A317
:10520300E06059F46056E5082404F582E50912616B
:10521300737049850882850983A3A3A3A3A3E064CC
:1052230003701979028508828509831249FD85086F
:1052330082850983A3A31253C5120CE485088285D2
:105243000983A3A3A3A3A3E0640160108508828557
:10525300098374FEF0A30412531FE4F012361612EE
:10526300346890283F126907408C7E007F008039A4
:10527300120EB28E088F09740378081209FF74871F
:105283002508FC740F3509FD7AF07B0C120EA0EA99
:105293004B70DD8E088F09740378081209FF1252D0
:1052A300ED126B4EE4F0123616902846E493F8C3E1
:1052B300EE98EF9400501B8E088F09740378081240
:1052C30009FF1252F5E82407F582E912617370D6DB
:1052D30080A17E007F00800A125300600214F01246
:1052E300361612690440F1023E981252F5888289FB
:1052F300832274872508F8740F3509F922EEF8EF35
:10530300F9E875F006A4F8AAF075F006E9A42AF9FD
:10531300742728F582740F39F583E022125326A3EC
:10532300A3A322F0850882850983A3A32274F7121D
:10533300037A74E11208FBECFEEDFF750800EE4FF3
:1053430060728A828B83E0241C1261A4124F4B602B
:10535300638A828B831253C5851882851983AC8235
:10536300AD83EA241BF582EB126075EA241CF582F7
:10537300EB1253C1120EF4740B120AD31253C970F9
:1053830003A3E069702E7402120AD3E0640170244F
:10539300741D120AD31241C4E064017017741D1204
:1053A3000AD31241C6A3A3E0F88E828F83E068700C
:1053B30003750801A908741F023C481250FE34000B
:1053C300F58312586422122DBDE0682274F412038F
:1053D3007AE97024790090034D1241C4121EFB8AAE
:1053E3000A8B0BAE0AAF0B74FE6E700374FF6F7003
:1053F3001A90284DE4936013790190034D1241C430
:10540300121EFB8A0A8B0BAE0AAF0B120F42023736
:105413006A74F612037A74F31208FB1214EE8A0804
:105423008B09AE08AF09900368E06E7003A3E06FC9
:1054330060E9120F18EA6E7002EB6F60DEEEFAEFAE
:10544300FB120F96E970D4EE4F60D0851882851950
:1054530083E4F004120AD3EEF0A3EF125477E97059
:10546300BA74FE6E700374FF6F60B0EEFAEFFB74F4
:105473000D023CF4123D79120B4C22C082C0831200
:105483000F4202390E7F0A02059574F212037AEA7B
:10549300FEEBFF8C0A8D0B8908740E120AD3E0F51C
:1054A3000974FC6E700374FF6F700579000251C0BC
:1054B3007900120D988A0C8B0DAE0CAF0D9003681A
:1054C300E06E7003A3E06F7006E509A2E650DCA965
:1054D30009126991706179007AFE7BFF12699170FC
:1054E300567418550970030255C478007900800377
:1054F300122FB790283F122FAE40030255C4E8FA8B
:10550300E9FBEA75F007A4FAACF075F007EBA42CFD
:10551300FB74152AF582740E3BF583E0541870D0A2
:10552300E875F007A4F8AAF075F007E9A42AF9745E
:105533000F28F8740E39F988828983A3A3A3A3A340
:10554300A3E0541860097418550970030254AE8817
:10555300828983EEF0A3EFF074FE650A700474FF92
:10556300650B60031256EB88828983A3A3A3A3A3CD
:10557300A3E509F0A2E0500D88828983A3A3A3A326
:10558300A3A3D2E2F07401650888828983A3A3A34D
:10559300A3A37038740112570FE0541860289028A1
:1055A30051E49388828983A3A3A3A31256D912102B
:1055B300808B0DEA450D60030254AE7800790080BC
:1055C3003979020254B0900367E080D7E064017038
:1055D300030254AE88828983A3A3A3A3A3A3E054A5
:1055E300186007902851E4938004900366E0124604
:1055F30081E508F00254AE122FB7902847E493FADE
:10560300C3E89AE9940040030254AE7A007B008019
:105613004BEAFCEBFDEC75F007A4FCAEF075F0076C
:10562300EDA42EFD74112CF582740E3DF583125CEE
:1056330090E8FCE9FDEC75F017A4FC85F00975F022
:1056430017EDA42509FD749F2CF582740C3DF58399
:10565300E06E7003A3E06F609E1234EB90283F125C
:10566300347840AD12470BEC6A7002ED6B7088E83A
:1056730075F017A4F8AAF075F017E9A42AF9749F36
:1056830028FE740C39FF7C177D007900EEFAEFFBDE
:105693001214DC8E828F831256F19003751256CB4F
:1056A300A3A3A3A3A3A3E8F0A3E91256D17401F023
:1056B300EE240E125C7474011256F9120229EE24C0
:1056C3000D125C74E80255F6123ADDA3A322F0EE44
:1056D300240F125C8522F01256E2AA0AAB0B229029
:1056E3000375E0FCA3E0FD2288828983A3A3E50A76
:1056F300F0A3E50BF022F01256FE2290284AE49321
:105703002401F8E43400F97A027B002212468DA3C7
:105713002274ED12037A8A088B09890E12584240CB
:10572300057905025810121782AA08AB09125914F9
:1057330090283D125813650A7003E9650B70077AC8
:10574300FE7BFF12591490283DE412581BE50A987A
:10575300E50B99400302580E12581F6012E50A75B3
:10576300F006A4F875F006E50B12586A12157EE5EB
:105773000E6018E50A75F006A4F8AAF075F006E5C0
:105783000B125896701A7901025810E50A75F00643
:10579300A4F8AAF075F006E50B125877E4F0A3F02D
:1057A300E50A75F006A4F8AAF075F006E50B1258A1
:1057B30037A3125B2388828983A3AA82AB831258FF
:1057C300858A828B83E0603F12581F603A8E108F68
:1057D30011751200781012084BE50EC333FCE43345
:1057E300FDE50A75F006A4F50AA8F075F006E50BC9
:1057F300A428F50B742B250AF582740F350B12536D
:10580300C31234891208977900800279070269A7C5
:10581300123110E8229004F512632E22E50A75F086
:1058230006A4F8AAF075F006E50B125872F8A3E087
:10583300F9E84922A42A1259CB88828983A322EC4E
:10584300FEEDFF902848E493F8E9C39822F583120C
:10585300586412157E22E50C126C8EE50D3400F5AA
:1058630083E0FAA3E0FB22125872FAA3E0FB2212B0
:105873005877E022A42AF9742B28F582740F39F59E
:105883008322E50EF09010DD12588F22E088828982
:1058930083F0221259EFF50CE93400F50DE50EC340
:1058A30033FAE433FB121578850C82850D83EAF015
:1058B300A3EBF0850C82850D831258C0221246B9E2
:1058C300E8492274F412037AECFEEDFF740C120A19
:1058D300D3123CE288088909125914AC0AAD0BECC7
:1058E300F8EDF990283D12591C5021E875F006A4F3
:1058F300F8AAF075F006E9125837E08E828F83120A
:10590300592F125925123CEE790080027904023E88
:1059130098120D1A8A0A8B0B22123481C3EC9AED6A
:105923009B221246B585088285098322125A0422D6
:1059330074F612037A7E007F008028EEF8EFF9E810
:1059430075F006A4F8ACF075F006E9A42CF97429F7
:1059530028F582740F1265B26A7003A3E06B605777
:1059630012361612690440D31268FF7002E96F7091
:105973004674FE6A700374FF6B703C7E007F008088
:1059830003123616126904502E12530070F3EEF808
:10599300EFF9E875F006A4F81259C11259F6601729
:1059A3001259DDF8E91259D58882125850850882B8
:1059B300850983E4F0A3F0EEFAEFFB023CF775F000
:1059C30006E91259C922A42AF9742728F8740F3951
:1059D300F9223400F98808890922EEF8EFF9E8750D
:1059E300F006A4F875F006E91259EF221259C9E836
:1059F300240422A3A374FE125A011258C022F0A356
:105A030004125A0822F088828983A3A3A3A32274D1
:105A1300F612037AEA241DF582EB125B0DF9604B53
:105A2300EA241DF582EB1263472402FCA3E0340051
:105A3300FD1258464003025B00780080298C828D5A
:105A430083E0F508A3E0FFE5082400E43FF509E857
:105A530033FEE433FF746F2EF582740F3FF5831228
:105A63005B23125B0308E8C39940D28A828B83A32A
:105A7300A3A3A3A3A3A3A3A31249FD900368E06C6C
:105A83007003A3E06D700F7C6F7D0F122D261253F0
:105A9300C1120D0E8067EA2411F582EB1263476091
:105AA3005CFC74FF2CF07508017808120853750824
:105AB3006F75090F780812084FE9F508780812087E
:105AC30053EA2412F582EB126347F50878081208AB
:105AD30053EA2415F582EB125C77120695ECF91262
:105AE3002D261249FA8A828B83A3A3A3A3A3A3A37C
:105AF300A3A31253C5120D267407120897023CF78D
:105B0300EC24020C0CED3400FD22125C88125B15B0
:105B1300E022E0F8A3E0F5838882A32288828983C8
:105B2300E508F0A3E509F02274EA12037A74FD1282
