:020000040000FA
:06000000020A660201CEB7
:03002B000208CAFE
:0300330002067A48
:030043000207446D
:030053000200FFA9
:03006B000206602A
:100083000201630101FF01010503010F10FEFF14CB
:1000930013141314131413CA11C41114135F25007A
:1000A300000000C125000000000C0000000C00014E
:1000B300FFFF414C442042726F61646361737400BB
:1000C30001010101006605000000DB05E80364008F
:1000D3006400B801020200080000050207051E02C1
:1000E300051E020A0A03B80B02803E0102F1FF015A
:1000F300141F00E00796511800020206C0E074F2D4
:100103001203E7A2AFE433FED2AFE5A7FFE5A1F503
:10011300085F54106006121AA675A1EFE5085F5434
:10012300086008121AAC75A1F7802BEFA2E0C0D0CB
:10013300E508A2E092F01209EC158182F0501790C5
:100143006198E0F8900AB6E0C398A2D265D0335024
:1001530002E8F075A1FEEEA2E092AF7F0102049ED9
:10016300C0E074F21203E7A2AFE433FED2AF9061B2
:10017300A4E0F8759B00E59158540860087591F761
:10018300121AF4802AE59158541060087591EF1201
:100193001AFA801BE8A2E0C0D0E591A2E092F01227
:1001A30009EC158182F05007E0C2E0F0121C3E908A
:1001B30061A3E0F8E5E9585404600E121C1475E9D4
:1001C300FB906193E0A2E640F2808BC0E074F212F0
:1001D30003E7A2AFE433FED2AF9061A5E0F8E5BF39
:1001E300585404600675BFFB121C56020159C3E440
:1001F30098F8E499F91202328026C3E49AFAE49B50
:10020300FBE920E7E9120232E498F8E499F922C302
:10021300E498F8E499F9120232E498F8E499F9C3FE
:10022300E49AFAE49BFB22EB20E7CFE920E7E0B96D
:100233000010BB0008E88AF084F8AAF022E4FBC8A7
:10024300FA22EB70227B10C833C8C933C933500775
:10025300C39AC3DBF280069A50012ADBEAC833F45F
:10026300C8C933F4C9FA2275F008E4C833C8C933DE
:10027300C933C99AC99B5004C92AC93BD5F0ECFBC1
:10028300C833F4C8E4C9FA22080808EAC0E0EBC09E
:10029300E086F0E7A4FA180986F0E7A42AFA180919
:1002A30086F0E7A42AFA180986F0E7A42AFA198641
:1002B300F0E7A4FBE5F02AFA190886F0E7A42BFB84
:1002C300E5F03AFA190886F0E7A42BFBE5F03AFAD1
:1002D30018180986F0E7A4C5F02BFBE43AFA1908CD
:1002E300E7C5F0C6A426F6E5F03BFBE43AFA188628
:1002F300F0E7A4F6E5F00826F6E43B08F6E43A084E
:10030300F6D0E0FBD0E0FA22E4CFC0E0E4CEC0E0D8
:10031300E4CDC0E0E4CCC0E075F020C3E633F608DA
:10032300E633F608E633F608E633F6181818EC3326
:10033300FCED33FDEE33FEEF33FFC3EC9709ED978E
:1003430009EE9709EF97191919400FFFEC97FC096C
:10035300ED97FD09EE97FE191906D5F0BEECF709E6
:10036300EDF709EEF709EFF7191919D0E0FCD0E022
:10037300FDD0E0FED0E0FF222518C582C0E0E519DC
:1003830034FFC583C0E0E518C3958224F810AF0895
:100393008583198582188008858319858218D2AFD1
:1003A300CEF0A3E520F0A37808E608F0A3DEFAEF89
:1003B300F0A3E58124FAF8E608F0A3E608F0A3E643
:1003C30008F0A30808E608F0A3E608F0A3158115D2
:1003D30081D0E0FED0E0F8158115811581E8C0E0F9
:1003E300EEC0E022C0D02518C582C0E0E51934FF75
:1003F300C583C0E0E518C3958224F310AF08858355
:10040300198582188008858319858218D2AFC8F0B0
:10041300A3E9F0A3EAF0A3EBF0A37908E709F0A3BB
:10042300D8FAECF0A3EDF0A3EEF0A3EFF0A3D0E045
:10043300F0A3D0E0F0A3D0E0F0A3E520F0A3E5F033
:10044300F0A322120AC8B90003020488E49003014E
:10045300787D790E8002F0A3D8FCD9FA90107DAA9A
:1004630082AB83900086787A79018015E493A3ACFC
:1004730082AD838A828B83F0A3AA82AB838C828D25
:1004830083D8E9D9E77582757583DC74031208296B
:100493007582FC75831E74001208298519838518DB
:1004A30082E0C0E0A3E0F9A3E0FAA3E0FBA37808AD
:1004B300E0F608A3DFFAE0FCA3E0FDA3E0FEA3E07F
:1004C300FFA3E0C0E0A3E0C0E0A3E0F5D0A3E0F524
:1004D30020A3E0A3F5F010AF088583198582188067
:1004E30008858319858218D2AFD082D083D0E0F8F3
:1004F300D0E032150075F0108E1A8F1B85821F8590
:10050300831E851882851983E0CEA3E0CF851F82E1
:10051300851E83EBC9EAC8EDCBECCAC3E833C8E94F
:1005230033C9EA33CAEB33CBC3EA9EF51DEB9FF520
:100533001CB35004AB1CAA1DEC33CCED33CDD5F06A
:10054300DAAE1AAF1B22D083D082ECC0E0EDC0E05C
:10055300E493A3FCE493A3FDED4C600D120621ECA0
:1005630024FFFCED34FFFD80EFE493A3FCE493A3AD
:10057300FDED4C600D1206EFEC24FFFCED34FFFDA6
:1005830080EFD0E0FDD0E0FCE493A3C0E0E493C0AF
:10059300E022851983851882E0A3FEE0A3F5207885
:1005A30008E0A3F608DFFAE0A3FFE0A3C0E0E0A3BE
:1005B300C0E0E0A3C0E0E0A3C0E0E0A3C0E010AF70
:1005C300088582188583198008858218858319D246
:1005D300AFD083D08202082FD083D082E9C0E0E479
:1005E30093A3C386F0C5F095F0F908E493A386F0CE
:1005F300C5F095F0700BE493A3C3994005E904801B
:1006030002A3E475F002A42582F582E5F03583F5B3
:1006130083D0E0F9E493A3C0E0E493C0E022C0E018
:10062300C3E49396087401939618400FE49366709D
:100633000808740193661870007019A3A3C3E493A8
:1006430096087401939618A3A3400DD0E0D0E0D090
:10065300E0020585A3A3A3A3A3A3D0E022C0E07473
:10066300F21203E7E589A2E15003121956758900D6
:10067300C2C57F0102049EC0E074F21203E7E58B5A
:10068300A2E05003121956758B00C2E880E474048B
:10069300800474028000CCC0E0EDC0E0E518C39C88
:1006A300CCAD1950011D10AF068C188D1980068C26
:1006B300188D19D2AF1207ABD0E0FDD0E0FC227445
:1006C300028000CCC0E0EDC0E0E518C39CCCAD19BE
:1006D30050011D10AF068C188D1980068C188D19CA
:1006E300D2AF120767D0E0FDD0E0FC22C0E0C0F03B
:1006F30088F0E4936670080874019366187000A884
:10070300F0A3A3700BD0F0D0E0D0E0D0E0020585D9
:10071300A3A3D0F0D0E022D083D082CCC0E0E49376
:10072300A360061207CC1470FAE493A360061209BF
:10073300111470FAD0E0FCE493A3C0E0E493C0E0AA
:1007430022C0E074F21203E7A2AFE433FED2AFC2D9
:10075300C0E5D1A2E45003121A1CEEA2E092AF7FCF
:100763000102049ECAC0E0E493A3C582CCC582C53E
:1007730083CDC583F0A3C582CCC582C583CDC58394
:10078300DAE5D0E0CA22A2E792D65002F40430F7A9
:100793000663F0FF05F0B3400384800384F4043060
:1007A300D60563F0FF05F022CAC0E0E0A3C582CC02
:1007B300C582C583CDC583F0A3C582CCC582C5835D
:1007C300CDC583DAE6D0E0CA22C0E0E493A3D39C8C
:1007D3005010E493A3C39C400AD0E0D0E0D0E002E1
:1007E3000737A3A3A3D0E0227009080808226016E4
:1007F300181818C6C333C608C633C608C633C60896
:10080300C633C6D5E0EA22C008C3E096F50808A3BC
:10081300E096420808A3E096420808A3E09645083C
:100823007001D3D00822C09FF59FE473D09F22D0DC
:1008330083D082C09FE493C0E0740193C0E074024C
:1008430093F59F227404800A740380067402800265
:100853007401C0E0F404120862D0E0120AA3222556
:1008630018F58210AF08F518400215198008F5181D
:1008730040021519D2AF85198322BB0102E722C0BA
:1008830082C08389828A83BB0003E08002E493D021
:1008930083D08222C0D0251810AF08F51850020566
:1008A300198008F51850020519D2AFD0D02260166E
:1008B300080808C6C313C618C613C618C613C61835
:1008C300C613C6D5E0EA22C0E0C0D0E8C0E0E5A880
:1008D300D2AFC2C7A2E792AFD0E0F8D0D0D0E03217
:1008E300C3E0C696F608A3E0C696F608A3E0C6964C
:1008F300F608A3E0C696F622251810AF08F51840AF
:100903000215198008F51840021519D2AF22C0E06C
:10091300E493A36C7009D0E0D0E0D0E0020737A3E2
:10092300A3D0E022E76670100809E766700A080999
:10093300E76670040809E76622E066701008A3E022
:1009430066700A08A3E066700408A3E06622C3E0A9
:100953009608A3E09608A3E09608A3E096A2D265C2
:10096300D03322C3E096F008A3E096F008A3E09604
:10097300F008A3E096F022E657F60809E657F608D2
:1009830009E657F60809E657F622E026F608A3E03B
:1009930036F608A3E036F608A3E036F622E627F695
:1009A3000809E637F60809E637F60809E637F622B6
:1009B300E056F608A3E056F608A3E056F608A3E0CF
:1009C30056F622E056F008A3E056F008A3E056F0EE
:1009D30008A3E056F022E647F60809E647F60809B9
:1009E300E647F60809E647F622C0E0E8C0E0E581FD
:1009F30024FCF8E6A2E7D0E0F8D0E02270042260FD
:100A03000D18C6C333C608C633C6D5E0F41822E0B2
:100A130026F008A3E036F008A3E036F008A3E0369A
:100A2300F022E4C396F608E496F608E496F608E4A2
:100A330096F622C3E09608A3E09608A3E09608A3DF
:100A4300E09622C6F4C608C6F4C608C6F4C608C6AD
:100A5300F4C622C3E7960809E7960809E79608094A
:100A6300E7962275D000758140751801751903004A
:100A7300020446E0F608A3E0F608A3E0F608A3E0C4
:100A8300F622600C08C6C313C618C613C6D5E0F415
:100A930022E6F008A3E6F008A3E6F008A3E6F022B6
:100AA300CAC0E0E6F0A308DAFAD0E0FA22E0FAA33B
:100AB300E0FBA3E0FCA3E0FD22EAF0A3EBF0A3EC50
:100AC300F0A3EDF022E5C754F84401F5C7790122FC
:100AD3002518F582E43519F58322C2AF75D69F0236
:100AE300000022120832F7E20212083244E4021232
:100AF3000832E7E4021208322EE6021208324CE60C
:100B030002120832612800120832732800120832D8
:100B1300C52800120832262900120832B029001213
:100B23000832542A00120832A82A00120832C12AB5
:100B330000120832E72A00120832222B0012083270
:100B4300662B001208328D2B00120832DE2B0012A6
:100B530008328E2C00120832462D001208320E2E57
:100B630000120832CE2E00120832122F0012083261
:100B7300372F001208327A2F00120832C72F0012C3
:100B830008321F3100120832A53100120832C33176
:100B930000120832ED310012083207320012083217
:100BA300163200120832213200120832E1320012EA
:100BB30008323A3300120832FC330012083204348C
:100BC30000120832C83400120832343500120832D9
:100BD3005F3600120832703600120832E636001211
:100BE3000832783700120832D037001208329038B2
:100BF30000120832B73800120832C938001208321E
:100C03001C390012083259390012083266390012B1
:100C13000832E93A001208323E3C00120832703CB6
:100C230000120832033D001208323C3D0012083224
:100C3300883D00120832A43E00120832ED40001233
:100C43000832F840001208320341001208320D4105
:100C530000120832184100120832324100120832E1
:100C63003C41001208324641001208325141001241
:100C73000832794100120832D44100120832F84197
:100C8300001208321C42001208327A420012083263
:100C9300BE4200120832DA420012083251430012F7
:100CA3000832894300120832D54300120832324415
:100CB30000120832EC4400120832D0460012083207
:100CC3002947001208325948001208327F4800129F
:100CD3000832084A00120832844D00120832564F77
:100CE300001208321F5100120832CC510012083290
:100CF300375300120832D653001208321B54001225
:100D030008328554001208329454001208321B57DB
:100D130000120832CD58001208323A590012083234
:100D2300195A00120832325B00120832AF5C00120B
:100D33000832CE5C00120832235D00120832285EAE
:100D430000120832505E00120832A85E0012083208
:100D5300875F00120832CB5F001208321660001260
:100D63000832816000120832C26100120832266222
:100D730000120832746300120832D465001208327C
:100D8300056600120832BD670012083212680012AD
:100D93000832166900120832B369001208320C6A6D
:100DA30000120832BF6A00120832616B0012083267
:100DB300016C00120832A66C00120832548601122C
:100DC3000832938601120832DA8801120832248924
:100DD300011208323F8A01120832AF8A0112083227
:100DE300E48A01120832588C01120832DB8E011298
:100DF30008320490011208329A9001120832A29923
:100E030001120832379A011208321E9D011208326C
:100E1300119E01120832729E011208328E9F011236
:100E2300083273A10112083284A301120832EEA31F
:100E330001120832C0A40112083277A50112083248
:100E430081A501120832AFA5011208326CA6011266
:100E5300083243A7011208320AA801120832BCA8BB
:100E630001120832E5A80112083207A9011208325B
:100E73005DAB0112083235AC0112083279AC0112B4
:100E83000832E1AC0112083299AD01120832CBAD40
:100E9300011208320FAE0112083245AE01120832B8
:100EA30091AE01120832E6AE01120832EBAE011226
:100EB30008323EAF0112083263AF0112083272B03A
:100EC30001120832D6B00112083246B101120832BB
:100ED300D2B1011208329FB40112083283B5011254
:100EE300083206B7011208323CB901120832EAB9D6
:100EF300011208329ABA01120832DBBC011208321D
:100F03007EBD01120832C5BD0112083271BF011244
:100F1300083285BF011208328FBF01120832B7BFF2
:100F230001120832C3BF01120832E2BF01120832B4
:100F3300C7C101120832FEC10112083208C20112F0
:100F430008323EC2011208328DC301120832D1C3E6
:100F53000112083279C4011208325CC50112083249
:100F630007C60112083253C70112083251C80112D1
:100F73000832F7C80112083287C9011208329EC924
:100F830001120832D5C901120832DFC90112083231
:100F9300EAC90112083208CA011208324CCA011206
:100FA3000832A9CA01120832CECA01120832E8CAAD
:100FB3000112083274CB0112083291CC01120832AB
:100FC300FECC01120832E5CD011208320CCE01121B
:100FD300083280CE01120832FBCE01120832FFCF55
:100FE30001120832F5D001120832A4D101120832DD
:100FF300B7D20112083253D301120832E0D30112DF
:101003000832BED401120832F6D4011208324ED58A
:101013000112083217D60112083238D601120832EB
:10102300BFD601120832E3D60112083205D70112E6
:1010330008324ED70112083264D9011208324BDA52
:1010430001120832FCDA0112083232DD01120832D1
:1010530082DD01120832C2DD0112083204DE011200
:10106300083260DE011208328EDE01120832B2DE6F
:101073000112083205DF0112083233DF0112083290
:101083006CDF01120832C1DF0112083227E00112BE
:1010930008327BE1011208329EE3011208320BE4AD
:1010A3000112083234E401120832BFE4011208329B
:1010B30026E50112083271E50112083295E50112A5
:1010C3000832B9E50112083214E6011208322FE69C
:1010D30001120832E8E60112083271FE03120832E7
:1010E300B0FE03120832788002120832BE80021268
:1010F30008329E8102120832A08202120832A383B0
:10110300021208322F85021208328D85021208322C
:101113004A8602120832688702120832D9870212FD
:1011230008321588021208326388021208326D8869
:1011330002120832B188021208320D8902120832F3
:10114300A88902120832258A02120832F48A02128E
:1011530008328D8B02120832AD8B02120832E38BF8
:1011630002120832148C02120832D58C0212083291
:10117300E58C02120832398D02120832548D0212A4
:101183000832668D021208326F8D02120832C98D41
:1011930002120832258E02120832718E02120832B0
:1011A3008C8E02120832BD8E02120832DA8E0212BF
:1011B3000832E68E021208325A90021208327390F5
:1011C30002120832DA9002120832ED90021208324B
:1011D300FB9002120832AF9102120832939202126C
:1011E30008329993021208322394021208322D9482
:1011F300021208329A9402120832B194021208328F
:10120300E394021208321C95021208324695021228
:101213000832A79502120832C79502120832E595E3
:10122300021208322B960212083251970212083228
:101233009E9702120832CD97021208324398021287
:1012430008326B9802120832A49802120832B2983C
:10125300021208320A99021208325999021208320C
:10126300989902120832C89902120832F4990212AC
:101273000832FF99021208321D9A02120832DF9ACD
:1012830002120832E99A02120832249B021208322F
:101293003A9B021208328F9B02120832A39B02125E
:1012A3000832B19C02120832C49C02120832D99C43
:1012B300021208327B9D02120832FE9D021208328E
:1012C300BC9E02120832C79E02120832F39F02121A
:1012D30008320FA00212083261A002120832A0A045
:1012E30002120832B5A00212083217A10212083204
:1012F300A6A102120832F1A10212083242A402127C
:101303000832C0A40212083235A50212083257A7C8
:10131300021208326FA70212083272A702120832B1
:101323007EA70212083292A7021208329AA702126B
:101333000832CDA7021208327DA802120832F3A8A0
:101343000212083266A9021208321AAA02120832DD
:10135300CFAA02120832EEAA021208328EAB021290
:1013630008329AAB02120832C5AB02120832C8AB7C
:101373000212083232AC021208325AAD021208329B
:1013830032AE02120832BDAE02120832D6AF0212DA
:10139300083293B002120832CCB002120832FDB008
:1013A30002120832BBB102120832EBB10212083248
:1013B300C6B2021208325FB302120832EAB3021253
:1013C30008329BB4021208321EB50212083250B51D
:1013D3000212083291B5021208324E9903120832F2
:1013E300B39903120832F099031208323F9A031299
:1013F3000832559C03120832389E03120832A2A108
:1014030003120832DDA103120832FFA103120832CE
:1014130062A20312083296A203120832B9A203127F
:101423000832E6A20312083242A303120832898D5E
:1014330003120832078E031208323D8E031208325C
:1014430044DA021208321C90031208323890031255
:1014530008327D90031208320B9103120832649113
:1014630003120832919203120832A3930312083233
:101473000094031208326C9403120832CD940312C1
:1014830008320E9503120832BB9503120832CD962B
:1014930003120832F89603120832A2E0021208324D
:1014A3008A97031208321C9803120832D798031242
:1014B30008325AE303120832D5E303120832E0E399
:1014C3000312083201E4031208328EA30312083216
:1014D30098A303120832E4A30312083252A403129E
:1014E300083273A40312083223A503120832B7A7E4
:1014F30003120832C0A70312083213A803120832DA
:101503003CA803120832A3A80312083234A9031219
:10151300083276A903120832C0A9031208321FAA9F
:10152300031208324BAA03120832DCAA0312083250
:101533001BAB031208325AAB031208328FAB0312F0
:101543000832A1AB03120832B3AB03120832D2AB99
:1015530003120832DBAB0312083291AC03120832D8
:10156300D1AC03120832CFFB031208321DF0031271
:10157300083253F0031208329CF003120832ECF1E4
:101583000312083222E70112083261E8011208321D
:101593009DE8011208325CEA0112083285EA011261
:1015A300083218ED011208325CED01120832E5EE43
:1015B300011208327DEF01120832E5EF0112083201
:1015C30086F001120832C8F00112083208F1011244
:1015D300083293F20112083203F40112083228F69A
:1015E3000112083256F6011208327DF60112083252
:1015F30086F6011208320DF7011208322BFA011296
:10160300083222800412083238800412083226FE7F
:1016130003120832F5DF0312083208E0031208321E
:10162300A5E003120832E0E003120832FBE00312E4
:10163300083220E10312083265E10312083296E111
:1016430003120832C7E1031208324DE303120832D2
:1016530042F70312083278F70312083294F70312A1
:101663000832D6F703120832E6F7031208327BF882
:101673000312083285F80312083216CD031208321A
:10168300DCCD031208328CCE03120832CACE031209
:101693000832FACE03120832A3D003120832E2D082
:1016A3000312083223D10312083273E602120832FE
:1016B300C8E602120832B1E7021208324AE80212FF
:1016C300083294E802120832F6E8021208320AE9F4
:1016D30002120832ECEA0212083267EB02120832F5
:1016E30091EB021208326AED0212083285ED021202
:1016F3000832D4ED02120832EAED02120832F7ED95
:10170300021208322BEE0212083244EE02120832A1
:10171300E4EE021208323EEF021208328CEF02129C
:1017230008329FF00212083210F30212083245F316
:1017330002120832D3F30212083234F402120832CE
:1017430039F40212083275F402120832D7F4021285
:101753000832A7F502120832CCF502120832D6F588
:1017630002120832D9F50212083248F60212083280
:1017730063F60212083276F602120832A2F6021259
:101783000832DDF602120832E0F6021208321CF7C4
:1017930002120832D8FD03120832F0FD0312083298
:1017A30055F702120832A4F70212083246F9021260
:1017B300083204FB021208324CFB021208326EFCA0
:1017C300021208329FFD02120832C1FD02120832D2
:1017D3001DFE021208329FFE02120832F26C001242
:1017E30008321D6D001208320A6E001208328F6E25
:1017F30000120832F86E00120832446F00120832E9
:10180300C36F00120832557000120832E1700012E3
:1018130008322371001208328F75001208320F77D5
:1018230000120832DF7700120832067800120832FD
:10183300677A00120832F37A001208320D7C001224
:101843000832EC7C001208326E7D001208320080F0
:1018530003120832BA80031208322C8103120832B1
:10186300C88103120832388203120832F18403124A
:101873000832C88503120832358603120832B2874C
:10188300031208327C8803120832C3890312083218
:10189300D68A031208326F8B03120832358C031277
:1018A300083229E6031208327DE603120832D5E630
:1018B3000312083220E70312083282E703120832C8
:1018C3001BE80312083283E8031208328FE803127D
:1018D30008324FF20312083280F2031208323AF34D
:1018E30003120832A0F30312083200DD0312083298
:1018F3008CDE031208329DFF03120832AEFF03127F
:10190300083229F40312083237F403120832E6FFCF
:101913000212083242FD0312083252FD031208324A
:101923006DFD03120832CEFD03120832CDFA031205
:10193300083252FB03120832B6FB03120832BBF91A
:1019430003120832DDF90312083247FA0312083290
:1019530052FA0312083296FA0312083236B6031209
:10196300083244B60312083285B603120832A6B60B
:101973000312083223B70312083223B803120832C2
:1019830045B803120832B1B803120832CCB80312B7
:101993000832E7B803120832F1B803120832FBB871
:1019A300031208320EB90312083227B903120832A0
:1019B300C3B9031208327FBA03120832F6BA03120C
:1019C300083270BB03120832BCBB0312083262BC7C
:1019D300031208323EBD031208326BD503120832DC
:1019E30079D503120832F3D503120832D7D603127E
:1019F300083290D803120832008004120832ACFA7D
:101A03000112083218FB01120832D7FB0112083207
:101A1300E1FC011208323AFE0112083295FE01126E
:101A23000832EAFE01120832F3FE0112083205FF02
:101A3300011208326FFF0112083283FF01120832CC
:101A43008DFF01120832A5C303120832FAC3031231
:101A53000832F6C50312083228C6031208324AC6F2
:101A63000312083263C6031208327CC6031208321B
:101A730086C70312083221C803120832E1F50312A4
:101A8300083205F6031208321EF60312083251F625
:101A93000312083282F603120832B0F60312083238
:101AA30012F70312083221F7031208322BF703123D
:101AB300083238F703120832CAE803120832F0E892
:101AC300031208322DE9031208323CE903120832EB
:101AD3005BE903120832C3E903120832CCE90312AB
:101AE30008322BEA031208324FEA031208320EEBD4
:101AF300031208321BEB031208322CEB03120832D9
:101B0300FEFE031208321BFF0312083298C80312A9
:101B13000832F6C90312083203CA0312083216CA7E
:101B23000312083235CA031208324BCA03120832B1
:101B33005FCA03120832D4CA0312083239CB031224
:101B43000832E9CB03120832BECC03120832CECCE2
:101B530003120832DDCC03120832A9FC0312083247
:101B6300CDFC03120832F5FC031208321DFD0312EB
:101B730008325AEB0312083281EB03120832A2EB4C
:101B83000312083207EC03120832C0ED03120832C5
:101B9300D9ED03120832E5ED03120832F9ED031211
:101BA300083217EE0312083221EE031208322BEE2D
:101BB300031208323EEE0312083291EE031208328A
:101BC300CAEE03120832F9EE0312083247EF03128A
:101BD300083296EF03120832B1EF03120832BBEF5B
:101BE30003120832CCEF0312083212F00312083248
:101BF300A1FF01120832FAAC0312083224AD03121A
:101C0300083240AD0312083253AD0312083269ADF6
:101C130003120832C6AD03120832F9AD03120832BB
:101C230035B2031208325BB3031208328EB30312C8
:101C33000832DAB30312083206B5031208322EB59E
:101C43000312083243B50312083253B503120832A4
:101C530097B503120832F8B50312083208B6031217
:101C6300083288F803120832A3F803120832CCF8BA
:101C730003120832E6F8031208320BF90312083292
:101C83002AF90312083242F90312083270F90312D7
:101C930008328AF903120832BAFE03120832F5D861
:101CA30003120832FCD80312083208DA031208328E
:101CB30038DA031208325EDA0312083281DA0312C9
:101CC3000832A3DA03120832DDDA0312083243DBE7
:101CD300031208327CDB03120832C8DB031208321A
:101CE300F5DB0312083215DC03120832067E0012FC
:101CF30008321E7E001208320C7F00120832EB7F7E
:101D030000120832D3FE0212083245FF02120832D3
:101D130083FF02120832C4FF021208329DD103125C
:101D23000832BCD1031208320BD20312083227D275
:101D33000312083258D20312083268D2031208324F
:101D430075D20312083282D2031208326ED3031201
:101D53000832ACD303120832B6D303120832C6D406
:101D630003120832D1D403120832E3D40312083227
:101D7300ECD403120832F6D403120832E8BE03127D
:101D830008322DC3031208323BC30312083270FF1B
:101D9300031208323AFF03120832C8FF0312083253
:101DA300428004120832A6D7021208326FD60212FA
:101DB3000832C3D50212083209D402120832B9D14B
:101DC3000212083240D102120832E7D0021208325E
:101DD30077D0021208324ED0021208322ECE0212EF
:101DE3000832FACD02120832C7CD02120832ABCD47
:101DF30002120832C4CC021208327CCC021208321E
:101E0300C7CA0212083247CA0212083244CA02126F
:101E1300083241C9021208320FC9021208324CC8F3
:101E23000212083277C60212083208C602120832BA
:101E3300C0DF02120832A4DF0212083228DF0212C6
:101E43000832DFDE0212083297DE02120832DAC5E8
:101E530002120832D7C502120832C4C50212083270
:101E6300E5DD021208326FC5021208325EC50212A6
:101E7300083250C4021208321AC40212083257DD63
:101E830002120832439703120832C8C302120832FF
:101E930069C30212083238C30212083200C00212A8
:101EA3000832C0BF02120832B4BF0212083214BF94
:101EB3000212083254BE02120832D6BB0212083292
:101EC30067B90212083225B902120832F9B70212B1
:101ED3000832AEB702120832EDB60212083230B63B
:101EE30002120832C6B50212083200B602120832D4
:101EF3004ADD02120832A98E0300000080FBE4735E
:101F030000000000000000000000000000000000CE
:101F13001010101010100000303000000014285072
:101F2300000000000000000000000000002828FC62
:101F3300284850FC5050000000001038545430180A
:101F430014545438100000000044A8A8B0541A2AAE
:101F53002A44000000000020505060ACA898927CF6
:101F6300000000606020C0000000000000000000CE
:101F730000040808101010101010080804000000D6
:101F8300402010080408102040000000000000104A
:101F930010D63838D61010000000000000101010C2
:101FA300FE10101000000000000000000000000000
:101FB3000000606020C0000000000000FC00000082
:101FC300000000000000000000000000000060604E
:101FD3000000000204040408081010202020400020
:101FE300000000304884848484844830000000006A
:101FF3000010701010101010107C0000000000384A
:10200300444404081020447C000000000038444489
:1020130018040444443800000000080818284848FD
:10202300887C081C00000000007C40407844044485
:10203300443800000000003C4480B8C484848478A1
:1020430000000000007C444808101010101000002D
:102053000000007884844878848484780000000039
:1020630000788484848C740488F0000000000000ED
:10207300003030000000303000000000000000009D
:102083001000000000101020000004081020402061
:102093001008040000000000000000FC0000FC0029
:1020A3000000000000004020100804081020400039
:1020B3000000000078848484081010003030000091
:1020C30000000038449AAAAAAAB4423C00000000C7
:1020D300001010282828384444EE0000000000F8BF
:1020E30044447844444444F800000000003C4484E1
:1020F3008080808044380000000000F0484444445D
:10210300444448F00000000000FC44404878484044
:1021130044FC0000000000FC42404878484040E096
:1021230000000000003C448480808E84443800001A
:10213300000000EE4444447C444444EE00000000AC
:10214300007C101010101010107C00000000007CA8
:10215300101010101010101090E0000000EE444812
:102163005070484844EE0000000000E0404040400A
:10217300404044FC0000000000EE6C6C6C5454546E
:1021830054D60000000000EE64645454544C4CE4F4
:1021930000000000003048848484848448300000B8
:1021A300000000F844444478404040E00000000050
:1021B30000304884848484B448380C00000000F85C
:1021C30044447850484844E600000000003C444042
:1021D3002018040444780000000000FE9210101040
:1021E300101010380000000000EE444444444444FE
:1021F30044380000000000EE44442828282810102A
:102203000000000000D6545454546C2828280000C1
:10221300000000EE44282810282844EE00000000A7
:1022230000EE442828101010103800000000007C35
:1022330088081020204044FC0000001C10101010DF
:102243001010101010101C0000701010101010103F
:1022530010101010700000701010101010101010DB
:1022630010107000001028000000000000000000A3
:10227300000000000000000000000000000000FE5D
:1022830000606020C00000000000000000000000AB
:102293000000000038441C24443E0000000000C03D
:1022A30040407844444444780000000000000000AB
:1022B3003C444040443800000000000C04043C440B
:1022C3004444443E000000000000000038447C40C9
:1022D300443800000000001C2420F820202020782F
:1022E30000000000000000003C48483040784438BB
:1022F300000000C040405864444444EE0000000025
:102303000010000070101010107C00000000000886
:1023130000003808080808080870000000C04040A2
:102323005C48507048EC0000000000701010101062
:102333001010107C0000000000000000F8545454FA
:1023430054D60000000000000000D864444444EE6A
:1023530000000000000000003844444444380000FA
:10236300000000000000F8444444447840E00000CA
:10237300000000003C444444443C040E00000000C0
:102383000000EC30202020F80000000000000000D6
:102393003C443008447800000000000010107C101A
:1023A3001010100C0000000000000000CC44444456
:1023B300443E0000000000000000EE4428282810DE
:1023C3000000000000000000D654545428280000E8
:1023D300000000000000DC48303048EC0000000042
:1023E30000000000EE442828101020E00000000048
:1023F30000007C481010247C0000101010101010F6
:1024030010101010101010100001363601010001D9
:102413000201000103010001040106060502000098
:10242300070100340801000F090401010D0100FF39
:102433000E08000017020000190100FF1A01000135
:102443001B0100FE1C0100081D0200001F0100010A
:1024530020010001210200002301000F24020000DB
:102463002601000127010008280200FF2A010007B6
:102473002B0102402C0100002D0100012E0100015F
:102483002F0100FF30010B1C310800003A01000846
:102493003B01000F2F010000010171010101010146
:1024A30011010101310101010101800110016101EB
:1024B3003B001400630173017201620143010001D7
:1024C300130106013D013500040112010001000161
:1024D3000001000104010401330133013C01440103
:1024E3003201360000010001650100013500810160
:1024F3000001050182018301000103027102300121
:102503006002110270020102020202028002100242
:1025130061023A00410063027302720262024302E3
:102523000002130238000002000204021202000239
:1025330000020002000204020402370037003C02DA
:102543004402000239000002000265020002350263
:10255300810200020502820283020002030071006D
:10256300300160001100700031022003500480002C
:102573001000610000001400630073007200620029
:1025830043000000130006000000000004001200D6
:1025930000000000000000000400040037003700C2
:1025A3003C02440000000000000000006500000041
:1025B30035008100000005000000830000000103D6
:1025C3007103010301030103010301032203020356
:1025D30001031003000300030003000300030003CF
:1025E3000003420300032403060300030003040360
:1025F3001203250323032503230304030403000316
:1026030000030003440300030003230300036503E3
:1026130021003503810300030503000300030003C6
:10262300030471040204600411047004020402042C
:102633000104020410046104000414046304730419
:102643007204620443040004130406040004000437
:102653000404120400040004000400045104640090
:102663000004000400044404000400040004000403
:102673006504000435048104640005040004830434
:102683000004C9EEDBDACAD0B0B2C1AAB5C2BFC674
:10269300BCBCD3C3BBA7B5C7C2BCD5CABAC5C3DC10
:1026A300C2EBC8B7B6A8C8A1CFFBD7A8D2B5D7A8E5
:1026B300D7A2CEDECFDFCDA8D1B6B3CFD0C5C1A2CE
:1026C300D7E3B4B4D0C2D6C2D4B6C7BFB4F3D4AD83
:1026D300A3BA0036000100060000000F000000004E
:1026E30000000000000000000003FFFF00000403DF
:1026F300FFFF0000FFFF0FF4010005C404032000E7
:102703000100030B000000000000000003010F00A4
:1027130000661813002A18010066180200F4170354
:1027230000FA17040000180500061806001218FF27
:10273300FF000001040E062E0E08280E0B460E1095
:10274300800D020A0E051C0E07100E0CE60D0DF887
:102753000DFF000003EAF5E5D5D5C5B5A59595852B
:102763008575756565555545453535252515150516
:10277300241254122A1230124E1242123C125A12CE
:1027830060126612721236121E12181200160F0011
:10279300000B150B020002220F3200000614132651
:1027A300132C13EE113213E811F4117413921398CE
:1027B300137A1386138013281122115E11641158A2
:1027C3001110110C0E020B040B0A0708000F00383E
:1027D3003C3E363B3B352B432C000119161816168D
:1027E3001523030000034948424D181725050230FD
:1027F3003017181921301B1D1F30303016181920BF
:10280300231A1C1E30681338133E134A134413480B
:10281300126C128C1378127E120204020101010160
:10282300090234113A112E116A1100000000000050
:102833004011521100BE040A0E0004007F00E80399
:102843000C00280000000000090308100C0A03080C
:102853000900040001FF1E1E0C050408100FC082AE
:10286300C0838A828B83E0D2E7F012175E023915A8
:10287300C082C0837900122D2D125C7EC082C0837A
:10288300900334124A04D083D082C3E09CA3E09D1A
:10289300500C126352FAA3E01228A4600109023912
:1028A30015FBEA75F00BA4FAA8F075F00BEBA4285E
:1028B300FB900336E02AF8A3E03B8882F583E054DB
:1028C3000F2274F712037B8908122D2D122DD3AC1E
:1028D300F075F00BE9A42CF9900336E028FEA3E091
:1028E30039FF7401650860067402650870208A82E6
:1028F3008B83122DBF123CF574026508701B122CDA
:102903007E122E0670138E828F83E4F0800BEA24EE
:1029130003FCEB122DA1122DADEEFAEFFB120B040B
:10292300023C5274F412037B126C7979008E828F0D
:1029330083E06076890A890B8065E50A75F00BA44C
:10294300FAA8F075F00BE50B1228B17046E50A758D
:10295300F00BA4F8AAF075F00BE50B122DE58E82AF
:102963008F83E0850882850983122EC785088285B7
:102973000983A3123CF5EE2403FCEF122DAA123AAD
:10298300D31256F8AA08AB09120B04790190033449
:1029930012510DE50A2401F50AE50B3400F50B127B
:1029A3002C86E50A9AE50B9B4090023E9F74F51234
:1029B300037BEAFEEBFF740B120AD3123AD8750AB3
:1029C30001EC4D602BEC126C95ED125C7E123CED2C
:1029D3007901120B10E5084509606F8508828509A6
:1029E30083A3126C837902AA08AB09120B10805AD5
:1029F300E5084509602B125C8212434C123AD4124B
:102A03002DF0700CEEFAEFFB120B16E9F50A80CBF2
:102A1300EE2403FA122D2870317903EEFAEFFB80CE
:102A2300CA8E828F83A3E064FE7003A3E0F4700B6D
:102A3300EE24030A0A0A122D28700CEEFAEFFB1299
:102A43000B16E9F50A8003750A00A90A7F0302053C
:102A53009574F712037B900334123C62EA4B602FA8
:102A6300EA75F00BA4FAA8F075F00BEBA428FBEAC7
:102A7300FEEBFF121578900336123C629003361278
:102A83004F526012EEFCEFFD79001214DC800790C8
:102A93000336E4F0A3F0023C529003341246BCC365
:102AA300EE98EF9922C082C083EC4D6005121D168B
:102AB30080097C087D0079001214DC02391574F654
:102AC30012037B7900EA4B601878008808125FC50F
:102AD300EB12634E60047901780808E8C394084058
:102AE300EA023CFE74F712037B74F31208FBECFE5C
:102AF300EDFF851882851983E4F004120AD3EAF006
:102B0300A3EB12547E7403120AD3AC82AD83EEFAA4
:102B1300EFFB120B28EEFAEFFB120B2E023C4D7467
:102B2300F712037B74F31208FBECFEEDFF851882AA
:102B3300851983E4F0EAFCEBFD7403120AD3122E29
:102B4300C07401120AD3123CE98E828F83123CF5C2
:102B530074FE68700374FF69600479018002790070
:102B6300023C4D74F712037BEAFEEBFF122BC47099
:102B730014122BCF8E828F83E0F4F88A828B83E04A
:102B830058F0120B04A908023C5274F712037BEAB3
:102B9300FEEBFF7508008E828F83E06022122BC448
:102BA300701D122BCF8A828B83E08F838E82F8E095
:102BB30058700CE0F88A828B83E048F0120B048093
:102BC300C4120B0AE9F5087401650822126C8E120F
:102BD3002DD7122D19FAA3E039FB2274F412037BCB
:102BE3008A088B097C007D00122C7E122DAD122DDC
:102BF3003E126C807900850882850983A3E064FE18
:102C03007003A3E0F460717E007F008062EEFAEF50
:102C13001228A46057EEFAEFFBEA75F00BA4FAA8AA
:102C2300F075F00BEBA428FB900336E02AF50AA31A
:102C3300E03BF50B850882850983A31253CC850AF3
:102C430082850B83A3E06A7003A3E06B701EE50A21
:102C53002403FAE50B122D29700AE50A2403FCE587
:102C63000B122DAA122D327901125C9412361D1209
:102C73002C86EE9AEF9B4095023E9FEA24030A0AB4
:102C83000AEB2290033412586BC32274F312037BB2
:102C93008A088B098A828B83A3126C83122D2D12CF
:102CA3006C80750C00122C7E122D2970547E007FCF
:102CB300008049122D0BFAA3E0398A82F583E05490
:102CC3000F6036122D0BF50AA3E039F50BE50A2444
:102CD30003FCE50B122DB43400FB121D10E9640153
:102CE3007017850A82850B83A312592CA3123CF516
:102CF300122D32750C01125C9412361D122A9C405F
:102D0300B2A90C7F05020595EEF8EFF9E875F00B13
:102D1300A4F8122D1922AAF075F00BE9A42AF99050
:102D23000336E02822EF122E0022126C94EB2212BB
:102D33002D3E125C8FEEF0A3EFF022E508126C95A6
:102D4300E5092274F512037BEAFEEBFF8E828F8383
:102D5300A3126C837C007D00EE24030A0A0AEF129F
:102D63002DADEEFAEFFB120B0AE9F50A7401650AC1
:102D73007029126C8E122DD3AAF075F00BE9122D67
:102D8300E5850882F583122DBF122DF0700DE5083D
:102D93002403FCE509122DA1122DAD022A4D3400A6
:102DA300FDEE2403FAEF22122DB43400FB120B289C
:102DB300223400FDE5082403FAE50922A3122DC4F9
:102DC30022122DC822E0F8A3E0F98E828F83A3227A
:102DD300122DD7223400F5831246C0E875F00BA4F8
:102DE300F822122D1FF508A3E039F50922E8F0A314
:102DF300E9F0E5082403FAE509122E0022122E0653
:102E03006401223400FB120B2EE92274F312037BBC
:102E130074E61208FB126C79750C017508007509CC
:102E230000750A00750B00851882851983E4F0EE9E
:102E33002403FCEF3400FD7403120AD3122EC0E9FD
:102E430064017023740B120AD3123CED7401120A4D
:102E5300D31253D07003A3E069605185188285199A
:102E630083858208858309740D120AD3E4122EC761
:102E7300740E120AD3123CF5740D120AD3AA82AB54
:102E830083120B4CE96401700B740D120AD3858213
:102E93000A85830B780A12084FAC08AD09EEFAEFE6
:102EA300FB120B1C7402120897E9F50CEEFAEFFB08
:102EB300120B46A90C741A120897022D06123193AD
:102EC300120B5222123C5D1246BC22C082C0837890
:102ED3000079008003122FBE122C86E89AE99B50DA
:102EE30029E8FAE9FBEA75F00BA4FAACF075F00BEC
:102EF300EBA42CFB900336E02AFCA3E03B8C82F589
:102F030083E0540F70CF790080027901023915C034
:102F130082C0839004F6124712EC75F012A4FCA849
:102F2300F075F012EDA428FD79FF7A257B0B1214BE
:102F3300DC02391574F712037BE9FEEAFF7A007BA2
:102F430000780079008028E8FCE9FDEC75F012A414
:102F5300FC85F00875F012EDA425081233D3C39E47
:102F6300400AE0FCEFC39C40031234F2122FBE125E
:102F730033C740D3023C52C082C0837800790080BB
:102F830003122FBE122FB2501F1233D7F470F2E880
:102F930075F012A4F8AAF075F012E9A42AF97425C1
:102FA30028FA740B39FB80047A007B0002391590F0
:102FB30004F6123488C3E89AE99B22E8240108E95D
:102FC3003400F92274F012037B74F31208FB8A0AAB
:102FD3008B0B8C0C8D0D8908EC450D6016AA0CAB80
:102FE3000D120BA08A0E8B0FAE0EAF0FEE4F6003C8
:102FF300023085120B768A0E8B0FA80EA90FE8FEFE
:10300300E9FFE849607C9028491230E760227403A5
:10301300650860067404650870167A047903120B58
:10302300709028491230FE40077A007B000230E49A
:103033009028471230E7601B74016508600674022C
:103043006508700F7A027901120B709028471230CD
:10305300FE50D68518828519837401F0120AD312A3
:1030630056F8AC0CAD0D7403120AD312318C740BE9
:10307300120AD3123AE01240D5E41256E012106855
:103083008004EE4F604A780074FF2508C39404500F
:103093000278048E828F831256F88E828F83A3A3C5
:1030A300A3A3E508F0E88E828F83A3A3A3A3A312AF
:1030B300570012022A12349F8E828F83A3A3A3A3E5
:1030C300A3A3A3F0123496120AB0125C78120ABCBE
:1030D3001230EC4005901081E4F0120F42EEFAEF4B
:1030E300FB0246C612581A49227A047900120B7061
:1030F3009004F6126334EA98EB9922123117758320
:10310300047582F6E493C398F8A3E49399F9C3EAA8
:1031130098EB9922E493F8740193F92274F2120361
:103123007B74F31208FB8A088B09ECFEEDFF750A2A
:1031330000EEFAEFFB120BA08A0C8B0DA80CA90D65
:10314300E849603E88828983E065087004A3E065EE
:1031530009602F88828983A3A3A3A3E0C3940550A6
:1031630021125B268518828519837401F0120AD314
:10317300125B2AEEFCEFFD7403120AD312318C7535
:103183000A01A90A740D0251C4123193120B5E2273
:10319300AA82AB83120B28851882851983AA82AB76
:1031A300832274F612037B1231E1600FA3A3A3A35E
:1031B300E014C394045004790180027900023CFEB8
:1031C30074F612037B1231E1600FA3A3A3A3E014EF
:1031D300C394025004790180027900023CFE120B71
:1031E3009A8A828B83E58245832274F612037B12CB
:1031F30031E1600BA3A3A3A3E070047901800279FA
:1032030000023CFEC082C083EAFCEBFD7A007B0037
:10321300023912C082C0837C007D0002391274F42B
:1032230012037B74F31208FBEAFEEBFF8C0A8D0B8F
:10323300C3EC94F8ED94FF4007EE4F70030232DACB
:10324300750800750900802E85188285198374011D
:10325300F0123645120AD312365360137403120A5E
:10326300D3AC82AD83EEFAEFFB121D10E97049E592
:103273000824011234739004F6E4125822E50898E6
:10328300E509995052E50875F012A4F8AAF075F013
:1032930012E509A42AF912636760D4EE4F70A9748A
:1032A300FF650A700474FF650B60C4123635650A46
:1032B3007004A3E0650B70B7E50875F012A4F50878
:1032C300A8F075F012E509A428F50974252508FA74
:1032D300740B3509FB80047A007B00023E9A74F478
:1032E30012037B74F31208FB750800120BA08A0A01
:1032F3008B0BAE0AAF0BEE4F602A851882851983BC
:103303007401123C57F8A3E0F9740B120AD3123D6F
:1033130078120B407C127D0079FFEEFAEFFB12145A
:10332300DC7508011230EC50099010817401F01221
:103333000F42A908023E9A74F712037BE9FE74FE5A
:103343006A700374FF6B7800790070058052122F46
:10335300BE1233C7504AE8FCE9FDEC75F012A4FC39
:10336300AFF075F012EDA42F1233D3F460E0E8FC54
:10337300E9FDEC75F012A4FC75F012EDA42FFD74B9
:10338300252CF582740B3DF583E06A7003A3E06B93
:1033930070BC80091233D714C394044017122FBE94
:1033A300122FB25018EE70EC1233D764016005E0AF
:1033B300640370E9123626FAA3E0FB80047AFE7BED
:1033C300FF023C529004F6124716C3E89CE99D2283
:1033D30012352722E8FAE9FBEA75F012A4FAACF0F9
:1033E30075F012EBA42CFB74292AF582740B3BF5C0
:1033F30083E022120BB2023915C082C083790180A7
:10340300F274F012037B8A0A8B0B7A047901120B94
:10341300708A0C8B0DEA450D603EEAC333FAEB3339
:10342300FB1215788A088B09AE08AF09EE4F6023AB
:103433007AFE7BFF120BB874FE6A700374FF6B6035
:103443001B850882850983123C62E5082402123435
:103453007380E1750C0080047E007F00850A8285FD
:103463000B83E50CF0EEFAEFFB0246CBE5082407ED
:10347300F508E5093400F509229004F6124716C34E
:10348300EA9CEB9D22E493FA740193FB221214D07D
:10349300740322125C89E4F090862B22E88E828FDB
:1034A30083A3A3A3A3A3A3A3A31234C174011234BC
:1034B300C1A3F0EE2410125C8CE4F0A3F0221240BE
:1034C300E1A3A3A322C082C0837A007B00800419F6
:1034D3001234F212347C5010123511C3940550F09B
:1034E300E970EC1234FB80047A007B00023915EAA0
:1034F30024010AEB3400FB22EA75F012A4FA75F0FA
:1035030012EBA428FB74252AFA740B3BFB22EAFC7A
:10351300EBFDEC75F012A4FCA8F075F012EDA428F5
:1035230012352722FD74292CF582740B3DF583E0B7
:103533002274F712037B74F31208FB7E007F0002F0
:1035430035D9E50875F017A4F8A9F01265C8FAA3F0
:10355300E0FBEEF8EFF9E875F012A4F8ACF075F0C3
:1035630012E9A42C1236346A7003A3E06B603FE5C2
:103573000875F017A4F8AAF0EA1265C7F8A3E0F9F2
:103583007401120AD3E0687003A3E0696020E508C0
:1035930075F017A4F8EAF974A128FC740C39FD74CA
:1035A30003120AD3AA82AB83121D10E96014E50843
:1035B30075F017A4F8A9F0749F28FA740C39FB125C
:1035C3001074050890284EE493F8E508C398500357
:1035D30002354512361D9004F612690E5039EEF885
:1035E300EFF9123626F47003A3E0F460E68518823F
:1035F3008519837401F0EEF8EFF9E875F012A4F879
:1036030075F012E9A42AF9123645120AD312365379
:1036130060C175080080AD023C4DEE24010EEF340D
:1036230000FF22E875F012A4F8AAF075F012E9A4DD
:103633002AF912363922742528F582740B39F58359
:10364300E022742728F582740B391246BA740B22D0
:10365300E8F0A3E9123D80120B58E922C082C0832F
:103663009003417416F0A3740EF002391574F71227
:10367300037BEAFEEBFF900377E06408601BE064E2
:103683000460168E828F83E0540364017048123AFB
:10369300D31241CBE06406703D8E828F83A3A3E0F7
:1036A30064FE7003A3E0F4602D8E828F83A3A312C4
:1036B3003CE9900368E0687003A3E069700BEE24B3
:1036C30015F582EF12634E6008120ED0E9F50880FB
:1036D30008120ED680F67508C2EEFAEFFB12157EBD
:1036E300022B8874F412037B8A088B098A828B83EA
:1036F300E0F8A3E0FAE82AFAE43400FB1215788A2A
:103703000A8B0BAE0AAF0BEE4F6063850882850907
:1037130083E0FC7D0079001214DC8E828F83A3A3E7
:10372300126C83120F128E828F83A3A3A3A3123C66
:1037330062850882850983E0F8EE28F8EF340012E9
:103743003CF1850882850983A3E0C0E0EE240D12D5
:103753005C7BD0E0F0120F24EE240E125C7BE912A6
:10376300532DE0C0E0EE2411125C7BD0E0F0EEFAC2
:10377300EFFB023E9F74F412037B74EB1208FB8A87
:10378300088B098C0A8D0BE9FE900377E0640460D3
:1037930005E06408700479C2802EA37808120A94A5
:1037A300EE90037E123953120A947405120AD3E978
:1037B300F07404120AD37401F07407120AD3E4F00C
:1037C30090037774021238B07415023E9C74F6129B
:1037D300037B74EB1208FBEAFEEBFF124F4F60030F
:1037E3000238747A077B00121578900339123C6211
:1037F300124F4F60788E828F83120AB090033A1271
:1038030041CE120ABC126B47C0E0123880D0E0F000
:10381300EE2405FAEF3400FB8A088B098A82F583CC
:10382300E0C0E012387BD0E0123E96E0C0E01238F0
:103833007BA3D0E0123CD6120AB085188285198387
:10384300120ABC88828983E0C0E07405120AD3D0CF
:10385300E0F0850882850983E0C0E07404120AD38E
:10386300D0E0F07407120AD31238AF8006791080C3
:103873000279017415023CFB123880A322900339AC
:10388300E0FAA3E0F5838A82A3A3A3A322C082C0A4
:1038930083124F4F600D900339125859900339E446
:1038A300F0A3F0120E40121014023915E4123D80F9
:1038B300121D4622C082C083900338E070031218A1
:1038C30024120BFA804CC082C083900338E090101E
:1038D300807004E4F0802D7401F0900338E0F4600C
:1038E300237C41E0C394415002E0FCECF8E0C39830
:1038F300F0EC75F0E8A4CCA8F075F003A428FD7AE9
:103903008012471E7A807B107941121D2E8003128C
:103913000BA6D083D08202082F74F412037B74EBBE
:103923001208FB8A088B098C0A8D0B9003777401AC
:10393300123953120A947405120AD3E9F07404126B
:103943000AD37403F07407120AD31238AF0237CBC9
:10395300123CE178082274F712037B7C01120C0CF1
:10396300023C5274F212037B74FC1208FBE98518C3
:1039730082851983F0EAFEEBFF8C0A900375124AE5
:1039830004120E348A088B09EA4509700579CA02C4
:103993003ACE8A828B83A3A3A3A3A3A3A3E064FE4B
:1039A3007003A3E0F4700579C3023ACE9003751255
:1039B30053CC12107A850882850983A3A3A3A3A3FA
:1039C300A3A3A3A3A3E004900388123C31740212BF
:1039D3000AD37402F014120AD3AA82AB83120F7EA5
:1039E3008A0C8B0DAE0CAF0DEE4F7003023AC5126D
:1039F3003AD31243407406F0A3A882A983900362CA
:103A0300125896124699F0EE2413125C7B7401123D
:103A130056D87440F0A3E4125326A3A3123AE0123B
:103A23003CF5EE2411125C7BE50AF0EEFAEFFB1293
:103A33000BD6E9FE6003023AC79003777409F012CC
:103A4300346FAA08FB794B121D2E850882850983E2
:103A5300123C23123CF590036AE0F885188285191D
:103A630083E068600CE090036A123D7C79E1121DEB
:103A73002E9010CA123CE99010CCE0687003A3E0CA
:103A830069601A90033B123CF59010CC1253CC1290
:103A93000F3C9010CC124A047A0112471E7A007B25
:103AA300049003C2E0F91216389010CC123AD8747D
:103AB3000278081209FFAC08AD09FA7B041247200B
:103AC30080027E1090054FE4F0EEF974040251C4B5
:103AD300EE125C8A22E0F508A3E0F50922123AE42B
:103AE30022122DC8A32274F512037B74E21208FB81
:103AF300851882851983ECF0A3EDF0EAFEEBFF89CC
:103B0300087429120AD3E0F509742C120AD3E0F5DC
:103B13000A900377E064046005E06408700579C2E5
:103B2300023C1B742A120AD3E064FE7003A3E0F480
:103B3300700579C3023C1B9003777403123D7C79B3
:103B430050121D2E742A120AD3AA82AB83794B1208
:103B53001D2E851882851983123C2A123CF5E5082F
:103B630090036AF0742A120AD3123C23123CF5E53F
:103B730009900362123C3174CE55094480C0E0744D
:103B830012120AD3D0E0F07401250A900388F0746E
:103B93000F120AD37402F0742A120AD3123CE97486
:103BA30007120AD3E8F0A3E9123C687410120AD38F
:103BB300123CF57405120AD3E508F0741B120AD3FC
:103BC300E4F090037D740FF07A7D7B037954121D2A
:103BD3002E90037C740FF07A7C7B037947121D2EA1
:103BE30090037CE0C3940F50237405120AD3E0C002
:103BF300E07402120AD3D0E0F07404120AD3740101
:103C0300F004120AD3AA82AB83121D527405120A5E
:103C1300D3AA82AB83121D34741E120897022A4F53
:103C23001246BC90036B221246BC90037522F0EE41
:103C3300FCEFFD7A897B03121D162274F712037BB6
:103C4300EB90037FF0120E228005740D1208977F0C
:103C530001020595123C5DA3E022123CD6A322EAA1
:103C6300F0A3EBF022123CDCF8A3E0F92274F71284
:103C7300037B74F81208FBEAFEEBFF7900900377ED
:103C8300E06408704485188285198374FDF0A37479
:103C9300FFF0120F0C7402120AD3123C6274051265
:103CA3000AD3E4123C5DE0C0E07404120AD3D0E00E
:103CB300123CD1C0E07406120AD3D0E0F0740712AC
:103CC3000AD3E4123D7C120F607408023C4F123C8D
:103CD300D6E022F08E828F8322123CE1E022F0852F
:103CE3001882851983221246BC22E0F8A3E0F91258
:103CF3005C89E8F0A3E9F0221208977F0202059598
:103D0300C082C08390034974C6F0A3740CF090037F
:103D1300EF74BAF0A3740FF090034D74FCF0A37426
:103D23000CF090034F74C6F0A3740CF0900351741D
:103D330002F0A3740DF002391574F412037B74F9C5
:103D43001208FB8A088B098C0A8D0B85188285194A
:103D5300837808120A947404120AD3E9F0740512E2
:103D63000AD3E4F07406120AD3E4123D7C120BE882
:103D73007407023E9CE8F0A3E9123D8022123CE165
:103D8300AA82AB832274F412037B8A088B098A828A
:103D93008B83125C97EE4F7003023E9490031212D2
:103DA3004F5260158A828B83A3A3E0F9EEFAEFFBEF
:103DB3009003131241CE121F018E828F83A3A3A3FC
:103DC300A3A3A3A3A3A3E0640270748E828F83A32F
:103DD300A3A3A3A3A3E054027003023E6685088253
:103DE300850983A3A3E064E960798E828F83A3A30B
:103DF300A3A3A3A3A3A3A3A3E070149010DFE004E1
:103E03008E828F83A3A3A3A3A3A3A3A3A3A3F08EB1
:103E1300828F83A3A3A3A3A3A3A3A3A3A3E01412A7
:103E23003E96A3A3A37404F09010E01256D2E8F0D8
:103E3300A3E91267AB8B0BEA450B70031261898E02
:103E4300828F83A3A3A3A3A3A3A3A3A3E06402607A
:103E5300128E828F83A3A3A3A3A3A3A3A3A3E0642C
:103E630006702E8E828F83A3A3A3A3A3A3E0A2E055
:103E7300501F850882850983A3A3E0F9EEFAEFFBBF
:103E8300121DE88E828F83A3A3A3A3A3A3E054FEF2
:103E9300F080091240DD22740D1208977F04020599
:103EA3009574EC12037B74DD1208FBEAFEEBFF8CC6
:103EB300088D097437120AD3780C120A76750A0032
:103EC3007405120AD3AC82AD8312149A7412120AC7
:103ED300D3E070087415120AD3E060207405120A47
:103EE300D3E0A2E6501E8E828F83A3A3A3A3A3A332
:103EF300A3A3A31253CC120F96E960087903121CF3
:103F0300FE0240C37405120AD3E0540C6404700526
:103F1300750B018003750B00E0A2E55035750A01AE
:103F2300E50BA2E0402C120F128A108B11A810A9E6
:103F330011123AD3E0687003A3E0696015740512A7
:103F43000AD3126C8A1253C8121DF4E9600479046F
:103F530080AC7405120AD3E0A2E650227406120A5A
:103F6300D3E0540370187405120AD3E0540C640CA4
:103F7300600CE0540C640860057510018003751033
:103F8300007405120AD3E05403F8740268700C122B
:103F93006C8A1253C8120AF20240C3740168703A61
:103FA300E510A2E050031240CB7405120AD3A88295
:103FB300A9837403120AD3E8F0A3E91246B0851863
:103FC300828519831240D5E0C0E07402120AD3D06F
:103FD300E0123D7C121ED80240C3E860030240C3D6
:103FE30090035FE0640170108E828F83A3A3A3A369
:103FF300A3A3E07003023F517422120AD374021286
:1040030046B0741A120AD3123CF5E510A2E0500828
:104013007405120AD31240CBE50BA2E0506AEE24DA
:104023000FF582EF12634EC0E07417120AD3D0E08B
:10403300F0900314124F5270030240C3120F128AFE
:10404300128B13A812A913741A120AD3E06870030F
:10405300A3E069706B780C120847780A120853784A
:104063000812084FA910740C120AD3AC82AD8374E2
:1040730021120AD3AA82AB839003141241CB121FDD
:104083000174071208978038780C120847780A12CF
:104093000853780812084F900375120695EE241200
:1040A300F582EF12607C7423120AD3AC82AD837461
:1040B3000E120AD3AA82AB83121DDC74091208976D
:1040C3007423120897026776126C8A125867120AD1
:1040D300E622E8F0A3E91240DD221240E122F08E4D
:1040E300828F83A3A3A3A3A3A32274F712037B1238
:1040F3001716023C5274F712037B121728023C5224
:10410300C082C08312172202391574F712037B127F
:10411300172E023C5274F712037B7409120AD3E080
:10412300F508780812085312173A7401023C4FC07D
:1041330082C083121746023915C082C08312174CFE
:1041430002391574F712037B121752023C5274F7AB
:1041530012037BEAFEEBFF8908740165087014798A
:1041630000120D3E902859E493FC7900EEFAEFFB20
:10417300120CB4023C5274F412037B74F91208FB60
:10418300E9FE8A088B098C0A8D0B7413120AD31269
:1041930053CC90059B124F526027EE8518828519E8
:1041A30083F07401120AD37808120A94EAF8EBF93F
:1041B3007405120AD3123D7890059B1241CB121F4E
:1041C30001023D73FB90034BE0F8A3E0F583888283
:1041D3002274F712037B901083E0F97E00800B12A8
:1041E300633A540D64017001190E1243CE5003E972
:1041F30070ED023C5274F712037B901084E0F97E59
:1042030000800B12633A548D64817001190E1243BE
:10421300CE5003E970ED023C5274F212037B890B1A
:10422300E975F006A4240CF508E5F01234778A0C3E
:10423300E508250CFAE5093400FB1215788A0C8B86
:104243000DAE0CAF0DEE4F6027AC08AD097900122F
:1042530014DC123AD3E50BF0EE2508F8EF3509F933
:104263008E828F83A3A3A3A3A3A3A3A3A3123CF52B
:10427300EEFAEFFB0251C774F612037BEAFEEBFF83
:10428300120C90901082E0F8E9C39840099003451E
:104293001253CC120C96EE2402F8EF1259DC900361
:1042A30047125896900347E004F0EEFAEFFB120C26
:1042B3009C850882850983E0025E92C082C083796F
:1042C300009003458001091253CC8A828B83E582D7
:1042D300458370F202391574F712037BEAFEEBFF94
:1042E300EE4F6056900345124F52604E8882898389
:1042F3007A007B00EE65827003EF6583600FAA820C
:10430300AB83124340E5824583602F80E7900345EA
:1043130012434C687002EF698E828F837008123CDF
:10432300E99003458003126788123CF5EEFAEFFB30
:10433300121EA8EEFAEFFB12157E023C5212434402
:10434300221246C088828983221246BCEE22C08292
:10435300C083900345800488828983124F52600B87
:1043630088828983124A04EC4D70EC8A828B83E441
:10437300F0A3F0E8496006888289838003900345AF
:10438300123C6202391574F712037B9003458004D3
:104393008A828B831243C94B60257E0080010E12F3
:1043A30043CE50ECEE75F006A4FCADF0EA2CFCEB2A
:1043B3003DFDEC2410F582ED12441E70E180047A79
:1043C300007B00023C5212586BEA22124427EEC3D0
:1043D300982274F712037B7D0080010D124423EDB4
:1043E300C3985034ED75F006A4FEA8F0E8FFEA2E5A
:1043F300FEEB3FFFEE2410F582EF12441E70DCED5E
:1044030075F006A4FEE8FFEA2EFAEB3FFBEA24115F
:10441300F582EB12634E4CF0023C5212635A69224E
:1044230012442722126C94EB3400F583E0F82274D3
:10443300F612037B120DB67A007B008025EAF8EBB7
:10444300F9E875F006A4F8ACF075F006E9A42C12AF
:104453005840126B55A3E4125936F0A3126B5B124A
:104463006CD29028431230F640D37A007B00801C34
:104473008A088B09740378081209FF1252F4A37493
:10448300FEF0A304125716A3E4126CD290284D1227
:1044930044D140DC7A007B00801D8A088B097403B9
:1044A30078081209FF74C7125FC6740F12680D747F
:1044B300FEF0A304126CD29028531244D140DB9037
:1044C3002857E493900353F01244DB023CFEE49339
:1044D300F8C3EA98EB9400227CE87D037A107B0012
:1044E3009003C2E0F91216322274F012037B74F5C2
:1044F3001208FB8A088B09890A8C0BE9A2E0501485
:104503007508FC7509FFA2E15005D2E40245AED25D
:10451300E30245AE1251B37003A3E069700579005D
:1045230002467BAC0A7902AA08AB09120D92E96034
:10453300EDE50AF50C780C12085379027CFE7DFF39
:10454300AA08AB09124F2E120897E96003024679B5
:10455300E50AC2E5F50A9003B5E07051E50AA2E663
:10456300404B7403120AD3AC82AD83AA08AB091281
:104573000B34E9703212484F8A0C8B0DA80CA90D2D
:10458300E8FEE9FFE8496025EE24020A0AEF122E4D
:1045930006601AEE2402FCEF3400FD7403120AD302
:1045A300AA82AB83121D16E50AD2E5F50A900348E9
:1045B300E0F50C900368E0F50EA3E0F50F780E121A
:1045C300084F7D017C00900348E0F9AA0EAB0F125F
:1045D3000D4A7402120897E9F8900348E004F0E8E2
:1045E3006003024679E50AA2E55004740E80027462
:1045F30006C0E07401120AD3D0E0125CA88A0E8BC5
:104603000FAE0EAF0FEE4F60691246991246B08897
:104613008289837401F07478550AA3126C9AE50CAD
:10462300126C9AA3E508F0E509124688E4F0E50A5E
:10463300A2E5500F7403120AD3AC82AD83E82406BB
:1046430012467F8E828F83A3A374FDF0A374FFF0C1
:10465300E50B601590285AE493F8E50BC3985009CD
:10466300EE2413125C7BE50BF0EEFAEFFB120BD694
:1046730080067910800279C7740B8049FAE9340007
:10468300FB121D162288828983A3A3A3A312469437
:1046930022125A0FA322EE2417125C8C7401F0121B
:1046A3000F0CEE241A125C8CEAF0A3EB22F0126CCE
:1046B3008E34001246BA22F5831246C022E0F8A3D4
:1046C300E0F922740D1208977F0802059574F6121B
:1046D300037B7A007B1012619660089003D4740107
:1046E300F0802990063AE064019010DD7006E0FC4A
:1046F30079018004E0FC79037A007B00120CB4900A
:1047030028411247127A007B10124720023CFE1206
:10471300471622E493FC740193FD227B009003C2AD
:10472300E0F912162C2274EC12037B8A088B098C95
:104733000C8D0D890E7414120AD312510D741612B6
:104743000AD3E0F510A3E0F511120F96E960077A9A
:10475300FF7BFF02484C9010DCE0640260030248D8
:104763003F7900AA08AB09120D98A90E120D8C8A85
:10477300128B13AE12AF13EE4F70030248278E82D3
:104783008F83A3A3A3A3A3E064018E828F83A3A338
:1047930070691253CC8E828F83A3A3A3A3A3A3E038
:1047A30054186043902858E4938E828F83A3A3A365
:1047B300A3F0EA650C7003EB650D6014EA650A70FB
:1047C30003EB650B600AEA65107003EB6511701F5C
:1047D300781012084FAC0AAD0BAA0CAB0D12109255
:1047E30074021208978008900367126180A3F07423
:1047F300FE6A700374FF6B601D804EA3A3A3E06485
:104803000360298E828F83A3A3A3A3A3E064047010
:10481300057AFE0247548E828F83A3A3A3A3A3E04A
:10482300640270089003B4E06402701012484F8B66
:104833000BEA450B6006AA08AB09800DAA08AB0971
:104843009003491241CB121F010267769003751240
:104853004F341210562274F712037BEAFEEBFF1259
:104863000B88E9700AEEFAEFFB120B94E96006EE8F
:10487300FAEFFB80047AFE7BFF023C5274F01203D2
:104883007B8A0A8B0B8C0E8D0F8909750800120F1A
:1048930096E9790060030249F6AA0AAB0B120D9858
:1048A300A909120D8C8A0C8B0DAE0CAF0DEE4F6067
:1048B300198E828F83A3A3A3A3A3E06402705590F0
:1048C30003B4E0640270030249F4AA0AAB0B900339
:1048D3004F1241CB121F01120B9A8A0C8B0DA80C9D
:1048E300A90DE84970030249F488828983A3A3A32D
:1048F300A3A3E0A2E040030249F4750C01A2E15036
:10490300687901AC0AAD0BAA0EAB0F120CE4E97087
:10491300640249F48E828F83A3A3A3A3A3E0640359
:104923007005750C0280528E828F83A3A3A3A3A369
:10493300E0640160030249F4900375124A048E8215
:104943008F83124D598A0C8B0DA80CA90DE8496071
:10495300D1902851E493FA88828983E0C39A50C2A4
:10496300A3E060030249F480B988828983A3A3A3E7
:10497300A3A3D2E1F0EE4F603A8E828F83A3A3A369
:10498300A3A3A3E05418602B7508018E828F83A321
:10499300A3120695750CFE750DFF780C12084F795E
:1049A30000AC0AAD0BAA0EAB0F120DAA74041208C9
:1049B30097803E900368E0650E7004A3E0650F7076
:1049C30014902859E493FCA909AA0AAB0B120CB45E
:1049D300750801801CA90CAC0AAD0BAA0EAB0F1213
:1049E3000CE4E9700C750801A909AA0AAB0B120DB6
:1049F3003EA9080246CBE50C2415F582E50D125CB1
:104A03008F1256EC2274EA12037B74F01208FB8AAD
:104A13000C8B0D8C088D097426120AD3E0F514A3B0
:104A2300E0F5157512069003F5124F5260239003BB
:104A330075124A04AA08AB091210808A108B11EA76
:104A43004511600D8A828B83A3E070057900024DC6
:104A530041E50C241DF50EE50D3400F50F850E829E
:104A6300124F3EF51388828983A3A3A3E0FA8882B9
:104A73008983A3A3A3A3E0F9EA2400FEE439FFAAF0
:104A830008AB09120D44850E82850F83124D7CE01D
:104A930029F50BE50AA2E5500375120E7487550A32
:104AA30070177418550A6418600FE50C2417F58203
:104AB300E50D12634E651260077901121CFE808CAE
:104AC300530A78C3EE94F8EF94FF501D7900EEFA81
:104AD300EFFB124D4B601288828983A3A3A3A3A388
:104AE300A3E054186003024A4F780812084F7D0070
:104AF300124D6F120897E9F87403687003024A4F66
:104B0300E86003024BBA7418550A7003024C6FE550
:104B13000AD2E0F50AA2E45004D2E1F50AA90A1286
:104B230053C5124D4B605388828983A3A3A3A3A3C8
:104B3300A3E05418604488828983A3A3A3A3A3E0BA
:104B430064017036E51045116030900375124A0414
:104B530088828983124D598A0E8B0FA80EA90FE8FC
:104B630049601788828983A3E0600F8510828511CD
:104B730083A3125E9D5003024A4FE50AF50E780E99
:104B8300120853124D62120897E9702B7C007D00C6
:104B930085148285158374FFF0A3F0850C82850D3F
:104BA30083A3A3A3A3A3A3A3A3E060031249F9A927
:104BB3000B1253C5121740851482851583E0F470D8
:104BC30003A3E0F460399003B4E064027003024A83
:104BD3004F1250FEE0FAA3E01241C7121F01EA652B
:104BE300087003EB65096003024A4FEEFAEF1241C6
:104BF300C7121F01851482851583EAF0A3EBF078B1
:104C03000812084F7D01124D6F120897A90AEEFA98
:104C1300EFFB120D988A088B09A808A9099003686D
:104C2300E0687003A3E0696003024D32EEFAEFFB24
:104C3300120B9A8A088B09A808A909E849606E88AB
:104C4300828983A3A3A3A3E06401600D888289837F
:104C5300A3A3A3A3E064027054851882851983ACCF
:104C630082AD83EEFAEFFB120B348055900361E0C3
:104C7300600FE50AF50E780E120853124D62120802
:104C830097E50AF50E780E12085379027CFE7DFF34
:104C9300EEFAEFFB124F2E120897E96003024BBAAC
:104CA30085148285158374FFF0A3024C01120F0C47
:104CB300EAFCEBFD851882851983AA82AB83121D5A
:104CC30016850C82850D83A3A3A3A3A3A3A3A3E0AB
:104CD3006401700F1249F97408120AD3AA82AB83D4
:104CE300121D16124F08125B144430F5087808128F
:104CF30008537401120AD385820885830978081240
:104D0300084F740B120AD385820885830978081229
:104D1300084FE513F50878081208537900EEFCEF05
:104D2300FD1253C5120CDE7406120897024A4F1285
:104D33004F08125C7E124D7CE50BF0120F247410A9
:104D43001208977F0E020595120D8C8A0E8B0FA801
:104D53000EA90FE84922A3A312586B1210802279DF
:104D630001AC08AD09125860124F2E22AC0BA913E7
:104D7300125860120D4A740222125B1CA3A3A3A350
:104D83002274F012037B74F01208FB8A0C8B0DEC77
:104D9300FAEDFB750F089003F5124F526014125E83
:104DA300968A828B83E58245836007A3E0700302C2
:104DB3004F03124F083400124F3EF50B888289834C
:104DC300124F11E0FBEC2400FEE43BFF8882898351
:104DD300A3A3124F11A3A3E0FBECF508E43BF509F1
:104DE30088828983A3A3A3A3A3A3A3E0F50EE50A63
:104DF300A2E45003750F10A2E550067408250FF5C1
:104E03000F748F550A700FE50C2417F582E50D1208
:104E1300634E650F60087901121CFE024F03530AAB
:104E2300707800E50AA2E45022124F0812634E2460
:104E330008FCA3E03400FD7408120AD3AA82AB83F2
:104E4300121D167808E50AC2E4F50AE50AA2E55040
:104E530028124F0812634E28F8A3E03400F9E8241F
:104E630008FCE93400FD851882851983AA82AB8387
:104E7300121D16E50AC2E5F50AAC0EA90BEEFAEF10
:104E8300FB120D50E9F87403686075900368E06ED7
:104E93007003A3E06F605EE87054E50AF50F780FC6
:104EA300120853124F1F120897E97054780A120818
:104EB300537401120AD385820C85830D780C120872
:104EC3004F740B120AD385820C85830D780C12085C
:104ED3004FE50BF50A780A120853A90EAC08AD0981
:104EE300EEFAEFFB120CDE740612089780127404BC
:104EF30068700D80B7780A120853124F1F12089773
:104F030074100246C8E50C241DF582E50D22A3A307
:104F1300A3E0FC88828983A3A3A3A322790112516E
:104F230005125C8F124F34124F2E22120D0874019A
:104F330022E0FCA3E0FDAA08AB0922F58312434457
:104F4300A3E0F50A88828983A3A3E02290033912A0
:104F530058C72274E812037B74F51208FBEAFEEBD0
:104F6300FF8C088D0989147423120AD3E0F50F749A
:104F730024120AD3E0F512A3E0F5137426120AD320
:104F8300E0F516A3E0F5177428120AD3E0F50EA98D
:104F93000F120D568A108B117401120AD37408F084
:104FA300E50EA2E450037410F0E50EA2E55004E010
:104FB3002408F0851882851983AA82AB83120F7E99
:104FC3008A0C8B0DEA450D70030250E5EA2417F5B0
:104FD30082EB1250F7120F0CE50C241AF582E50D43
:104FE300125C7E123C627403120AD3AC82AD83AAB4
:104FF30010AB11120B34E9601D1250EF7403120A47
:10500300D3A882A983E50C2418F582E50D125C7EF2
:10501300E8F0A3E98024E50EA2E4501FE5106E70CA
:1050230003E5116F70151250EFE50C2418F582E5B6
:105033000D125C7EE512F0A3E513F01250FE12513F
:105043000D850A82F5837402F0A3E50E125115E56E
:105053000FF0EE850A82850B83A3A3A3F0EF850AE5
:1050630082850B83A3A3A3A3125115A3A3A3E508CE
:10507300F0E509850A82850B83A3A3A3A3A3A3F069
:10508300AA10AB11120D44E92514850A82850B83FE
:10509300A3A3A3A3A3A3A3F0750800E50EA2E45062
:1050A30011AC12AD13E50A2408FAE50B124681751B
:1050B3000808E50EA2E55014AC16AD17E50A25085D
:1050C300F8E50B3400F9E8240812467F850C828545
:1050D3000D83A3A3E510F0A3E511F0AA0CAB0D1209
:1050E3000BD6740B1208977F10020595E50C241656
:1050F300F582E50D125C8F7401F022125105125CEA
:105103008F22E50C126C95E50D22E0F50AA3E0F57C
:105113000B22F0850A82850B83A3A32274F2120368
:105123007B8A088B09ECFEEDFF890A79001251B3E3
:105133007003A3E069700479018073750B01900318
:1051430068E065087004A3E06509601F750B0078CB
:105153000B120853A90AEEFCEFFDAA08AB09120FC4
:10516300D27401120897E9F50B80417900EEFAEF4A
:10517300FB120D8CEA4B602B8A828B83A3A3A3A320
:10518300A3A3E05418601C7508FE7509FF78081284
:10519300084F8A828B83A3A3120695126AAA120868
:1051A3009780097901EEFAEFFB120C6CA90B8014BE
:1051B300120D988A0C8B0DA80CA90D900368E0685A
:1051C300221208977F0602059574F412037B750873
:1051D3000F75090E7A101267B28B0BEA450B700339
:1051E3001244DB900353E014F0700C902857E493BF
:1051F300900353F0120DA47E007F00806C8508821B
:10520300850983A3A3A3A3E06059F46056E50824AA
:1052130004F582E50912617A70498508828509835C
:10522300A3A3A3A3A3E0640370197902850882856D
:105233000983124A04850882850983A3A31253CCE8
:10524300120CE4850882850983A3A3A3A3A3E064C6
:1052530001601085088285098374FEF0A30412534C
:1052630026E4F012361D12346F90284512690E4061
:105273008C7E007F008039120EB28E088F09740372
:1052830078081209FF74872508FC740F3509FD7A25
:10529300F07B0C120EA0EA4B70DD8E088F097403AD
:1052A30078081209FF1252F4126B55E4F012361DFE
:1052B30090284DE493F8C3EE98EF9400501B8E08AA
:1052C3008F09740378081209FF1252FCE82407F5CA
:1052D30082E912617A70D680A17E007F00800A1273
:1052E3005307600214F012361D12690B40F1023E9F
:1052F3009F1252FC888289832274872508F8740FD1
:105303003509F922EEF8EFF9E875F006A4F8AAF0EA
:1053130075F006E9A42AF9742728F582740F39F584
:1053230083E02212532DA3A3A322F08508828509CB
:1053330083A3A32274F712037B74E11208FBECFE30
:10534300EDFF750800EE4F60728A828B83E0241CA8
:105353001261AB124F5260638A828B831253CC85E6
:105363001882851983AC82AD83EA241BF582EB1284
:10537300607CEA241CF582EB1253C8120EF4740B02
:10538300120AD31253D07003A3E069702E74021271
:105393000AD3E064017024741D120AD31241CBE0D6
:1053A30064017017741D120AD31241CDA3A3E0F850
:1053B3008E828F83E0687003750801A908741F0249
:1053C3003C4F1251053400F58312586B22122DC441
:1053D300E0682274F412037BE97024790090034D92
:1053E3001241CB121F018A0A8B0BAE0AAF0B74FE5C
:1053F3006E700374FF6F701A902854E493601379EE
:105403000190034D1241CB121F018A0A8B0BAE0A86
:10541300AF0B120F4202377174F612037B74F3124F
:1054230008FB1214EE8A088B09AE08AF09900368D3
:10543300E06E7003A3E06F60E9120F18EA6E70026A
:10544300EB6F60DEEEFAEFFB120F96E970D4EE4FCE
:1054530060D0851882851983E4F004120AD3EEF034
:10546300A3EF12547EE970BA74FE6E700374FF6F7B
:1054730060B0EEFAEFFB740D023CFB123D80120BA1
:105483004C22C082C083120F420239157F0A0205E3
:105493009574F212037BEAFEEBFF8C0A8D0B8908ED
:1054A300740E120AD3E0F50974FC6E700374FF6F77
:1054B300700579000251C77900120D988A0C8B0D83
:1054C300AE0CAF0D900368E06E7003A3E06F70063F
:1054D300E509A2E650DCA909126998706179007A9E
:1054E300FE7BFF12699870567418550970030255B4
:1054F300CB780079008003122FBE902845122FB578
:1055030040030255CBE8FAE9FBEA75F007A4FAACCD
:10551300F075F007EBA42CFB74152AF582740E3B8F
:10552300F583E0541870D0E875F007A4F8AAF07575
:10553300F007E9A42AF9740F28F8740E39F9888260
:105543008983A3A3A3A3A3A3E054186009741855E4
:105553000970030254B588828983EEF0A3EFF074D7
:10556300FE650A700474FF650B60031256F28882AD
:105573008983A3A3A3A3A3A3E509F0A2E0500D8805
:10558300828983A3A3A3A3A3A3D2E2F07401650832
:1055930088828983A3A3A3A3A37038740112571627
:1055A300E054186028902858E49388828983A3A341
:1055B300A3A31256E01210808B0DEA450D6003027F
:1055C30054B578007900803979020254B7900367A3
:1055D300E080D7E0640170030254B588828983A315
:1055E300A3A3A3A3A3E054186007902858E49380CF
:1055F30004900366E0124688E508F00254B5122FC2
:10560300BE90284EE493FAC3E89AE994004003025B
:1056130054B57A007B00804BEAFCEBFDEC75F00798
:10562300A4FCAEF075F007EDA42EFD74112CF582E9
:10563300740E3DF583125C97E8FCE9FDEC75F017F9
:10564300A4FC85F00975F017EDA42509FD749F2CC2
:10565300F582740C3DF583E06E7003A3E06F609EEA
:105663001234F290284512347F40AD124712EC6A8F
:105673007002ED6B7088E875F017A4F8AAF075F066
:1056830017E9A42AF9749F28FE740C39FF7C177D4F
:10569300007900EEFAEFFB1214DC8E828F83125630
:1056A300F89003751256D2A3A3A3A3A3A3E8F0A370
:1056B300E91256D87401F0EE240E125C7B740112C9
:1056C300570012022AEE240D125C7BE80255FD12EC
:1056D3003AE4A3A322F0EE240F125C8C22F01256BC
:1056E300E9AA0AAB0B22900375E0FCA3E0FD228834
:1056F300828983A3A3E50AF0A3E50BF022F01257F6
:105703000522902851E4932401F8E43400F97A0245
:105713007B0022124694A32274ED12037B8A088B2A
:1057230009890E125849400579050258171217883E
:10573300AA08AB0912591B90284312581A650A701C
:1057430003E9650B70077AFE7BFF12591B90284310
:10575300E4125822E50A98E50B9940030258151202
:1057630058266012E50A75F006A4F875F006E50BF5
:1057730012587112157EE50E6018E50A75F006A43D
:10578300F8AAF075F006E50B12589D701A7901021C
:105793005817E50A75F006A4F8AAF075F006E50BAC
:1057A30012587EE4F0A3F0E50A75F006A4F8AAF017
:1057B30075F006E50B12583EA3125B2A8882898393
:1057C300A3AA82AB8312588C8A828B83E0603F1238
:1057D3005826603A8E108F11751200781012084BFC
:1057E300E50EC333FCE433FDE50A75F006A4F50AC0
:1057F300A8F075F006E50BA428F50B742B250AF524
:1058030082740F350B1253CA123490120897790021
:10581300800279070269AE123117E8229004F6126A
:10582300633522E50A75F006A4F8AAF075F006E5DB
:105833000B125879F8A3E0F9E84922A42A1259D2A5
:1058430088828983A322ECFEEDFF90284FE493F82E
:10585300E9C39822F58312586B12157E22E50C12C8
:105863006C95E50D3400F583E0FAA3E0FB221258B2
:1058730079FAA3E0FB2212587EE022A42AF9742BC2
:1058830028F582740F39F58322E50EF09010DE12AD
:10589300589622E088828983F0221259F6F50CE9A2
:1058A3003400F50DE50EC333FAE433FB12157885A6
:1058B3000C82850D83EAF0A3EBF0850C82850D83C2
:1058C3001258C7221246C0E8492274F412037BEC33
:1058D300FEEDFF740C120AD3123CE9880889091201
:1058E300591BAC0AAD0BECF8EDF990284312592380
:1058F3005021E875F006A4F8AAF075F006E91258ED
:105903003EE08E828F8312593612592C123CF57960
:105913000080027904023E9F120D1A8A0A8B0B2221
:10592300123488C3EC9AED9B221246BC850882850B
:10593300098322125A0B2274F612037B7E007F0026
:105943008028EEF8EFF9E875F006A4F8ACF075F0EE
:1059530006E9A42CF9742928F582740F1265B96A33
:105963007003A3E06B605712361D12690B40D3120C
:1059730069067002E96F704674FE6A700374FF6B08
:10598300703C7E007F00800312361D12690B502E7F
:1059930012530770F3EEF8EFF9E875F006A4F81266
:1059A30059C81259FD60171259E4F8E91259DC88F5
:1059B30082125857850882850983E4F0A3F0EEFA32
:1059C300EFFB023CFE75F006E91259D022A42AF936
:1059D300742728F8740F39F9223400F988088909E3
:1059E30022EEF8EFF9E875F006A4F875F006E9126F
:1059F30059F6221259D0E8240422A3A374FE125AA2
:105A0300081258C722F0A304125A0F22F088828981
:105A130083A3A3A3A32274F612037BEA241DF582B6
:105A2300EB125B14F9604BEA241DF582EB12634E13
:105A33002402FCA3E03400FD12584D4003025B072F
:105A4300780080298C828D83E0F508A3E0FFE508C8
:105A53002400E43FF509E833FEE433FF746F2EF5C9
:105A630082740F3FF583125B2A125B0A08E8C3991D
:105A730040D28A828B83A3A3A3A3A3A3A3A3A3122A
:105A83004A04900368E06C7003A3E06D700F7C6FB1
:105A93007D0F122D2D1253C8120D0E8067EA2411AB
:105AA300F582EB12634E605CFC74FF2CF075080109
:105AB300780812085375086F75090F780812084F94
:105AC300E9F5087808120853EA2412F582EB126309
:105AD3004EF5087808120853EA2415F582EB125C98
:105AE3007E120695ECF9122D2D124A018A828B83C0
:105AF300A3A3A3A3A3A3A3A3A31253CC120D2674FE
:105B030007120897023CFEEC24020C0CED3400FD56
:105B130022125C8F125B1CE022E0F8A3E0F583887D
:105B230082A32288828983E508F0A3E509F0227421
